{
    "push0Gas_d0g0v0_Berlin" : {
        "_info" : {
            "comment" : "",
            "filling-rpc-server" : "evm version 1.11.0-unstable-2f73f4f0-20230207",
            "filling-tool-version" : "retesteth-0.2.3-postmerge+commit.aa8a0660.Linux.g++",
            "generatedTestHash" : "1867780178cd915bd9b6fcf26361912abb1600b92841380738425863fc8cf9c5",
            "lllcversion" : "Version: 0.5.14-develop.2023.2.7+commit.a096d7a9.Linux.g++",
            "solidity" : "Version: 0.8.5+commit.a4f2e591.Linux.g++",
            "source" : "src/GeneralStateTestsFiller/EIPTests/stEIP3855/push0GasFiller.yml",
            "sourceHash" : "85ccfe480b7de52d06b5b3db6bad8f3505f199d91ca98b9dc928a32b399d4fd0"
        },
        "blocks" : [
            {
                "blockHeader" : {
                    "bloom" : "0x00000000000000000000000000000000000000000000000000000000000000000000000000000000000000000000000000000000000000000000000000000000000000000000000000000000000000000000000000000000000000000000000000000000000000000000000000000000000000000000000000000000000000000000000000000000000000000000000000000000000000000000000000000000000000000000000000000000000000000000000000000000000000000000000000000000000000000000000000000000000000000000000000000000000000000000000000000000000000000000000000000000000000000000000000000000",
                    "coinbase" : "0x2adc25665018aa1fe0e6bc666dac8fc2697ff9ba",
                    "difficulty" : "0x020000",
                    "extraData" : "0x00",
                    "gasLimit" : "0x05500000",
                    "gasUsed" : "0x0186a0",
                    "hash" : "0x8fe12b8fbd8ccf563de2983d9bc00ae3abc082afaa84e0eadece448670597e72",
                    "mixHash" : "0x0000000000000000000000000000000000000000000000000000000000000000",
                    "nonce" : "0x0000000000000000",
                    "number" : "0x01",
                    "parentHash" : "0x9c03f2652735c53cf41178da932b640e1b4b2838ceab95483fe3062ad3557cf7",
                    "receiptTrie" : "0x777f1c1c378807634128348e4f0eeca6a0e7f516ea411690ca04266323f671a4",
                    "stateRoot" : "0x1355bb331b329e60e5f2c37f5e3e98faf6638515d003827fb5bcf2dfec08753c",
                    "timestamp" : "0x03e8",
                    "transactionsTrie" : "0xd10b95f7e7ff07b46282ae946d81c9f0d825ae9e056ecd7f10333b0daeb30e03",
                    "uncleHash" : "0x1dcc4de8dec75d7aab85b567b6ccd41ad312451b948a7413f0a142fd40d49347"
                },
                "rlp" : "0xf90261f901f9a09c03f2652735c53cf41178da932b640e1b4b2838ceab95483fe3062ad3557cf7a01dcc4de8dec75d7aab85b567b6ccd41ad312451b948a7413f0a142fd40d49347942adc25665018aa1fe0e6bc666dac8fc2697ff9baa01355bb331b329e60e5f2c37f5e3e98faf6638515d003827fb5bcf2dfec08753ca0d10b95f7e7ff07b46282ae946d81c9f0d825ae9e056ecd7f10333b0daeb30e03a0777f1c1c378807634128348e4f0eeca6a0e7f516ea411690ca04266323f671a4b901000000000000000000000000000000000000000000000000000000000000000000000000000000000000000000000000000000000000000000000000000000000000000000000000000000000000000000000000000000000000000000000000000000000000000000000000000000000000000000000000000000000000000000000000000000000000000000000000000000000000000000000000000000000000000000000000000000000000000000000000000000000000000000000000000000000000000000000000000000000000000000000000000000000000000000000000000000000000000000000000000000000000000000000000000000000083020000018405500000830186a08203e800a00000000000000000000000000000000000000000000000000000000000000000880000000000000000f862f860800a830186a094000000000000000000000000000000000000010080801ca0753590b1e64336e51b421406117bb41e0276af5c97af6cb5b4fae36ef8a06ff4a028cacd94912f457a7154683fc73136dc930f2834483e6c655904e2e32a82210ac0",
                "transactions" : [
                    {
                        "data" : "0x",
                        "gasLimit" : "0x0186a0",
                        "gasPrice" : "0x0a",
                        "nonce" : "0x00",
                        "r" : "0x753590b1e64336e51b421406117bb41e0276af5c97af6cb5b4fae36ef8a06ff4",
                        "s" : "0x28cacd94912f457a7154683fc73136dc930f2834483e6c655904e2e32a82210a",
                        "sender" : "0xa94f5374fce5edbc8e2a8697c15331677e6ebf0b",
                        "to" : "0x0000000000000000000000000000000000000100",
                        "v" : "0x1c",
                        "value" : "0x00"
                    }
                ],
                "uncleHeaders" : [
                ]
            }
        ],
        "genesisBlockHeader" : {
            "bloom" : "0x00000000000000000000000000000000000000000000000000000000000000000000000000000000000000000000000000000000000000000000000000000000000000000000000000000000000000000000000000000000000000000000000000000000000000000000000000000000000000000000000000000000000000000000000000000000000000000000000000000000000000000000000000000000000000000000000000000000000000000000000000000000000000000000000000000000000000000000000000000000000000000000000000000000000000000000000000000000000000000000000000000000000000000000000000000000",
            "coinbase" : "0x2adc25665018aa1fe0e6bc666dac8fc2697ff9ba",
            "difficulty" : "0x020000",
            "extraData" : "0x00",
            "gasLimit" : "0x05500000",
            "gasUsed" : "0x00",
            "hash" : "0x9c03f2652735c53cf41178da932b640e1b4b2838ceab95483fe3062ad3557cf7",
            "mixHash" : "0x0000000000000000000000000000000000000000000000000000000000000000",
            "nonce" : "0x0000000000000000",
            "number" : "0x00",
            "parentHash" : "0x0000000000000000000000000000000000000000000000000000000000000000",
            "receiptTrie" : "0x56e81f171bcc55a6ff8345e692c0f86e5b48e01b996cadc001622fb5e363b421",
            "stateRoot" : "0x05f9411234115ad4b3a6925233154484dae5506e0606639be8e4437ef8d52f5b",
            "timestamp" : "0x00",
            "transactionsTrie" : "0x56e81f171bcc55a6ff8345e692c0f86e5b48e01b996cadc001622fb5e363b421",
            "uncleHash" : "0x1dcc4de8dec75d7aab85b567b6ccd41ad312451b948a7413f0a142fd40d49347"
        },
        "genesisRLP" : "0xf901f9f901f4a00000000000000000000000000000000000000000000000000000000000000000a01dcc4de8dec75d7aab85b567b6ccd41ad312451b948a7413f0a142fd40d49347942adc25665018aa1fe0e6bc666dac8fc2697ff9baa005f9411234115ad4b3a6925233154484dae5506e0606639be8e4437ef8d52f5ba056e81f171bcc55a6ff8345e692c0f86e5b48e01b996cadc001622fb5e363b421a056e81f171bcc55a6ff8345e692c0f86e5b48e01b996cadc001622fb5e363b421b901000000000000000000000000000000000000000000000000000000000000000000000000000000000000000000000000000000000000000000000000000000000000000000000000000000000000000000000000000000000000000000000000000000000000000000000000000000000000000000000000000000000000000000000000000000000000000000000000000000000000000000000000000000000000000000000000000000000000000000000000000000000000000000000000000000000000000000000000000000000000000000000000000000000000000000000000000000000000000000000000000000000000000000000000000000000083020000808405500000808000a00000000000000000000000000000000000000000000000000000000000000000880000000000000000c0c0",
        "lastblockhash" : "0x8fe12b8fbd8ccf563de2983d9bc00ae3abc082afaa84e0eadece448670597e72",
        "network" : "Berlin",
        "postState" : {
            "0x0000000000000000000000000000000000000100" : {
                "balance" : "0x00",
                "code" : "0x5a6000555f5a6000540360015500",
                "nonce" : "0x00",
                "storage" : {
                }
            },
            "0x2adc25665018aa1fe0e6bc666dac8fc2697ff9ba" : {
                "balance" : "0x1bc16d674ed74240",
                "code" : "0x",
                "nonce" : "0x00",
                "storage" : {
                }
            },
            "0xa94f5374fce5edbc8e2a8697c15331677e6ebf0b" : {
                "balance" : "0x895440",
                "code" : "0x",
                "nonce" : "0x01",
                "storage" : {
                }
            }
        },
        "pre" : {
            "0x0000000000000000000000000000000000000100" : {
                "balance" : "0x00",
                "code" : "0x5a6000555f5a6000540360015500",
                "nonce" : "0x00",
                "storage" : {
                }
            },
            "0xa94f5374fce5edbc8e2a8697c15331677e6ebf0b" : {
                "balance" : "0x989680",
                "code" : "0x",
                "nonce" : "0x00",
                "storage" : {
                }
            }
        },
        "sealEngine" : "NoProof"
    },
    "push0Gas_d0g0v0_Berlin+3855" : {
        "_info" : {
            "comment" : "",
            "filling-rpc-server" : "evm version 1.11.0-unstable-2f73f4f0-20230207",
            "filling-tool-version" : "retesteth-0.2.3-postmerge+commit.aa8a0660.Linux.g++",
            "generatedTestHash" : "455b45cea85111e10d7c41bc0c69ab66db70716f3717dc257cedf4a68c308c25",
            "lllcversion" : "Version: 0.5.14-develop.2023.2.7+commit.a096d7a9.Linux.g++",
            "solidity" : "Version: 0.8.5+commit.a4f2e591.Linux.g++",
            "source" : "src/GeneralStateTestsFiller/EIPTests/stEIP3855/push0GasFiller.yml",
            "sourceHash" : "85ccfe480b7de52d06b5b3db6bad8f3505f199d91ca98b9dc928a32b399d4fd0"
        },
        "blocks" : [
            {
                "blockHeader" : {
                    "bloom" : "0x00000000000000000000000000000000000000000000000000000000000000000000000000000000000000000000000000000000000000000000000000000000000000000000000000000000000000000000000000000000000000000000000000000000000000000000000000000000000000000000000000000000000000000000000000000000000000000000000000000000000000000000000000000000000000000000000000000000000000000000000000000000000000000000000000000000000000000000000000000000000000000000000000000000000000000000000000000000000000000000000000000000000000000000000000000000",
                    "coinbase" : "0x2adc25665018aa1fe0e6bc666dac8fc2697ff9ba",
                    "difficulty" : "0x020000",
                    "extraData" : "0x00",
                    "gasLimit" : "0x05500000",
                    "gasUsed" : "0xff26",
                    "hash" : "0x6606078e6f7ff7ef0770f652e10af7a58facee779d8af3fa0e57c0007af770c9",
                    "mixHash" : "0x0000000000000000000000000000000000000000000000000000000000000000",
                    "nonce" : "0x0000000000000000",
                    "number" : "0x01",
                    "parentHash" : "0x9c03f2652735c53cf41178da932b640e1b4b2838ceab95483fe3062ad3557cf7",
                    "receiptTrie" : "0xda829b2d9a360e283cec036c053ef292dde9a081f2a9190ab15de326713676b0",
                    "stateRoot" : "0x7fd3e9752d77513650bbc9d7d401c7527ef85572b401e8b49e54f68e8ec04ead",
                    "timestamp" : "0x03e8",
                    "transactionsTrie" : "0xd10b95f7e7ff07b46282ae946d81c9f0d825ae9e056ecd7f10333b0daeb30e03",
                    "uncleHash" : "0x1dcc4de8dec75d7aab85b567b6ccd41ad312451b948a7413f0a142fd40d49347"
                },
                "rlp" : "0xf90260f901f8a09c03f2652735c53cf41178da932b640e1b4b2838ceab95483fe3062ad3557cf7a01dcc4de8dec75d7aab85b567b6ccd41ad312451b948a7413f0a142fd40d49347942adc25665018aa1fe0e6bc666dac8fc2697ff9baa07fd3e9752d77513650bbc9d7d401c7527ef85572b401e8b49e54f68e8ec04eada0d10b95f7e7ff07b46282ae946d81c9f0d825ae9e056ecd7f10333b0daeb30e03a0da829b2d9a360e283cec036c053ef292dde9a081f2a9190ab15de326713676b0b90100000000000000000000000000000000000000000000000000000000000000000000000000000000000000000000000000000000000000000000000000000000000000000000000000000000000000000000000000000000000000000000000000000000000000000000000000000000000000000000000000000000000000000000000000000000000000000000000000000000000000000000000000000000000000000000000000000000000000000000000000000000000000000000000000000000000000000000000000000000000000000000000000000000000000000000000000000000000000000000000000000000000000000000000000000000008302000001840550000082ff268203e800a00000000000000000000000000000000000000000000000000000000000000000880000000000000000f862f860800a830186a094000000000000000000000000000000000000010080801ca0753590b1e64336e51b421406117bb41e0276af5c97af6cb5b4fae36ef8a06ff4a028cacd94912f457a7154683fc73136dc930f2834483e6c655904e2e32a82210ac0",
                "transactions" : [
                    {
                        "data" : "0x",
                        "gasLimit" : "0x0186a0",
                        "gasPrice" : "0x0a",
                        "nonce" : "0x00",
                        "r" : "0x753590b1e64336e51b421406117bb41e0276af5c97af6cb5b4fae36ef8a06ff4",
                        "s" : "0x28cacd94912f457a7154683fc73136dc930f2834483e6c655904e2e32a82210a",
                        "sender" : "0xa94f5374fce5edbc8e2a8697c15331677e6ebf0b",
                        "to" : "0x0000000000000000000000000000000000000100",
                        "v" : "0x1c",
                        "value" : "0x00"
                    }
                ],
                "uncleHeaders" : [
                ]
            }
        ],
        "genesisBlockHeader" : {
            "bloom" : "0x00000000000000000000000000000000000000000000000000000000000000000000000000000000000000000000000000000000000000000000000000000000000000000000000000000000000000000000000000000000000000000000000000000000000000000000000000000000000000000000000000000000000000000000000000000000000000000000000000000000000000000000000000000000000000000000000000000000000000000000000000000000000000000000000000000000000000000000000000000000000000000000000000000000000000000000000000000000000000000000000000000000000000000000000000000000",
            "coinbase" : "0x2adc25665018aa1fe0e6bc666dac8fc2697ff9ba",
            "difficulty" : "0x020000",
            "extraData" : "0x00",
            "gasLimit" : "0x05500000",
            "gasUsed" : "0x00",
            "hash" : "0x9c03f2652735c53cf41178da932b640e1b4b2838ceab95483fe3062ad3557cf7",
            "mixHash" : "0x0000000000000000000000000000000000000000000000000000000000000000",
            "nonce" : "0x0000000000000000",
            "number" : "0x00",
            "parentHash" : "0x0000000000000000000000000000000000000000000000000000000000000000",
            "receiptTrie" : "0x56e81f171bcc55a6ff8345e692c0f86e5b48e01b996cadc001622fb5e363b421",
            "stateRoot" : "0x05f9411234115ad4b3a6925233154484dae5506e0606639be8e4437ef8d52f5b",
            "timestamp" : "0x00",
            "transactionsTrie" : "0x56e81f171bcc55a6ff8345e692c0f86e5b48e01b996cadc001622fb5e363b421",
            "uncleHash" : "0x1dcc4de8dec75d7aab85b567b6ccd41ad312451b948a7413f0a142fd40d49347"
        },
        "genesisRLP" : "0xf901f9f901f4a00000000000000000000000000000000000000000000000000000000000000000a01dcc4de8dec75d7aab85b567b6ccd41ad312451b948a7413f0a142fd40d49347942adc25665018aa1fe0e6bc666dac8fc2697ff9baa005f9411234115ad4b3a6925233154484dae5506e0606639be8e4437ef8d52f5ba056e81f171bcc55a6ff8345e692c0f86e5b48e01b996cadc001622fb5e363b421a056e81f171bcc55a6ff8345e692c0f86e5b48e01b996cadc001622fb5e363b421b901000000000000000000000000000000000000000000000000000000000000000000000000000000000000000000000000000000000000000000000000000000000000000000000000000000000000000000000000000000000000000000000000000000000000000000000000000000000000000000000000000000000000000000000000000000000000000000000000000000000000000000000000000000000000000000000000000000000000000000000000000000000000000000000000000000000000000000000000000000000000000000000000000000000000000000000000000000000000000000000000000000000000000000000000000000000083020000808405500000808000a00000000000000000000000000000000000000000000000000000000000000000880000000000000000c0c0",
        "lastblockhash" : "0x6606078e6f7ff7ef0770f652e10af7a58facee779d8af3fa0e57c0007af770c9",
        "network" : "Berlin+3855",
        "postState" : {
            "0x0000000000000000000000000000000000000100" : {
                "balance" : "0x00",
                "code" : "0x5a6000555f5a6000540360015500",
                "nonce" : "0x00",
                "storage" : {
                    "0x00" : "0x013496",
                    "0x01" : "0x565b"
                }
            },
            "0x2adc25665018aa1fe0e6bc666dac8fc2697ff9ba" : {
                "balance" : "0x1bc16d674ed1f77c",
                "code" : "0x",
                "nonce" : "0x00",
                "storage" : {
                }
            },
            "0xa94f5374fce5edbc8e2a8697c15331677e6ebf0b" : {
                "balance" : "0x8e9f04",
                "code" : "0x",
                "nonce" : "0x01",
                "storage" : {
                }
            }
        },
        "pre" : {
            "0x0000000000000000000000000000000000000100" : {
                "balance" : "0x00",
                "code" : "0x5a6000555f5a6000540360015500",
                "nonce" : "0x00",
                "storage" : {
                }
            },
            "0xa94f5374fce5edbc8e2a8697c15331677e6ebf0b" : {
                "balance" : "0x989680",
                "code" : "0x",
                "nonce" : "0x00",
                "storage" : {
                }
            }
        },
        "sealEngine" : "NoProof"
    }
}