{
    "push0Gas2_d0g0v0_Berlin" : {
        "_info" : {
            "comment" : "",
            "filling-rpc-server" : "evm version 1.11.0-unstable-2f73f4f0-20230207",
            "filling-tool-version" : "retesteth-0.2.3-postmerge+commit.aa8a0660.Linux.g++",
            "generatedTestHash" : "20a7f4598286ea2b4e105e9970de5cd40de006f220f9d050c06990601ca879a1",
            "lllcversion" : "Version: 0.5.14-develop.2023.2.7+commit.a096d7a9.Linux.g++",
            "solidity" : "Version: 0.8.5+commit.a4f2e591.Linux.g++",
            "source" : "src/GeneralStateTestsFiller/EIPTests/stEIP3855/push0Gas2Filler.yml",
            "sourceHash" : "7ac8b22c56e8832a424d9297c142bfa122a003e23346e5b8b4fbb941b58c6746"
        },
        "blocks" : [
            {
                "blockHeader" : {
                    "bloom" : "0x00000000000000000000000000000000000000000000000000000000000000000000000000000000000000000000000000000000000000000000000000000000000000000000000000000000000000000000000000000000000000000000000000000000000000000000000000000000000000000000000000000000000000000000000000000000000000000000000000000000000000000000000000000000000000000000000000000000000000000000000000000000000000000000000000000000000000000000000000000000000000000000000000000000000000000000000000000000000000000000000000000000000000000000000000000000",
                    "coinbase" : "0x2adc25665018aa1fe0e6bc666dac8fc2697ff9ba",
                    "difficulty" : "0x020000",
                    "extraData" : "0x00",
                    "gasLimit" : "0x05500000",
                    "gasUsed" : "0x02423f",
                    "hash" : "0x6b1d980ac4dc27430e7a9f231049bdefb52d2ff1b77c2db698aaee4273b7ff9a",
                    "mixHash" : "0x0000000000000000000000000000000000000000000000000000000000000000",
                    "nonce" : "0x0000000000000000",
                    "number" : "0x01",
                    "parentHash" : "0x44eec870f496e07ef52225057b13590b78e9d6e1e7bf34ddb6d0caa0e0ce55f8",
                    "receiptTrie" : "0xa2a11e82047086b298344363ffbbe7a7b10a2f58b4428894feb12e9c547b9394",
                    "stateRoot" : "0x4cb14f6863999eacc52287d99b17f67f513a83a2c3785428a6f795dfa16ef204",
                    "timestamp" : "0x03e8",
                    "transactionsTrie" : "0xb81c540ef9e6ab173f28d35f73bf374b6d425b9a28e1f30e871db31ee92d49fa",
                    "uncleHash" : "0x1dcc4de8dec75d7aab85b567b6ccd41ad312451b948a7413f0a142fd40d49347"
                },
                "rlp" : "0xf90275f901f9a044eec870f496e07ef52225057b13590b78e9d6e1e7bf34ddb6d0caa0e0ce55f8a01dcc4de8dec75d7aab85b567b6ccd41ad312451b948a7413f0a142fd40d49347942adc25665018aa1fe0e6bc666dac8fc2697ff9baa04cb14f6863999eacc52287d99b17f67f513a83a2c3785428a6f795dfa16ef204a0b81c540ef9e6ab173f28d35f73bf374b6d425b9a28e1f30e871db31ee92d49faa0a2a11e82047086b298344363ffbbe7a7b10a2f58b4428894feb12e9c547b9394b9010000000000000000000000000000000000000000000000000000000000000000000000000000000000000000000000000000000000000000000000000000000000000000000000000000000000000000000000000000000000000000000000000000000000000000000000000000000000000000000000000000000000000000000000000000000000000000000000000000000000000000000000000000000000000000000000000000000000000000000000000000000000000000000000000000000000000000000000000000000000000000000000000000000000000000000000000000000000000000000000000000000000000000000000000000000000830200000184055000008302423f8203e800a00000000000000000000000000000000000000000000000000000000000000000880000000000000000f876f874800a830493e094b94f5374fce5edbc8e2a8697c15331677e6ebf0b809400000000000000000000000000000000000001001ca07ca35b9faa1194e9e41b540d2b6e444e4fa53ad965c7ec13daee2d66a6bb6b17a0277aeba1448340329eaf4924eef938e51e7e7be7bc980e25a9bf6caf358603d9c0",
                "transactions" : [
                    {
                        "data" : "0x0000000000000000000000000000000000000100",
                        "gasLimit" : "0x0493e0",
                        "gasPrice" : "0x0a",
                        "nonce" : "0x00",
                        "r" : "0x7ca35b9faa1194e9e41b540d2b6e444e4fa53ad965c7ec13daee2d66a6bb6b17",
                        "s" : "0x277aeba1448340329eaf4924eef938e51e7e7be7bc980e25a9bf6caf358603d9",
                        "sender" : "0xa94f5374fce5edbc8e2a8697c15331677e6ebf0b",
                        "to" : "0xb94f5374fce5edbc8e2a8697c15331677e6ebf0b",
                        "v" : "0x1c",
                        "value" : "0x00"
                    }
                ],
                "uncleHeaders" : [
                ]
            }
        ],
        "genesisBlockHeader" : {
            "bloom" : "0x00000000000000000000000000000000000000000000000000000000000000000000000000000000000000000000000000000000000000000000000000000000000000000000000000000000000000000000000000000000000000000000000000000000000000000000000000000000000000000000000000000000000000000000000000000000000000000000000000000000000000000000000000000000000000000000000000000000000000000000000000000000000000000000000000000000000000000000000000000000000000000000000000000000000000000000000000000000000000000000000000000000000000000000000000000000",
            "coinbase" : "0x2adc25665018aa1fe0e6bc666dac8fc2697ff9ba",
            "difficulty" : "0x020000",
            "extraData" : "0x00",
            "gasLimit" : "0x05500000",
            "gasUsed" : "0x00",
            "hash" : "0x44eec870f496e07ef52225057b13590b78e9d6e1e7bf34ddb6d0caa0e0ce55f8",
            "mixHash" : "0x0000000000000000000000000000000000000000000000000000000000000000",
            "nonce" : "0x0000000000000000",
            "number" : "0x00",
            "parentHash" : "0x0000000000000000000000000000000000000000000000000000000000000000",
            "receiptTrie" : "0x56e81f171bcc55a6ff8345e692c0f86e5b48e01b996cadc001622fb5e363b421",
            "stateRoot" : "0x89444575b5c0919b3e08fb13469ed832d1b63870a6ad6f8e50a829be7a1f9832",
            "timestamp" : "0x00",
            "transactionsTrie" : "0x56e81f171bcc55a6ff8345e692c0f86e5b48e01b996cadc001622fb5e363b421",
            "uncleHash" : "0x1dcc4de8dec75d7aab85b567b6ccd41ad312451b948a7413f0a142fd40d49347"
        },
        "genesisRLP" : "0xf901f9f901f4a00000000000000000000000000000000000000000000000000000000000000000a01dcc4de8dec75d7aab85b567b6ccd41ad312451b948a7413f0a142fd40d49347942adc25665018aa1fe0e6bc666dac8fc2697ff9baa089444575b5c0919b3e08fb13469ed832d1b63870a6ad6f8e50a829be7a1f9832a056e81f171bcc55a6ff8345e692c0f86e5b48e01b996cadc001622fb5e363b421a056e81f171bcc55a6ff8345e692c0f86e5b48e01b996cadc001622fb5e363b421b901000000000000000000000000000000000000000000000000000000000000000000000000000000000000000000000000000000000000000000000000000000000000000000000000000000000000000000000000000000000000000000000000000000000000000000000000000000000000000000000000000000000000000000000000000000000000000000000000000000000000000000000000000000000000000000000000000000000000000000000000000000000000000000000000000000000000000000000000000000000000000000000000000000000000000000000000000000000000000000000000000000000000000000000000000000000083020000808405500000808000a00000000000000000000000000000000000000000000000000000000000000000880000000000000000c0c0",
        "lastblockhash" : "0x6b1d980ac4dc27430e7a9f231049bdefb52d2ff1b77c2db698aaee4273b7ff9a",
        "network" : "Berlin",
        "postState" : {
            "0x0000000000000000000000000000000000000100" : {
                "balance" : "0x00",
                "code" : "0x5a5f5a9091039055",
                "nonce" : "0x00",
                "storage" : {
                }
            },
            "0x0000000000000000000000000000000000000200" : {
                "balance" : "0x00",
                "code" : "0x5a60005a9091039055",
                "nonce" : "0x00",
                "storage" : {
                }
            },
            "0x2adc25665018aa1fe0e6bc666dac8fc2697ff9ba" : {
                "balance" : "0x1bc16d674ede9676",
                "code" : "0x",
                "nonce" : "0x00",
                "storage" : {
                }
            },
            "0xa94f5374fce5edbc8e2a8697c15331677e6ebf0b" : {
                "balance" : "0x82000a",
                "code" : "0x",
                "nonce" : "0x01",
                "storage" : {
                }
            },
            "0xb94f5374fce5edbc8e2a8697c15331677e6ebf0b" : {
                "balance" : "0x00",
                "code" : "0x6000600060006000600060003560601c620186a0f16000556001600155",
                "nonce" : "0x00",
                "storage" : {
                    "0x01" : "0x01"
                }
            }
        },
        "pre" : {
            "0x0000000000000000000000000000000000000100" : {
                "balance" : "0x00",
                "code" : "0x5a5f5a9091039055",
                "nonce" : "0x00",
                "storage" : {
                }
            },
            "0x0000000000000000000000000000000000000200" : {
                "balance" : "0x00",
                "code" : "0x5a60005a9091039055",
                "nonce" : "0x00",
                "storage" : {
                }
            },
            "0xa94f5374fce5edbc8e2a8697c15331677e6ebf0b" : {
                "balance" : "0x989680",
                "code" : "0x",
                "nonce" : "0x00",
                "storage" : {
                }
            },
            "0xb94f5374fce5edbc8e2a8697c15331677e6ebf0b" : {
                "balance" : "0x00",
                "code" : "0x6000600060006000600060003560601c620186a0f16000556001600155",
                "nonce" : "0x00",
                "storage" : {
                }
            }
        },
        "sealEngine" : "NoProof"
    },
    "push0Gas2_d0g0v0_Berlin+3855" : {
        "_info" : {
            "comment" : "",
            "filling-rpc-server" : "evm version 1.11.0-unstable-2f73f4f0-20230207",
            "filling-tool-version" : "retesteth-0.2.3-postmerge+commit.aa8a0660.Linux.g++",
            "generatedTestHash" : "fe1a4f84a9eed92f7d9d67b2610837a6137a9b0b5455a72fa2e58dda3c1abb1b",
            "lllcversion" : "Version: 0.5.14-develop.2023.2.7+commit.a096d7a9.Linux.g++",
            "solidity" : "Version: 0.8.5+commit.a4f2e591.Linux.g++",
            "source" : "src/GeneralStateTestsFiller/EIPTests/stEIP3855/push0Gas2Filler.yml",
            "sourceHash" : "7ac8b22c56e8832a424d9297c142bfa122a003e23346e5b8b4fbb941b58c6746"
        },
        "blocks" : [
            {
                "blockHeader" : {
                    "bloom" : "0x00000000000000000000000000000000000000000000000000000000000000000000000000000000000000000000000000000000000000000000000000000000000000000000000000000000000000000000000000000000000000000000000000000000000000000000000000000000000000000000000000000000000000000000000000000000000000000000000000000000000000000000000000000000000000000000000000000000000000000000000000000000000000000000000000000000000000000000000000000000000000000000000000000000000000000000000000000000000000000000000000000000000000000000000000000000",
                    "coinbase" : "0x2adc25665018aa1fe0e6bc666dac8fc2697ff9ba",
                    "difficulty" : "0x020000",
                    "extraData" : "0x00",
                    "gasLimit" : "0x05500000",
                    "gasUsed" : "0x015fc1",
                    "hash" : "0x98cea64488cc939717df5ea29f9b913886a02a6bc63d2a07a03949d43389bdc4",
                    "mixHash" : "0x0000000000000000000000000000000000000000000000000000000000000000",
                    "nonce" : "0x0000000000000000",
                    "number" : "0x01",
                    "parentHash" : "0x44eec870f496e07ef52225057b13590b78e9d6e1e7bf34ddb6d0caa0e0ce55f8",
                    "receiptTrie" : "0x51d71b1989bda5410b5dff44af6f22ce9b5aec30d0b55d78178339ac8b09bd06",
                    "stateRoot" : "0x163ef3c01147770283a2396e826bedd1be47cca1740b3adb70b2121ee2b5f6ac",
                    "timestamp" : "0x03e8",
                    "transactionsTrie" : "0xb81c540ef9e6ab173f28d35f73bf374b6d425b9a28e1f30e871db31ee92d49fa",
                    "uncleHash" : "0x1dcc4de8dec75d7aab85b567b6ccd41ad312451b948a7413f0a142fd40d49347"
                },
                "rlp" : "0xf90275f901f9a044eec870f496e07ef52225057b13590b78e9d6e1e7bf34ddb6d0caa0e0ce55f8a01dcc4de8dec75d7aab85b567b6ccd41ad312451b948a7413f0a142fd40d49347942adc25665018aa1fe0e6bc666dac8fc2697ff9baa0163ef3c01147770283a2396e826bedd1be47cca1740b3adb70b2121ee2b5f6aca0b81c540ef9e6ab173f28d35f73bf374b6d425b9a28e1f30e871db31ee92d49faa051d71b1989bda5410b5dff44af6f22ce9b5aec30d0b55d78178339ac8b09bd06b90100000000000000000000000000000000000000000000000000000000000000000000000000000000000000000000000000000000000000000000000000000000000000000000000000000000000000000000000000000000000000000000000000000000000000000000000000000000000000000000000000000000000000000000000000000000000000000000000000000000000000000000000000000000000000000000000000000000000000000000000000000000000000000000000000000000000000000000000000000000000000000000000000000000000000000000000000000000000000000000000000000000000000000000000000000000008302000001840550000083015fc18203e800a00000000000000000000000000000000000000000000000000000000000000000880000000000000000f876f874800a830493e094b94f5374fce5edbc8e2a8697c15331677e6ebf0b809400000000000000000000000000000000000001001ca07ca35b9faa1194e9e41b540d2b6e444e4fa53ad965c7ec13daee2d66a6bb6b17a0277aeba1448340329eaf4924eef938e51e7e7be7bc980e25a9bf6caf358603d9c0",
                "transactions" : [
                    {
                        "data" : "0x0000000000000000000000000000000000000100",
                        "gasLimit" : "0x0493e0",
                        "gasPrice" : "0x0a",
                        "nonce" : "0x00",
                        "r" : "0x7ca35b9faa1194e9e41b540d2b6e444e4fa53ad965c7ec13daee2d66a6bb6b17",
                        "s" : "0x277aeba1448340329eaf4924eef938e51e7e7be7bc980e25a9bf6caf358603d9",
                        "sender" : "0xa94f5374fce5edbc8e2a8697c15331677e6ebf0b",
                        "to" : "0xb94f5374fce5edbc8e2a8697c15331677e6ebf0b",
                        "v" : "0x1c",
                        "value" : "0x00"
                    }
                ],
                "uncleHeaders" : [
                ]
            }
        ],
        "genesisBlockHeader" : {
            "bloom" : "0x00000000000000000000000000000000000000000000000000000000000000000000000000000000000000000000000000000000000000000000000000000000000000000000000000000000000000000000000000000000000000000000000000000000000000000000000000000000000000000000000000000000000000000000000000000000000000000000000000000000000000000000000000000000000000000000000000000000000000000000000000000000000000000000000000000000000000000000000000000000000000000000000000000000000000000000000000000000000000000000000000000000000000000000000000000000",
            "coinbase" : "0x2adc25665018aa1fe0e6bc666dac8fc2697ff9ba",
            "difficulty" : "0x020000",
            "extraData" : "0x00",
            "gasLimit" : "0x05500000",
            "gasUsed" : "0x00",
            "hash" : "0x44eec870f496e07ef52225057b13590b78e9d6e1e7bf34ddb6d0caa0e0ce55f8",
            "mixHash" : "0x0000000000000000000000000000000000000000000000000000000000000000",
            "nonce" : "0x0000000000000000",
            "number" : "0x00",
            "parentHash" : "0x0000000000000000000000000000000000000000000000000000000000000000",
            "receiptTrie" : "0x56e81f171bcc55a6ff8345e692c0f86e5b48e01b996cadc001622fb5e363b421",
            "stateRoot" : "0x89444575b5c0919b3e08fb13469ed832d1b63870a6ad6f8e50a829be7a1f9832",
            "timestamp" : "0x00",
            "transactionsTrie" : "0x56e81f171bcc55a6ff8345e692c0f86e5b48e01b996cadc001622fb5e363b421",
            "uncleHash" : "0x1dcc4de8dec75d7aab85b567b6ccd41ad312451b948a7413f0a142fd40d49347"
        },
        "genesisRLP" : "0xf901f9f901f4a00000000000000000000000000000000000000000000000000000000000000000a01dcc4de8dec75d7aab85b567b6ccd41ad312451b948a7413f0a142fd40d49347942adc25665018aa1fe0e6bc666dac8fc2697ff9baa089444575b5c0919b3e08fb13469ed832d1b63870a6ad6f8e50a829be7a1f9832a056e81f171bcc55a6ff8345e692c0f86e5b48e01b996cadc001622fb5e363b421a056e81f171bcc55a6ff8345e692c0f86e5b48e01b996cadc001622fb5e363b421b901000000000000000000000000000000000000000000000000000000000000000000000000000000000000000000000000000000000000000000000000000000000000000000000000000000000000000000000000000000000000000000000000000000000000000000000000000000000000000000000000000000000000000000000000000000000000000000000000000000000000000000000000000000000000000000000000000000000000000000000000000000000000000000000000000000000000000000000000000000000000000000000000000000000000000000000000000000000000000000000000000000000000000000000000000000000083020000808405500000808000a00000000000000000000000000000000000000000000000000000000000000000880000000000000000c0c0",
        "lastblockhash" : "0x98cea64488cc939717df5ea29f9b913886a02a6bc63d2a07a03949d43389bdc4",
        "network" : "Berlin+3855",
        "postState" : {
            "0x0000000000000000000000000000000000000100" : {
                "balance" : "0x00",
                "code" : "0x5a5f5a9091039055",
                "nonce" : "0x00",
                "storage" : {
                    "0x00" : "0x04"
                }
            },
            "0x0000000000000000000000000000000000000200" : {
                "balance" : "0x00",
                "code" : "0x5a60005a9091039055",
                "nonce" : "0x00",
                "storage" : {
                }
            },
            "0x2adc25665018aa1fe0e6bc666dac8fc2697ff9ba" : {
                "balance" : "0x1bc16d674ed5bd8a",
                "code" : "0x",
                "nonce" : "0x00",
                "storage" : {
                }
            },
            "0xa94f5374fce5edbc8e2a8697c15331677e6ebf0b" : {
                "balance" : "0x8ad8f6",
                "code" : "0x",
                "nonce" : "0x01",
                "storage" : {
                }
            },
            "0xb94f5374fce5edbc8e2a8697c15331677e6ebf0b" : {
                "balance" : "0x00",
                "code" : "0x6000600060006000600060003560601c620186a0f16000556001600155",
                "nonce" : "0x00",
                "storage" : {
                    "0x00" : "0x01",
                    "0x01" : "0x01"
                }
            }
        },
        "pre" : {
            "0x0000000000000000000000000000000000000100" : {
                "balance" : "0x00",
                "code" : "0x5a5f5a9091039055",
                "nonce" : "0x00",
                "storage" : {
                }
            },
            "0x0000000000000000000000000000000000000200" : {
                "balance" : "0x00",
                "code" : "0x5a60005a9091039055",
                "nonce" : "0x00",
                "storage" : {
                }
            },
            "0xa94f5374fce5edbc8e2a8697c15331677e6ebf0b" : {
                "balance" : "0x989680",
                "code" : "0x",
                "nonce" : "0x00",
                "storage" : {
                }
            },
            "0xb94f5374fce5edbc8e2a8697c15331677e6ebf0b" : {
                "balance" : "0x00",
                "code" : "0x6000600060006000600060003560601c620186a0f16000556001600155",
                "nonce" : "0x00",
                "storage" : {
                }
            }
        },
        "sealEngine" : "NoProof"
    },
    "push0Gas2_d1g0v0_Berlin" : {
        "_info" : {
            "comment" : "",
            "filling-rpc-server" : "evm version 1.11.0-unstable-2f73f4f0-20230207",
            "filling-tool-version" : "retesteth-0.2.3-postmerge+commit.aa8a0660.Linux.g++",
            "generatedTestHash" : "9d6c31c21439372dd7e18e3b607adff96b53ed2f265e421a18ccd40a0c8227b3",
            "lllcversion" : "Version: 0.5.14-develop.2023.2.7+commit.a096d7a9.Linux.g++",
            "solidity" : "Version: 0.8.5+commit.a4f2e591.Linux.g++",
            "source" : "src/GeneralStateTestsFiller/EIPTests/stEIP3855/push0Gas2Filler.yml",
            "sourceHash" : "7ac8b22c56e8832a424d9297c142bfa122a003e23346e5b8b4fbb941b58c6746"
        },
        "blocks" : [
            {
                "blockHeader" : {
                    "bloom" : "0x00000000000000000000000000000000000000000000000000000000000000000000000000000000000000000000000000000000000000000000000000000000000000000000000000000000000000000000000000000000000000000000000000000000000000000000000000000000000000000000000000000000000000000000000000000000000000000000000000000000000000000000000000000000000000000000000000000000000000000000000000000000000000000000000000000000000000000000000000000000000000000000000000000000000000000000000000000000000000000000000000000000000000000000000000000000",
                    "coinbase" : "0x2adc25665018aa1fe0e6bc666dac8fc2697ff9ba",
                    "difficulty" : "0x020000",
                    "extraData" : "0x00",
                    "gasLimit" : "0x05500000",
                    "gasUsed" : "0x015fc2",
                    "hash" : "0x8ca11f3701210676179bb617b0e83d873e683c0090eaf2f0d199d89f65245bbf",
                    "mixHash" : "0x0000000000000000000000000000000000000000000000000000000000000000",
                    "nonce" : "0x0000000000000000",
                    "number" : "0x01",
                    "parentHash" : "0x44eec870f496e07ef52225057b13590b78e9d6e1e7bf34ddb6d0caa0e0ce55f8",
                    "receiptTrie" : "0xee08efce4bf702555dd45c5f7364ce650533104df283abe14190c37250625ec7",
                    "stateRoot" : "0xa3c201297251ac43fa8905650fdc6d4043fc912c35465eb78afec76539d09229",
                    "timestamp" : "0x03e8",
                    "transactionsTrie" : "0xb36956b72c3e1d7a4b37c17f48750969ad39b086937ec2550e859d1c7f9d5229",
                    "uncleHash" : "0x1dcc4de8dec75d7aab85b567b6ccd41ad312451b948a7413f0a142fd40d49347"
                },
                "rlp" : "0xf90275f901f9a044eec870f496e07ef52225057b13590b78e9d6e1e7bf34ddb6d0caa0e0ce55f8a01dcc4de8dec75d7aab85b567b6ccd41ad312451b948a7413f0a142fd40d49347942adc25665018aa1fe0e6bc666dac8fc2697ff9baa0a3c201297251ac43fa8905650fdc6d4043fc912c35465eb78afec76539d09229a0b36956b72c3e1d7a4b37c17f48750969ad39b086937ec2550e859d1c7f9d5229a0ee08efce4bf702555dd45c5f7364ce650533104df283abe14190c37250625ec7b90100000000000000000000000000000000000000000000000000000000000000000000000000000000000000000000000000000000000000000000000000000000000000000000000000000000000000000000000000000000000000000000000000000000000000000000000000000000000000000000000000000000000000000000000000000000000000000000000000000000000000000000000000000000000000000000000000000000000000000000000000000000000000000000000000000000000000000000000000000000000000000000000000000000000000000000000000000000000000000000000000000000000000000000000000000000008302000001840550000083015fc28203e800a00000000000000000000000000000000000000000000000000000000000000000880000000000000000f876f874800a830493e094b94f5374fce5edbc8e2a8697c15331677e6ebf0b809400000000000000000000000000000000000002001ca065aa51a4adb898398fcfa495e7657d2aeedfb7dc5a81dd492464ca7e658e5ba6a0493cdb6782f806fb8b4b61766288b7fb6240cde8a7b97a96b4d6db75d8aed4a5c0",
                "transactions" : [
                    {
                        "data" : "0x0000000000000000000000000000000000000200",
                        "gasLimit" : "0x0493e0",
                        "gasPrice" : "0x0a",
                        "nonce" : "0x00",
                        "r" : "0x65aa51a4adb898398fcfa495e7657d2aeedfb7dc5a81dd492464ca7e658e5ba6",
                        "s" : "0x493cdb6782f806fb8b4b61766288b7fb6240cde8a7b97a96b4d6db75d8aed4a5",
                        "sender" : "0xa94f5374fce5edbc8e2a8697c15331677e6ebf0b",
                        "to" : "0xb94f5374fce5edbc8e2a8697c15331677e6ebf0b",
                        "v" : "0x1c",
                        "value" : "0x00"
                    }
                ],
                "uncleHeaders" : [
                ]
            }
        ],
        "genesisBlockHeader" : {
            "bloom" : "0x00000000000000000000000000000000000000000000000000000000000000000000000000000000000000000000000000000000000000000000000000000000000000000000000000000000000000000000000000000000000000000000000000000000000000000000000000000000000000000000000000000000000000000000000000000000000000000000000000000000000000000000000000000000000000000000000000000000000000000000000000000000000000000000000000000000000000000000000000000000000000000000000000000000000000000000000000000000000000000000000000000000000000000000000000000000",
            "coinbase" : "0x2adc25665018aa1fe0e6bc666dac8fc2697ff9ba",
            "difficulty" : "0x020000",
            "extraData" : "0x00",
            "gasLimit" : "0x05500000",
            "gasUsed" : "0x00",
            "hash" : "0x44eec870f496e07ef52225057b13590b78e9d6e1e7bf34ddb6d0caa0e0ce55f8",
            "mixHash" : "0x0000000000000000000000000000000000000000000000000000000000000000",
            "nonce" : "0x0000000000000000",
            "number" : "0x00",
            "parentHash" : "0x0000000000000000000000000000000000000000000000000000000000000000",
            "receiptTrie" : "0x56e81f171bcc55a6ff8345e692c0f86e5b48e01b996cadc001622fb5e363b421",
            "stateRoot" : "0x89444575b5c0919b3e08fb13469ed832d1b63870a6ad6f8e50a829be7a1f9832",
            "timestamp" : "0x00",
            "transactionsTrie" : "0x56e81f171bcc55a6ff8345e692c0f86e5b48e01b996cadc001622fb5e363b421",
            "uncleHash" : "0x1dcc4de8dec75d7aab85b567b6ccd41ad312451b948a7413f0a142fd40d49347"
        },
        "genesisRLP" : "0xf901f9f901f4a00000000000000000000000000000000000000000000000000000000000000000a01dcc4de8dec75d7aab85b567b6ccd41ad312451b948a7413f0a142fd40d49347942adc25665018aa1fe0e6bc666dac8fc2697ff9baa089444575b5c0919b3e08fb13469ed832d1b63870a6ad6f8e50a829be7a1f9832a056e81f171bcc55a6ff8345e692c0f86e5b48e01b996cadc001622fb5e363b421a056e81f171bcc55a6ff8345e692c0f86e5b48e01b996cadc001622fb5e363b421b901000000000000000000000000000000000000000000000000000000000000000000000000000000000000000000000000000000000000000000000000000000000000000000000000000000000000000000000000000000000000000000000000000000000000000000000000000000000000000000000000000000000000000000000000000000000000000000000000000000000000000000000000000000000000000000000000000000000000000000000000000000000000000000000000000000000000000000000000000000000000000000000000000000000000000000000000000000000000000000000000000000000000000000000000000000000083020000808405500000808000a00000000000000000000000000000000000000000000000000000000000000000880000000000000000c0c0",
        "lastblockhash" : "0x8ca11f3701210676179bb617b0e83d873e683c0090eaf2f0d199d89f65245bbf",
        "network" : "Berlin",
        "postState" : {
            "0x0000000000000000000000000000000000000100" : {
                "balance" : "0x00",
                "code" : "0x5a5f5a9091039055",
                "nonce" : "0x00",
                "storage" : {
                }
            },
            "0x0000000000000000000000000000000000000200" : {
                "balance" : "0x00",
                "code" : "0x5a60005a9091039055",
                "nonce" : "0x00",
                "storage" : {
                    "0x00" : "0x05"
                }
            },
            "0x2adc25665018aa1fe0e6bc666dac8fc2697ff9ba" : {
                "balance" : "0x1bc16d674ed5bd94",
                "code" : "0x",
                "nonce" : "0x00",
                "storage" : {
                }
            },
            "0xa94f5374fce5edbc8e2a8697c15331677e6ebf0b" : {
                "balance" : "0x8ad8ec",
                "code" : "0x",
                "nonce" : "0x01",
                "storage" : {
                }
            },
            "0xb94f5374fce5edbc8e2a8697c15331677e6ebf0b" : {
                "balance" : "0x00",
                "code" : "0x6000600060006000600060003560601c620186a0f16000556001600155",
                "nonce" : "0x00",
                "storage" : {
                    "0x00" : "0x01",
                    "0x01" : "0x01"
                }
            }
        },
        "pre" : {
            "0x0000000000000000000000000000000000000100" : {
                "balance" : "0x00",
                "code" : "0x5a5f5a9091039055",
                "nonce" : "0x00",
                "storage" : {
                }
            },
            "0x0000000000000000000000000000000000000200" : {
                "balance" : "0x00",
                "code" : "0x5a60005a9091039055",
                "nonce" : "0x00",
                "storage" : {
                }
            },
            "0xa94f5374fce5edbc8e2a8697c15331677e6ebf0b" : {
                "balance" : "0x989680",
                "code" : "0x",
                "nonce" : "0x00",
                "storage" : {
                }
            },
            "0xb94f5374fce5edbc8e2a8697c15331677e6ebf0b" : {
                "balance" : "0x00",
                "code" : "0x6000600060006000600060003560601c620186a0f16000556001600155",
                "nonce" : "0x00",
                "storage" : {
                }
            }
        },
        "sealEngine" : "NoProof"
    },
    "push0Gas2_d1g0v0_Berlin+3855" : {
        "_info" : {
            "comment" : "",
            "filling-rpc-server" : "evm version 1.11.0-unstable-2f73f4f0-20230207",
            "filling-tool-version" : "retesteth-0.2.3-postmerge+commit.aa8a0660.Linux.g++",
            "generatedTestHash" : "a4c96d0b0c7c95fbf5733ac27615a6599cbb259c0a3a850f938e6e3800d7903e",
            "lllcversion" : "Version: 0.5.14-develop.2023.2.7+commit.a096d7a9.Linux.g++",
            "solidity" : "Version: 0.8.5+commit.a4f2e591.Linux.g++",
            "source" : "src/GeneralStateTestsFiller/EIPTests/stEIP3855/push0Gas2Filler.yml",
            "sourceHash" : "7ac8b22c56e8832a424d9297c142bfa122a003e23346e5b8b4fbb941b58c6746"
        },
        "blocks" : [
            {
                "blockHeader" : {
                    "bloom" : "0x00000000000000000000000000000000000000000000000000000000000000000000000000000000000000000000000000000000000000000000000000000000000000000000000000000000000000000000000000000000000000000000000000000000000000000000000000000000000000000000000000000000000000000000000000000000000000000000000000000000000000000000000000000000000000000000000000000000000000000000000000000000000000000000000000000000000000000000000000000000000000000000000000000000000000000000000000000000000000000000000000000000000000000000000000000000",
                    "coinbase" : "0x2adc25665018aa1fe0e6bc666dac8fc2697ff9ba",
                    "difficulty" : "0x020000",
                    "extraData" : "0x00",
                    "gasLimit" : "0x05500000",
                    "gasUsed" : "0x015fc2",
                    "hash" : "0x8ca11f3701210676179bb617b0e83d873e683c0090eaf2f0d199d89f65245bbf",
                    "mixHash" : "0x0000000000000000000000000000000000000000000000000000000000000000",
                    "nonce" : "0x0000000000000000",
                    "number" : "0x01",
                    "parentHash" : "0x44eec870f496e07ef52225057b13590b78e9d6e1e7bf34ddb6d0caa0e0ce55f8",
                    "receiptTrie" : "0xee08efce4bf702555dd45c5f7364ce650533104df283abe14190c37250625ec7",
                    "stateRoot" : "0xa3c201297251ac43fa8905650fdc6d4043fc912c35465eb78afec76539d09229",
                    "timestamp" : "0x03e8",
                    "transactionsTrie" : "0xb36956b72c3e1d7a4b37c17f48750969ad39b086937ec2550e859d1c7f9d5229",
                    "uncleHash" : "0x1dcc4de8dec75d7aab85b567b6ccd41ad312451b948a7413f0a142fd40d49347"
                },
                "rlp" : "0xf90275f901f9a044eec870f496e07ef52225057b13590b78e9d6e1e7bf34ddb6d0caa0e0ce55f8a01dcc4de8dec75d7aab85b567b6ccd41ad312451b948a7413f0a142fd40d49347942adc25665018aa1fe0e6bc666dac8fc2697ff9baa0a3c201297251ac43fa8905650fdc6d4043fc912c35465eb78afec76539d09229a0b36956b72c3e1d7a4b37c17f48750969ad39b086937ec2550e859d1c7f9d5229a0ee08efce4bf702555dd45c5f7364ce650533104df283abe14190c37250625ec7b90100000000000000000000000000000000000000000000000000000000000000000000000000000000000000000000000000000000000000000000000000000000000000000000000000000000000000000000000000000000000000000000000000000000000000000000000000000000000000000000000000000000000000000000000000000000000000000000000000000000000000000000000000000000000000000000000000000000000000000000000000000000000000000000000000000000000000000000000000000000000000000000000000000000000000000000000000000000000000000000000000000000000000000000000000000000008302000001840550000083015fc28203e800a00000000000000000000000000000000000000000000000000000000000000000880000000000000000f876f874800a830493e094b94f5374fce5edbc8e2a8697c15331677e6ebf0b809400000000000000000000000000000000000002001ca065aa51a4adb898398fcfa495e7657d2aeedfb7dc5a81dd492464ca7e658e5ba6a0493cdb6782f806fb8b4b61766288b7fb6240cde8a7b97a96b4d6db75d8aed4a5c0",
                "transactions" : [
                    {
                        "data" : "0x0000000000000000000000000000000000000200",
                        "gasLimit" : "0x0493e0",
                        "gasPrice" : "0x0a",
                        "nonce" : "0x00",
                        "r" : "0x65aa51a4adb898398fcfa495e7657d2aeedfb7dc5a81dd492464ca7e658e5ba6",
                        "s" : "0x493cdb6782f806fb8b4b61766288b7fb6240cde8a7b97a96b4d6db75d8aed4a5",
                        "sender" : "0xa94f5374fce5edbc8e2a8697c15331677e6ebf0b",
                        "to" : "0xb94f5374fce5edbc8e2a8697c15331677e6ebf0b",
                        "v" : "0x1c",
                        "value" : "0x00"
                    }
                ],
                "uncleHeaders" : [
                ]
            }
        ],
        "genesisBlockHeader" : {
            "bloom" : "0x00000000000000000000000000000000000000000000000000000000000000000000000000000000000000000000000000000000000000000000000000000000000000000000000000000000000000000000000000000000000000000000000000000000000000000000000000000000000000000000000000000000000000000000000000000000000000000000000000000000000000000000000000000000000000000000000000000000000000000000000000000000000000000000000000000000000000000000000000000000000000000000000000000000000000000000000000000000000000000000000000000000000000000000000000000000",
            "coinbase" : "0x2adc25665018aa1fe0e6bc666dac8fc2697ff9ba",
            "difficulty" : "0x020000",
            "extraData" : "0x00",
            "gasLimit" : "0x05500000",
            "gasUsed" : "0x00",
            "hash" : "0x44eec870f496e07ef52225057b13590b78e9d6e1e7bf34ddb6d0caa0e0ce55f8",
            "mixHash" : "0x0000000000000000000000000000000000000000000000000000000000000000",
            "nonce" : "0x0000000000000000",
            "number" : "0x00",
            "parentHash" : "0x0000000000000000000000000000000000000000000000000000000000000000",
            "receiptTrie" : "0x56e81f171bcc55a6ff8345e692c0f86e5b48e01b996cadc001622fb5e363b421",
            "stateRoot" : "0x89444575b5c0919b3e08fb13469ed832d1b63870a6ad6f8e50a829be7a1f9832",
            "timestamp" : "0x00",
            "transactionsTrie" : "0x56e81f171bcc55a6ff8345e692c0f86e5b48e01b996cadc001622fb5e363b421",
            "uncleHash" : "0x1dcc4de8dec75d7aab85b567b6ccd41ad312451b948a7413f0a142fd40d49347"
        },
        "genesisRLP" : "0xf901f9f901f4a00000000000000000000000000000000000000000000000000000000000000000a01dcc4de8dec75d7aab85b567b6ccd41ad312451b948a7413f0a142fd40d49347942adc25665018aa1fe0e6bc666dac8fc2697ff9baa089444575b5c0919b3e08fb13469ed832d1b63870a6ad6f8e50a829be7a1f9832a056e81f171bcc55a6ff8345e692c0f86e5b48e01b996cadc001622fb5e363b421a056e81f171bcc55a6ff8345e692c0f86e5b48e01b996cadc001622fb5e363b421b901000000000000000000000000000000000000000000000000000000000000000000000000000000000000000000000000000000000000000000000000000000000000000000000000000000000000000000000000000000000000000000000000000000000000000000000000000000000000000000000000000000000000000000000000000000000000000000000000000000000000000000000000000000000000000000000000000000000000000000000000000000000000000000000000000000000000000000000000000000000000000000000000000000000000000000000000000000000000000000000000000000000000000000000000000000000083020000808405500000808000a00000000000000000000000000000000000000000000000000000000000000000880000000000000000c0c0",
        "lastblockhash" : "0x8ca11f3701210676179bb617b0e83d873e683c0090eaf2f0d199d89f65245bbf",
        "network" : "Berlin+3855",
        "postState" : {
            "0x0000000000000000000000000000000000000100" : {
                "balance" : "0x00",
                "code" : "0x5a5f5a9091039055",
                "nonce" : "0x00",
                "storage" : {
                }
            },
            "0x0000000000000000000000000000000000000200" : {
                "balance" : "0x00",
                "code" : "0x5a60005a9091039055",
                "nonce" : "0x00",
                "storage" : {
                    "0x00" : "0x05"
                }
            },
            "0x2adc25665018aa1fe0e6bc666dac8fc2697ff9ba" : {
                "balance" : "0x1bc16d674ed5bd94",
                "code" : "0x",
                "nonce" : "0x00",
                "storage" : {
                }
            },
            "0xa94f5374fce5edbc8e2a8697c15331677e6ebf0b" : {
                "balance" : "0x8ad8ec",
                "code" : "0x",
                "nonce" : "0x01",
                "storage" : {
                }
            },
            "0xb94f5374fce5edbc8e2a8697c15331677e6ebf0b" : {
                "balance" : "0x00",
                "code" : "0x6000600060006000600060003560601c620186a0f16000556001600155",
                "nonce" : "0x00",
                "storage" : {
                    "0x00" : "0x01",
                    "0x01" : "0x01"
                }
            }
        },
        "pre" : {
            "0x0000000000000000000000000000000000000100" : {
                "balance" : "0x00",
                "code" : "0x5a5f5a9091039055",
                "nonce" : "0x00",
                "storage" : {
                }
            },
            "0x0000000000000000000000000000000000000200" : {
                "balance" : "0x00",
                "code" : "0x5a60005a9091039055",
                "nonce" : "0x00",
                "storage" : {
                }
            },
            "0xa94f5374fce5edbc8e2a8697c15331677e6ebf0b" : {
                "balance" : "0x989680",
                "code" : "0x",
                "nonce" : "0x00",
                "storage" : {
                }
            },
            "0xb94f5374fce5edbc8e2a8697c15331677e6ebf0b" : {
                "balance" : "0x00",
                "code" : "0x6000600060006000600060003560601c620186a0f16000556001600155",
                "nonce" : "0x00",
                "storage" : {
                }
            }
        },
        "sealEngine" : "NoProof"
    }
}