{
    "randomStatetest524_d0g0v0_Berlin" : {
        "_info" : {
            "comment" : "",
            "filling-rpc-server" : "evm version 1.11.0-unstable-dbd6c132-20230214",
            "filling-tool-version" : "retesteth-0.2.3-postmerge+commit.5691d0b9.Linux.g++",
            "generatedTestHash" : "4c661544d9ff371d182a19af7e22c1fcd141eae25576cdf89eb6b38069bce5fe",
            "lllcversion" : "Version: 0.5.14-develop.2023.2.14+commit.a096d7a9.Linux.g++",
            "solidity" : "Version: 0.8.5+commit.a4f2e591.Linux.g++",
            "source" : "src/GeneralStateTestsFiller/stRandom2/randomStatetest524Filler.json",
            "sourceHash" : "f04de1d60b045f4f833f9a6e2b4b969301398ac2d14f053312cacf07aa340bd0"
        },
        "blocks" : [
            {
                "blockHeader" : {
                    "bloom" : "0x00000000000000000000000000000000000000000000000000000000000000000000000000000000000000000000000000000000000000000000000000000000000000000000000000000000000000000000000000000000000000000000000000000000000000000000000000000000000000000000000000000000000000000000000000000000000000000000000000000000000000000000000000000000000000000000000000000000000000000000000000000000000000000000000000000000000000000000000000000000000000000000000000000000000000000000000000000000000000000000000000000000000000000000000000000000",
                    "coinbase" : "0x945304eb96065b2a98b57a48a06ae28d285a71b5",
                    "difficulty" : "0x020000",
                    "extraData" : "0x00",
                    "gasLimit" : "0x7fffffff",
                    "gasUsed" : "0x2940a5df",
                    "hash" : "0x4edf98aab1a96b9b59e4f4c2f0c41f5f9a2bd2754d4e074282ceac548d375586",
                    "mixHash" : "0x0000000000000000000000000000000000000000000000000000000000000000",
                    "nonce" : "0x0000000000000000",
                    "number" : "0x01",
                    "parentHash" : "0x42ce10e25d75d954596a4d04e5440b5344460edcacd2c32f2d83d1a2d5f0460f",
                    "receiptTrie" : "0x32d63916aeb9c63ac8381b2ca7d934bd7b72d23c1f526e7d7d5cfbc82c64c347",
                    "stateRoot" : "0x69ed66c1c388556c003d554e9fffcadb2a1f31383f1c203c531648b0c5db8262",
                    "timestamp" : "0x03e8",
                    "transactionsTrie" : "0x0b583b45b7be45163914d18e2edbc5a2fe9af1ca7194034d94c1d70a94205623",
                    "uncleHash" : "0x1dcc4de8dec75d7aab85b567b6ccd41ad312451b948a7413f0a142fd40d49347"
                },
                "rlp" : "0xf90318f901faa042ce10e25d75d954596a4d04e5440b5344460edcacd2c32f2d83d1a2d5f0460fa01dcc4de8dec75d7aab85b567b6ccd41ad312451b948a7413f0a142fd40d4934794945304eb96065b2a98b57a48a06ae28d285a71b5a069ed66c1c388556c003d554e9fffcadb2a1f31383f1c203c531648b0c5db8262a00b583b45b7be45163914d18e2edbc5a2fe9af1ca7194034d94c1d70a94205623a032d63916aeb9c63ac8381b2ca7d934bd7b72d23c1f526e7d7d5cfbc82c64c347b90100000000000000000000000000000000000000000000000000000000000000000000000000000000000000000000000000000000000000000000000000000000000000000000000000000000000000000000000000000000000000000000000000000000000000000000000000000000000000000000000000000000000000000000000000000000000000000000000000000000000000000000000000000000000000000000000000000000000000000000000000000000000000000000000000000000000000000000000000000000000000000000000000000000000000000000000000000000000000000000000000000000000000000000000000000000008302000001847fffffff842940a5df8203e800a00000000000000000000000000000000000000000000000000000000000000000880000000000000000f90117f90114800a842940a5df94095e7baea6a6c7c4c2dfeb977efac326af552d8784754eb077b8ae457ffffffffffffffffffffffffffffffffffffffffffffffffffffffffffffffffe427f000000000000000000000000ffffffffffffffffffffffffffffffffffffffff357f000000000000000000000000ffffffffffffffffffffffffffffffffffffffff7f00000000000000000000000000000000000000000000000000000000000000007f000000000000000000000000000000000000000000000000000000000000000034208a340a9e1ca0233f37ff9cc59fb6da2ca68ee4bd5352921452aaab8a54566696bb382be41480a07d05a72d221a65aad89f46563295c62cec5db27d9028d9a29382aeaa18f7b0eac0",
                "transactions" : [
                    {
                        "data" : "0x457ffffffffffffffffffffffffffffffffffffffffffffffffffffffffffffffffe427f000000000000000000000000ffffffffffffffffffffffffffffffffffffffff357f000000000000000000000000ffffffffffffffffffffffffffffffffffffffff7f00000000000000000000000000000000000000000000000000000000000000007f000000000000000000000000000000000000000000000000000000000000000034208a340a9e",
                        "gasLimit" : "0x2940a5df",
                        "gasPrice" : "0x0a",
                        "nonce" : "0x00",
                        "r" : "0x233f37ff9cc59fb6da2ca68ee4bd5352921452aaab8a54566696bb382be41480",
                        "s" : "0x7d05a72d221a65aad89f46563295c62cec5db27d9028d9a29382aeaa18f7b0ea",
                        "sender" : "0xa94f5374fce5edbc8e2a8697c15331677e6ebf0b",
                        "to" : "0x095e7baea6a6c7c4c2dfeb977efac326af552d87",
                        "v" : "0x1c",
                        "value" : "0x754eb077"
                    }
                ],
                "uncleHeaders" : [
                ]
            }
        ],
        "genesisBlockHeader" : {
            "bloom" : "0x00000000000000000000000000000000000000000000000000000000000000000000000000000000000000000000000000000000000000000000000000000000000000000000000000000000000000000000000000000000000000000000000000000000000000000000000000000000000000000000000000000000000000000000000000000000000000000000000000000000000000000000000000000000000000000000000000000000000000000000000000000000000000000000000000000000000000000000000000000000000000000000000000000000000000000000000000000000000000000000000000000000000000000000000000000000",
            "coinbase" : "0x945304eb96065b2a98b57a48a06ae28d285a71b5",
            "difficulty" : "0x020000",
            "extraData" : "0x00",
            "gasLimit" : "0x7fffffff",
            "gasUsed" : "0x00",
            "hash" : "0x42ce10e25d75d954596a4d04e5440b5344460edcacd2c32f2d83d1a2d5f0460f",
            "mixHash" : "0x0000000000000000000000000000000000000000000000000000000000000000",
            "nonce" : "0x0000000000000000",
            "number" : "0x00",
            "parentHash" : "0x0000000000000000000000000000000000000000000000000000000000000000",
            "receiptTrie" : "0x56e81f171bcc55a6ff8345e692c0f86e5b48e01b996cadc001622fb5e363b421",
            "stateRoot" : "0x389c1f56e1116c18523f997fedfe79c851073899c404ab84d04c8a135a064796",
            "timestamp" : "0x00",
            "transactionsTrie" : "0x56e81f171bcc55a6ff8345e692c0f86e5b48e01b996cadc001622fb5e363b421",
            "uncleHash" : "0x1dcc4de8dec75d7aab85b567b6ccd41ad312451b948a7413f0a142fd40d49347"
        },
        "genesisRLP" : "0xf901f9f901f4a00000000000000000000000000000000000000000000000000000000000000000a01dcc4de8dec75d7aab85b567b6ccd41ad312451b948a7413f0a142fd40d4934794945304eb96065b2a98b57a48a06ae28d285a71b5a0389c1f56e1116c18523f997fedfe79c851073899c404ab84d04c8a135a064796a056e81f171bcc55a6ff8345e692c0f86e5b48e01b996cadc001622fb5e363b421a056e81f171bcc55a6ff8345e692c0f86e5b48e01b996cadc001622fb5e363b421b90100000000000000000000000000000000000000000000000000000000000000000000000000000000000000000000000000000000000000000000000000000000000000000000000000000000000000000000000000000000000000000000000000000000000000000000000000000000000000000000000000000000000000000000000000000000000000000000000000000000000000000000000000000000000000000000000000000000000000000000000000000000000000000000000000000000000000000000000000000000000000000000000000000000000000000000000000000000000000000000000000000000000000000000000000000000008302000080847fffffff808000a00000000000000000000000000000000000000000000000000000000000000000880000000000000000c0c0",
        "lastblockhash" : "0x4edf98aab1a96b9b59e4f4c2f0c41f5f9a2bd2754d4e074282ceac548d375586",
        "network" : "Berlin",
        "postState" : {
            "0x095e7baea6a6c7c4c2dfeb977efac326af552d87" : {
                "balance" : "0x00",
                "code" : "0x457ffffffffffffffffffffffffffffffffffffffffffffffffffffffffffffffffe427f000000000000000000000000ffffffffffffffffffffffffffffffffffffffff357f000000000000000000000000ffffffffffffffffffffffffffffffffffffffff7f00000000000000000000000000000000000000000000000000000000000000007f000000000000000000000000000000000000000000000000000000000000000034208a340a9e5560005155",
                "nonce" : "0x00",
                "storage" : {
                }
            },
            "0x945304eb96065b2a98b57a48a06ae28d285a71b5" : {
                "balance" : "0x1bc16d68eb4e7ae4",
                "code" : "0x6000355415600957005b60203560003555",
                "nonce" : "0x00",
                "storage" : {
                }
            },
            "0xa94f5374fce5edbc8e2a8697c15331677e6ebf0b" : {
                "balance" : "0x0de0b6b20add854a",
                "code" : "0x",
                "nonce" : "0x01",
                "storage" : {
                }
            }
        },
        "pre" : {
            "0x095e7baea6a6c7c4c2dfeb977efac326af552d87" : {
                "balance" : "0x00",
                "code" : "0x457ffffffffffffffffffffffffffffffffffffffffffffffffffffffffffffffffe427f000000000000000000000000ffffffffffffffffffffffffffffffffffffffff357f000000000000000000000000ffffffffffffffffffffffffffffffffffffffff7f00000000000000000000000000000000000000000000000000000000000000007f000000000000000000000000000000000000000000000000000000000000000034208a340a9e5560005155",
                "nonce" : "0x00",
                "storage" : {
                }
            },
            "0x945304eb96065b2a98b57a48a06ae28d285a71b5" : {
                "balance" : "0x2e",
                "code" : "0x6000355415600957005b60203560003555",
                "nonce" : "0x00",
                "storage" : {
                }
            },
            "0xa94f5374fce5edbc8e2a8697c15331677e6ebf0b" : {
                "balance" : "0x0de0b6b3a7640000",
                "code" : "0x",
                "nonce" : "0x00",
                "storage" : {
                }
            }
        },
        "sealEngine" : "NoProof"
    },
    "randomStatetest524_d0g0v0_Istanbul" : {
        "_info" : {
            "comment" : "",
            "filling-rpc-server" : "evm version 1.11.0-unstable-dbd6c132-20230214",
            "filling-tool-version" : "retesteth-0.2.3-postmerge+commit.5691d0b9.Linux.g++",
            "generatedTestHash" : "0848ed4d94a82e6e8319ad43ab47b928c1afad08777567022635b74d56dfaea0",
            "lllcversion" : "Version: 0.5.14-develop.2023.2.14+commit.a096d7a9.Linux.g++",
            "solidity" : "Version: 0.8.5+commit.a4f2e591.Linux.g++",
            "source" : "src/GeneralStateTestsFiller/stRandom2/randomStatetest524Filler.json",
            "sourceHash" : "f04de1d60b045f4f833f9a6e2b4b969301398ac2d14f053312cacf07aa340bd0"
        },
        "blocks" : [
            {
                "blockHeader" : {
                    "bloom" : "0x00000000000000000000000000000000000000000000000000000000000000000000000000000000000000000000000000000000000000000000000000000000000000000000000000000000000000000000000000000000000000000000000000000000000000000000000000000000000000000000000000000000000000000000000000000000000000000000000000000000000000000000000000000000000000000000000000000000000000000000000000000000000000000000000000000000000000000000000000000000000000000000000000000000000000000000000000000000000000000000000000000000000000000000000000000000",
                    "coinbase" : "0x945304eb96065b2a98b57a48a06ae28d285a71b5",
                    "difficulty" : "0x020000",
                    "extraData" : "0x00",
                    "gasLimit" : "0x7fffffff",
                    "gasUsed" : "0x2940a5df",
                    "hash" : "0x4edf98aab1a96b9b59e4f4c2f0c41f5f9a2bd2754d4e074282ceac548d375586",
                    "mixHash" : "0x0000000000000000000000000000000000000000000000000000000000000000",
                    "nonce" : "0x0000000000000000",
                    "number" : "0x01",
                    "parentHash" : "0x42ce10e25d75d954596a4d04e5440b5344460edcacd2c32f2d83d1a2d5f0460f",
                    "receiptTrie" : "0x32d63916aeb9c63ac8381b2ca7d934bd7b72d23c1f526e7d7d5cfbc82c64c347",
                    "stateRoot" : "0x69ed66c1c388556c003d554e9fffcadb2a1f31383f1c203c531648b0c5db8262",
                    "timestamp" : "0x03e8",
                    "transactionsTrie" : "0x0b583b45b7be45163914d18e2edbc5a2fe9af1ca7194034d94c1d70a94205623",
                    "uncleHash" : "0x1dcc4de8dec75d7aab85b567b6ccd41ad312451b948a7413f0a142fd40d49347"
                },
                "rlp" : "0xf90318f901faa042ce10e25d75d954596a4d04e5440b5344460edcacd2c32f2d83d1a2d5f0460fa01dcc4de8dec75d7aab85b567b6ccd41ad312451b948a7413f0a142fd40d4934794945304eb96065b2a98b57a48a06ae28d285a71b5a069ed66c1c388556c003d554e9fffcadb2a1f31383f1c203c531648b0c5db8262a00b583b45b7be45163914d18e2edbc5a2fe9af1ca7194034d94c1d70a94205623a032d63916aeb9c63ac8381b2ca7d934bd7b72d23c1f526e7d7d5cfbc82c64c347b90100000000000000000000000000000000000000000000000000000000000000000000000000000000000000000000000000000000000000000000000000000000000000000000000000000000000000000000000000000000000000000000000000000000000000000000000000000000000000000000000000000000000000000000000000000000000000000000000000000000000000000000000000000000000000000000000000000000000000000000000000000000000000000000000000000000000000000000000000000000000000000000000000000000000000000000000000000000000000000000000000000000000000000000000000000000008302000001847fffffff842940a5df8203e800a00000000000000000000000000000000000000000000000000000000000000000880000000000000000f90117f90114800a842940a5df94095e7baea6a6c7c4c2dfeb977efac326af552d8784754eb077b8ae457ffffffffffffffffffffffffffffffffffffffffffffffffffffffffffffffffe427f000000000000000000000000ffffffffffffffffffffffffffffffffffffffff357f000000000000000000000000ffffffffffffffffffffffffffffffffffffffff7f00000000000000000000000000000000000000000000000000000000000000007f000000000000000000000000000000000000000000000000000000000000000034208a340a9e1ca0233f37ff9cc59fb6da2ca68ee4bd5352921452aaab8a54566696bb382be41480a07d05a72d221a65aad89f46563295c62cec5db27d9028d9a29382aeaa18f7b0eac0",
                "transactions" : [
                    {
                        "data" : "0x457ffffffffffffffffffffffffffffffffffffffffffffffffffffffffffffffffe427f000000000000000000000000ffffffffffffffffffffffffffffffffffffffff357f000000000000000000000000ffffffffffffffffffffffffffffffffffffffff7f00000000000000000000000000000000000000000000000000000000000000007f000000000000000000000000000000000000000000000000000000000000000034208a340a9e",
                        "gasLimit" : "0x2940a5df",
                        "gasPrice" : "0x0a",
                        "nonce" : "0x00",
                        "r" : "0x233f37ff9cc59fb6da2ca68ee4bd5352921452aaab8a54566696bb382be41480",
                        "s" : "0x7d05a72d221a65aad89f46563295c62cec5db27d9028d9a29382aeaa18f7b0ea",
                        "sender" : "0xa94f5374fce5edbc8e2a8697c15331677e6ebf0b",
                        "to" : "0x095e7baea6a6c7c4c2dfeb977efac326af552d87",
                        "v" : "0x1c",
                        "value" : "0x754eb077"
                    }
                ],
                "uncleHeaders" : [
                ]
            }
        ],
        "genesisBlockHeader" : {
            "bloom" : "0x00000000000000000000000000000000000000000000000000000000000000000000000000000000000000000000000000000000000000000000000000000000000000000000000000000000000000000000000000000000000000000000000000000000000000000000000000000000000000000000000000000000000000000000000000000000000000000000000000000000000000000000000000000000000000000000000000000000000000000000000000000000000000000000000000000000000000000000000000000000000000000000000000000000000000000000000000000000000000000000000000000000000000000000000000000000",
            "coinbase" : "0x945304eb96065b2a98b57a48a06ae28d285a71b5",
            "difficulty" : "0x020000",
            "extraData" : "0x00",
            "gasLimit" : "0x7fffffff",
            "gasUsed" : "0x00",
            "hash" : "0x42ce10e25d75d954596a4d04e5440b5344460edcacd2c32f2d83d1a2d5f0460f",
            "mixHash" : "0x0000000000000000000000000000000000000000000000000000000000000000",
            "nonce" : "0x0000000000000000",
            "number" : "0x00",
            "parentHash" : "0x0000000000000000000000000000000000000000000000000000000000000000",
            "receiptTrie" : "0x56e81f171bcc55a6ff8345e692c0f86e5b48e01b996cadc001622fb5e363b421",
            "stateRoot" : "0x389c1f56e1116c18523f997fedfe79c851073899c404ab84d04c8a135a064796",
            "timestamp" : "0x00",
            "transactionsTrie" : "0x56e81f171bcc55a6ff8345e692c0f86e5b48e01b996cadc001622fb5e363b421",
            "uncleHash" : "0x1dcc4de8dec75d7aab85b567b6ccd41ad312451b948a7413f0a142fd40d49347"
        },
        "genesisRLP" : "0xf901f9f901f4a00000000000000000000000000000000000000000000000000000000000000000a01dcc4de8dec75d7aab85b567b6ccd41ad312451b948a7413f0a142fd40d4934794945304eb96065b2a98b57a48a06ae28d285a71b5a0389c1f56e1116c18523f997fedfe79c851073899c404ab84d04c8a135a064796a056e81f171bcc55a6ff8345e692c0f86e5b48e01b996cadc001622fb5e363b421a056e81f171bcc55a6ff8345e692c0f86e5b48e01b996cadc001622fb5e363b421b90100000000000000000000000000000000000000000000000000000000000000000000000000000000000000000000000000000000000000000000000000000000000000000000000000000000000000000000000000000000000000000000000000000000000000000000000000000000000000000000000000000000000000000000000000000000000000000000000000000000000000000000000000000000000000000000000000000000000000000000000000000000000000000000000000000000000000000000000000000000000000000000000000000000000000000000000000000000000000000000000000000000000000000000000000000000008302000080847fffffff808000a00000000000000000000000000000000000000000000000000000000000000000880000000000000000c0c0",
        "lastblockhash" : "0x4edf98aab1a96b9b59e4f4c2f0c41f5f9a2bd2754d4e074282ceac548d375586",
        "network" : "Istanbul",
        "postState" : {
            "0x095e7baea6a6c7c4c2dfeb977efac326af552d87" : {
                "balance" : "0x00",
                "code" : "0x457ffffffffffffffffffffffffffffffffffffffffffffffffffffffffffffffffe427f000000000000000000000000ffffffffffffffffffffffffffffffffffffffff357f000000000000000000000000ffffffffffffffffffffffffffffffffffffffff7f00000000000000000000000000000000000000000000000000000000000000007f000000000000000000000000000000000000000000000000000000000000000034208a340a9e5560005155",
                "nonce" : "0x00",
                "storage" : {
                }
            },
            "0x945304eb96065b2a98b57a48a06ae28d285a71b5" : {
                "balance" : "0x1bc16d68eb4e7ae4",
                "code" : "0x6000355415600957005b60203560003555",
                "nonce" : "0x00",
                "storage" : {
                }
            },
            "0xa94f5374fce5edbc8e2a8697c15331677e6ebf0b" : {
                "balance" : "0x0de0b6b20add854a",
                "code" : "0x",
                "nonce" : "0x01",
                "storage" : {
                }
            }
        },
        "pre" : {
            "0x095e7baea6a6c7c4c2dfeb977efac326af552d87" : {
                "balance" : "0x00",
                "code" : "0x457ffffffffffffffffffffffffffffffffffffffffffffffffffffffffffffffffe427f000000000000000000000000ffffffffffffffffffffffffffffffffffffffff357f000000000000000000000000ffffffffffffffffffffffffffffffffffffffff7f00000000000000000000000000000000000000000000000000000000000000007f000000000000000000000000000000000000000000000000000000000000000034208a340a9e5560005155",
                "nonce" : "0x00",
                "storage" : {
                }
            },
            "0x945304eb96065b2a98b57a48a06ae28d285a71b5" : {
                "balance" : "0x2e",
                "code" : "0x6000355415600957005b60203560003555",
                "nonce" : "0x00",
                "storage" : {
                }
            },
            "0xa94f5374fce5edbc8e2a8697c15331677e6ebf0b" : {
                "balance" : "0x0de0b6b3a7640000",
                "code" : "0x",
                "nonce" : "0x00",
                "storage" : {
                }
            }
        },
        "sealEngine" : "NoProof"
    },
    "randomStatetest524_d0g0v0_London" : {
        "_info" : {
            "comment" : "",
            "filling-rpc-server" : "evm version 1.11.0-unstable-dbd6c132-20230214",
            "filling-tool-version" : "retesteth-0.2.3-postmerge+commit.5691d0b9.Linux.g++",
            "generatedTestHash" : "38593fe3edc071a0a2b9c39ebb58fdcd7ee36fd3c57f3e253099d6219d8d47d1",
            "lllcversion" : "Version: 0.5.14-develop.2023.2.14+commit.a096d7a9.Linux.g++",
            "solidity" : "Version: 0.8.5+commit.a4f2e591.Linux.g++",
            "source" : "src/GeneralStateTestsFiller/stRandom2/randomStatetest524Filler.json",
            "sourceHash" : "f04de1d60b045f4f833f9a6e2b4b969301398ac2d14f053312cacf07aa340bd0"
        },
        "blocks" : [
            {
                "blockHeader" : {
                    "baseFeePerGas" : "0x0a",
                    "bloom" : "0x00000000000000000000000000000000000000000000000000000000000000000000000000000000000000000000000000000000000000000000000000000000000000000000000000000000000000000000000000000000000000000000000000000000000000000000000000000000000000000000000000000000000000000000000000000000000000000000000000000000000000000000000000000000000000000000000000000000000000000000000000000000000000000000000000000000000000000000000000000000000000000000000000000000000000000000000000000000000000000000000000000000000000000000000000000000",
                    "coinbase" : "0x945304eb96065b2a98b57a48a06ae28d285a71b5",
                    "difficulty" : "0x020000",
                    "extraData" : "0x00",
                    "gasLimit" : "0x7fffffff",
                    "gasUsed" : "0x2940a5df",
                    "hash" : "0x78cd9148edca7b6bf90c2e26650a4528aa5c244bbf916b40cae758f4ff5d29e0",
                    "mixHash" : "0x0000000000000000000000000000000000000000000000000000000000000000",
                    "nonce" : "0x0000000000000000",
                    "number" : "0x01",
                    "parentHash" : "0x76a05f9a77fc820a16def50ad58c443218e934f1ce4eedde543020a46d89e63d",
                    "receiptTrie" : "0x32d63916aeb9c63ac8381b2ca7d934bd7b72d23c1f526e7d7d5cfbc82c64c347",
                    "stateRoot" : "0x973767f231b51cfec924028664504f77d48400a41f47c36c2e1510cbfc3d282b",
                    "timestamp" : "0x03e8",
                    "transactionsTrie" : "0x0b583b45b7be45163914d18e2edbc5a2fe9af1ca7194034d94c1d70a94205623",
                    "uncleHash" : "0x1dcc4de8dec75d7aab85b567b6ccd41ad312451b948a7413f0a142fd40d49347"
                },
                "rlp" : "0xf90319f901fba076a05f9a77fc820a16def50ad58c443218e934f1ce4eedde543020a46d89e63da01dcc4de8dec75d7aab85b567b6ccd41ad312451b948a7413f0a142fd40d4934794945304eb96065b2a98b57a48a06ae28d285a71b5a0973767f231b51cfec924028664504f77d48400a41f47c36c2e1510cbfc3d282ba00b583b45b7be45163914d18e2edbc5a2fe9af1ca7194034d94c1d70a94205623a032d63916aeb9c63ac8381b2ca7d934bd7b72d23c1f526e7d7d5cfbc82c64c347b90100000000000000000000000000000000000000000000000000000000000000000000000000000000000000000000000000000000000000000000000000000000000000000000000000000000000000000000000000000000000000000000000000000000000000000000000000000000000000000000000000000000000000000000000000000000000000000000000000000000000000000000000000000000000000000000000000000000000000000000000000000000000000000000000000000000000000000000000000000000000000000000000000000000000000000000000000000000000000000000000000000000000000000000000000000000008302000001847fffffff842940a5df8203e800a000000000000000000000000000000000000000000000000000000000000000008800000000000000000af90117f90114800a842940a5df94095e7baea6a6c7c4c2dfeb977efac326af552d8784754eb077b8ae457ffffffffffffffffffffffffffffffffffffffffffffffffffffffffffffffffe427f000000000000000000000000ffffffffffffffffffffffffffffffffffffffff357f000000000000000000000000ffffffffffffffffffffffffffffffffffffffff7f00000000000000000000000000000000000000000000000000000000000000007f000000000000000000000000000000000000000000000000000000000000000034208a340a9e1ca0233f37ff9cc59fb6da2ca68ee4bd5352921452aaab8a54566696bb382be41480a07d05a72d221a65aad89f46563295c62cec5db27d9028d9a29382aeaa18f7b0eac0",
                "transactions" : [
                    {
                        "data" : "0x457ffffffffffffffffffffffffffffffffffffffffffffffffffffffffffffffffe427f000000000000000000000000ffffffffffffffffffffffffffffffffffffffff357f000000000000000000000000ffffffffffffffffffffffffffffffffffffffff7f00000000000000000000000000000000000000000000000000000000000000007f000000000000000000000000000000000000000000000000000000000000000034208a340a9e",
                        "gasLimit" : "0x2940a5df",
                        "gasPrice" : "0x0a",
                        "nonce" : "0x00",
                        "r" : "0x233f37ff9cc59fb6da2ca68ee4bd5352921452aaab8a54566696bb382be41480",
                        "s" : "0x7d05a72d221a65aad89f46563295c62cec5db27d9028d9a29382aeaa18f7b0ea",
                        "sender" : "0xa94f5374fce5edbc8e2a8697c15331677e6ebf0b",
                        "to" : "0x095e7baea6a6c7c4c2dfeb977efac326af552d87",
                        "v" : "0x1c",
                        "value" : "0x754eb077"
                    }
                ],
                "uncleHeaders" : [
                ]
            }
        ],
        "genesisBlockHeader" : {
            "baseFeePerGas" : "0x0b",
            "bloom" : "0x00000000000000000000000000000000000000000000000000000000000000000000000000000000000000000000000000000000000000000000000000000000000000000000000000000000000000000000000000000000000000000000000000000000000000000000000000000000000000000000000000000000000000000000000000000000000000000000000000000000000000000000000000000000000000000000000000000000000000000000000000000000000000000000000000000000000000000000000000000000000000000000000000000000000000000000000000000000000000000000000000000000000000000000000000000000",
            "coinbase" : "0x945304eb96065b2a98b57a48a06ae28d285a71b5",
            "difficulty" : "0x020000",
            "extraData" : "0x00",
            "gasLimit" : "0x7fffffff",
            "gasUsed" : "0x00",
            "hash" : "0x76a05f9a77fc820a16def50ad58c443218e934f1ce4eedde543020a46d89e63d",
            "mixHash" : "0x0000000000000000000000000000000000000000000000000000000000000000",
            "nonce" : "0x0000000000000000",
            "number" : "0x00",
            "parentHash" : "0x0000000000000000000000000000000000000000000000000000000000000000",
            "receiptTrie" : "0x56e81f171bcc55a6ff8345e692c0f86e5b48e01b996cadc001622fb5e363b421",
            "stateRoot" : "0x389c1f56e1116c18523f997fedfe79c851073899c404ab84d04c8a135a064796",
            "timestamp" : "0x00",
            "transactionsTrie" : "0x56e81f171bcc55a6ff8345e692c0f86e5b48e01b996cadc001622fb5e363b421",
            "uncleHash" : "0x1dcc4de8dec75d7aab85b567b6ccd41ad312451b948a7413f0a142fd40d49347"
        },
        "genesisRLP" : "0xf901faf901f5a00000000000000000000000000000000000000000000000000000000000000000a01dcc4de8dec75d7aab85b567b6ccd41ad312451b948a7413f0a142fd40d4934794945304eb96065b2a98b57a48a06ae28d285a71b5a0389c1f56e1116c18523f997fedfe79c851073899c404ab84d04c8a135a064796a056e81f171bcc55a6ff8345e692c0f86e5b48e01b996cadc001622fb5e363b421a056e81f171bcc55a6ff8345e692c0f86e5b48e01b996cadc001622fb5e363b421b90100000000000000000000000000000000000000000000000000000000000000000000000000000000000000000000000000000000000000000000000000000000000000000000000000000000000000000000000000000000000000000000000000000000000000000000000000000000000000000000000000000000000000000000000000000000000000000000000000000000000000000000000000000000000000000000000000000000000000000000000000000000000000000000000000000000000000000000000000000000000000000000000000000000000000000000000000000000000000000000000000000000000000000000000000000000008302000080847fffffff808000a000000000000000000000000000000000000000000000000000000000000000008800000000000000000bc0c0",
        "lastblockhash" : "0x78cd9148edca7b6bf90c2e26650a4528aa5c244bbf916b40cae758f4ff5d29e0",
        "network" : "London",
        "postState" : {
            "0x095e7baea6a6c7c4c2dfeb977efac326af552d87" : {
                "balance" : "0x00",
                "code" : "0x457ffffffffffffffffffffffffffffffffffffffffffffffffffffffffffffffffe427f000000000000000000000000ffffffffffffffffffffffffffffffffffffffff357f000000000000000000000000ffffffffffffffffffffffffffffffffffffffff7f00000000000000000000000000000000000000000000000000000000000000007f000000000000000000000000000000000000000000000000000000000000000034208a340a9e5560005155",
                "nonce" : "0x00",
                "storage" : {
                }
            },
            "0x945304eb96065b2a98b57a48a06ae28d285a71b5" : {
                "balance" : "0x1bc16d674ec8002e",
                "code" : "0x6000355415600957005b60203560003555",
                "nonce" : "0x00",
                "storage" : {
                }
            },
            "0xa94f5374fce5edbc8e2a8697c15331677e6ebf0b" : {
                "balance" : "0x0de0b6b20add854a",
                "code" : "0x",
                "nonce" : "0x01",
                "storage" : {
                }
            }
        },
        "pre" : {
            "0x095e7baea6a6c7c4c2dfeb977efac326af552d87" : {
                "balance" : "0x00",
                "code" : "0x457ffffffffffffffffffffffffffffffffffffffffffffffffffffffffffffffffe427f000000000000000000000000ffffffffffffffffffffffffffffffffffffffff357f000000000000000000000000ffffffffffffffffffffffffffffffffffffffff7f00000000000000000000000000000000000000000000000000000000000000007f000000000000000000000000000000000000000000000000000000000000000034208a340a9e5560005155",
                "nonce" : "0x00",
                "storage" : {
                }
            },
            "0x945304eb96065b2a98b57a48a06ae28d285a71b5" : {
                "balance" : "0x2e",
                "code" : "0x6000355415600957005b60203560003555",
                "nonce" : "0x00",
                "storage" : {
                }
            },
            "0xa94f5374fce5edbc8e2a8697c15331677e6ebf0b" : {
                "balance" : "0x0de0b6b3a7640000",
                "code" : "0x",
                "nonce" : "0x00",
                "storage" : {
                }
            }
        },
        "sealEngine" : "NoProof"
    },
    "randomStatetest524_d0g0v0_Merge" : {
        "_info" : {
            "comment" : "",
            "filling-rpc-server" : "evm version 1.11.0-unstable-dbd6c132-20230214",
            "filling-tool-version" : "retesteth-0.2.3-postmerge+commit.5691d0b9.Linux.g++",
            "generatedTestHash" : "32972dd4ff1aa8480a8f0fb10a473f276dbbe6985102ca7a8a420f84f4484eaa",
            "lllcversion" : "Version: 0.5.14-develop.2023.2.14+commit.a096d7a9.Linux.g++",
            "solidity" : "Version: 0.8.5+commit.a4f2e591.Linux.g++",
            "source" : "src/GeneralStateTestsFiller/stRandom2/randomStatetest524Filler.json",
            "sourceHash" : "f04de1d60b045f4f833f9a6e2b4b969301398ac2d14f053312cacf07aa340bd0"
        },
        "blocks" : [
            {
                "blockHeader" : {
                    "baseFeePerGas" : "0x0a",
                    "bloom" : "0x00000000000000000000000000000000000000000000000000000000000000000000000000000000000000000000000000000000000000000000000000000000000000000000000000000000000000000000000000000000000000000000000000000000000000000000000000000000000000000000000000000000000000000000000000000000000000000000000000000000000000000000000000000000000000000000000000000000000000000000000000000000000000000000000000000000000000000000000000000000000000000000000000000000000000000000000000000000000000000000000000000000000000000000000000000000",
                    "coinbase" : "0x945304eb96065b2a98b57a48a06ae28d285a71b5",
                    "difficulty" : "0x00",
                    "extraData" : "0x00",
                    "gasLimit" : "0x7fffffff",
                    "gasUsed" : "0x2940a5df",
                    "hash" : "0xcd7c2f1189e634c65d6f09f38d0acc007083944f748dbd39ce531ca25cf7bc5b",
                    "mixHash" : "0x0000000000000000000000000000000000000000000000000000000000020000",
                    "nonce" : "0x0000000000000000",
                    "number" : "0x01",
                    "parentHash" : "0xa44d3937cf2375632badab6770ec4e02c5401671cbcae57a2973b1d7b503692e",
                    "receiptTrie" : "0x32d63916aeb9c63ac8381b2ca7d934bd7b72d23c1f526e7d7d5cfbc82c64c347",
                    "stateRoot" : "0x16cc95db2df41f6f73af2fd07ca11d3d0fff9d8d58d7340fa45c6ffa79b65984",
                    "timestamp" : "0x03e8",
                    "transactionsTrie" : "0x0b583b45b7be45163914d18e2edbc5a2fe9af1ca7194034d94c1d70a94205623",
                    "uncleHash" : "0x1dcc4de8dec75d7aab85b567b6ccd41ad312451b948a7413f0a142fd40d49347"
                },
                "rlp" : "0xf90316f901f8a0a44d3937cf2375632badab6770ec4e02c5401671cbcae57a2973b1d7b503692ea01dcc4de8dec75d7aab85b567b6ccd41ad312451b948a7413f0a142fd40d4934794945304eb96065b2a98b57a48a06ae28d285a71b5a016cc95db2df41f6f73af2fd07ca11d3d0fff9d8d58d7340fa45c6ffa79b65984a00b583b45b7be45163914d18e2edbc5a2fe9af1ca7194034d94c1d70a94205623a032d63916aeb9c63ac8381b2ca7d934bd7b72d23c1f526e7d7d5cfbc82c64c347b90100000000000000000000000000000000000000000000000000000000000000000000000000000000000000000000000000000000000000000000000000000000000000000000000000000000000000000000000000000000000000000000000000000000000000000000000000000000000000000000000000000000000000000000000000000000000000000000000000000000000000000000000000000000000000000000000000000000000000000000000000000000000000000000000000000000000000000000000000000000000000000000000000000000000000000000000000000000000000000000000000000000000000000000000000000000008001847fffffff842940a5df8203e800a000000000000000000000000000000000000000000000000000000000000200008800000000000000000af90117f90114800a842940a5df94095e7baea6a6c7c4c2dfeb977efac326af552d8784754eb077b8ae457ffffffffffffffffffffffffffffffffffffffffffffffffffffffffffffffffe427f000000000000000000000000ffffffffffffffffffffffffffffffffffffffff357f000000000000000000000000ffffffffffffffffffffffffffffffffffffffff7f00000000000000000000000000000000000000000000000000000000000000007f000000000000000000000000000000000000000000000000000000000000000034208a340a9e1ca0233f37ff9cc59fb6da2ca68ee4bd5352921452aaab8a54566696bb382be41480a07d05a72d221a65aad89f46563295c62cec5db27d9028d9a29382aeaa18f7b0eac0",
                "transactions" : [
                    {
                        "data" : "0x457ffffffffffffffffffffffffffffffffffffffffffffffffffffffffffffffffe427f000000000000000000000000ffffffffffffffffffffffffffffffffffffffff357f000000000000000000000000ffffffffffffffffffffffffffffffffffffffff7f00000000000000000000000000000000000000000000000000000000000000007f000000000000000000000000000000000000000000000000000000000000000034208a340a9e",
                        "gasLimit" : "0x2940a5df",
                        "gasPrice" : "0x0a",
                        "nonce" : "0x00",
                        "r" : "0x233f37ff9cc59fb6da2ca68ee4bd5352921452aaab8a54566696bb382be41480",
                        "s" : "0x7d05a72d221a65aad89f46563295c62cec5db27d9028d9a29382aeaa18f7b0ea",
                        "sender" : "0xa94f5374fce5edbc8e2a8697c15331677e6ebf0b",
                        "to" : "0x095e7baea6a6c7c4c2dfeb977efac326af552d87",
                        "v" : "0x1c",
                        "value" : "0x754eb077"
                    }
                ],
                "uncleHeaders" : [
                ]
            }
        ],
        "genesisBlockHeader" : {
            "baseFeePerGas" : "0x0b",
            "bloom" : "0x00000000000000000000000000000000000000000000000000000000000000000000000000000000000000000000000000000000000000000000000000000000000000000000000000000000000000000000000000000000000000000000000000000000000000000000000000000000000000000000000000000000000000000000000000000000000000000000000000000000000000000000000000000000000000000000000000000000000000000000000000000000000000000000000000000000000000000000000000000000000000000000000000000000000000000000000000000000000000000000000000000000000000000000000000000000",
            "coinbase" : "0x945304eb96065b2a98b57a48a06ae28d285a71b5",
            "difficulty" : "0x00",
            "extraData" : "0x00",
            "gasLimit" : "0x7fffffff",
            "gasUsed" : "0x00",
            "hash" : "0xa44d3937cf2375632badab6770ec4e02c5401671cbcae57a2973b1d7b503692e",
            "mixHash" : "0x0000000000000000000000000000000000000000000000000000000000020000",
            "nonce" : "0x0000000000000000",
            "number" : "0x00",
            "parentHash" : "0x0000000000000000000000000000000000000000000000000000000000000000",
            "receiptTrie" : "0x56e81f171bcc55a6ff8345e692c0f86e5b48e01b996cadc001622fb5e363b421",
            "stateRoot" : "0x389c1f56e1116c18523f997fedfe79c851073899c404ab84d04c8a135a064796",
            "timestamp" : "0x00",
            "transactionsTrie" : "0x56e81f171bcc55a6ff8345e692c0f86e5b48e01b996cadc001622fb5e363b421",
            "uncleHash" : "0x1dcc4de8dec75d7aab85b567b6ccd41ad312451b948a7413f0a142fd40d49347"
        },
        "genesisRLP" : "0xf901f7f901f2a00000000000000000000000000000000000000000000000000000000000000000a01dcc4de8dec75d7aab85b567b6ccd41ad312451b948a7413f0a142fd40d4934794945304eb96065b2a98b57a48a06ae28d285a71b5a0389c1f56e1116c18523f997fedfe79c851073899c404ab84d04c8a135a064796a056e81f171bcc55a6ff8345e692c0f86e5b48e01b996cadc001622fb5e363b421a056e81f171bcc55a6ff8345e692c0f86e5b48e01b996cadc001622fb5e363b421b90100000000000000000000000000000000000000000000000000000000000000000000000000000000000000000000000000000000000000000000000000000000000000000000000000000000000000000000000000000000000000000000000000000000000000000000000000000000000000000000000000000000000000000000000000000000000000000000000000000000000000000000000000000000000000000000000000000000000000000000000000000000000000000000000000000000000000000000000000000000000000000000000000000000000000000000000000000000000000000000000000000000000000000000000000000000008080847fffffff808000a000000000000000000000000000000000000000000000000000000000000200008800000000000000000bc0c0",
        "lastblockhash" : "0xcd7c2f1189e634c65d6f09f38d0acc007083944f748dbd39ce531ca25cf7bc5b",
        "network" : "Merge",
        "postState" : {
            "0x095e7baea6a6c7c4c2dfeb977efac326af552d87" : {
                "balance" : "0x00",
                "code" : "0x457ffffffffffffffffffffffffffffffffffffffffffffffffffffffffffffffffe427f000000000000000000000000ffffffffffffffffffffffffffffffffffffffff357f000000000000000000000000ffffffffffffffffffffffffffffffffffffffff7f00000000000000000000000000000000000000000000000000000000000000007f000000000000000000000000000000000000000000000000000000000000000034208a340a9e5560005155",
                "nonce" : "0x00",
                "storage" : {
                }
            },
            "0x945304eb96065b2a98b57a48a06ae28d285a71b5" : {
                "balance" : "0x2e",
                "code" : "0x6000355415600957005b60203560003555",
                "nonce" : "0x00",
                "storage" : {
                }
            },
            "0xa94f5374fce5edbc8e2a8697c15331677e6ebf0b" : {
                "balance" : "0x0de0b6b20add854a",
                "code" : "0x",
                "nonce" : "0x01",
                "storage" : {
                }
            }
        },
        "pre" : {
            "0x095e7baea6a6c7c4c2dfeb977efac326af552d87" : {
                "balance" : "0x00",
                "code" : "0x457ffffffffffffffffffffffffffffffffffffffffffffffffffffffffffffffffe427f000000000000000000000000ffffffffffffffffffffffffffffffffffffffff357f000000000000000000000000ffffffffffffffffffffffffffffffffffffffff7f00000000000000000000000000000000000000000000000000000000000000007f000000000000000000000000000000000000000000000000000000000000000034208a340a9e5560005155",
                "nonce" : "0x00",
                "storage" : {
                }
            },
            "0x945304eb96065b2a98b57a48a06ae28d285a71b5" : {
                "balance" : "0x2e",
                "code" : "0x6000355415600957005b60203560003555",
                "nonce" : "0x00",
                "storage" : {
                }
            },
            "0xa94f5374fce5edbc8e2a8697c15331677e6ebf0b" : {
                "balance" : "0x0de0b6b3a7640000",
                "code" : "0x",
                "nonce" : "0x00",
                "storage" : {
                }
            }
        },
        "sealEngine" : "NoProof"
    }
}