{
    "randomStatetest418_d0g0v0_Berlin" : {
        "_info" : {
            "comment" : "",
            "filling-rpc-server" : "evm version 1.11.0-unstable-dbd6c132-20230214",
            "filling-tool-version" : "retesteth-0.2.3-postmerge+commit.5691d0b9.Linux.g++",
            "generatedTestHash" : "048520cb7b3e17b1e3ee0b1cf5e5b40659947084c21eb1c98a77059621b387df",
            "lllcversion" : "Version: 0.5.14-develop.2023.2.14+commit.a096d7a9.Linux.g++",
            "solidity" : "Version: 0.8.5+commit.a4f2e591.Linux.g++",
            "source" : "src/GeneralStateTestsFiller/stRandom2/randomStatetest418Filler.json",
            "sourceHash" : "2fc8581d11f67da084062dc005d74d530b6acf276bfee32ee443412e83c30071"
        },
        "blocks" : [
            {
                "blockHeader" : {
                    "bloom" : "0x00000000000000001000000000000000000000000000000000000000000000000000000000000000000000000000000000000010000000000000000000040000000000000000000000000000000000001000000000040000000000000000000000000000000000000000000004000000000000000000000000000000000000000000000000000000000000000000000000000000000000000000000000000000000000000000000004000000000000000000000010000000000000000000000000000000000000000000000000000040000000000000000000000000000040000000000040000000000000000000000020000000000000000000000000000000",
                    "coinbase" : "0x945304eb96065b2a98b57a48a06ae28d285a71b5",
                    "difficulty" : "0x020000",
                    "extraData" : "0x00",
                    "gasLimit" : "0x7fffffff",
                    "gasUsed" : "0x0303d12f",
                    "hash" : "0x4b3f8e062c1dc83c597a77d9a206de0c255f52f3dfc62f488a1f8deaa126fd85",
                    "mixHash" : "0x0000000000000000000000000000000000000000000000000000000000000000",
                    "nonce" : "0x0000000000000000",
                    "number" : "0x01",
                    "parentHash" : "0xf7c360a2959f3214fa02fceb5bc623ef6914a70791cf22edd561c82f645912b4",
                    "receiptTrie" : "0x0c762947841d33b906e99956bd472d670538a2b6a77e508ae46df2f1d77e71e0",
                    "stateRoot" : "0x8e48f8cd856a4173e0011ff8e28b0b88a4c5e7256fa0585b1e15ee8b9c006780",
                    "timestamp" : "0x03e8",
                    "transactionsTrie" : "0xdfad9510d2cad6ea5791aabcebbaac76993e9bca4da49bfda0ca6887ef36ba52",
                    "uncleHash" : "0x1dcc4de8dec75d7aab85b567b6ccd41ad312451b948a7413f0a142fd40d49347"
                },
                "rlp" : "0xf9033bf901faa0f7c360a2959f3214fa02fceb5bc623ef6914a70791cf22edd561c82f645912b4a01dcc4de8dec75d7aab85b567b6ccd41ad312451b948a7413f0a142fd40d4934794945304eb96065b2a98b57a48a06ae28d285a71b5a08e48f8cd856a4173e0011ff8e28b0b88a4c5e7256fa0585b1e15ee8b9c006780a0dfad9510d2cad6ea5791aabcebbaac76993e9bca4da49bfda0ca6887ef36ba52a00c762947841d33b906e99956bd472d670538a2b6a77e508ae46df2f1d77e71e0b90100000000000000000010000000000000000000000000000000000000000000000000000000000000000000000000000000000000100000000000000000000400000000000000000000000000000000000010000000000400000000000000000000000000000000000000000000040000000000000000000000000000000000000000000000000000000000000000000000000000000000000000000000000000000000000000000000040000000000000000000000100000000000000000000000000000000000000000000000000000400000000000000000000000000000400000000000400000000000000000000000200000000000000000000000000000008302000001847fffffff840303d12f8203e800a00000000000000000000000000000000000000000000000000000000000000000880000000000000000f9013af90137800a8417647ecd94095e7baea6a6c7c4c2dfeb977efac326af552d878465a87a48b8d17f0000000000000000000000000000000000000000000000000000000000000000437f00000000000000000000000000000000000000000000000000000000000000017f000000000000000000000000945304eb96065b2a98b57a48a06ae28d285a71b57f000000000000000000000000000000000000000000000000000000000000c3507f0000000000000000000000000000000000000000000000000000000000000000417fffffffffffffffffffffffffffffffffffffffffffffffffffffffffffffffff12a36234970658a0311ca0b1d5e6079e41a7bd620475aa1a78376298fe092480c2a6f915f594f687238009a048bee4c118fb90dc127da338f217350a7a508b9a6cbab435eae0387389a3cbdcc0",
                "transactions" : [
                    {
                        "data" : "0x7f0000000000000000000000000000000000000000000000000000000000000000437f00000000000000000000000000000000000000000000000000000000000000017f000000000000000000000000945304eb96065b2a98b57a48a06ae28d285a71b57f000000000000000000000000000000000000000000000000000000000000c3507f0000000000000000000000000000000000000000000000000000000000000000417fffffffffffffffffffffffffffffffffffffffffffffffffffffffffffffffff12a36234970658a031",
                        "gasLimit" : "0x17647ecd",
                        "gasPrice" : "0x0a",
                        "nonce" : "0x00",
                        "r" : "0xb1d5e6079e41a7bd620475aa1a78376298fe092480c2a6f915f594f687238009",
                        "s" : "0x48bee4c118fb90dc127da338f217350a7a508b9a6cbab435eae0387389a3cbdc",
                        "sender" : "0xa94f5374fce5edbc8e2a8697c15331677e6ebf0b",
                        "to" : "0x095e7baea6a6c7c4c2dfeb977efac326af552d87",
                        "v" : "0x1c",
                        "value" : "0x65a87a48"
                    }
                ],
                "uncleHeaders" : [
                ]
            }
        ],
        "genesisBlockHeader" : {
            "bloom" : "0x00000000000000000000000000000000000000000000000000000000000000000000000000000000000000000000000000000000000000000000000000000000000000000000000000000000000000000000000000000000000000000000000000000000000000000000000000000000000000000000000000000000000000000000000000000000000000000000000000000000000000000000000000000000000000000000000000000000000000000000000000000000000000000000000000000000000000000000000000000000000000000000000000000000000000000000000000000000000000000000000000000000000000000000000000000000",
            "coinbase" : "0x945304eb96065b2a98b57a48a06ae28d285a71b5",
            "difficulty" : "0x020000",
            "extraData" : "0x00",
            "gasLimit" : "0x7fffffff",
            "gasUsed" : "0x00",
            "hash" : "0xf7c360a2959f3214fa02fceb5bc623ef6914a70791cf22edd561c82f645912b4",
            "mixHash" : "0x0000000000000000000000000000000000000000000000000000000000000000",
            "nonce" : "0x0000000000000000",
            "number" : "0x00",
            "parentHash" : "0x0000000000000000000000000000000000000000000000000000000000000000",
            "receiptTrie" : "0x56e81f171bcc55a6ff8345e692c0f86e5b48e01b996cadc001622fb5e363b421",
            "stateRoot" : "0xb21fa3df90bd0c7b3de18686a99345cba306f5d0b90ab73f064471d14a6c4d58",
            "timestamp" : "0x00",
            "transactionsTrie" : "0x56e81f171bcc55a6ff8345e692c0f86e5b48e01b996cadc001622fb5e363b421",
            "uncleHash" : "0x1dcc4de8dec75d7aab85b567b6ccd41ad312451b948a7413f0a142fd40d49347"
        },
        "genesisRLP" : "0xf901f9f901f4a00000000000000000000000000000000000000000000000000000000000000000a01dcc4de8dec75d7aab85b567b6ccd41ad312451b948a7413f0a142fd40d4934794945304eb96065b2a98b57a48a06ae28d285a71b5a0b21fa3df90bd0c7b3de18686a99345cba306f5d0b90ab73f064471d14a6c4d58a056e81f171bcc55a6ff8345e692c0f86e5b48e01b996cadc001622fb5e363b421a056e81f171bcc55a6ff8345e692c0f86e5b48e01b996cadc001622fb5e363b421b90100000000000000000000000000000000000000000000000000000000000000000000000000000000000000000000000000000000000000000000000000000000000000000000000000000000000000000000000000000000000000000000000000000000000000000000000000000000000000000000000000000000000000000000000000000000000000000000000000000000000000000000000000000000000000000000000000000000000000000000000000000000000000000000000000000000000000000000000000000000000000000000000000000000000000000000000000000000000000000000000000000000000000000000000000000000008302000080847fffffff808000a00000000000000000000000000000000000000000000000000000000000000000880000000000000000c0c0",
        "lastblockhash" : "0x4b3f8e062c1dc83c597a77d9a206de0c255f52f3dfc62f488a1f8deaa126fd85",
        "network" : "Berlin",
        "postState" : {
            "0x095e7baea6a6c7c4c2dfeb977efac326af552d87" : {
                "balance" : "0x65a87a48",
                "code" : "0x7f0000000000000000000000000000000000000000000000000000000000000000437f00000000000000000000000000000000000000000000000000000000000000017f000000000000000000000000945304eb96065b2a98b57a48a06ae28d285a71b57f000000000000000000000000000000000000000000000000000000000000c3507f0000000000000000000000000000000000000000000000000000000000000000417fffffffffffffffffffffffffffffffffffffffffffffffffffffffffffffffff12a36234970658a03160005155",
                "nonce" : "0x00",
                "storage" : {
                }
            },
            "0x945304eb96065b2a98b57a48a06ae28d285a71b5" : {
                "balance" : "0x1bc16d676cee2c04",
                "code" : "0x6000355415600957005b60203560003555",
                "nonce" : "0x00",
                "storage" : {
                }
            },
            "0xa94f5374fce5edbc8e2a8697c15331677e6ebf0b" : {
                "balance" : "0x0de0b6b3239559e2",
                "code" : "0x",
                "nonce" : "0x01",
                "storage" : {
                }
            }
        },
        "pre" : {
            "0x095e7baea6a6c7c4c2dfeb977efac326af552d87" : {
                "balance" : "0x00",
                "code" : "0x7f0000000000000000000000000000000000000000000000000000000000000000437f00000000000000000000000000000000000000000000000000000000000000017f000000000000000000000000945304eb96065b2a98b57a48a06ae28d285a71b57f000000000000000000000000000000000000000000000000000000000000c3507f0000000000000000000000000000000000000000000000000000000000000000417fffffffffffffffffffffffffffffffffffffffffffffffffffffffffffffffff12a36234970658a03160005155",
                "nonce" : "0x00",
                "storage" : {
                }
            },
            "0x945304eb96065b2a98b57a48a06ae28d285a71b5" : {
                "balance" : "0x2e",
                "code" : "0x6000355415600957005b60203560003555",
                "nonce" : "0x00",
                "storage" : {
                }
            },
            "0xa94f5374fce5edbc8e2a8697c15331677e6ebf0b" : {
                "balance" : "0x0de0b6b3a7640000",
                "code" : "0x",
                "nonce" : "0x00",
                "storage" : {
                }
            }
        },
        "sealEngine" : "NoProof"
    },
    "randomStatetest418_d0g0v0_Istanbul" : {
        "_info" : {
            "comment" : "",
            "filling-rpc-server" : "evm version 1.11.0-unstable-dbd6c132-20230214",
            "filling-tool-version" : "retesteth-0.2.3-postmerge+commit.5691d0b9.Linux.g++",
            "generatedTestHash" : "102ae39caf0ee603adcdcc127de9fac54bb356afa14b86c5b5beb984677840c5",
            "lllcversion" : "Version: 0.5.14-develop.2023.2.14+commit.a096d7a9.Linux.g++",
            "solidity" : "Version: 0.8.5+commit.a4f2e591.Linux.g++",
            "source" : "src/GeneralStateTestsFiller/stRandom2/randomStatetest418Filler.json",
            "sourceHash" : "2fc8581d11f67da084062dc005d74d530b6acf276bfee32ee443412e83c30071"
        },
        "blocks" : [
            {
                "blockHeader" : {
                    "bloom" : "0x00000000000000001000000000000000000000000000000000000000000000000000000000000000000000000000000000000010000000000000000000040000000000000000000000000000000000001000000000040000000000000000000000000000000000000000000004000000000000000000000000000000000000000000000000000000000000000000000000000000000000000000000000000000000000000000000004000000000000000000000010000000000000000000000000000000000000000000000000000040000000000000000000000000000040000000000040000000000000000000000020000000000000000000000000000000",
                    "coinbase" : "0x945304eb96065b2a98b57a48a06ae28d285a71b5",
                    "difficulty" : "0x020000",
                    "extraData" : "0x00",
                    "gasLimit" : "0x7fffffff",
                    "gasUsed" : "0x0303ce0f",
                    "hash" : "0x0991bd3b48ed95a1636c73756832c1f66340c1c2b0a9708d377e5f76b2d7001f",
                    "mixHash" : "0x0000000000000000000000000000000000000000000000000000000000000000",
                    "nonce" : "0x0000000000000000",
                    "number" : "0x01",
                    "parentHash" : "0xf7c360a2959f3214fa02fceb5bc623ef6914a70791cf22edd561c82f645912b4",
                    "receiptTrie" : "0xc239276afaa5517dc5aee80d710377f0dd17a1fbf5e80c9b5cffa84db11635ab",
                    "stateRoot" : "0x9324dc5c2ac1b5ca5d9d79f63f87743f7f95fa240074b0015f10d2632fd81745",
                    "timestamp" : "0x03e8",
                    "transactionsTrie" : "0xdfad9510d2cad6ea5791aabcebbaac76993e9bca4da49bfda0ca6887ef36ba52",
                    "uncleHash" : "0x1dcc4de8dec75d7aab85b567b6ccd41ad312451b948a7413f0a142fd40d49347"
                },
                "rlp" : "0xf9033bf901faa0f7c360a2959f3214fa02fceb5bc623ef6914a70791cf22edd561c82f645912b4a01dcc4de8dec75d7aab85b567b6ccd41ad312451b948a7413f0a142fd40d4934794945304eb96065b2a98b57a48a06ae28d285a71b5a09324dc5c2ac1b5ca5d9d79f63f87743f7f95fa240074b0015f10d2632fd81745a0dfad9510d2cad6ea5791aabcebbaac76993e9bca4da49bfda0ca6887ef36ba52a0c239276afaa5517dc5aee80d710377f0dd17a1fbf5e80c9b5cffa84db11635abb90100000000000000000010000000000000000000000000000000000000000000000000000000000000000000000000000000000000100000000000000000000400000000000000000000000000000000000010000000000400000000000000000000000000000000000000000000040000000000000000000000000000000000000000000000000000000000000000000000000000000000000000000000000000000000000000000000040000000000000000000000100000000000000000000000000000000000000000000000000000400000000000000000000000000000400000000000400000000000000000000000200000000000000000000000000000008302000001847fffffff840303ce0f8203e800a00000000000000000000000000000000000000000000000000000000000000000880000000000000000f9013af90137800a8417647ecd94095e7baea6a6c7c4c2dfeb977efac326af552d878465a87a48b8d17f0000000000000000000000000000000000000000000000000000000000000000437f00000000000000000000000000000000000000000000000000000000000000017f000000000000000000000000945304eb96065b2a98b57a48a06ae28d285a71b57f000000000000000000000000000000000000000000000000000000000000c3507f0000000000000000000000000000000000000000000000000000000000000000417fffffffffffffffffffffffffffffffffffffffffffffffffffffffffffffffff12a36234970658a0311ca0b1d5e6079e41a7bd620475aa1a78376298fe092480c2a6f915f594f687238009a048bee4c118fb90dc127da338f217350a7a508b9a6cbab435eae0387389a3cbdcc0",
                "transactions" : [
                    {
                        "data" : "0x7f0000000000000000000000000000000000000000000000000000000000000000437f00000000000000000000000000000000000000000000000000000000000000017f000000000000000000000000945304eb96065b2a98b57a48a06ae28d285a71b57f000000000000000000000000000000000000000000000000000000000000c3507f0000000000000000000000000000000000000000000000000000000000000000417fffffffffffffffffffffffffffffffffffffffffffffffffffffffffffffffff12a36234970658a031",
                        "gasLimit" : "0x17647ecd",
                        "gasPrice" : "0x0a",
                        "nonce" : "0x00",
                        "r" : "0xb1d5e6079e41a7bd620475aa1a78376298fe092480c2a6f915f594f687238009",
                        "s" : "0x48bee4c118fb90dc127da338f217350a7a508b9a6cbab435eae0387389a3cbdc",
                        "sender" : "0xa94f5374fce5edbc8e2a8697c15331677e6ebf0b",
                        "to" : "0x095e7baea6a6c7c4c2dfeb977efac326af552d87",
                        "v" : "0x1c",
                        "value" : "0x65a87a48"
                    }
                ],
                "uncleHeaders" : [
                ]
            }
        ],
        "genesisBlockHeader" : {
            "bloom" : "0x00000000000000000000000000000000000000000000000000000000000000000000000000000000000000000000000000000000000000000000000000000000000000000000000000000000000000000000000000000000000000000000000000000000000000000000000000000000000000000000000000000000000000000000000000000000000000000000000000000000000000000000000000000000000000000000000000000000000000000000000000000000000000000000000000000000000000000000000000000000000000000000000000000000000000000000000000000000000000000000000000000000000000000000000000000000",
            "coinbase" : "0x945304eb96065b2a98b57a48a06ae28d285a71b5",
            "difficulty" : "0x020000",
            "extraData" : "0x00",
            "gasLimit" : "0x7fffffff",
            "gasUsed" : "0x00",
            "hash" : "0xf7c360a2959f3214fa02fceb5bc623ef6914a70791cf22edd561c82f645912b4",
            "mixHash" : "0x0000000000000000000000000000000000000000000000000000000000000000",
            "nonce" : "0x0000000000000000",
            "number" : "0x00",
            "parentHash" : "0x0000000000000000000000000000000000000000000000000000000000000000",
            "receiptTrie" : "0x56e81f171bcc55a6ff8345e692c0f86e5b48e01b996cadc001622fb5e363b421",
            "stateRoot" : "0xb21fa3df90bd0c7b3de18686a99345cba306f5d0b90ab73f064471d14a6c4d58",
            "timestamp" : "0x00",
            "transactionsTrie" : "0x56e81f171bcc55a6ff8345e692c0f86e5b48e01b996cadc001622fb5e363b421",
            "uncleHash" : "0x1dcc4de8dec75d7aab85b567b6ccd41ad312451b948a7413f0a142fd40d49347"
        },
        "genesisRLP" : "0xf901f9f901f4a00000000000000000000000000000000000000000000000000000000000000000a01dcc4de8dec75d7aab85b567b6ccd41ad312451b948a7413f0a142fd40d4934794945304eb96065b2a98b57a48a06ae28d285a71b5a0b21fa3df90bd0c7b3de18686a99345cba306f5d0b90ab73f064471d14a6c4d58a056e81f171bcc55a6ff8345e692c0f86e5b48e01b996cadc001622fb5e363b421a056e81f171bcc55a6ff8345e692c0f86e5b48e01b996cadc001622fb5e363b421b90100000000000000000000000000000000000000000000000000000000000000000000000000000000000000000000000000000000000000000000000000000000000000000000000000000000000000000000000000000000000000000000000000000000000000000000000000000000000000000000000000000000000000000000000000000000000000000000000000000000000000000000000000000000000000000000000000000000000000000000000000000000000000000000000000000000000000000000000000000000000000000000000000000000000000000000000000000000000000000000000000000000000000000000000000000000008302000080847fffffff808000a00000000000000000000000000000000000000000000000000000000000000000880000000000000000c0c0",
        "lastblockhash" : "0x0991bd3b48ed95a1636c73756832c1f66340c1c2b0a9708d377e5f76b2d7001f",
        "network" : "Istanbul",
        "postState" : {
            "0x095e7baea6a6c7c4c2dfeb977efac326af552d87" : {
                "balance" : "0x65a87a48",
                "code" : "0x7f0000000000000000000000000000000000000000000000000000000000000000437f00000000000000000000000000000000000000000000000000000000000000017f000000000000000000000000945304eb96065b2a98b57a48a06ae28d285a71b57f000000000000000000000000000000000000000000000000000000000000c3507f0000000000000000000000000000000000000000000000000000000000000000417fffffffffffffffffffffffffffffffffffffffffffffffffffffffffffffffff12a36234970658a03160005155",
                "nonce" : "0x00",
                "storage" : {
                }
            },
            "0x945304eb96065b2a98b57a48a06ae28d285a71b5" : {
                "balance" : "0x1bc16d676cee0cc4",
                "code" : "0x6000355415600957005b60203560003555",
                "nonce" : "0x00",
                "storage" : {
                }
            },
            "0xa94f5374fce5edbc8e2a8697c15331677e6ebf0b" : {
                "balance" : "0x0de0b6b323957922",
                "code" : "0x",
                "nonce" : "0x01",
                "storage" : {
                }
            }
        },
        "pre" : {
            "0x095e7baea6a6c7c4c2dfeb977efac326af552d87" : {
                "balance" : "0x00",
                "code" : "0x7f0000000000000000000000000000000000000000000000000000000000000000437f00000000000000000000000000000000000000000000000000000000000000017f000000000000000000000000945304eb96065b2a98b57a48a06ae28d285a71b57f000000000000000000000000000000000000000000000000000000000000c3507f0000000000000000000000000000000000000000000000000000000000000000417fffffffffffffffffffffffffffffffffffffffffffffffffffffffffffffffff12a36234970658a03160005155",
                "nonce" : "0x00",
                "storage" : {
                }
            },
            "0x945304eb96065b2a98b57a48a06ae28d285a71b5" : {
                "balance" : "0x2e",
                "code" : "0x6000355415600957005b60203560003555",
                "nonce" : "0x00",
                "storage" : {
                }
            },
            "0xa94f5374fce5edbc8e2a8697c15331677e6ebf0b" : {
                "balance" : "0x0de0b6b3a7640000",
                "code" : "0x",
                "nonce" : "0x00",
                "storage" : {
                }
            }
        },
        "sealEngine" : "NoProof"
    },
    "randomStatetest418_d0g0v0_London" : {
        "_info" : {
            "comment" : "",
            "filling-rpc-server" : "evm version 1.11.0-unstable-dbd6c132-20230214",
            "filling-tool-version" : "retesteth-0.2.3-postmerge+commit.5691d0b9.Linux.g++",
            "generatedTestHash" : "ba539f4fa58def01ca23a20cec0366366ce4c65b988ed4dde66d63651bba8d99",
            "lllcversion" : "Version: 0.5.14-develop.2023.2.14+commit.a096d7a9.Linux.g++",
            "solidity" : "Version: 0.8.5+commit.a4f2e591.Linux.g++",
            "source" : "src/GeneralStateTestsFiller/stRandom2/randomStatetest418Filler.json",
            "sourceHash" : "2fc8581d11f67da084062dc005d74d530b6acf276bfee32ee443412e83c30071"
        },
        "blocks" : [
            {
                "blockHeader" : {
                    "baseFeePerGas" : "0x0a",
                    "bloom" : "0x00000000000000001000000000000000000000000000000000000000000000000000000000000000000000000000000000000010000000000000000000040000000000000000000000000000000000001000000000040000000000000000000000000000000000000000000004000000000000000000000000000000000000000000000000000000000000000000000000000000000000000000000000000000000000000000000004000000000000000000000010000000000000000000000000000000000000000000000000000040000000000000000000000000000040000000000040000000000000000000000020000000000000000000000000000000",
                    "coinbase" : "0x945304eb96065b2a98b57a48a06ae28d285a71b5",
                    "difficulty" : "0x020000",
                    "extraData" : "0x00",
                    "gasLimit" : "0x7fffffff",
                    "gasUsed" : "0x0303d12f",
                    "hash" : "0x58efcbae10c275263c9c8748ed4ecc281ae6694ee86db2d3faf8b232e0aa2b56",
                    "mixHash" : "0x0000000000000000000000000000000000000000000000000000000000000000",
                    "nonce" : "0x0000000000000000",
                    "number" : "0x01",
                    "parentHash" : "0x2f343bea59414690a12a28bb1d02e3ab99c774140c2cd7a87a839bad3815dc7a",
                    "receiptTrie" : "0x0c762947841d33b906e99956bd472d670538a2b6a77e508ae46df2f1d77e71e0",
                    "stateRoot" : "0xe334706eaebe29bf8111d38189b295fbd541d616a7a65681f4ad5ee5e06c9cc2",
                    "timestamp" : "0x03e8",
                    "transactionsTrie" : "0xdfad9510d2cad6ea5791aabcebbaac76993e9bca4da49bfda0ca6887ef36ba52",
                    "uncleHash" : "0x1dcc4de8dec75d7aab85b567b6ccd41ad312451b948a7413f0a142fd40d49347"
                },
                "rlp" : "0xf9033cf901fba02f343bea59414690a12a28bb1d02e3ab99c774140c2cd7a87a839bad3815dc7aa01dcc4de8dec75d7aab85b567b6ccd41ad312451b948a7413f0a142fd40d4934794945304eb96065b2a98b57a48a06ae28d285a71b5a0e334706eaebe29bf8111d38189b295fbd541d616a7a65681f4ad5ee5e06c9cc2a0dfad9510d2cad6ea5791aabcebbaac76993e9bca4da49bfda0ca6887ef36ba52a00c762947841d33b906e99956bd472d670538a2b6a77e508ae46df2f1d77e71e0b90100000000000000000010000000000000000000000000000000000000000000000000000000000000000000000000000000000000100000000000000000000400000000000000000000000000000000000010000000000400000000000000000000000000000000000000000000040000000000000000000000000000000000000000000000000000000000000000000000000000000000000000000000000000000000000000000000040000000000000000000000100000000000000000000000000000000000000000000000000000400000000000000000000000000000400000000000400000000000000000000000200000000000000000000000000000008302000001847fffffff840303d12f8203e800a000000000000000000000000000000000000000000000000000000000000000008800000000000000000af9013af90137800a8417647ecd94095e7baea6a6c7c4c2dfeb977efac326af552d878465a87a48b8d17f0000000000000000000000000000000000000000000000000000000000000000437f00000000000000000000000000000000000000000000000000000000000000017f000000000000000000000000945304eb96065b2a98b57a48a06ae28d285a71b57f000000000000000000000000000000000000000000000000000000000000c3507f0000000000000000000000000000000000000000000000000000000000000000417fffffffffffffffffffffffffffffffffffffffffffffffffffffffffffffffff12a36234970658a0311ca0b1d5e6079e41a7bd620475aa1a78376298fe092480c2a6f915f594f687238009a048bee4c118fb90dc127da338f217350a7a508b9a6cbab435eae0387389a3cbdcc0",
                "transactions" : [
                    {
                        "data" : "0x7f0000000000000000000000000000000000000000000000000000000000000000437f00000000000000000000000000000000000000000000000000000000000000017f000000000000000000000000945304eb96065b2a98b57a48a06ae28d285a71b57f000000000000000000000000000000000000000000000000000000000000c3507f0000000000000000000000000000000000000000000000000000000000000000417fffffffffffffffffffffffffffffffffffffffffffffffffffffffffffffffff12a36234970658a031",
                        "gasLimit" : "0x17647ecd",
                        "gasPrice" : "0x0a",
                        "nonce" : "0x00",
                        "r" : "0xb1d5e6079e41a7bd620475aa1a78376298fe092480c2a6f915f594f687238009",
                        "s" : "0x48bee4c118fb90dc127da338f217350a7a508b9a6cbab435eae0387389a3cbdc",
                        "sender" : "0xa94f5374fce5edbc8e2a8697c15331677e6ebf0b",
                        "to" : "0x095e7baea6a6c7c4c2dfeb977efac326af552d87",
                        "v" : "0x1c",
                        "value" : "0x65a87a48"
                    }
                ],
                "uncleHeaders" : [
                ]
            }
        ],
        "genesisBlockHeader" : {
            "baseFeePerGas" : "0x0b",
            "bloom" : "0x00000000000000000000000000000000000000000000000000000000000000000000000000000000000000000000000000000000000000000000000000000000000000000000000000000000000000000000000000000000000000000000000000000000000000000000000000000000000000000000000000000000000000000000000000000000000000000000000000000000000000000000000000000000000000000000000000000000000000000000000000000000000000000000000000000000000000000000000000000000000000000000000000000000000000000000000000000000000000000000000000000000000000000000000000000000",
            "coinbase" : "0x945304eb96065b2a98b57a48a06ae28d285a71b5",
            "difficulty" : "0x020000",
            "extraData" : "0x00",
            "gasLimit" : "0x7fffffff",
            "gasUsed" : "0x00",
            "hash" : "0x2f343bea59414690a12a28bb1d02e3ab99c774140c2cd7a87a839bad3815dc7a",
            "mixHash" : "0x0000000000000000000000000000000000000000000000000000000000000000",
            "nonce" : "0x0000000000000000",
            "number" : "0x00",
            "parentHash" : "0x0000000000000000000000000000000000000000000000000000000000000000",
            "receiptTrie" : "0x56e81f171bcc55a6ff8345e692c0f86e5b48e01b996cadc001622fb5e363b421",
            "stateRoot" : "0xb21fa3df90bd0c7b3de18686a99345cba306f5d0b90ab73f064471d14a6c4d58",
            "timestamp" : "0x00",
            "transactionsTrie" : "0x56e81f171bcc55a6ff8345e692c0f86e5b48e01b996cadc001622fb5e363b421",
            "uncleHash" : "0x1dcc4de8dec75d7aab85b567b6ccd41ad312451b948a7413f0a142fd40d49347"
        },
        "genesisRLP" : "0xf901faf901f5a00000000000000000000000000000000000000000000000000000000000000000a01dcc4de8dec75d7aab85b567b6ccd41ad312451b948a7413f0a142fd40d4934794945304eb96065b2a98b57a48a06ae28d285a71b5a0b21fa3df90bd0c7b3de18686a99345cba306f5d0b90ab73f064471d14a6c4d58a056e81f171bcc55a6ff8345e692c0f86e5b48e01b996cadc001622fb5e363b421a056e81f171bcc55a6ff8345e692c0f86e5b48e01b996cadc001622fb5e363b421b90100000000000000000000000000000000000000000000000000000000000000000000000000000000000000000000000000000000000000000000000000000000000000000000000000000000000000000000000000000000000000000000000000000000000000000000000000000000000000000000000000000000000000000000000000000000000000000000000000000000000000000000000000000000000000000000000000000000000000000000000000000000000000000000000000000000000000000000000000000000000000000000000000000000000000000000000000000000000000000000000000000000000000000000000000000000008302000080847fffffff808000a000000000000000000000000000000000000000000000000000000000000000008800000000000000000bc0c0",
        "lastblockhash" : "0x58efcbae10c275263c9c8748ed4ecc281ae6694ee86db2d3faf8b232e0aa2b56",
        "network" : "London",
        "postState" : {
            "0x095e7baea6a6c7c4c2dfeb977efac326af552d87" : {
                "balance" : "0x65a87a48",
                "code" : "0x7f0000000000000000000000000000000000000000000000000000000000000000437f00000000000000000000000000000000000000000000000000000000000000017f000000000000000000000000945304eb96065b2a98b57a48a06ae28d285a71b57f000000000000000000000000000000000000000000000000000000000000c3507f0000000000000000000000000000000000000000000000000000000000000000417fffffffffffffffffffffffffffffffffffffffffffffffffffffffffffffffff12a36234970658a03160005155",
                "nonce" : "0x00",
                "storage" : {
                }
            },
            "0x945304eb96065b2a98b57a48a06ae28d285a71b5" : {
                "balance" : "0x1bc16d674ec8002e",
                "code" : "0x6000355415600957005b60203560003555",
                "nonce" : "0x00",
                "storage" : {
                }
            },
            "0xa94f5374fce5edbc8e2a8697c15331677e6ebf0b" : {
                "balance" : "0x0de0b6b3239559e2",
                "code" : "0x",
                "nonce" : "0x01",
                "storage" : {
                }
            }
        },
        "pre" : {
            "0x095e7baea6a6c7c4c2dfeb977efac326af552d87" : {
                "balance" : "0x00",
                "code" : "0x7f0000000000000000000000000000000000000000000000000000000000000000437f00000000000000000000000000000000000000000000000000000000000000017f000000000000000000000000945304eb96065b2a98b57a48a06ae28d285a71b57f000000000000000000000000000000000000000000000000000000000000c3507f0000000000000000000000000000000000000000000000000000000000000000417fffffffffffffffffffffffffffffffffffffffffffffffffffffffffffffffff12a36234970658a03160005155",
                "nonce" : "0x00",
                "storage" : {
                }
            },
            "0x945304eb96065b2a98b57a48a06ae28d285a71b5" : {
                "balance" : "0x2e",
                "code" : "0x6000355415600957005b60203560003555",
                "nonce" : "0x00",
                "storage" : {
                }
            },
            "0xa94f5374fce5edbc8e2a8697c15331677e6ebf0b" : {
                "balance" : "0x0de0b6b3a7640000",
                "code" : "0x",
                "nonce" : "0x00",
                "storage" : {
                }
            }
        },
        "sealEngine" : "NoProof"
    },
    "randomStatetest418_d0g0v0_Merge" : {
        "_info" : {
            "comment" : "",
            "filling-rpc-server" : "evm version 1.11.0-unstable-dbd6c132-20230214",
            "filling-tool-version" : "retesteth-0.2.3-postmerge+commit.5691d0b9.Linux.g++",
            "generatedTestHash" : "d41a3f41b680f773618962f13f0c31c293aae6df75ea77642067c7fa4fc34538",
            "lllcversion" : "Version: 0.5.14-develop.2023.2.14+commit.a096d7a9.Linux.g++",
            "solidity" : "Version: 0.8.5+commit.a4f2e591.Linux.g++",
            "source" : "src/GeneralStateTestsFiller/stRandom2/randomStatetest418Filler.json",
            "sourceHash" : "2fc8581d11f67da084062dc005d74d530b6acf276bfee32ee443412e83c30071"
        },
        "blocks" : [
            {
                "blockHeader" : {
                    "baseFeePerGas" : "0x0a",
                    "bloom" : "0x00000000000000001000000000000000000000000000000000000000000000000000000000000000000000000000000000000010000000000000000000040000000000000000000000000000000000001000000000040000000000000000000000000000000000000000000004000000000000000000000000000000000000000000000000000000000000000000000000000000000000000000000000000000000000000000000004000000000000000000000010000000000000000000000000000000000000000000000000000040000000000000000000000000000040000000000040000000000000000000000020000000000000000000000000000000",
                    "coinbase" : "0x945304eb96065b2a98b57a48a06ae28d285a71b5",
                    "difficulty" : "0x00",
                    "extraData" : "0x00",
                    "gasLimit" : "0x7fffffff",
                    "gasUsed" : "0x0303d12f",
                    "hash" : "0xc0f0035ff5fa5d7f49e4ffac29807fcb253eac8742495d6bb74e9cd190086d71",
                    "mixHash" : "0x0000000000000000000000000000000000000000000000000000000000020000",
                    "nonce" : "0x0000000000000000",
                    "number" : "0x01",
                    "parentHash" : "0xa3786fb863db89f15e299161fc387d14249c7605e293fc6499895d6b75106294",
                    "receiptTrie" : "0x0c762947841d33b906e99956bd472d670538a2b6a77e508ae46df2f1d77e71e0",
                    "stateRoot" : "0x4dea846dbb2b47dbe1ecac68e170c4f81412ac40941e952cefb360e6b12d6639",
                    "timestamp" : "0x03e8",
                    "transactionsTrie" : "0xdfad9510d2cad6ea5791aabcebbaac76993e9bca4da49bfda0ca6887ef36ba52",
                    "uncleHash" : "0x1dcc4de8dec75d7aab85b567b6ccd41ad312451b948a7413f0a142fd40d49347"
                },
                "rlp" : "0xf90339f901f8a0a3786fb863db89f15e299161fc387d14249c7605e293fc6499895d6b75106294a01dcc4de8dec75d7aab85b567b6ccd41ad312451b948a7413f0a142fd40d4934794945304eb96065b2a98b57a48a06ae28d285a71b5a04dea846dbb2b47dbe1ecac68e170c4f81412ac40941e952cefb360e6b12d6639a0dfad9510d2cad6ea5791aabcebbaac76993e9bca4da49bfda0ca6887ef36ba52a00c762947841d33b906e99956bd472d670538a2b6a77e508ae46df2f1d77e71e0b90100000000000000000010000000000000000000000000000000000000000000000000000000000000000000000000000000000000100000000000000000000400000000000000000000000000000000000010000000000400000000000000000000000000000000000000000000040000000000000000000000000000000000000000000000000000000000000000000000000000000000000000000000000000000000000000000000040000000000000000000000100000000000000000000000000000000000000000000000000000400000000000000000000000000000400000000000400000000000000000000000200000000000000000000000000000008001847fffffff840303d12f8203e800a000000000000000000000000000000000000000000000000000000000000200008800000000000000000af9013af90137800a8417647ecd94095e7baea6a6c7c4c2dfeb977efac326af552d878465a87a48b8d17f0000000000000000000000000000000000000000000000000000000000000000437f00000000000000000000000000000000000000000000000000000000000000017f000000000000000000000000945304eb96065b2a98b57a48a06ae28d285a71b57f000000000000000000000000000000000000000000000000000000000000c3507f0000000000000000000000000000000000000000000000000000000000000000417fffffffffffffffffffffffffffffffffffffffffffffffffffffffffffffffff12a36234970658a0311ca0b1d5e6079e41a7bd620475aa1a78376298fe092480c2a6f915f594f687238009a048bee4c118fb90dc127da338f217350a7a508b9a6cbab435eae0387389a3cbdcc0",
                "transactions" : [
                    {
                        "data" : "0x7f0000000000000000000000000000000000000000000000000000000000000000437f00000000000000000000000000000000000000000000000000000000000000017f000000000000000000000000945304eb96065b2a98b57a48a06ae28d285a71b57f000000000000000000000000000000000000000000000000000000000000c3507f0000000000000000000000000000000000000000000000000000000000000000417fffffffffffffffffffffffffffffffffffffffffffffffffffffffffffffffff12a36234970658a031",
                        "gasLimit" : "0x17647ecd",
                        "gasPrice" : "0x0a",
                        "nonce" : "0x00",
                        "r" : "0xb1d5e6079e41a7bd620475aa1a78376298fe092480c2a6f915f594f687238009",
                        "s" : "0x48bee4c118fb90dc127da338f217350a7a508b9a6cbab435eae0387389a3cbdc",
                        "sender" : "0xa94f5374fce5edbc8e2a8697c15331677e6ebf0b",
                        "to" : "0x095e7baea6a6c7c4c2dfeb977efac326af552d87",
                        "v" : "0x1c",
                        "value" : "0x65a87a48"
                    }
                ],
                "uncleHeaders" : [
                ]
            }
        ],
        "genesisBlockHeader" : {
            "baseFeePerGas" : "0x0b",
            "bloom" : "0x00000000000000000000000000000000000000000000000000000000000000000000000000000000000000000000000000000000000000000000000000000000000000000000000000000000000000000000000000000000000000000000000000000000000000000000000000000000000000000000000000000000000000000000000000000000000000000000000000000000000000000000000000000000000000000000000000000000000000000000000000000000000000000000000000000000000000000000000000000000000000000000000000000000000000000000000000000000000000000000000000000000000000000000000000000000",
            "coinbase" : "0x945304eb96065b2a98b57a48a06ae28d285a71b5",
            "difficulty" : "0x00",
            "extraData" : "0x00",
            "gasLimit" : "0x7fffffff",
            "gasUsed" : "0x00",
            "hash" : "0xa3786fb863db89f15e299161fc387d14249c7605e293fc6499895d6b75106294",
            "mixHash" : "0x0000000000000000000000000000000000000000000000000000000000020000",
            "nonce" : "0x0000000000000000",
            "number" : "0x00",
            "parentHash" : "0x0000000000000000000000000000000000000000000000000000000000000000",
            "receiptTrie" : "0x56e81f171bcc55a6ff8345e692c0f86e5b48e01b996cadc001622fb5e363b421",
            "stateRoot" : "0xb21fa3df90bd0c7b3de18686a99345cba306f5d0b90ab73f064471d14a6c4d58",
            "timestamp" : "0x00",
            "transactionsTrie" : "0x56e81f171bcc55a6ff8345e692c0f86e5b48e01b996cadc001622fb5e363b421",
            "uncleHash" : "0x1dcc4de8dec75d7aab85b567b6ccd41ad312451b948a7413f0a142fd40d49347"
        },
        "genesisRLP" : "0xf901f7f901f2a00000000000000000000000000000000000000000000000000000000000000000a01dcc4de8dec75d7aab85b567b6ccd41ad312451b948a7413f0a142fd40d4934794945304eb96065b2a98b57a48a06ae28d285a71b5a0b21fa3df90bd0c7b3de18686a99345cba306f5d0b90ab73f064471d14a6c4d58a056e81f171bcc55a6ff8345e692c0f86e5b48e01b996cadc001622fb5e363b421a056e81f171bcc55a6ff8345e692c0f86e5b48e01b996cadc001622fb5e363b421b90100000000000000000000000000000000000000000000000000000000000000000000000000000000000000000000000000000000000000000000000000000000000000000000000000000000000000000000000000000000000000000000000000000000000000000000000000000000000000000000000000000000000000000000000000000000000000000000000000000000000000000000000000000000000000000000000000000000000000000000000000000000000000000000000000000000000000000000000000000000000000000000000000000000000000000000000000000000000000000000000000000000000000000000000000000000008080847fffffff808000a000000000000000000000000000000000000000000000000000000000000200008800000000000000000bc0c0",
        "lastblockhash" : "0xc0f0035ff5fa5d7f49e4ffac29807fcb253eac8742495d6bb74e9cd190086d71",
        "network" : "Merge",
        "postState" : {
            "0x095e7baea6a6c7c4c2dfeb977efac326af552d87" : {
                "balance" : "0x65a87a48",
                "code" : "0x7f0000000000000000000000000000000000000000000000000000000000000000437f00000000000000000000000000000000000000000000000000000000000000017f000000000000000000000000945304eb96065b2a98b57a48a06ae28d285a71b57f000000000000000000000000000000000000000000000000000000000000c3507f0000000000000000000000000000000000000000000000000000000000000000417fffffffffffffffffffffffffffffffffffffffffffffffffffffffffffffffff12a36234970658a03160005155",
                "nonce" : "0x00",
                "storage" : {
                }
            },
            "0x945304eb96065b2a98b57a48a06ae28d285a71b5" : {
                "balance" : "0x2e",
                "code" : "0x6000355415600957005b60203560003555",
                "nonce" : "0x00",
                "storage" : {
                }
            },
            "0xa94f5374fce5edbc8e2a8697c15331677e6ebf0b" : {
                "balance" : "0x0de0b6b3239559e2",
                "code" : "0x",
                "nonce" : "0x01",
                "storage" : {
                }
            }
        },
        "pre" : {
            "0x095e7baea6a6c7c4c2dfeb977efac326af552d87" : {
                "balance" : "0x00",
                "code" : "0x7f0000000000000000000000000000000000000000000000000000000000000000437f00000000000000000000000000000000000000000000000000000000000000017f000000000000000000000000945304eb96065b2a98b57a48a06ae28d285a71b57f000000000000000000000000000000000000000000000000000000000000c3507f0000000000000000000000000000000000000000000000000000000000000000417fffffffffffffffffffffffffffffffffffffffffffffffffffffffffffffffff12a36234970658a03160005155",
                "nonce" : "0x00",
                "storage" : {
                }
            },
            "0x945304eb96065b2a98b57a48a06ae28d285a71b5" : {
                "balance" : "0x2e",
                "code" : "0x6000355415600957005b60203560003555",
                "nonce" : "0x00",
                "storage" : {
                }
            },
            "0xa94f5374fce5edbc8e2a8697c15331677e6ebf0b" : {
                "balance" : "0x0de0b6b3a7640000",
                "code" : "0x",
                "nonce" : "0x00",
                "storage" : {
                }
            }
        },
        "sealEngine" : "NoProof"
    }
}