{
    "ecrecoverShortBuff_d0g0v0_Berlin" : {
        "_info" : {
            "comment" : "",
            "filling-rpc-server" : "evm version 1.11.0-unstable-2f73f4f0-20230207",
            "filling-tool-version" : "retesteth-0.2.3-postmerge+commit.aa8a0660.Linux.g++",
            "generatedTestHash" : "9ec7353b8a987dcb0649486061d736b957dca265a85dfc6afaa44d212e8004c7",
            "lllcversion" : "Version: 0.5.14-develop.2023.2.7+commit.a096d7a9.Linux.g++",
            "solidity" : "Version: 0.8.5+commit.a4f2e591.Linux.g++",
            "source" : "src/GeneralStateTestsFiller/stPreCompiledContracts2/ecrecoverShortBuffFiller.yml",
            "sourceHash" : "891dc9b059a3cbec227b9dd6a95f9c9ce45dd2cd8083fb3279b14f9b547a89ff"
        },
        "blocks" : [
            {
                "blockHeader" : {
                    "bloom" : "0x00000000000000000000000000000000000000000000000000000000000000000000000000000000000000000000000000000000000000000000000000000000000000000000000000000000000000000000000000000000000000000000000000000000000000000000000000000000000000000000000000000000000000000000000000000000000000000000000000000000000000000000000000000000000000000000000000000000000000000000000000000000000000000000000000000000000000000000000000000000000000000000000000000000000000000000000000000000000000000000000000000000000000000000000000000000",
                    "coinbase" : "0x2adc25665018aa1fe0e6bc666dac8fc2697ff9ba",
                    "difficulty" : "0x020000",
                    "extraData" : "0x00",
                    "gasLimit" : "0xff112233445566",
                    "gasUsed" : "0x37fd50",
                    "hash" : "0x9a816f138388ff3b697c0f2eabb2657e472ce94f9b7a52110dd438fc7733acfd",
                    "mixHash" : "0x0000000000000000000000000000000000000000000000000000000000000000",
                    "nonce" : "0x0000000000000000",
                    "number" : "0x01",
                    "parentHash" : "0x6fdcb6acca589540fbd225a249a227d024b30e57c3975a0a54aac9a5bdef1228",
                    "receiptTrie" : "0x29763a5e81fcbdd8cc7e84850728da2c11d857706eb2ab0753abc8eff575099e",
                    "stateRoot" : "0xb5f61aa97ee95d7d20ab565f4788af11d91117d9d6bc103e0d87e05a433f78d0",
                    "timestamp" : "0x03e8",
                    "transactionsTrie" : "0xa9055769aa4960bebfc195500b324c15d6a172590bf4e693e7991899460d0401",
                    "uncleHash" : "0x1dcc4de8dec75d7aab85b567b6ccd41ad312451b948a7413f0a142fd40d49347"
                },
                "rlp" : "0xf90269f901fca06fdcb6acca589540fbd225a249a227d024b30e57c3975a0a54aac9a5bdef1228a01dcc4de8dec75d7aab85b567b6ccd41ad312451b948a7413f0a142fd40d49347942adc25665018aa1fe0e6bc666dac8fc2697ff9baa0b5f61aa97ee95d7d20ab565f4788af11d91117d9d6bc103e0d87e05a433f78d0a0a9055769aa4960bebfc195500b324c15d6a172590bf4e693e7991899460d0401a029763a5e81fcbdd8cc7e84850728da2c11d857706eb2ab0753abc8eff575099eb9010000000000000000000000000000000000000000000000000000000000000000000000000000000000000000000000000000000000000000000000000000000000000000000000000000000000000000000000000000000000000000000000000000000000000000000000000000000000000000000000000000000000000000000000000000000000000000000000000000000000000000000000000000000000000000000000000000000000000000000000000000000000000000000000000000000000000000000000000000000000000000000000000000000000000000000000000000000000000000000000000000000000000000000000000000000000830200000187ff1122334455668337fd508203e800a00000000000000000000000000000000000000000000000000000000000000000880000000000000000f867f865010a85f00000000094cccccccccccccccccccccccccccccccccccccccc830186a0001ba0dd4cbdafe797bfbdc6cb89ed58ece4d487081d745dce72e37175fd79dcbafdd1a0657260753fd478470034d615f9e6b99e26aae6dc0e6f893926036e18106a863fc0",
                "transactions" : [
                    {
                        "data" : "0x00",
                        "gasLimit" : "0xf000000000",
                        "gasPrice" : "0x0a",
                        "nonce" : "0x01",
                        "r" : "0xdd4cbdafe797bfbdc6cb89ed58ece4d487081d745dce72e37175fd79dcbafdd1",
                        "s" : "0x657260753fd478470034d615f9e6b99e26aae6dc0e6f893926036e18106a863f",
                        "sender" : "0xa94f5374fce5edbc8e2a8697c15331677e6ebf0b",
                        "to" : "0xcccccccccccccccccccccccccccccccccccccccc",
                        "v" : "0x1b",
                        "value" : "0x0186a0"
                    }
                ],
                "uncleHeaders" : [
                ]
            }
        ],
        "genesisBlockHeader" : {
            "bloom" : "0x00000000000000000000000000000000000000000000000000000000000000000000000000000000000000000000000000000000000000000000000000000000000000000000000000000000000000000000000000000000000000000000000000000000000000000000000000000000000000000000000000000000000000000000000000000000000000000000000000000000000000000000000000000000000000000000000000000000000000000000000000000000000000000000000000000000000000000000000000000000000000000000000000000000000000000000000000000000000000000000000000000000000000000000000000000000",
            "coinbase" : "0x2adc25665018aa1fe0e6bc666dac8fc2697ff9ba",
            "difficulty" : "0x020000",
            "extraData" : "0x00",
            "gasLimit" : "0xff112233445566",
            "gasUsed" : "0x00",
            "hash" : "0x6fdcb6acca589540fbd225a249a227d024b30e57c3975a0a54aac9a5bdef1228",
            "mixHash" : "0x0000000000000000000000000000000000000000000000000000000000000000",
            "nonce" : "0x0000000000000000",
            "number" : "0x00",
            "parentHash" : "0x0000000000000000000000000000000000000000000000000000000000000000",
            "receiptTrie" : "0x56e81f171bcc55a6ff8345e692c0f86e5b48e01b996cadc001622fb5e363b421",
            "stateRoot" : "0x0e92a27c5402a4a1ff76bc1ce67efa4bbb735b277154f0b48419f842e843cfe6",
            "timestamp" : "0x00",
            "transactionsTrie" : "0x56e81f171bcc55a6ff8345e692c0f86e5b48e01b996cadc001622fb5e363b421",
            "uncleHash" : "0x1dcc4de8dec75d7aab85b567b6ccd41ad312451b948a7413f0a142fd40d49347"
        },
        "genesisRLP" : "0xf901fcf901f7a00000000000000000000000000000000000000000000000000000000000000000a01dcc4de8dec75d7aab85b567b6ccd41ad312451b948a7413f0a142fd40d49347942adc25665018aa1fe0e6bc666dac8fc2697ff9baa00e92a27c5402a4a1ff76bc1ce67efa4bbb735b277154f0b48419f842e843cfe6a056e81f171bcc55a6ff8345e692c0f86e5b48e01b996cadc001622fb5e363b421a056e81f171bcc55a6ff8345e692c0f86e5b48e01b996cadc001622fb5e363b421b9010000000000000000000000000000000000000000000000000000000000000000000000000000000000000000000000000000000000000000000000000000000000000000000000000000000000000000000000000000000000000000000000000000000000000000000000000000000000000000000000000000000000000000000000000000000000000000000000000000000000000000000000000000000000000000000000000000000000000000000000000000000000000000000000000000000000000000000000000000000000000000000000000000000000000000000000000000000000000000000000000000000000000000000000000000000000830200008087ff112233445566808000a00000000000000000000000000000000000000000000000000000000000000000880000000000000000c0c0",
        "lastblockhash" : "0x9a816f138388ff3b697c0f2eabb2657e472ce94f9b7a52110dd438fc7733acfd",
        "network" : "Berlin",
        "postState" : {
            "0x2adc25665018aa1fe0e6bc666dac8fc2697ff9ba" : {
                "balance" : "0x1bc16d6750f7e520",
                "code" : "0x",
                "nonce" : "0x00",
                "storage" : {
                }
            },
            "0xa94f5374fce5edbc8e2a8697c15331677e6ebf0b" : {
                "balance" : "0x0de0b6b3a5329440",
                "code" : "0x",
                "nonce" : "0x02",
                "storage" : {
                }
            },
            "0xcccccccccccccccccccccccccccccccccccccccc" : {
                "balance" : "0x0186a0",
                "code" : "0x60a060005b8181101560285763dead60a7815563dead60a78161100001555b6001810190506004565b506000600052601b6020527f184870a8e4faa6065ddf65c873935d3e48e3d1c7b7853f25cd79b8247f7719106040527f226140b6b66554c7fcfa38589e433cc148ebe5c8482eb3093ab1d9a932c96f5860605260005b8181101560b1576020610100826000600060015af1815560018154038155610100518161100001555b600181019050607e565b5050",
                "nonce" : "0x01",
                "storage" : {
                    "0x1061" : "0x8e5817968f74ffb0255ae41eefa6f89dd0183fa1",
                    "0x1062" : "0xb7529ed60a10291754a635ed9fd67c1723f4d83b",
                    "0x1063" : "0x0669457ce81442f235ffc4123662ba14a72b3d68",
                    "0x1064" : "0xdcc53a4a0719101437e8791abf273af5893cb174",
                    "0x1065" : "0xa1889691e30136d95c0543f516bf2357b282d835",
                    "0x1066" : "0x06642c4fd062a12b980d2bf28334e48ffe609248",
                    "0x1067" : "0x628f176bc4c64973abaf9acb6bd8bb8d9b1ae97c",
                    "0x1068" : "0x16fe7fa0cb8a861f855039c2eda9251ca7cc79d0",
                    "0x1069" : "0x01c954021193a220878900cf5f7db5b3ea4c2b24",
                    "0x106a" : "0x5c4725e00d8f9415e2b77630543fe41dcdaaa304",
                    "0x106b" : "0xf6defd0f92f2a018ba20bf6051698a8dde7cc949",
                    "0x106c" : "0x99cd51158e59da36ba48b457c02db77c17a6b91a",
                    "0x106d" : "0xfc4539330fee551b296f9396d01ab7643521d5df",
                    "0x106e" : "0x389a57ba1c546578b67167c6571d92e047bd4029",
                    "0x106f" : "0x294091b609877b020b4f5a01357936fc0a877a3f",
                    "0x1070" : "0xad5a9fc193dcf16041d4e96433ef3a6d82d36b16",
                    "0x1071" : "0x8324683aaae32ccebdeb758e2777ab2b1ce3d3f1",
                    "0x1072" : "0x295ad34cb312eaf9574511208848caf57b7429e0",
                    "0x1073" : "0x0a74178ec0a865b84eed705e85ddf9b5002389ab",
                    "0x1074" : "0xd1d3bc125318dd71176248d9c86f41a842d4bec9",
                    "0x1075" : "0xe8e2d3e49d1bb0ddf5beeff311456f251dae9ea9",
                    "0x1076" : "0xd8765900c0f467df6bc4f514ed39c568497a8ead",
                    "0x1077" : "0xdb658a31f5a174be0e3fc0d0ce05dd6a76084910",
                    "0x1078" : "0x1387af122c1e31a2dd1dac303b3f20ad83f0ed1b",
                    "0x1079" : "0x9ca540e3f00347324bd94a94ce8e3a34b97c8244",
                    "0x107a" : "0x8d682238981c4940830fa6971d25e036d1fb3d27",
                    "0x107b" : "0xf571eb5abd7da99c6b32b3f3ed0740f6fac7d14b",
                    "0x107c" : "0x79e727f2f0f816efd56fc2af37d98af6798551df",
                    "0x107d" : "0x0f00d6a30e65104b909aa43d947ef2010e09446a",
                    "0x107e" : "0x4c78739de03a70dbcf9b94bc21daf2bf46d44375",
                    "0x107f" : "0x364a9dae48110760306b009bf2297819176be559",
                    "0x1080" : "0x3f9ecb7b25fa567afb2a4c7b633749bda578b593",
                    "0x1081" : "0x3f9ecb7b25fa567afb2a4c7b633749bda578b593",
                    "0x1082" : "0x3f9ecb7b25fa567afb2a4c7b633749bda578b593",
                    "0x1083" : "0x3f9ecb7b25fa567afb2a4c7b633749bda578b593",
                    "0x1084" : "0x3f9ecb7b25fa567afb2a4c7b633749bda578b593",
                    "0x1085" : "0x3f9ecb7b25fa567afb2a4c7b633749bda578b593",
                    "0x1086" : "0x3f9ecb7b25fa567afb2a4c7b633749bda578b593",
                    "0x1087" : "0x3f9ecb7b25fa567afb2a4c7b633749bda578b593",
                    "0x1088" : "0x3f9ecb7b25fa567afb2a4c7b633749bda578b593",
                    "0x1089" : "0x3f9ecb7b25fa567afb2a4c7b633749bda578b593",
                    "0x108a" : "0x3f9ecb7b25fa567afb2a4c7b633749bda578b593",
                    "0x108b" : "0x3f9ecb7b25fa567afb2a4c7b633749bda578b593",
                    "0x108c" : "0x3f9ecb7b25fa567afb2a4c7b633749bda578b593",
                    "0x108d" : "0x3f9ecb7b25fa567afb2a4c7b633749bda578b593",
                    "0x108e" : "0x3f9ecb7b25fa567afb2a4c7b633749bda578b593",
                    "0x108f" : "0x3f9ecb7b25fa567afb2a4c7b633749bda578b593",
                    "0x1090" : "0x3f9ecb7b25fa567afb2a4c7b633749bda578b593",
                    "0x1091" : "0x3f9ecb7b25fa567afb2a4c7b633749bda578b593",
                    "0x1092" : "0x3f9ecb7b25fa567afb2a4c7b633749bda578b593",
                    "0x1093" : "0x3f9ecb7b25fa567afb2a4c7b633749bda578b593",
                    "0x1094" : "0x3f9ecb7b25fa567afb2a4c7b633749bda578b593",
                    "0x1095" : "0x3f9ecb7b25fa567afb2a4c7b633749bda578b593",
                    "0x1096" : "0x3f9ecb7b25fa567afb2a4c7b633749bda578b593",
                    "0x1097" : "0x3f9ecb7b25fa567afb2a4c7b633749bda578b593",
                    "0x1098" : "0x3f9ecb7b25fa567afb2a4c7b633749bda578b593",
                    "0x1099" : "0x3f9ecb7b25fa567afb2a4c7b633749bda578b593",
                    "0x109a" : "0x3f9ecb7b25fa567afb2a4c7b633749bda578b593",
                    "0x109b" : "0x3f9ecb7b25fa567afb2a4c7b633749bda578b593",
                    "0x109c" : "0x3f9ecb7b25fa567afb2a4c7b633749bda578b593",
                    "0x109d" : "0x3f9ecb7b25fa567afb2a4c7b633749bda578b593",
                    "0x109e" : "0x3f9ecb7b25fa567afb2a4c7b633749bda578b593",
                    "0x109f" : "0x3f9ecb7b25fa567afb2a4c7b633749bda578b593"
                }
            }
        },
        "pre" : {
            "0xa94f5374fce5edbc8e2a8697c15331677e6ebf0b" : {
                "balance" : "0x0de0b6b3a7640000",
                "code" : "0x",
                "nonce" : "0x01",
                "storage" : {
                }
            },
            "0xcccccccccccccccccccccccccccccccccccccccc" : {
                "balance" : "0x00",
                "code" : "0x60a060005b8181101560285763dead60a7815563dead60a78161100001555b6001810190506004565b506000600052601b6020527f184870a8e4faa6065ddf65c873935d3e48e3d1c7b7853f25cd79b8247f7719106040527f226140b6b66554c7fcfa38589e433cc148ebe5c8482eb3093ab1d9a932c96f5860605260005b8181101560b1576020610100826000600060015af1815560018154038155610100518161100001555b600181019050607e565b5050",
                "nonce" : "0x01",
                "storage" : {
                    "0x00" : "0x60a7",
                    "0x1000" : "0x60a7",
                    "0x1011" : "0x60a7",
                    "0x1022" : "0x60a7",
                    "0x1033" : "0x60a7",
                    "0x1044" : "0x60a7",
                    "0x1055" : "0x60a7",
                    "0x1066" : "0x60a7",
                    "0x1077" : "0x60a7",
                    "0x1080" : "0x60a7",
                    "0x1099" : "0x60a7",
                    "0x11" : "0x60a7",
                    "0x22" : "0x60a7",
                    "0x33" : "0x60a7",
                    "0x44" : "0x60a7",
                    "0x55" : "0x60a7",
                    "0x66" : "0x60a7",
                    "0x77" : "0x60a7",
                    "0x80" : "0x60a7",
                    "0x99" : "0x60a7"
                }
            }
        },
        "sealEngine" : "NoProof"
    }
}