{
    "randomStatetest55_d0g0v0_Berlin" : {
        "_info" : {
            "comment" : "",
            "filling-rpc-server" : "evm version 1.11.0-unstable-dbd6c132-20230214",
            "filling-tool-version" : "retesteth-0.2.3-postmerge+commit.5691d0b9.Linux.g++",
            "generatedTestHash" : "073f61f8a27a8c0b0c0e708acebbde0c611578213f36ae553310224f4e2279f4",
            "lllcversion" : "Version: 0.5.14-develop.2023.2.14+commit.a096d7a9.Linux.g++",
            "solidity" : "Version: 0.8.5+commit.a4f2e591.Linux.g++",
            "source" : "src/GeneralStateTestsFiller/stRandom/randomStatetest55Filler.json",
            "sourceHash" : "9ebdf1ae2ea3b01b35d4c26323df9b9677bbfed23e9bfc2ac39386b17c5af817"
        },
        "blocks" : [
            {
                "blockHeader" : {
                    "bloom" : "0x00000000000000000000000000000000000000000000000000000000000000000000000000000000000000000000000000000000000000000000000000000000000000000000000000000000000000000000000000000000000000000000000000000000000000000000000000000000000000000000000000000000000000000000000000000000000000000000000000000000000000000000000000000000000000000000000000000000000000000000000000000000000000000000000000000000000000000000000000000000000000000000000000000000000000000000000000000000000000000000000000000000000000000000000000000000",
                    "coinbase" : "0x945304eb96065b2a98b57a48a06ae28d285a71b5",
                    "difficulty" : "0x020000",
                    "extraData" : "0x00",
                    "gasLimit" : "0x7fffffff",
                    "gasUsed" : "0x2bd66e7e",
                    "hash" : "0x8904439c1c2037ed365120cbab41418b65a7476edd12fe933145fa63458ad279",
                    "mixHash" : "0x0000000000000000000000000000000000000000000000000000000000000000",
                    "nonce" : "0x0000000000000000",
                    "number" : "0x01",
                    "parentHash" : "0x548a713ae17d1f89b9b0c91546cf235af3bc0a567578fa80cc3a7590462805e6",
                    "receiptTrie" : "0x9b91df679270c03da4deaea16b249b145ac02d3ddc870daa5c89d3943345000b",
                    "stateRoot" : "0x12a81504fd6d012f80f2caf10f57594d8e18424debe6db2e979ae539d2b0ae5c",
                    "timestamp" : "0x03e8",
                    "transactionsTrie" : "0x78cf80e44cdba100cb0f59523dc2051822c550e39b61a44e824e60e58aa89634",
                    "uncleHash" : "0x1dcc4de8dec75d7aab85b567b6ccd41ad312451b948a7413f0a142fd40d49347"
                },
                "rlp" : "0xf9031ff901faa0548a713ae17d1f89b9b0c91546cf235af3bc0a567578fa80cc3a7590462805e6a01dcc4de8dec75d7aab85b567b6ccd41ad312451b948a7413f0a142fd40d4934794945304eb96065b2a98b57a48a06ae28d285a71b5a012a81504fd6d012f80f2caf10f57594d8e18424debe6db2e979ae539d2b0ae5ca078cf80e44cdba100cb0f59523dc2051822c550e39b61a44e824e60e58aa89634a09b91df679270c03da4deaea16b249b145ac02d3ddc870daa5c89d3943345000bb90100000000000000000000000000000000000000000000000000000000000000000000000000000000000000000000000000000000000000000000000000000000000000000000000000000000000000000000000000000000000000000000000000000000000000000000000000000000000000000000000000000000000000000000000000000000000000000000000000000000000000000000000000000000000000000000000000000000000000000000000000000000000000000000000000000000000000000000000000000000000000000000000000000000000000000000000000000000000000000000000000000000000000000000000000000000008302000001847fffffff842bd66e7e8203e800a00000000000000000000000000000000000000000000000000000000000000000880000000000000000f9011ef9011b800a842bd66e7e94095e7baea6a6c7c4c2dfeb977efac326af552d878440bfde69b8b57f00000000000000000000000000000000000000000000000000000000000000007f000000000000000000000000945304eb96065b2a98b57a48a06ae28d285a71b57f000000000000000000000000000000000000000000000000000000000000000084967f000000000000000000000000ffffffffffffffffffffffffffffffffffffffff137ffffffffffffffffffffffffffffffffffffffffffffffffffffffffffffffffe016f3a5b594088a2f238089b711ca08e116678b7fb104544ee2b793f34cd28604dcc4960c9ff9e456ecd8585fc32c6a008105743754e16f53351156461eed487730d789b88e7c2255c31f47067aab3d5c0",
                "transactions" : [
                    {
                        "data" : "0x7f00000000000000000000000000000000000000000000000000000000000000007f000000000000000000000000945304eb96065b2a98b57a48a06ae28d285a71b57f000000000000000000000000000000000000000000000000000000000000000084967f000000000000000000000000ffffffffffffffffffffffffffffffffffffffff137ffffffffffffffffffffffffffffffffffffffffffffffffffffffffffffffffe016f3a5b594088a2f238089b71",
                        "gasLimit" : "0x2bd66e7e",
                        "gasPrice" : "0x0a",
                        "nonce" : "0x00",
                        "r" : "0x8e116678b7fb104544ee2b793f34cd28604dcc4960c9ff9e456ecd8585fc32c6",
                        "s" : "0x08105743754e16f53351156461eed487730d789b88e7c2255c31f47067aab3d5",
                        "sender" : "0xa94f5374fce5edbc8e2a8697c15331677e6ebf0b",
                        "to" : "0x095e7baea6a6c7c4c2dfeb977efac326af552d87",
                        "v" : "0x1c",
                        "value" : "0x40bfde69"
                    }
                ],
                "uncleHeaders" : [
                ]
            }
        ],
        "genesisBlockHeader" : {
            "bloom" : "0x00000000000000000000000000000000000000000000000000000000000000000000000000000000000000000000000000000000000000000000000000000000000000000000000000000000000000000000000000000000000000000000000000000000000000000000000000000000000000000000000000000000000000000000000000000000000000000000000000000000000000000000000000000000000000000000000000000000000000000000000000000000000000000000000000000000000000000000000000000000000000000000000000000000000000000000000000000000000000000000000000000000000000000000000000000000",
            "coinbase" : "0x945304eb96065b2a98b57a48a06ae28d285a71b5",
            "difficulty" : "0x020000",
            "extraData" : "0x00",
            "gasLimit" : "0x7fffffff",
            "gasUsed" : "0x00",
            "hash" : "0x548a713ae17d1f89b9b0c91546cf235af3bc0a567578fa80cc3a7590462805e6",
            "mixHash" : "0x0000000000000000000000000000000000000000000000000000000000000000",
            "nonce" : "0x0000000000000000",
            "number" : "0x00",
            "parentHash" : "0x0000000000000000000000000000000000000000000000000000000000000000",
            "receiptTrie" : "0x56e81f171bcc55a6ff8345e692c0f86e5b48e01b996cadc001622fb5e363b421",
            "stateRoot" : "0x7cb7dbaf63975ff87f6eef62e6a140c7d173005158fc466bc070185b8d7c12b7",
            "timestamp" : "0x00",
            "transactionsTrie" : "0x56e81f171bcc55a6ff8345e692c0f86e5b48e01b996cadc001622fb5e363b421",
            "uncleHash" : "0x1dcc4de8dec75d7aab85b567b6ccd41ad312451b948a7413f0a142fd40d49347"
        },
        "genesisRLP" : "0xf901f9f901f4a00000000000000000000000000000000000000000000000000000000000000000a01dcc4de8dec75d7aab85b567b6ccd41ad312451b948a7413f0a142fd40d4934794945304eb96065b2a98b57a48a06ae28d285a71b5a07cb7dbaf63975ff87f6eef62e6a140c7d173005158fc466bc070185b8d7c12b7a056e81f171bcc55a6ff8345e692c0f86e5b48e01b996cadc001622fb5e363b421a056e81f171bcc55a6ff8345e692c0f86e5b48e01b996cadc001622fb5e363b421b90100000000000000000000000000000000000000000000000000000000000000000000000000000000000000000000000000000000000000000000000000000000000000000000000000000000000000000000000000000000000000000000000000000000000000000000000000000000000000000000000000000000000000000000000000000000000000000000000000000000000000000000000000000000000000000000000000000000000000000000000000000000000000000000000000000000000000000000000000000000000000000000000000000000000000000000000000000000000000000000000000000000000000000000000000000000008302000080847fffffff808000a00000000000000000000000000000000000000000000000000000000000000000880000000000000000c0c0",
        "lastblockhash" : "0x8904439c1c2037ed365120cbab41418b65a7476edd12fe933145fa63458ad279",
        "network" : "Berlin",
        "postState" : {
            "0x095e7baea6a6c7c4c2dfeb977efac326af552d87" : {
                "balance" : "0x00",
                "code" : "0x7f00000000000000000000000000000000000000000000000000000000000000007f000000000000000000000000945304eb96065b2a98b57a48a06ae28d285a71b57f000000000000000000000000000000000000000000000000000000000000000084967f000000000000000000000000ffffffffffffffffffffffffffffffffffffffff137ffffffffffffffffffffffffffffffffffffffffffffffffffffffffffffffffe016f3a5b594088a2f238089b71",
                "nonce" : "0x00",
                "storage" : {
                }
            },
            "0x945304eb96065b2a98b57a48a06ae28d285a71b5" : {
                "balance" : "0x1bc16d690528511a",
                "code" : "0x6000355415600957005b60203560003555",
                "nonce" : "0x00",
                "storage" : {
                }
            },
            "0xa94f5374fce5edbc8e2a8697c15331677e6ebf0b" : {
                "balance" : "0x0de0b6b1f103af14",
                "code" : "0x",
                "nonce" : "0x01",
                "storage" : {
                }
            }
        },
        "pre" : {
            "0x095e7baea6a6c7c4c2dfeb977efac326af552d87" : {
                "balance" : "0x00",
                "code" : "0x7f00000000000000000000000000000000000000000000000000000000000000007f000000000000000000000000945304eb96065b2a98b57a48a06ae28d285a71b57f000000000000000000000000000000000000000000000000000000000000000084967f000000000000000000000000ffffffffffffffffffffffffffffffffffffffff137ffffffffffffffffffffffffffffffffffffffffffffffffffffffffffffffffe016f3a5b594088a2f238089b71",
                "nonce" : "0x00",
                "storage" : {
                }
            },
            "0x945304eb96065b2a98b57a48a06ae28d285a71b5" : {
                "balance" : "0x2e",
                "code" : "0x6000355415600957005b60203560003555",
                "nonce" : "0x00",
                "storage" : {
                }
            },
            "0xa94f5374fce5edbc8e2a8697c15331677e6ebf0b" : {
                "balance" : "0x0de0b6b3a7640000",
                "code" : "0x",
                "nonce" : "0x00",
                "storage" : {
                }
            }
        },
        "sealEngine" : "NoProof"
    },
    "randomStatetest55_d0g0v0_Istanbul" : {
        "_info" : {
            "comment" : "",
            "filling-rpc-server" : "evm version 1.11.0-unstable-dbd6c132-20230214",
            "filling-tool-version" : "retesteth-0.2.3-postmerge+commit.5691d0b9.Linux.g++",
            "generatedTestHash" : "41160d28341298b317af91a5a5293e45931bcb8c258c08bb24b10ecb3acbfe72",
            "lllcversion" : "Version: 0.5.14-develop.2023.2.14+commit.a096d7a9.Linux.g++",
            "solidity" : "Version: 0.8.5+commit.a4f2e591.Linux.g++",
            "source" : "src/GeneralStateTestsFiller/stRandom/randomStatetest55Filler.json",
            "sourceHash" : "9ebdf1ae2ea3b01b35d4c26323df9b9677bbfed23e9bfc2ac39386b17c5af817"
        },
        "blocks" : [
            {
                "blockHeader" : {
                    "bloom" : "0x00000000000000000000000000000000000000000000000000000000000000000000000000000000000000000000000000000000000000000000000000000000000000000000000000000000000000000000000000000000000000000000000000000000000000000000000000000000000000000000000000000000000000000000000000000000000000000000000000000000000000000000000000000000000000000000000000000000000000000000000000000000000000000000000000000000000000000000000000000000000000000000000000000000000000000000000000000000000000000000000000000000000000000000000000000000",
                    "coinbase" : "0x945304eb96065b2a98b57a48a06ae28d285a71b5",
                    "difficulty" : "0x020000",
                    "extraData" : "0x00",
                    "gasLimit" : "0x7fffffff",
                    "gasUsed" : "0x2bd66e7e",
                    "hash" : "0x8904439c1c2037ed365120cbab41418b65a7476edd12fe933145fa63458ad279",
                    "mixHash" : "0x0000000000000000000000000000000000000000000000000000000000000000",
                    "nonce" : "0x0000000000000000",
                    "number" : "0x01",
                    "parentHash" : "0x548a713ae17d1f89b9b0c91546cf235af3bc0a567578fa80cc3a7590462805e6",
                    "receiptTrie" : "0x9b91df679270c03da4deaea16b249b145ac02d3ddc870daa5c89d3943345000b",
                    "stateRoot" : "0x12a81504fd6d012f80f2caf10f57594d8e18424debe6db2e979ae539d2b0ae5c",
                    "timestamp" : "0x03e8",
                    "transactionsTrie" : "0x78cf80e44cdba100cb0f59523dc2051822c550e39b61a44e824e60e58aa89634",
                    "uncleHash" : "0x1dcc4de8dec75d7aab85b567b6ccd41ad312451b948a7413f0a142fd40d49347"
                },
                "rlp" : "0xf9031ff901faa0548a713ae17d1f89b9b0c91546cf235af3bc0a567578fa80cc3a7590462805e6a01dcc4de8dec75d7aab85b567b6ccd41ad312451b948a7413f0a142fd40d4934794945304eb96065b2a98b57a48a06ae28d285a71b5a012a81504fd6d012f80f2caf10f57594d8e18424debe6db2e979ae539d2b0ae5ca078cf80e44cdba100cb0f59523dc2051822c550e39b61a44e824e60e58aa89634a09b91df679270c03da4deaea16b249b145ac02d3ddc870daa5c89d3943345000bb90100000000000000000000000000000000000000000000000000000000000000000000000000000000000000000000000000000000000000000000000000000000000000000000000000000000000000000000000000000000000000000000000000000000000000000000000000000000000000000000000000000000000000000000000000000000000000000000000000000000000000000000000000000000000000000000000000000000000000000000000000000000000000000000000000000000000000000000000000000000000000000000000000000000000000000000000000000000000000000000000000000000000000000000000000000000008302000001847fffffff842bd66e7e8203e800a00000000000000000000000000000000000000000000000000000000000000000880000000000000000f9011ef9011b800a842bd66e7e94095e7baea6a6c7c4c2dfeb977efac326af552d878440bfde69b8b57f00000000000000000000000000000000000000000000000000000000000000007f000000000000000000000000945304eb96065b2a98b57a48a06ae28d285a71b57f000000000000000000000000000000000000000000000000000000000000000084967f000000000000000000000000ffffffffffffffffffffffffffffffffffffffff137ffffffffffffffffffffffffffffffffffffffffffffffffffffffffffffffffe016f3a5b594088a2f238089b711ca08e116678b7fb104544ee2b793f34cd28604dcc4960c9ff9e456ecd8585fc32c6a008105743754e16f53351156461eed487730d789b88e7c2255c31f47067aab3d5c0",
                "transactions" : [
                    {
                        "data" : "0x7f00000000000000000000000000000000000000000000000000000000000000007f000000000000000000000000945304eb96065b2a98b57a48a06ae28d285a71b57f000000000000000000000000000000000000000000000000000000000000000084967f000000000000000000000000ffffffffffffffffffffffffffffffffffffffff137ffffffffffffffffffffffffffffffffffffffffffffffffffffffffffffffffe016f3a5b594088a2f238089b71",
                        "gasLimit" : "0x2bd66e7e",
                        "gasPrice" : "0x0a",
                        "nonce" : "0x00",
                        "r" : "0x8e116678b7fb104544ee2b793f34cd28604dcc4960c9ff9e456ecd8585fc32c6",
                        "s" : "0x08105743754e16f53351156461eed487730d789b88e7c2255c31f47067aab3d5",
                        "sender" : "0xa94f5374fce5edbc8e2a8697c15331677e6ebf0b",
                        "to" : "0x095e7baea6a6c7c4c2dfeb977efac326af552d87",
                        "v" : "0x1c",
                        "value" : "0x40bfde69"
                    }
                ],
                "uncleHeaders" : [
                ]
            }
        ],
        "genesisBlockHeader" : {
            "bloom" : "0x00000000000000000000000000000000000000000000000000000000000000000000000000000000000000000000000000000000000000000000000000000000000000000000000000000000000000000000000000000000000000000000000000000000000000000000000000000000000000000000000000000000000000000000000000000000000000000000000000000000000000000000000000000000000000000000000000000000000000000000000000000000000000000000000000000000000000000000000000000000000000000000000000000000000000000000000000000000000000000000000000000000000000000000000000000000",
            "coinbase" : "0x945304eb96065b2a98b57a48a06ae28d285a71b5",
            "difficulty" : "0x020000",
            "extraData" : "0x00",
            "gasLimit" : "0x7fffffff",
            "gasUsed" : "0x00",
            "hash" : "0x548a713ae17d1f89b9b0c91546cf235af3bc0a567578fa80cc3a7590462805e6",
            "mixHash" : "0x0000000000000000000000000000000000000000000000000000000000000000",
            "nonce" : "0x0000000000000000",
            "number" : "0x00",
            "parentHash" : "0x0000000000000000000000000000000000000000000000000000000000000000",
            "receiptTrie" : "0x56e81f171bcc55a6ff8345e692c0f86e5b48e01b996cadc001622fb5e363b421",
            "stateRoot" : "0x7cb7dbaf63975ff87f6eef62e6a140c7d173005158fc466bc070185b8d7c12b7",
            "timestamp" : "0x00",
            "transactionsTrie" : "0x56e81f171bcc55a6ff8345e692c0f86e5b48e01b996cadc001622fb5e363b421",
            "uncleHash" : "0x1dcc4de8dec75d7aab85b567b6ccd41ad312451b948a7413f0a142fd40d49347"
        },
        "genesisRLP" : "0xf901f9f901f4a00000000000000000000000000000000000000000000000000000000000000000a01dcc4de8dec75d7aab85b567b6ccd41ad312451b948a7413f0a142fd40d4934794945304eb96065b2a98b57a48a06ae28d285a71b5a07cb7dbaf63975ff87f6eef62e6a140c7d173005158fc466bc070185b8d7c12b7a056e81f171bcc55a6ff8345e692c0f86e5b48e01b996cadc001622fb5e363b421a056e81f171bcc55a6ff8345e692c0f86e5b48e01b996cadc001622fb5e363b421b90100000000000000000000000000000000000000000000000000000000000000000000000000000000000000000000000000000000000000000000000000000000000000000000000000000000000000000000000000000000000000000000000000000000000000000000000000000000000000000000000000000000000000000000000000000000000000000000000000000000000000000000000000000000000000000000000000000000000000000000000000000000000000000000000000000000000000000000000000000000000000000000000000000000000000000000000000000000000000000000000000000000000000000000000000000000008302000080847fffffff808000a00000000000000000000000000000000000000000000000000000000000000000880000000000000000c0c0",
        "lastblockhash" : "0x8904439c1c2037ed365120cbab41418b65a7476edd12fe933145fa63458ad279",
        "network" : "Istanbul",
        "postState" : {
            "0x095e7baea6a6c7c4c2dfeb977efac326af552d87" : {
                "balance" : "0x00",
                "code" : "0x7f00000000000000000000000000000000000000000000000000000000000000007f000000000000000000000000945304eb96065b2a98b57a48a06ae28d285a71b57f000000000000000000000000000000000000000000000000000000000000000084967f000000000000000000000000ffffffffffffffffffffffffffffffffffffffff137ffffffffffffffffffffffffffffffffffffffffffffffffffffffffffffffffe016f3a5b594088a2f238089b71",
                "nonce" : "0x00",
                "storage" : {
                }
            },
            "0x945304eb96065b2a98b57a48a06ae28d285a71b5" : {
                "balance" : "0x1bc16d690528511a",
                "code" : "0x6000355415600957005b60203560003555",
                "nonce" : "0x00",
                "storage" : {
                }
            },
            "0xa94f5374fce5edbc8e2a8697c15331677e6ebf0b" : {
                "balance" : "0x0de0b6b1f103af14",
                "code" : "0x",
                "nonce" : "0x01",
                "storage" : {
                }
            }
        },
        "pre" : {
            "0x095e7baea6a6c7c4c2dfeb977efac326af552d87" : {
                "balance" : "0x00",
                "code" : "0x7f00000000000000000000000000000000000000000000000000000000000000007f000000000000000000000000945304eb96065b2a98b57a48a06ae28d285a71b57f000000000000000000000000000000000000000000000000000000000000000084967f000000000000000000000000ffffffffffffffffffffffffffffffffffffffff137ffffffffffffffffffffffffffffffffffffffffffffffffffffffffffffffffe016f3a5b594088a2f238089b71",
                "nonce" : "0x00",
                "storage" : {
                }
            },
            "0x945304eb96065b2a98b57a48a06ae28d285a71b5" : {
                "balance" : "0x2e",
                "code" : "0x6000355415600957005b60203560003555",
                "nonce" : "0x00",
                "storage" : {
                }
            },
            "0xa94f5374fce5edbc8e2a8697c15331677e6ebf0b" : {
                "balance" : "0x0de0b6b3a7640000",
                "code" : "0x",
                "nonce" : "0x00",
                "storage" : {
                }
            }
        },
        "sealEngine" : "NoProof"
    },
    "randomStatetest55_d0g0v0_London" : {
        "_info" : {
            "comment" : "",
            "filling-rpc-server" : "evm version 1.11.0-unstable-dbd6c132-20230214",
            "filling-tool-version" : "retesteth-0.2.3-postmerge+commit.5691d0b9.Linux.g++",
            "generatedTestHash" : "790cf755c0bddd2c2a5f0d5c6c35c971b6b4b2f4d5f5d02aa7cf2f32ae691b6e",
            "lllcversion" : "Version: 0.5.14-develop.2023.2.14+commit.a096d7a9.Linux.g++",
            "solidity" : "Version: 0.8.5+commit.a4f2e591.Linux.g++",
            "source" : "src/GeneralStateTestsFiller/stRandom/randomStatetest55Filler.json",
            "sourceHash" : "9ebdf1ae2ea3b01b35d4c26323df9b9677bbfed23e9bfc2ac39386b17c5af817"
        },
        "blocks" : [
            {
                "blockHeader" : {
                    "baseFeePerGas" : "0x0a",
                    "bloom" : "0x00000000000000000000000000000000000000000000000000000000000000000000000000000000000000000000000000000000000000000000000000000000000000000000000000000000000000000000000000000000000000000000000000000000000000000000000000000000000000000000000000000000000000000000000000000000000000000000000000000000000000000000000000000000000000000000000000000000000000000000000000000000000000000000000000000000000000000000000000000000000000000000000000000000000000000000000000000000000000000000000000000000000000000000000000000000",
                    "coinbase" : "0x945304eb96065b2a98b57a48a06ae28d285a71b5",
                    "difficulty" : "0x020000",
                    "extraData" : "0x00",
                    "gasLimit" : "0x7fffffff",
                    "gasUsed" : "0x2bd66e7e",
                    "hash" : "0x4f8b1cbe912ba38502a9f78b324698ed8a139aa5f20b9fc675939c8b32c0d61a",
                    "mixHash" : "0x0000000000000000000000000000000000000000000000000000000000000000",
                    "nonce" : "0x0000000000000000",
                    "number" : "0x01",
                    "parentHash" : "0x9798fe996382c3f984742a947dbbb288c965a79eaaaf4d8eb6757a6f6464a2cf",
                    "receiptTrie" : "0x9b91df679270c03da4deaea16b249b145ac02d3ddc870daa5c89d3943345000b",
                    "stateRoot" : "0xdf9ec2e0fd4a10c366d4fcdc8d674eb934c3554b2c7afb763b10509633fbdfac",
                    "timestamp" : "0x03e8",
                    "transactionsTrie" : "0x78cf80e44cdba100cb0f59523dc2051822c550e39b61a44e824e60e58aa89634",
                    "uncleHash" : "0x1dcc4de8dec75d7aab85b567b6ccd41ad312451b948a7413f0a142fd40d49347"
                },
                "rlp" : "0xf90320f901fba09798fe996382c3f984742a947dbbb288c965a79eaaaf4d8eb6757a6f6464a2cfa01dcc4de8dec75d7aab85b567b6ccd41ad312451b948a7413f0a142fd40d4934794945304eb96065b2a98b57a48a06ae28d285a71b5a0df9ec2e0fd4a10c366d4fcdc8d674eb934c3554b2c7afb763b10509633fbdfaca078cf80e44cdba100cb0f59523dc2051822c550e39b61a44e824e60e58aa89634a09b91df679270c03da4deaea16b249b145ac02d3ddc870daa5c89d3943345000bb90100000000000000000000000000000000000000000000000000000000000000000000000000000000000000000000000000000000000000000000000000000000000000000000000000000000000000000000000000000000000000000000000000000000000000000000000000000000000000000000000000000000000000000000000000000000000000000000000000000000000000000000000000000000000000000000000000000000000000000000000000000000000000000000000000000000000000000000000000000000000000000000000000000000000000000000000000000000000000000000000000000000000000000000000000000000008302000001847fffffff842bd66e7e8203e800a000000000000000000000000000000000000000000000000000000000000000008800000000000000000af9011ef9011b800a842bd66e7e94095e7baea6a6c7c4c2dfeb977efac326af552d878440bfde69b8b57f00000000000000000000000000000000000000000000000000000000000000007f000000000000000000000000945304eb96065b2a98b57a48a06ae28d285a71b57f000000000000000000000000000000000000000000000000000000000000000084967f000000000000000000000000ffffffffffffffffffffffffffffffffffffffff137ffffffffffffffffffffffffffffffffffffffffffffffffffffffffffffffffe016f3a5b594088a2f238089b711ca08e116678b7fb104544ee2b793f34cd28604dcc4960c9ff9e456ecd8585fc32c6a008105743754e16f53351156461eed487730d789b88e7c2255c31f47067aab3d5c0",
                "transactions" : [
                    {
                        "data" : "0x7f00000000000000000000000000000000000000000000000000000000000000007f000000000000000000000000945304eb96065b2a98b57a48a06ae28d285a71b57f000000000000000000000000000000000000000000000000000000000000000084967f000000000000000000000000ffffffffffffffffffffffffffffffffffffffff137ffffffffffffffffffffffffffffffffffffffffffffffffffffffffffffffffe016f3a5b594088a2f238089b71",
                        "gasLimit" : "0x2bd66e7e",
                        "gasPrice" : "0x0a",
                        "nonce" : "0x00",
                        "r" : "0x8e116678b7fb104544ee2b793f34cd28604dcc4960c9ff9e456ecd8585fc32c6",
                        "s" : "0x08105743754e16f53351156461eed487730d789b88e7c2255c31f47067aab3d5",
                        "sender" : "0xa94f5374fce5edbc8e2a8697c15331677e6ebf0b",
                        "to" : "0x095e7baea6a6c7c4c2dfeb977efac326af552d87",
                        "v" : "0x1c",
                        "value" : "0x40bfde69"
                    }
                ],
                "uncleHeaders" : [
                ]
            }
        ],
        "genesisBlockHeader" : {
            "baseFeePerGas" : "0x0b",
            "bloom" : "0x00000000000000000000000000000000000000000000000000000000000000000000000000000000000000000000000000000000000000000000000000000000000000000000000000000000000000000000000000000000000000000000000000000000000000000000000000000000000000000000000000000000000000000000000000000000000000000000000000000000000000000000000000000000000000000000000000000000000000000000000000000000000000000000000000000000000000000000000000000000000000000000000000000000000000000000000000000000000000000000000000000000000000000000000000000000",
            "coinbase" : "0x945304eb96065b2a98b57a48a06ae28d285a71b5",
            "difficulty" : "0x020000",
            "extraData" : "0x00",
            "gasLimit" : "0x7fffffff",
            "gasUsed" : "0x00",
            "hash" : "0x9798fe996382c3f984742a947dbbb288c965a79eaaaf4d8eb6757a6f6464a2cf",
            "mixHash" : "0x0000000000000000000000000000000000000000000000000000000000000000",
            "nonce" : "0x0000000000000000",
            "number" : "0x00",
            "parentHash" : "0x0000000000000000000000000000000000000000000000000000000000000000",
            "receiptTrie" : "0x56e81f171bcc55a6ff8345e692c0f86e5b48e01b996cadc001622fb5e363b421",
            "stateRoot" : "0x7cb7dbaf63975ff87f6eef62e6a140c7d173005158fc466bc070185b8d7c12b7",
            "timestamp" : "0x00",
            "transactionsTrie" : "0x56e81f171bcc55a6ff8345e692c0f86e5b48e01b996cadc001622fb5e363b421",
            "uncleHash" : "0x1dcc4de8dec75d7aab85b567b6ccd41ad312451b948a7413f0a142fd40d49347"
        },
        "genesisRLP" : "0xf901faf901f5a00000000000000000000000000000000000000000000000000000000000000000a01dcc4de8dec75d7aab85b567b6ccd41ad312451b948a7413f0a142fd40d4934794945304eb96065b2a98b57a48a06ae28d285a71b5a07cb7dbaf63975ff87f6eef62e6a140c7d173005158fc466bc070185b8d7c12b7a056e81f171bcc55a6ff8345e692c0f86e5b48e01b996cadc001622fb5e363b421a056e81f171bcc55a6ff8345e692c0f86e5b48e01b996cadc001622fb5e363b421b90100000000000000000000000000000000000000000000000000000000000000000000000000000000000000000000000000000000000000000000000000000000000000000000000000000000000000000000000000000000000000000000000000000000000000000000000000000000000000000000000000000000000000000000000000000000000000000000000000000000000000000000000000000000000000000000000000000000000000000000000000000000000000000000000000000000000000000000000000000000000000000000000000000000000000000000000000000000000000000000000000000000000000000000000000000000008302000080847fffffff808000a000000000000000000000000000000000000000000000000000000000000000008800000000000000000bc0c0",
        "lastblockhash" : "0x4f8b1cbe912ba38502a9f78b324698ed8a139aa5f20b9fc675939c8b32c0d61a",
        "network" : "London",
        "postState" : {
            "0x095e7baea6a6c7c4c2dfeb977efac326af552d87" : {
                "balance" : "0x00",
                "code" : "0x7f00000000000000000000000000000000000000000000000000000000000000007f000000000000000000000000945304eb96065b2a98b57a48a06ae28d285a71b57f000000000000000000000000000000000000000000000000000000000000000084967f000000000000000000000000ffffffffffffffffffffffffffffffffffffffff137ffffffffffffffffffffffffffffffffffffffffffffffffffffffffffffffffe016f3a5b594088a2f238089b71",
                "nonce" : "0x00",
                "storage" : {
                }
            },
            "0x945304eb96065b2a98b57a48a06ae28d285a71b5" : {
                "balance" : "0x1bc16d674ec8002e",
                "code" : "0x6000355415600957005b60203560003555",
                "nonce" : "0x00",
                "storage" : {
                }
            },
            "0xa94f5374fce5edbc8e2a8697c15331677e6ebf0b" : {
                "balance" : "0x0de0b6b1f103af14",
                "code" : "0x",
                "nonce" : "0x01",
                "storage" : {
                }
            }
        },
        "pre" : {
            "0x095e7baea6a6c7c4c2dfeb977efac326af552d87" : {
                "balance" : "0x00",
                "code" : "0x7f00000000000000000000000000000000000000000000000000000000000000007f000000000000000000000000945304eb96065b2a98b57a48a06ae28d285a71b57f000000000000000000000000000000000000000000000000000000000000000084967f000000000000000000000000ffffffffffffffffffffffffffffffffffffffff137ffffffffffffffffffffffffffffffffffffffffffffffffffffffffffffffffe016f3a5b594088a2f238089b71",
                "nonce" : "0x00",
                "storage" : {
                }
            },
            "0x945304eb96065b2a98b57a48a06ae28d285a71b5" : {
                "balance" : "0x2e",
                "code" : "0x6000355415600957005b60203560003555",
                "nonce" : "0x00",
                "storage" : {
                }
            },
            "0xa94f5374fce5edbc8e2a8697c15331677e6ebf0b" : {
                "balance" : "0x0de0b6b3a7640000",
                "code" : "0x",
                "nonce" : "0x00",
                "storage" : {
                }
            }
        },
        "sealEngine" : "NoProof"
    },
    "randomStatetest55_d0g0v0_Merge" : {
        "_info" : {
            "comment" : "",
            "filling-rpc-server" : "evm version 1.11.0-unstable-dbd6c132-20230214",
            "filling-tool-version" : "retesteth-0.2.3-postmerge+commit.5691d0b9.Linux.g++",
            "generatedTestHash" : "6503f69399abd43ac9eda95db1deac7aa9012af6ae2b7bdf39164ed3d43afd3e",
            "lllcversion" : "Version: 0.5.14-develop.2023.2.14+commit.a096d7a9.Linux.g++",
            "solidity" : "Version: 0.8.5+commit.a4f2e591.Linux.g++",
            "source" : "src/GeneralStateTestsFiller/stRandom/randomStatetest55Filler.json",
            "sourceHash" : "9ebdf1ae2ea3b01b35d4c26323df9b9677bbfed23e9bfc2ac39386b17c5af817"
        },
        "blocks" : [
            {
                "blockHeader" : {
                    "baseFeePerGas" : "0x0a",
                    "bloom" : "0x00000000000000000000000000000000000000000000000000000000000000000000000000000000000000000000000000000000000000000000000000000000000000000000000000000000000000000000000000000000000000000000000000000000000000000000000000000000000000000000000000000000000000000000000000000000000000000000000000000000000000000000000000000000000000000000000000000000000000000000000000000000000000000000000000000000000000000000000000000000000000000000000000000000000000000000000000000000000000000000000000000000000000000000000000000000",
                    "coinbase" : "0x945304eb96065b2a98b57a48a06ae28d285a71b5",
                    "difficulty" : "0x00",
                    "extraData" : "0x00",
                    "gasLimit" : "0x7fffffff",
                    "gasUsed" : "0x2bd66e7e",
                    "hash" : "0x387f6bd97a8fd4e1cfaf5d1526dff6af75c6e1a460b4305d6aa3d18cde5bc764",
                    "mixHash" : "0x0000000000000000000000000000000000000000000000000000000000020000",
                    "nonce" : "0x0000000000000000",
                    "number" : "0x01",
                    "parentHash" : "0x7f6e681f4b73ff3c57e9ab07735f1aceb7f84c64ce3f7f576740f84e2647c655",
                    "receiptTrie" : "0x9b91df679270c03da4deaea16b249b145ac02d3ddc870daa5c89d3943345000b",
                    "stateRoot" : "0x8e0d45a60833c026204c41521992fa66e94cd976e0b473e7138d10bf53f02f20",
                    "timestamp" : "0x03e8",
                    "transactionsTrie" : "0x78cf80e44cdba100cb0f59523dc2051822c550e39b61a44e824e60e58aa89634",
                    "uncleHash" : "0x1dcc4de8dec75d7aab85b567b6ccd41ad312451b948a7413f0a142fd40d49347"
                },
                "rlp" : "0xf9031df901f8a07f6e681f4b73ff3c57e9ab07735f1aceb7f84c64ce3f7f576740f84e2647c655a01dcc4de8dec75d7aab85b567b6ccd41ad312451b948a7413f0a142fd40d4934794945304eb96065b2a98b57a48a06ae28d285a71b5a08e0d45a60833c026204c41521992fa66e94cd976e0b473e7138d10bf53f02f20a078cf80e44cdba100cb0f59523dc2051822c550e39b61a44e824e60e58aa89634a09b91df679270c03da4deaea16b249b145ac02d3ddc870daa5c89d3943345000bb90100000000000000000000000000000000000000000000000000000000000000000000000000000000000000000000000000000000000000000000000000000000000000000000000000000000000000000000000000000000000000000000000000000000000000000000000000000000000000000000000000000000000000000000000000000000000000000000000000000000000000000000000000000000000000000000000000000000000000000000000000000000000000000000000000000000000000000000000000000000000000000000000000000000000000000000000000000000000000000000000000000000000000000000000000000000008001847fffffff842bd66e7e8203e800a000000000000000000000000000000000000000000000000000000000000200008800000000000000000af9011ef9011b800a842bd66e7e94095e7baea6a6c7c4c2dfeb977efac326af552d878440bfde69b8b57f00000000000000000000000000000000000000000000000000000000000000007f000000000000000000000000945304eb96065b2a98b57a48a06ae28d285a71b57f000000000000000000000000000000000000000000000000000000000000000084967f000000000000000000000000ffffffffffffffffffffffffffffffffffffffff137ffffffffffffffffffffffffffffffffffffffffffffffffffffffffffffffffe016f3a5b594088a2f238089b711ca08e116678b7fb104544ee2b793f34cd28604dcc4960c9ff9e456ecd8585fc32c6a008105743754e16f53351156461eed487730d789b88e7c2255c31f47067aab3d5c0",
                "transactions" : [
                    {
                        "data" : "0x7f00000000000000000000000000000000000000000000000000000000000000007f000000000000000000000000945304eb96065b2a98b57a48a06ae28d285a71b57f000000000000000000000000000000000000000000000000000000000000000084967f000000000000000000000000ffffffffffffffffffffffffffffffffffffffff137ffffffffffffffffffffffffffffffffffffffffffffffffffffffffffffffffe016f3a5b594088a2f238089b71",
                        "gasLimit" : "0x2bd66e7e",
                        "gasPrice" : "0x0a",
                        "nonce" : "0x00",
                        "r" : "0x8e116678b7fb104544ee2b793f34cd28604dcc4960c9ff9e456ecd8585fc32c6",
                        "s" : "0x08105743754e16f53351156461eed487730d789b88e7c2255c31f47067aab3d5",
                        "sender" : "0xa94f5374fce5edbc8e2a8697c15331677e6ebf0b",
                        "to" : "0x095e7baea6a6c7c4c2dfeb977efac326af552d87",
                        "v" : "0x1c",
                        "value" : "0x40bfde69"
                    }
                ],
                "uncleHeaders" : [
                ]
            }
        ],
        "genesisBlockHeader" : {
            "baseFeePerGas" : "0x0b",
            "bloom" : "0x00000000000000000000000000000000000000000000000000000000000000000000000000000000000000000000000000000000000000000000000000000000000000000000000000000000000000000000000000000000000000000000000000000000000000000000000000000000000000000000000000000000000000000000000000000000000000000000000000000000000000000000000000000000000000000000000000000000000000000000000000000000000000000000000000000000000000000000000000000000000000000000000000000000000000000000000000000000000000000000000000000000000000000000000000000000",
            "coinbase" : "0x945304eb96065b2a98b57a48a06ae28d285a71b5",
            "difficulty" : "0x00",
            "extraData" : "0x00",
            "gasLimit" : "0x7fffffff",
            "gasUsed" : "0x00",
            "hash" : "0x7f6e681f4b73ff3c57e9ab07735f1aceb7f84c64ce3f7f576740f84e2647c655",
            "mixHash" : "0x0000000000000000000000000000000000000000000000000000000000020000",
            "nonce" : "0x0000000000000000",
            "number" : "0x00",
            "parentHash" : "0x0000000000000000000000000000000000000000000000000000000000000000",
            "receiptTrie" : "0x56e81f171bcc55a6ff8345e692c0f86e5b48e01b996cadc001622fb5e363b421",
            "stateRoot" : "0x7cb7dbaf63975ff87f6eef62e6a140c7d173005158fc466bc070185b8d7c12b7",
            "timestamp" : "0x00",
            "transactionsTrie" : "0x56e81f171bcc55a6ff8345e692c0f86e5b48e01b996cadc001622fb5e363b421",
            "uncleHash" : "0x1dcc4de8dec75d7aab85b567b6ccd41ad312451b948a7413f0a142fd40d49347"
        },
        "genesisRLP" : "0xf901f7f901f2a00000000000000000000000000000000000000000000000000000000000000000a01dcc4de8dec75d7aab85b567b6ccd41ad312451b948a7413f0a142fd40d4934794945304eb96065b2a98b57a48a06ae28d285a71b5a07cb7dbaf63975ff87f6eef62e6a140c7d173005158fc466bc070185b8d7c12b7a056e81f171bcc55a6ff8345e692c0f86e5b48e01b996cadc001622fb5e363b421a056e81f171bcc55a6ff8345e692c0f86e5b48e01b996cadc001622fb5e363b421b90100000000000000000000000000000000000000000000000000000000000000000000000000000000000000000000000000000000000000000000000000000000000000000000000000000000000000000000000000000000000000000000000000000000000000000000000000000000000000000000000000000000000000000000000000000000000000000000000000000000000000000000000000000000000000000000000000000000000000000000000000000000000000000000000000000000000000000000000000000000000000000000000000000000000000000000000000000000000000000000000000000000000000000000000000000000008080847fffffff808000a000000000000000000000000000000000000000000000000000000000000200008800000000000000000bc0c0",
        "lastblockhash" : "0x387f6bd97a8fd4e1cfaf5d1526dff6af75c6e1a460b4305d6aa3d18cde5bc764",
        "network" : "Merge",
        "postState" : {
            "0x095e7baea6a6c7c4c2dfeb977efac326af552d87" : {
                "balance" : "0x00",
                "code" : "0x7f00000000000000000000000000000000000000000000000000000000000000007f000000000000000000000000945304eb96065b2a98b57a48a06ae28d285a71b57f000000000000000000000000000000000000000000000000000000000000000084967f000000000000000000000000ffffffffffffffffffffffffffffffffffffffff137ffffffffffffffffffffffffffffffffffffffffffffffffffffffffffffffffe016f3a5b594088a2f238089b71",
                "nonce" : "0x00",
                "storage" : {
                }
            },
            "0x945304eb96065b2a98b57a48a06ae28d285a71b5" : {
                "balance" : "0x2e",
                "code" : "0x6000355415600957005b60203560003555",
                "nonce" : "0x00",
                "storage" : {
                }
            },
            "0xa94f5374fce5edbc8e2a8697c15331677e6ebf0b" : {
                "balance" : "0x0de0b6b1f103af14",
                "code" : "0x",
                "nonce" : "0x01",
                "storage" : {
                }
            }
        },
        "pre" : {
            "0x095e7baea6a6c7c4c2dfeb977efac326af552d87" : {
                "balance" : "0x00",
                "code" : "0x7f00000000000000000000000000000000000000000000000000000000000000007f000000000000000000000000945304eb96065b2a98b57a48a06ae28d285a71b57f000000000000000000000000000000000000000000000000000000000000000084967f000000000000000000000000ffffffffffffffffffffffffffffffffffffffff137ffffffffffffffffffffffffffffffffffffffffffffffffffffffffffffffffe016f3a5b594088a2f238089b71",
                "nonce" : "0x00",
                "storage" : {
                }
            },
            "0x945304eb96065b2a98b57a48a06ae28d285a71b5" : {
                "balance" : "0x2e",
                "code" : "0x6000355415600957005b60203560003555",
                "nonce" : "0x00",
                "storage" : {
                }
            },
            "0xa94f5374fce5edbc8e2a8697c15331677e6ebf0b" : {
                "balance" : "0x0de0b6b3a7640000",
                "code" : "0x",
                "nonce" : "0x00",
                "storage" : {
                }
            }
        },
        "sealEngine" : "NoProof"
    }
}