{
    "randomStatetest184_d0g0v0_Berlin" : {
        "_info" : {
            "comment" : "",
            "filling-rpc-server" : "evm version 1.11.0-unstable-dbd6c132-20230214",
            "filling-tool-version" : "retesteth-0.2.3-postmerge+commit.5691d0b9.Linux.g++",
            "generatedTestHash" : "02cb3c3cf05c0d94728fbc538731b6263e6a4b9127247007dab43d1f1b8bf295",
            "lllcversion" : "Version: 0.5.14-develop.2023.2.14+commit.a096d7a9.Linux.g++",
            "solidity" : "Version: 0.8.5+commit.a4f2e591.Linux.g++",
            "source" : "src/GeneralStateTestsFiller/stRandom/randomStatetest184Filler.json",
            "sourceHash" : "ad3784cca537314236c3badb03ec5bbc5ab021530e100e0bab263986a950e91d"
        },
        "blocks" : [
            {
                "blockHeader" : {
                    "bloom" : "0x00000000000000000000000000000000000000000000000000000000000000000000000000000000000000000000000000000000000000000000000000000000000000000000000000000000000000000000000000000000000000000000000000000000000000000000000000000000000000000000000000000000000000000000000000000000000000000000000000000000000000000000000000000000000000000000000000000000000000000000000000000000000000000000000000000000000000000000000000000000000000000000000000000000000000000000000000000000000000000000000000000000000000000000000000000000",
                    "coinbase" : "0x6d6e40885310545835a5b582dbc23ef026404bda",
                    "difficulty" : "0x020000",
                    "extraData" : "0x00",
                    "gasLimit" : "0x7fffffff",
                    "gasUsed" : "0xa988",
                    "hash" : "0x9e17711af745cc49b679c701357cc398da2e18c00b10365ddf953ca094704e44",
                    "mixHash" : "0x0000000000000000000000000000000000000000000000000000000000000000",
                    "nonce" : "0x0000000000000000",
                    "number" : "0x01",
                    "parentHash" : "0x79fe4373a611bb89345141b4f3e8d22889a5fd4f31c24453b8dc46a4e5dd06f7",
                    "receiptTrie" : "0x7155d83f244e853f4fd317bded966f097100e0d08c583a5a8a626daaf374e797",
                    "stateRoot" : "0x469f8e73e3a7b394f0fe3ffc6a3490f8e3b4c01a67386ed94c6fbd008d68c547",
                    "timestamp" : "0x2710",
                    "transactionsTrie" : "0xe5c79263d9ee3544da3e96a20fc20b11cd2dc548c211a7d1073311a1b02191b7",
                    "uncleHash" : "0x1dcc4de8dec75d7aab85b567b6ccd41ad312451b948a7413f0a142fd40d49347"
                },
                "rlp" : "0xf90275f901f8a079fe4373a611bb89345141b4f3e8d22889a5fd4f31c24453b8dc46a4e5dd06f7a01dcc4de8dec75d7aab85b567b6ccd41ad312451b948a7413f0a142fd40d49347946d6e40885310545835a5b582dbc23ef026404bdaa0469f8e73e3a7b394f0fe3ffc6a3490f8e3b4c01a67386ed94c6fbd008d68c547a0e5c79263d9ee3544da3e96a20fc20b11cd2dc548c211a7d1073311a1b02191b7a07155d83f244e853f4fd317bded966f097100e0d08c583a5a8a626daaf374e797b90100000000000000000000000000000000000000000000000000000000000000000000000000000000000000000000000000000000000000000000000000000000000000000000000000000000000000000000000000000000000000000000000000000000000000000000000000000000000000000000000000000000000000000000000000000000000000000000000000000000000000000000000000000000000000000000000000000000000000000000000000000000000000000000000000000000000000000000000000000000000000000000000000000000000000000000000000000000000000000000000000000000000000000000000000000000008302000001847fffffff82a98882271000a00000000000000000000000000000000000000000000000000000000000000000880000000000000000f877f875801c843b75fb8794095e7baea6a6c7c4c2dfeb977efac326af552d87846d1dd0249064dd3e4e84676723342c1dfaf9af4ef31ba0dcac3cc6bc71280f50cc82297c3483d65434803e718433c85d8dbb0644bfc379a059ed5cc1b44e24918daabd74179907fffc4692d5b9e8428a89aa4815c7870eddc0",
                "transactions" : [
                    {
                        "data" : "0x64dd3e4e84676723342c1dfaf9af4ef3",
                        "gasLimit" : "0x3b75fb87",
                        "gasPrice" : "0x1c",
                        "nonce" : "0x00",
                        "r" : "0xdcac3cc6bc71280f50cc82297c3483d65434803e718433c85d8dbb0644bfc379",
                        "s" : "0x59ed5cc1b44e24918daabd74179907fffc4692d5b9e8428a89aa4815c7870edd",
                        "sender" : "0xa94f5374fce5edbc8e2a8697c15331677e6ebf0b",
                        "to" : "0x095e7baea6a6c7c4c2dfeb977efac326af552d87",
                        "v" : "0x1b",
                        "value" : "0x6d1dd024"
                    }
                ],
                "uncleHeaders" : [
                ]
            }
        ],
        "genesisBlockHeader" : {
            "bloom" : "0x00000000000000000000000000000000000000000000000000000000000000000000000000000000000000000000000000000000000000000000000000000000000000000000000000000000000000000000000000000000000000000000000000000000000000000000000000000000000000000000000000000000000000000000000000000000000000000000000000000000000000000000000000000000000000000000000000000000000000000000000000000000000000000000000000000000000000000000000000000000000000000000000000000000000000000000000000000000000000000000000000000000000000000000000000000000",
            "coinbase" : "0x6d6e40885310545835a5b582dbc23ef026404bda",
            "difficulty" : "0x020000",
            "extraData" : "0x00",
            "gasLimit" : "0x7fffffff",
            "gasUsed" : "0x00",
            "hash" : "0x79fe4373a611bb89345141b4f3e8d22889a5fd4f31c24453b8dc46a4e5dd06f7",
            "mixHash" : "0x0000000000000000000000000000000000000000000000000000000000000000",
            "nonce" : "0x0000000000000000",
            "number" : "0x00",
            "parentHash" : "0x0000000000000000000000000000000000000000000000000000000000000000",
            "receiptTrie" : "0x56e81f171bcc55a6ff8345e692c0f86e5b48e01b996cadc001622fb5e363b421",
            "stateRoot" : "0x297f41012f7d9ab3be0c8aaf734119c78b7606e34997dcd334b8ec84721dd0cf",
            "timestamp" : "0x00",
            "transactionsTrie" : "0x56e81f171bcc55a6ff8345e692c0f86e5b48e01b996cadc001622fb5e363b421",
            "uncleHash" : "0x1dcc4de8dec75d7aab85b567b6ccd41ad312451b948a7413f0a142fd40d49347"
        },
        "genesisRLP" : "0xf901f9f901f4a00000000000000000000000000000000000000000000000000000000000000000a01dcc4de8dec75d7aab85b567b6ccd41ad312451b948a7413f0a142fd40d49347946d6e40885310545835a5b582dbc23ef026404bdaa0297f41012f7d9ab3be0c8aaf734119c78b7606e34997dcd334b8ec84721dd0cfa056e81f171bcc55a6ff8345e692c0f86e5b48e01b996cadc001622fb5e363b421a056e81f171bcc55a6ff8345e692c0f86e5b48e01b996cadc001622fb5e363b421b90100000000000000000000000000000000000000000000000000000000000000000000000000000000000000000000000000000000000000000000000000000000000000000000000000000000000000000000000000000000000000000000000000000000000000000000000000000000000000000000000000000000000000000000000000000000000000000000000000000000000000000000000000000000000000000000000000000000000000000000000000000000000000000000000000000000000000000000000000000000000000000000000000000000000000000000000000000000000000000000000000000000000000000000000000000000008302000080847fffffff808000a00000000000000000000000000000000000000000000000000000000000000000880000000000000000c0c0",
        "lastblockhash" : "0x9e17711af745cc49b679c701357cc398da2e18c00b10365ddf953ca094704e44",
        "network" : "Berlin",
        "postState" : {
            "0x095e7baea6a6c7c4c2dfeb977efac326af552d87" : {
                "balance" : "0x070a217c6fe6c2f8",
                "code" : "0x6f823a02877cef7c1afb60663009def564608c557bad2ae05769b991313726edbfa0881d9cc955b0f5154751da315696ea7ce130184b64f2507582c502d450349ff24fb8aeb2a46146687b666bd7bd0364946cb720c76d483f5afea0049251fd9793c4b0376afbb4ebcdc42fdd42edcd4b619cec787638009cea26a1abe570e3186ab790b7dc7db36e4cda2570b0847adf6e39579c7c43a4ac976cd507d493cdfaebe09936078e31c71c4665d34a4b816b8004",
                "nonce" : "0x75",
                "storage" : {
                    "0x8c" : "0x823a02877cef7c1afb60663009def564"
                }
            },
            "0x6d6e40885310545835a5b582dbc23ef026404bda" : {
                "balance" : "0x1bc16d674eda8ae0",
                "code" : "0x",
                "nonce" : "0x00",
                "storage" : {
                }
            },
            "0x945304eb96065b2a98b57a48a06ae28d285a71b5" : {
                "balance" : "0x9740421ff0ff3ae3",
                "code" : "0x",
                "nonce" : "0x1d",
                "storage" : {
                }
            },
            "0xa94f5374fce5edbc8e2a8697c15331677e6ebf0b" : {
                "balance" : "0x10c1142f2b215e5554",
                "code" : "0x",
                "nonce" : "0x01",
                "storage" : {
                }
            }
        },
        "pre" : {
            "0x095e7baea6a6c7c4c2dfeb977efac326af552d87" : {
                "balance" : "0x070a217c02c8f2d4",
                "code" : "0x6f823a02877cef7c1afb60663009def564608c557bad2ae05769b991313726edbfa0881d9cc955b0f5154751da315696ea7ce130184b64f2507582c502d450349ff24fb8aeb2a46146687b666bd7bd0364946cb720c76d483f5afea0049251fd9793c4b0376afbb4ebcdc42fdd42edcd4b619cec787638009cea26a1abe570e3186ab790b7dc7db36e4cda2570b0847adf6e39579c7c43a4ac976cd507d493cdfaebe09936078e31c71c4665d34a4b816b8004",
                "nonce" : "0x75",
                "storage" : {
                }
            },
            "0x945304eb96065b2a98b57a48a06ae28d285a71b5" : {
                "balance" : "0x9740421ff0ff3ae3",
                "code" : "0x",
                "nonce" : "0x1d",
                "storage" : {
                }
            },
            "0xa94f5374fce5edbc8e2a8697c15331677e6ebf0b" : {
                "balance" : "0x10c1142f2b8e8eb058",
                "code" : "0x",
                "nonce" : "0x00",
                "storage" : {
                }
            }
        },
        "sealEngine" : "NoProof"
    },
    "randomStatetest184_d0g0v0_Istanbul" : {
        "_info" : {
            "comment" : "",
            "filling-rpc-server" : "evm version 1.11.0-unstable-dbd6c132-20230214",
            "filling-tool-version" : "retesteth-0.2.3-postmerge+commit.5691d0b9.Linux.g++",
            "generatedTestHash" : "27266adc17d41293e6fafbeaa6ab737472e54afdbcedcc24525733a977109400",
            "lllcversion" : "Version: 0.5.14-develop.2023.2.14+commit.a096d7a9.Linux.g++",
            "solidity" : "Version: 0.8.5+commit.a4f2e591.Linux.g++",
            "source" : "src/GeneralStateTestsFiller/stRandom/randomStatetest184Filler.json",
            "sourceHash" : "ad3784cca537314236c3badb03ec5bbc5ab021530e100e0bab263986a950e91d"
        },
        "blocks" : [
            {
                "blockHeader" : {
                    "bloom" : "0x00000000000000000000000000000000000000000000000000000000000000000000000000000000000000000000000000000000000000000000000000000000000000000000000000000000000000000000000000000000000000000000000000000000000000000000000000000000000000000000000000000000000000000000000000000000000000000000000000000000000000000000000000000000000000000000000000000000000000000000000000000000000000000000000000000000000000000000000000000000000000000000000000000000000000000000000000000000000000000000000000000000000000000000000000000000",
                    "coinbase" : "0x6d6e40885310545835a5b582dbc23ef026404bda",
                    "difficulty" : "0x020000",
                    "extraData" : "0x00",
                    "gasLimit" : "0x7fffffff",
                    "gasUsed" : "0xa154",
                    "hash" : "0xac5e0479280608f05b65421c5e63e36864c90a1a89ba9b04cbbac45ec4f2139e",
                    "mixHash" : "0x0000000000000000000000000000000000000000000000000000000000000000",
                    "nonce" : "0x0000000000000000",
                    "number" : "0x01",
                    "parentHash" : "0x79fe4373a611bb89345141b4f3e8d22889a5fd4f31c24453b8dc46a4e5dd06f7",
                    "receiptTrie" : "0x33bf90dba639d02e96bf13906c1715d9499285af8ba954b14c45365b9145682d",
                    "stateRoot" : "0x4d85e093d9e5ce8c25ef1b3f4f22dcc180623b741e5c05f114bae699f42cdcd7",
                    "timestamp" : "0x2710",
                    "transactionsTrie" : "0xe5c79263d9ee3544da3e96a20fc20b11cd2dc548c211a7d1073311a1b02191b7",
                    "uncleHash" : "0x1dcc4de8dec75d7aab85b567b6ccd41ad312451b948a7413f0a142fd40d49347"
                },
                "rlp" : "0xf90275f901f8a079fe4373a611bb89345141b4f3e8d22889a5fd4f31c24453b8dc46a4e5dd06f7a01dcc4de8dec75d7aab85b567b6ccd41ad312451b948a7413f0a142fd40d49347946d6e40885310545835a5b582dbc23ef026404bdaa04d85e093d9e5ce8c25ef1b3f4f22dcc180623b741e5c05f114bae699f42cdcd7a0e5c79263d9ee3544da3e96a20fc20b11cd2dc548c211a7d1073311a1b02191b7a033bf90dba639d02e96bf13906c1715d9499285af8ba954b14c45365b9145682db90100000000000000000000000000000000000000000000000000000000000000000000000000000000000000000000000000000000000000000000000000000000000000000000000000000000000000000000000000000000000000000000000000000000000000000000000000000000000000000000000000000000000000000000000000000000000000000000000000000000000000000000000000000000000000000000000000000000000000000000000000000000000000000000000000000000000000000000000000000000000000000000000000000000000000000000000000000000000000000000000000000000000000000000000000000000008302000001847fffffff82a15482271000a00000000000000000000000000000000000000000000000000000000000000000880000000000000000f877f875801c843b75fb8794095e7baea6a6c7c4c2dfeb977efac326af552d87846d1dd0249064dd3e4e84676723342c1dfaf9af4ef31ba0dcac3cc6bc71280f50cc82297c3483d65434803e718433c85d8dbb0644bfc379a059ed5cc1b44e24918daabd74179907fffc4692d5b9e8428a89aa4815c7870eddc0",
                "transactions" : [
                    {
                        "data" : "0x64dd3e4e84676723342c1dfaf9af4ef3",
                        "gasLimit" : "0x3b75fb87",
                        "gasPrice" : "0x1c",
                        "nonce" : "0x00",
                        "r" : "0xdcac3cc6bc71280f50cc82297c3483d65434803e718433c85d8dbb0644bfc379",
                        "s" : "0x59ed5cc1b44e24918daabd74179907fffc4692d5b9e8428a89aa4815c7870edd",
                        "sender" : "0xa94f5374fce5edbc8e2a8697c15331677e6ebf0b",
                        "to" : "0x095e7baea6a6c7c4c2dfeb977efac326af552d87",
                        "v" : "0x1b",
                        "value" : "0x6d1dd024"
                    }
                ],
                "uncleHeaders" : [
                ]
            }
        ],
        "genesisBlockHeader" : {
            "bloom" : "0x00000000000000000000000000000000000000000000000000000000000000000000000000000000000000000000000000000000000000000000000000000000000000000000000000000000000000000000000000000000000000000000000000000000000000000000000000000000000000000000000000000000000000000000000000000000000000000000000000000000000000000000000000000000000000000000000000000000000000000000000000000000000000000000000000000000000000000000000000000000000000000000000000000000000000000000000000000000000000000000000000000000000000000000000000000000",
            "coinbase" : "0x6d6e40885310545835a5b582dbc23ef026404bda",
            "difficulty" : "0x020000",
            "extraData" : "0x00",
            "gasLimit" : "0x7fffffff",
            "gasUsed" : "0x00",
            "hash" : "0x79fe4373a611bb89345141b4f3e8d22889a5fd4f31c24453b8dc46a4e5dd06f7",
            "mixHash" : "0x0000000000000000000000000000000000000000000000000000000000000000",
            "nonce" : "0x0000000000000000",
            "number" : "0x00",
            "parentHash" : "0x0000000000000000000000000000000000000000000000000000000000000000",
            "receiptTrie" : "0x56e81f171bcc55a6ff8345e692c0f86e5b48e01b996cadc001622fb5e363b421",
            "stateRoot" : "0x297f41012f7d9ab3be0c8aaf734119c78b7606e34997dcd334b8ec84721dd0cf",
            "timestamp" : "0x00",
            "transactionsTrie" : "0x56e81f171bcc55a6ff8345e692c0f86e5b48e01b996cadc001622fb5e363b421",
            "uncleHash" : "0x1dcc4de8dec75d7aab85b567b6ccd41ad312451b948a7413f0a142fd40d49347"
        },
        "genesisRLP" : "0xf901f9f901f4a00000000000000000000000000000000000000000000000000000000000000000a01dcc4de8dec75d7aab85b567b6ccd41ad312451b948a7413f0a142fd40d49347946d6e40885310545835a5b582dbc23ef026404bdaa0297f41012f7d9ab3be0c8aaf734119c78b7606e34997dcd334b8ec84721dd0cfa056e81f171bcc55a6ff8345e692c0f86e5b48e01b996cadc001622fb5e363b421a056e81f171bcc55a6ff8345e692c0f86e5b48e01b996cadc001622fb5e363b421b90100000000000000000000000000000000000000000000000000000000000000000000000000000000000000000000000000000000000000000000000000000000000000000000000000000000000000000000000000000000000000000000000000000000000000000000000000000000000000000000000000000000000000000000000000000000000000000000000000000000000000000000000000000000000000000000000000000000000000000000000000000000000000000000000000000000000000000000000000000000000000000000000000000000000000000000000000000000000000000000000000000000000000000000000000000000008302000080847fffffff808000a00000000000000000000000000000000000000000000000000000000000000000880000000000000000c0c0",
        "lastblockhash" : "0xac5e0479280608f05b65421c5e63e36864c90a1a89ba9b04cbbac45ec4f2139e",
        "network" : "Istanbul",
        "postState" : {
            "0x095e7baea6a6c7c4c2dfeb977efac326af552d87" : {
                "balance" : "0x070a217c6fe6c2f8",
                "code" : "0x6f823a02877cef7c1afb60663009def564608c557bad2ae05769b991313726edbfa0881d9cc955b0f5154751da315696ea7ce130184b64f2507582c502d450349ff24fb8aeb2a46146687b666bd7bd0364946cb720c76d483f5afea0049251fd9793c4b0376afbb4ebcdc42fdd42edcd4b619cec787638009cea26a1abe570e3186ab790b7dc7db36e4cda2570b0847adf6e39579c7c43a4ac976cd507d493cdfaebe09936078e31c71c4665d34a4b816b8004",
                "nonce" : "0x75",
                "storage" : {
                    "0x8c" : "0x823a02877cef7c1afb60663009def564"
                }
            },
            "0x6d6e40885310545835a5b582dbc23ef026404bda" : {
                "balance" : "0x1bc16d674ed9a530",
                "code" : "0x",
                "nonce" : "0x00",
                "storage" : {
                }
            },
            "0x945304eb96065b2a98b57a48a06ae28d285a71b5" : {
                "balance" : "0x9740421ff0ff3ae3",
                "code" : "0x",
                "nonce" : "0x1d",
                "storage" : {
                }
            },
            "0xa94f5374fce5edbc8e2a8697c15331677e6ebf0b" : {
                "balance" : "0x10c1142f2b215f3b04",
                "code" : "0x",
                "nonce" : "0x01",
                "storage" : {
                }
            }
        },
        "pre" : {
            "0x095e7baea6a6c7c4c2dfeb977efac326af552d87" : {
                "balance" : "0x070a217c02c8f2d4",
                "code" : "0x6f823a02877cef7c1afb60663009def564608c557bad2ae05769b991313726edbfa0881d9cc955b0f5154751da315696ea7ce130184b64f2507582c502d450349ff24fb8aeb2a46146687b666bd7bd0364946cb720c76d483f5afea0049251fd9793c4b0376afbb4ebcdc42fdd42edcd4b619cec787638009cea26a1abe570e3186ab790b7dc7db36e4cda2570b0847adf6e39579c7c43a4ac976cd507d493cdfaebe09936078e31c71c4665d34a4b816b8004",
                "nonce" : "0x75",
                "storage" : {
                }
            },
            "0x945304eb96065b2a98b57a48a06ae28d285a71b5" : {
                "balance" : "0x9740421ff0ff3ae3",
                "code" : "0x",
                "nonce" : "0x1d",
                "storage" : {
                }
            },
            "0xa94f5374fce5edbc8e2a8697c15331677e6ebf0b" : {
                "balance" : "0x10c1142f2b8e8eb058",
                "code" : "0x",
                "nonce" : "0x00",
                "storage" : {
                }
            }
        },
        "sealEngine" : "NoProof"
    },
    "randomStatetest184_d0g0v0_London" : {
        "_info" : {
            "comment" : "",
            "filling-rpc-server" : "evm version 1.11.0-unstable-dbd6c132-20230214",
            "filling-tool-version" : "retesteth-0.2.3-postmerge+commit.5691d0b9.Linux.g++",
            "generatedTestHash" : "302d3fdf741860dac70627807e2b5d29e00297667f168a5c84fe746e7975253b",
            "lllcversion" : "Version: 0.5.14-develop.2023.2.14+commit.a096d7a9.Linux.g++",
            "solidity" : "Version: 0.8.5+commit.a4f2e591.Linux.g++",
            "source" : "src/GeneralStateTestsFiller/stRandom/randomStatetest184Filler.json",
            "sourceHash" : "ad3784cca537314236c3badb03ec5bbc5ab021530e100e0bab263986a950e91d"
        },
        "blocks" : [
            {
                "blockHeader" : {
                    "baseFeePerGas" : "0x0a",
                    "bloom" : "0x00000000000000000000000000000000000000000000000000000000000000000000000000000000000000000000000000000000000000000000000000000000000000000000000000000000000000000000000000000000000000000000000000000000000000000000000000000000000000000000000000000000000000000000000000000000000000000000000000000000000000000000000000000000000000000000000000000000000000000000000000000000000000000000000000000000000000000000000000000000000000000000000000000000000000000000000000000000000000000000000000000000000000000000000000000000",
                    "coinbase" : "0x6d6e40885310545835a5b582dbc23ef026404bda",
                    "difficulty" : "0x020000",
                    "extraData" : "0x00",
                    "gasLimit" : "0x7fffffff",
                    "gasUsed" : "0xa988",
                    "hash" : "0xed986ab6115b00b13d61c9f5b490b7cd9298ea821157972b308edb7ea693e8df",
                    "mixHash" : "0x0000000000000000000000000000000000000000000000000000000000000000",
                    "nonce" : "0x0000000000000000",
                    "number" : "0x01",
                    "parentHash" : "0x10aaabb6f094327ee87e0ed368cad3992762ab0c9544927e1f687732fc77a36f",
                    "receiptTrie" : "0x7155d83f244e853f4fd317bded966f097100e0d08c583a5a8a626daaf374e797",
                    "stateRoot" : "0x97ad4e09f379d1c9c7ca4ca9e9914b566c72eb54ca874ba4dbf7f9ece0a5b996",
                    "timestamp" : "0x2710",
                    "transactionsTrie" : "0xe5c79263d9ee3544da3e96a20fc20b11cd2dc548c211a7d1073311a1b02191b7",
                    "uncleHash" : "0x1dcc4de8dec75d7aab85b567b6ccd41ad312451b948a7413f0a142fd40d49347"
                },
                "rlp" : "0xf90276f901f9a010aaabb6f094327ee87e0ed368cad3992762ab0c9544927e1f687732fc77a36fa01dcc4de8dec75d7aab85b567b6ccd41ad312451b948a7413f0a142fd40d49347946d6e40885310545835a5b582dbc23ef026404bdaa097ad4e09f379d1c9c7ca4ca9e9914b566c72eb54ca874ba4dbf7f9ece0a5b996a0e5c79263d9ee3544da3e96a20fc20b11cd2dc548c211a7d1073311a1b02191b7a07155d83f244e853f4fd317bded966f097100e0d08c583a5a8a626daaf374e797b90100000000000000000000000000000000000000000000000000000000000000000000000000000000000000000000000000000000000000000000000000000000000000000000000000000000000000000000000000000000000000000000000000000000000000000000000000000000000000000000000000000000000000000000000000000000000000000000000000000000000000000000000000000000000000000000000000000000000000000000000000000000000000000000000000000000000000000000000000000000000000000000000000000000000000000000000000000000000000000000000000000000000000000000000000000000008302000001847fffffff82a98882271000a000000000000000000000000000000000000000000000000000000000000000008800000000000000000af877f875801c843b75fb8794095e7baea6a6c7c4c2dfeb977efac326af552d87846d1dd0249064dd3e4e84676723342c1dfaf9af4ef31ba0dcac3cc6bc71280f50cc82297c3483d65434803e718433c85d8dbb0644bfc379a059ed5cc1b44e24918daabd74179907fffc4692d5b9e8428a89aa4815c7870eddc0",
                "transactions" : [
                    {
                        "data" : "0x64dd3e4e84676723342c1dfaf9af4ef3",
                        "gasLimit" : "0x3b75fb87",
                        "gasPrice" : "0x1c",
                        "nonce" : "0x00",
                        "r" : "0xdcac3cc6bc71280f50cc82297c3483d65434803e718433c85d8dbb0644bfc379",
                        "s" : "0x59ed5cc1b44e24918daabd74179907fffc4692d5b9e8428a89aa4815c7870edd",
                        "sender" : "0xa94f5374fce5edbc8e2a8697c15331677e6ebf0b",
                        "to" : "0x095e7baea6a6c7c4c2dfeb977efac326af552d87",
                        "v" : "0x1b",
                        "value" : "0x6d1dd024"
                    }
                ],
                "uncleHeaders" : [
                ]
            }
        ],
        "genesisBlockHeader" : {
            "baseFeePerGas" : "0x0b",
            "bloom" : "0x00000000000000000000000000000000000000000000000000000000000000000000000000000000000000000000000000000000000000000000000000000000000000000000000000000000000000000000000000000000000000000000000000000000000000000000000000000000000000000000000000000000000000000000000000000000000000000000000000000000000000000000000000000000000000000000000000000000000000000000000000000000000000000000000000000000000000000000000000000000000000000000000000000000000000000000000000000000000000000000000000000000000000000000000000000000",
            "coinbase" : "0x6d6e40885310545835a5b582dbc23ef026404bda",
            "difficulty" : "0x020000",
            "extraData" : "0x00",
            "gasLimit" : "0x7fffffff",
            "gasUsed" : "0x00",
            "hash" : "0x10aaabb6f094327ee87e0ed368cad3992762ab0c9544927e1f687732fc77a36f",
            "mixHash" : "0x0000000000000000000000000000000000000000000000000000000000000000",
            "nonce" : "0x0000000000000000",
            "number" : "0x00",
            "parentHash" : "0x0000000000000000000000000000000000000000000000000000000000000000",
            "receiptTrie" : "0x56e81f171bcc55a6ff8345e692c0f86e5b48e01b996cadc001622fb5e363b421",
            "stateRoot" : "0x297f41012f7d9ab3be0c8aaf734119c78b7606e34997dcd334b8ec84721dd0cf",
            "timestamp" : "0x00",
            "transactionsTrie" : "0x56e81f171bcc55a6ff8345e692c0f86e5b48e01b996cadc001622fb5e363b421",
            "uncleHash" : "0x1dcc4de8dec75d7aab85b567b6ccd41ad312451b948a7413f0a142fd40d49347"
        },
        "genesisRLP" : "0xf901faf901f5a00000000000000000000000000000000000000000000000000000000000000000a01dcc4de8dec75d7aab85b567b6ccd41ad312451b948a7413f0a142fd40d49347946d6e40885310545835a5b582dbc23ef026404bdaa0297f41012f7d9ab3be0c8aaf734119c78b7606e34997dcd334b8ec84721dd0cfa056e81f171bcc55a6ff8345e692c0f86e5b48e01b996cadc001622fb5e363b421a056e81f171bcc55a6ff8345e692c0f86e5b48e01b996cadc001622fb5e363b421b90100000000000000000000000000000000000000000000000000000000000000000000000000000000000000000000000000000000000000000000000000000000000000000000000000000000000000000000000000000000000000000000000000000000000000000000000000000000000000000000000000000000000000000000000000000000000000000000000000000000000000000000000000000000000000000000000000000000000000000000000000000000000000000000000000000000000000000000000000000000000000000000000000000000000000000000000000000000000000000000000000000000000000000000000000000000008302000080847fffffff808000a000000000000000000000000000000000000000000000000000000000000000008800000000000000000bc0c0",
        "lastblockhash" : "0xed986ab6115b00b13d61c9f5b490b7cd9298ea821157972b308edb7ea693e8df",
        "network" : "London",
        "postState" : {
            "0x095e7baea6a6c7c4c2dfeb977efac326af552d87" : {
                "balance" : "0x070a217c6fe6c2f8",
                "code" : "0x6f823a02877cef7c1afb60663009def564608c557bad2ae05769b991313726edbfa0881d9cc955b0f5154751da315696ea7ce130184b64f2507582c502d450349ff24fb8aeb2a46146687b666bd7bd0364946cb720c76d483f5afea0049251fd9793c4b0376afbb4ebcdc42fdd42edcd4b619cec787638009cea26a1abe570e3186ab790b7dc7db36e4cda2570b0847adf6e39579c7c43a4ac976cd507d493cdfaebe09936078e31c71c4665d34a4b816b8004",
                "nonce" : "0x75",
                "storage" : {
                    "0x8c" : "0x823a02877cef7c1afb60663009def564"
                }
            },
            "0x6d6e40885310545835a5b582dbc23ef026404bda" : {
                "balance" : "0x1bc16d674ed3eb90",
                "code" : "0x",
                "nonce" : "0x00",
                "storage" : {
                }
            },
            "0x945304eb96065b2a98b57a48a06ae28d285a71b5" : {
                "balance" : "0x9740421ff0ff3ae3",
                "code" : "0x",
                "nonce" : "0x1d",
                "storage" : {
                }
            },
            "0xa94f5374fce5edbc8e2a8697c15331677e6ebf0b" : {
                "balance" : "0x10c1142f2b215e5554",
                "code" : "0x",
                "nonce" : "0x01",
                "storage" : {
                }
            }
        },
        "pre" : {
            "0x095e7baea6a6c7c4c2dfeb977efac326af552d87" : {
                "balance" : "0x070a217c02c8f2d4",
                "code" : "0x6f823a02877cef7c1afb60663009def564608c557bad2ae05769b991313726edbfa0881d9cc955b0f5154751da315696ea7ce130184b64f2507582c502d450349ff24fb8aeb2a46146687b666bd7bd0364946cb720c76d483f5afea0049251fd9793c4b0376afbb4ebcdc42fdd42edcd4b619cec787638009cea26a1abe570e3186ab790b7dc7db36e4cda2570b0847adf6e39579c7c43a4ac976cd507d493cdfaebe09936078e31c71c4665d34a4b816b8004",
                "nonce" : "0x75",
                "storage" : {
                }
            },
            "0x945304eb96065b2a98b57a48a06ae28d285a71b5" : {
                "balance" : "0x9740421ff0ff3ae3",
                "code" : "0x",
                "nonce" : "0x1d",
                "storage" : {
                }
            },
            "0xa94f5374fce5edbc8e2a8697c15331677e6ebf0b" : {
                "balance" : "0x10c1142f2b8e8eb058",
                "code" : "0x",
                "nonce" : "0x00",
                "storage" : {
                }
            }
        },
        "sealEngine" : "NoProof"
    },
    "randomStatetest184_d0g0v0_Merge" : {
        "_info" : {
            "comment" : "",
            "filling-rpc-server" : "evm version 1.11.0-unstable-dbd6c132-20230214",
            "filling-tool-version" : "retesteth-0.2.3-postmerge+commit.5691d0b9.Linux.g++",
            "generatedTestHash" : "d81a95c4bc43748e7c225afaa7ecf9ee5da4c145906d964632e883610c282a01",
            "lllcversion" : "Version: 0.5.14-develop.2023.2.14+commit.a096d7a9.Linux.g++",
            "solidity" : "Version: 0.8.5+commit.a4f2e591.Linux.g++",
            "source" : "src/GeneralStateTestsFiller/stRandom/randomStatetest184Filler.json",
            "sourceHash" : "ad3784cca537314236c3badb03ec5bbc5ab021530e100e0bab263986a950e91d"
        },
        "blocks" : [
            {
                "blockHeader" : {
                    "baseFeePerGas" : "0x0a",
                    "bloom" : "0x00000000000000000000000000000000000000000000000000000000000000000000000000000000000000000000000000000000000000000000000000000000000000000000000000000000000000000000000000000000000000000000000000000000000000000000000000000000000000000000000000000000000000000000000000000000000000000000000000000000000000000000000000000000000000000000000000000000000000000000000000000000000000000000000000000000000000000000000000000000000000000000000000000000000000000000000000000000000000000000000000000000000000000000000000000000",
                    "coinbase" : "0x6d6e40885310545835a5b582dbc23ef026404bda",
                    "difficulty" : "0x00",
                    "extraData" : "0x00",
                    "gasLimit" : "0x7fffffff",
                    "gasUsed" : "0xa988",
                    "hash" : "0x7b852130f51f9f6dc4fc21bd533cbe792a6a4dfa98f6ebdb70df56d794210a2b",
                    "mixHash" : "0x0000000000000000000000000000000000000000000000000000000000020000",
                    "nonce" : "0x0000000000000000",
                    "number" : "0x01",
                    "parentHash" : "0x3e340ff16621d05c890a5e08e4a66fc319328d62b75def0490359e163874d8dd",
                    "receiptTrie" : "0x7155d83f244e853f4fd317bded966f097100e0d08c583a5a8a626daaf374e797",
                    "stateRoot" : "0xa4f41395d6936c6635861b292da928dad259f9a8cb487e39b3bf46f302563c05",
                    "timestamp" : "0x2710",
                    "transactionsTrie" : "0xe5c79263d9ee3544da3e96a20fc20b11cd2dc548c211a7d1073311a1b02191b7",
                    "uncleHash" : "0x1dcc4de8dec75d7aab85b567b6ccd41ad312451b948a7413f0a142fd40d49347"
                },
                "rlp" : "0xf90273f901f6a03e340ff16621d05c890a5e08e4a66fc319328d62b75def0490359e163874d8dda01dcc4de8dec75d7aab85b567b6ccd41ad312451b948a7413f0a142fd40d49347946d6e40885310545835a5b582dbc23ef026404bdaa0a4f41395d6936c6635861b292da928dad259f9a8cb487e39b3bf46f302563c05a0e5c79263d9ee3544da3e96a20fc20b11cd2dc548c211a7d1073311a1b02191b7a07155d83f244e853f4fd317bded966f097100e0d08c583a5a8a626daaf374e797b90100000000000000000000000000000000000000000000000000000000000000000000000000000000000000000000000000000000000000000000000000000000000000000000000000000000000000000000000000000000000000000000000000000000000000000000000000000000000000000000000000000000000000000000000000000000000000000000000000000000000000000000000000000000000000000000000000000000000000000000000000000000000000000000000000000000000000000000000000000000000000000000000000000000000000000000000000000000000000000000000000000000000000000000000000000000008001847fffffff82a98882271000a000000000000000000000000000000000000000000000000000000000000200008800000000000000000af877f875801c843b75fb8794095e7baea6a6c7c4c2dfeb977efac326af552d87846d1dd0249064dd3e4e84676723342c1dfaf9af4ef31ba0dcac3cc6bc71280f50cc82297c3483d65434803e718433c85d8dbb0644bfc379a059ed5cc1b44e24918daabd74179907fffc4692d5b9e8428a89aa4815c7870eddc0",
                "transactions" : [
                    {
                        "data" : "0x64dd3e4e84676723342c1dfaf9af4ef3",
                        "gasLimit" : "0x3b75fb87",
                        "gasPrice" : "0x1c",
                        "nonce" : "0x00",
                        "r" : "0xdcac3cc6bc71280f50cc82297c3483d65434803e718433c85d8dbb0644bfc379",
                        "s" : "0x59ed5cc1b44e24918daabd74179907fffc4692d5b9e8428a89aa4815c7870edd",
                        "sender" : "0xa94f5374fce5edbc8e2a8697c15331677e6ebf0b",
                        "to" : "0x095e7baea6a6c7c4c2dfeb977efac326af552d87",
                        "v" : "0x1b",
                        "value" : "0x6d1dd024"
                    }
                ],
                "uncleHeaders" : [
                ]
            }
        ],
        "genesisBlockHeader" : {
            "baseFeePerGas" : "0x0b",
            "bloom" : "0x00000000000000000000000000000000000000000000000000000000000000000000000000000000000000000000000000000000000000000000000000000000000000000000000000000000000000000000000000000000000000000000000000000000000000000000000000000000000000000000000000000000000000000000000000000000000000000000000000000000000000000000000000000000000000000000000000000000000000000000000000000000000000000000000000000000000000000000000000000000000000000000000000000000000000000000000000000000000000000000000000000000000000000000000000000000",
            "coinbase" : "0x6d6e40885310545835a5b582dbc23ef026404bda",
            "difficulty" : "0x00",
            "extraData" : "0x00",
            "gasLimit" : "0x7fffffff",
            "gasUsed" : "0x00",
            "hash" : "0x3e340ff16621d05c890a5e08e4a66fc319328d62b75def0490359e163874d8dd",
            "mixHash" : "0x0000000000000000000000000000000000000000000000000000000000020000",
            "nonce" : "0x0000000000000000",
            "number" : "0x00",
            "parentHash" : "0x0000000000000000000000000000000000000000000000000000000000000000",
            "receiptTrie" : "0x56e81f171bcc55a6ff8345e692c0f86e5b48e01b996cadc001622fb5e363b421",
            "stateRoot" : "0x297f41012f7d9ab3be0c8aaf734119c78b7606e34997dcd334b8ec84721dd0cf",
            "timestamp" : "0x00",
            "transactionsTrie" : "0x56e81f171bcc55a6ff8345e692c0f86e5b48e01b996cadc001622fb5e363b421",
            "uncleHash" : "0x1dcc4de8dec75d7aab85b567b6ccd41ad312451b948a7413f0a142fd40d49347"
        },
        "genesisRLP" : "0xf901f7f901f2a00000000000000000000000000000000000000000000000000000000000000000a01dcc4de8dec75d7aab85b567b6ccd41ad312451b948a7413f0a142fd40d49347946d6e40885310545835a5b582dbc23ef026404bdaa0297f41012f7d9ab3be0c8aaf734119c78b7606e34997dcd334b8ec84721dd0cfa056e81f171bcc55a6ff8345e692c0f86e5b48e01b996cadc001622fb5e363b421a056e81f171bcc55a6ff8345e692c0f86e5b48e01b996cadc001622fb5e363b421b90100000000000000000000000000000000000000000000000000000000000000000000000000000000000000000000000000000000000000000000000000000000000000000000000000000000000000000000000000000000000000000000000000000000000000000000000000000000000000000000000000000000000000000000000000000000000000000000000000000000000000000000000000000000000000000000000000000000000000000000000000000000000000000000000000000000000000000000000000000000000000000000000000000000000000000000000000000000000000000000000000000000000000000000000000000000008080847fffffff808000a000000000000000000000000000000000000000000000000000000000000200008800000000000000000bc0c0",
        "lastblockhash" : "0x7b852130f51f9f6dc4fc21bd533cbe792a6a4dfa98f6ebdb70df56d794210a2b",
        "network" : "Merge",
        "postState" : {
            "0x095e7baea6a6c7c4c2dfeb977efac326af552d87" : {
                "balance" : "0x070a217c6fe6c2f8",
                "code" : "0x6f823a02877cef7c1afb60663009def564608c557bad2ae05769b991313726edbfa0881d9cc955b0f5154751da315696ea7ce130184b64f2507582c502d450349ff24fb8aeb2a46146687b666bd7bd0364946cb720c76d483f5afea0049251fd9793c4b0376afbb4ebcdc42fdd42edcd4b619cec787638009cea26a1abe570e3186ab790b7dc7db36e4cda2570b0847adf6e39579c7c43a4ac976cd507d493cdfaebe09936078e31c71c4665d34a4b816b8004",
                "nonce" : "0x75",
                "storage" : {
                    "0x8c" : "0x823a02877cef7c1afb60663009def564"
                }
            },
            "0x6d6e40885310545835a5b582dbc23ef026404bda" : {
                "balance" : "0x0beb90",
                "code" : "0x",
                "nonce" : "0x00",
                "storage" : {
                }
            },
            "0x945304eb96065b2a98b57a48a06ae28d285a71b5" : {
                "balance" : "0x9740421ff0ff3ae3",
                "code" : "0x",
                "nonce" : "0x1d",
                "storage" : {
                }
            },
            "0xa94f5374fce5edbc8e2a8697c15331677e6ebf0b" : {
                "balance" : "0x10c1142f2b215e5554",
                "code" : "0x",
                "nonce" : "0x01",
                "storage" : {
                }
            }
        },
        "pre" : {
            "0x095e7baea6a6c7c4c2dfeb977efac326af552d87" : {
                "balance" : "0x070a217c02c8f2d4",
                "code" : "0x6f823a02877cef7c1afb60663009def564608c557bad2ae05769b991313726edbfa0881d9cc955b0f5154751da315696ea7ce130184b64f2507582c502d450349ff24fb8aeb2a46146687b666bd7bd0364946cb720c76d483f5afea0049251fd9793c4b0376afbb4ebcdc42fdd42edcd4b619cec787638009cea26a1abe570e3186ab790b7dc7db36e4cda2570b0847adf6e39579c7c43a4ac976cd507d493cdfaebe09936078e31c71c4665d34a4b816b8004",
                "nonce" : "0x75",
                "storage" : {
                }
            },
            "0x945304eb96065b2a98b57a48a06ae28d285a71b5" : {
                "balance" : "0x9740421ff0ff3ae3",
                "code" : "0x",
                "nonce" : "0x1d",
                "storage" : {
                }
            },
            "0xa94f5374fce5edbc8e2a8697c15331677e6ebf0b" : {
                "balance" : "0x10c1142f2b8e8eb058",
                "code" : "0x",
                "nonce" : "0x00",
                "storage" : {
                }
            }
        },
        "sealEngine" : "NoProof"
    }
}