{
    "randomStatetest97_d0g0v0_Berlin" : {
        "_info" : {
            "comment" : "",
            "filling-rpc-server" : "evm version 1.11.0-unstable-dbd6c132-20230214",
            "filling-tool-version" : "retesteth-0.2.3-postmerge+commit.5691d0b9.Linux.g++",
            "generatedTestHash" : "9d292a1078998de494439561824657652f2467229c79afc1fc7f254f1dd9b8e9",
            "lllcversion" : "Version: 0.5.14-develop.2023.2.14+commit.a096d7a9.Linux.g++",
            "solidity" : "Version: 0.8.5+commit.a4f2e591.Linux.g++",
            "source" : "src/GeneralStateTestsFiller/stRandom/randomStatetest97Filler.json",
            "sourceHash" : "98aa8daefc6373e2fa46126bf07d7d5e99c925ca282920f2a89ed1cbf13cdfb2"
        },
        "blocks" : [
            {
                "blockHeader" : {
                    "bloom" : "0x00000000000000000000000000000000000000000000000000000000000000000000000000000000000000000000000000000000000000000000000000000000000000000000000000000000000000000000000000000000000000000000000000000000000000000000000000000000000000000000000000000000000000000000000000000000000000000000000000000000000000000000000000000000000000000000000000000000000000000000000000000000000000000000000000000000000000000000000000000000000000000000000000000000000000000000000000000000000000000000000000000000000000000000000000000000",
                    "coinbase" : "0x945304eb96065b2a98b57a48a06ae28d285a71b5",
                    "difficulty" : "0x020000",
                    "extraData" : "0x00",
                    "gasLimit" : "0x7fffffff",
                    "gasUsed" : "0x043f70ef",
                    "hash" : "0x1608bd25d9b93d9af58b8c0bd6d6ab1973be225f8242af58c991931394ad2ddc",
                    "mixHash" : "0x0000000000000000000000000000000000000000000000000000000000000000",
                    "nonce" : "0x0000000000000000",
                    "number" : "0x01",
                    "parentHash" : "0x1cb0bd83619f5b9c43699e378c63973dee99dc0e57882e4baa6885a595c71c80",
                    "receiptTrie" : "0x335ea290687b54de4e781c2e7c32bc9d650ab4148ff8b95aa604d75bf8276c32",
                    "stateRoot" : "0xae53424dbae6c79fa8be4f7c81b9fc87bf741482103617c32325cf06eae81643",
                    "timestamp" : "0x03e8",
                    "transactionsTrie" : "0x2bbe22fc6bec771b6f996c6b81ab80291018bb4ee9e6261f0f2f5a689504ff66",
                    "uncleHash" : "0x1dcc4de8dec75d7aab85b567b6ccd41ad312451b948a7413f0a142fd40d49347"
                },
                "rlp" : "0xf9031ff901faa01cb0bd83619f5b9c43699e378c63973dee99dc0e57882e4baa6885a595c71c80a01dcc4de8dec75d7aab85b567b6ccd41ad312451b948a7413f0a142fd40d4934794945304eb96065b2a98b57a48a06ae28d285a71b5a0ae53424dbae6c79fa8be4f7c81b9fc87bf741482103617c32325cf06eae81643a02bbe22fc6bec771b6f996c6b81ab80291018bb4ee9e6261f0f2f5a689504ff66a0335ea290687b54de4e781c2e7c32bc9d650ab4148ff8b95aa604d75bf8276c32b90100000000000000000000000000000000000000000000000000000000000000000000000000000000000000000000000000000000000000000000000000000000000000000000000000000000000000000000000000000000000000000000000000000000000000000000000000000000000000000000000000000000000000000000000000000000000000000000000000000000000000000000000000000000000000000000000000000000000000000000000000000000000000000000000000000000000000000000000000000000000000000000000000000000000000000000000000000000000000000000000000000000000000000000000000000000008302000001847fffffff84043f70ef8203e800a00000000000000000000000000000000000000000000000000000000000000000880000000000000000f9011ef9011b800a84043f70ef94095e7baea6a6c7c4c2dfeb977efac326af552d878414008cb2b8b57f000000000000000000000000945304eb96065b2a98b57a48a06ae28d285a71b5587f0000000000000000000000000000000000000000000000000000000000000001957f0000000000000000000000000000000000000000000000000000000000000000407f00000000000000000000000000000000000000000000000000000000000000017f000000000000000000000000000000000000000000000000000000000000c3509781040107338b35071887a1861ba01901ac03724897dfc5f05db2f9f777d7d5f8323891076e377ac3f5cdf35b8c63a04f95408eb11c0a3aa238a1db47e3d4efb2976ce8a9d3e789ce93be845e222935c0",
                "transactions" : [
                    {
                        "data" : "0x7f000000000000000000000000945304eb96065b2a98b57a48a06ae28d285a71b5587f0000000000000000000000000000000000000000000000000000000000000001957f0000000000000000000000000000000000000000000000000000000000000000407f00000000000000000000000000000000000000000000000000000000000000017f000000000000000000000000000000000000000000000000000000000000c3509781040107338b35071887a186",
                        "gasLimit" : "0x043f70ef",
                        "gasPrice" : "0x0a",
                        "nonce" : "0x00",
                        "r" : "0x1901ac03724897dfc5f05db2f9f777d7d5f8323891076e377ac3f5cdf35b8c63",
                        "s" : "0x4f95408eb11c0a3aa238a1db47e3d4efb2976ce8a9d3e789ce93be845e222935",
                        "sender" : "0xa94f5374fce5edbc8e2a8697c15331677e6ebf0b",
                        "to" : "0x095e7baea6a6c7c4c2dfeb977efac326af552d87",
                        "v" : "0x1b",
                        "value" : "0x14008cb2"
                    }
                ],
                "uncleHeaders" : [
                ]
            }
        ],
        "genesisBlockHeader" : {
            "bloom" : "0x00000000000000000000000000000000000000000000000000000000000000000000000000000000000000000000000000000000000000000000000000000000000000000000000000000000000000000000000000000000000000000000000000000000000000000000000000000000000000000000000000000000000000000000000000000000000000000000000000000000000000000000000000000000000000000000000000000000000000000000000000000000000000000000000000000000000000000000000000000000000000000000000000000000000000000000000000000000000000000000000000000000000000000000000000000000",
            "coinbase" : "0x945304eb96065b2a98b57a48a06ae28d285a71b5",
            "difficulty" : "0x020000",
            "extraData" : "0x00",
            "gasLimit" : "0x7fffffff",
            "gasUsed" : "0x00",
            "hash" : "0x1cb0bd83619f5b9c43699e378c63973dee99dc0e57882e4baa6885a595c71c80",
            "mixHash" : "0x0000000000000000000000000000000000000000000000000000000000000000",
            "nonce" : "0x0000000000000000",
            "number" : "0x00",
            "parentHash" : "0x0000000000000000000000000000000000000000000000000000000000000000",
            "receiptTrie" : "0x56e81f171bcc55a6ff8345e692c0f86e5b48e01b996cadc001622fb5e363b421",
            "stateRoot" : "0x36467c36aecf4fece24d29f14eb8ac0a07d01c5632e028e2267e69da40a45f4f",
            "timestamp" : "0x00",
            "transactionsTrie" : "0x56e81f171bcc55a6ff8345e692c0f86e5b48e01b996cadc001622fb5e363b421",
            "uncleHash" : "0x1dcc4de8dec75d7aab85b567b6ccd41ad312451b948a7413f0a142fd40d49347"
        },
        "genesisRLP" : "0xf901f9f901f4a00000000000000000000000000000000000000000000000000000000000000000a01dcc4de8dec75d7aab85b567b6ccd41ad312451b948a7413f0a142fd40d4934794945304eb96065b2a98b57a48a06ae28d285a71b5a036467c36aecf4fece24d29f14eb8ac0a07d01c5632e028e2267e69da40a45f4fa056e81f171bcc55a6ff8345e692c0f86e5b48e01b996cadc001622fb5e363b421a056e81f171bcc55a6ff8345e692c0f86e5b48e01b996cadc001622fb5e363b421b90100000000000000000000000000000000000000000000000000000000000000000000000000000000000000000000000000000000000000000000000000000000000000000000000000000000000000000000000000000000000000000000000000000000000000000000000000000000000000000000000000000000000000000000000000000000000000000000000000000000000000000000000000000000000000000000000000000000000000000000000000000000000000000000000000000000000000000000000000000000000000000000000000000000000000000000000000000000000000000000000000000000000000000000000000000000008302000080847fffffff808000a00000000000000000000000000000000000000000000000000000000000000000880000000000000000c0c0",
        "lastblockhash" : "0x1608bd25d9b93d9af58b8c0bd6d6ab1973be225f8242af58c991931394ad2ddc",
        "network" : "Berlin",
        "postState" : {
            "0x095e7baea6a6c7c4c2dfeb977efac326af552d87" : {
                "balance" : "0x00",
                "code" : "0x7f000000000000000000000000945304eb96065b2a98b57a48a06ae28d285a71b5587f0000000000000000000000000000000000000000000000000000000000000001957f0000000000000000000000000000000000000000000000000000000000000000407f00000000000000000000000000000000000000000000000000000000000000017f000000000000000000000000000000000000000000000000000000000000c3509781040107338b35071887a186",
                "nonce" : "0x00",
                "storage" : {
                }
            },
            "0x945304eb96065b2a98b57a48a06ae28d285a71b5" : {
                "balance" : "0x1bc16d6779426984",
                "code" : "0x6000355415600957005b60203560003555",
                "nonce" : "0x00",
                "storage" : {
                }
            },
            "0xa94f5374fce5edbc8e2a8697c15331677e6ebf0b" : {
                "balance" : "0x0de0b6b37ce996aa",
                "code" : "0x",
                "nonce" : "0x01",
                "storage" : {
                }
            }
        },
        "pre" : {
            "0x095e7baea6a6c7c4c2dfeb977efac326af552d87" : {
                "balance" : "0x00",
                "code" : "0x7f000000000000000000000000945304eb96065b2a98b57a48a06ae28d285a71b5587f0000000000000000000000000000000000000000000000000000000000000001957f0000000000000000000000000000000000000000000000000000000000000000407f00000000000000000000000000000000000000000000000000000000000000017f000000000000000000000000000000000000000000000000000000000000c3509781040107338b35071887a186",
                "nonce" : "0x00",
                "storage" : {
                }
            },
            "0x945304eb96065b2a98b57a48a06ae28d285a71b5" : {
                "balance" : "0x2e",
                "code" : "0x6000355415600957005b60203560003555",
                "nonce" : "0x00",
                "storage" : {
                }
            },
            "0xa94f5374fce5edbc8e2a8697c15331677e6ebf0b" : {
                "balance" : "0x0de0b6b3a7640000",
                "code" : "0x",
                "nonce" : "0x00",
                "storage" : {
                }
            }
        },
        "sealEngine" : "NoProof"
    },
    "randomStatetest97_d0g0v0_Istanbul" : {
        "_info" : {
            "comment" : "",
            "filling-rpc-server" : "evm version 1.11.0-unstable-dbd6c132-20230214",
            "filling-tool-version" : "retesteth-0.2.3-postmerge+commit.5691d0b9.Linux.g++",
            "generatedTestHash" : "125176c74a58fb5eee445be16cb1fb65f522c5b0f0b7f51255ddd5e139da4419",
            "lllcversion" : "Version: 0.5.14-develop.2023.2.14+commit.a096d7a9.Linux.g++",
            "solidity" : "Version: 0.8.5+commit.a4f2e591.Linux.g++",
            "source" : "src/GeneralStateTestsFiller/stRandom/randomStatetest97Filler.json",
            "sourceHash" : "98aa8daefc6373e2fa46126bf07d7d5e99c925ca282920f2a89ed1cbf13cdfb2"
        },
        "blocks" : [
            {
                "blockHeader" : {
                    "bloom" : "0x00000000000000000000000000000000000000000000000000000000000000000000000000000000000000000000000000000000000000000000000000000000000000000000000000000000000000000000000000000000000000000000000000000000000000000000000000000000000000000000000000000000000000000000000000000000000000000000000000000000000000000000000000000000000000000000000000000000000000000000000000000000000000000000000000000000000000000000000000000000000000000000000000000000000000000000000000000000000000000000000000000000000000000000000000000000",
                    "coinbase" : "0x945304eb96065b2a98b57a48a06ae28d285a71b5",
                    "difficulty" : "0x020000",
                    "extraData" : "0x00",
                    "gasLimit" : "0x7fffffff",
                    "gasUsed" : "0x043f70ef",
                    "hash" : "0x1608bd25d9b93d9af58b8c0bd6d6ab1973be225f8242af58c991931394ad2ddc",
                    "mixHash" : "0x0000000000000000000000000000000000000000000000000000000000000000",
                    "nonce" : "0x0000000000000000",
                    "number" : "0x01",
                    "parentHash" : "0x1cb0bd83619f5b9c43699e378c63973dee99dc0e57882e4baa6885a595c71c80",
                    "receiptTrie" : "0x335ea290687b54de4e781c2e7c32bc9d650ab4148ff8b95aa604d75bf8276c32",
                    "stateRoot" : "0xae53424dbae6c79fa8be4f7c81b9fc87bf741482103617c32325cf06eae81643",
                    "timestamp" : "0x03e8",
                    "transactionsTrie" : "0x2bbe22fc6bec771b6f996c6b81ab80291018bb4ee9e6261f0f2f5a689504ff66",
                    "uncleHash" : "0x1dcc4de8dec75d7aab85b567b6ccd41ad312451b948a7413f0a142fd40d49347"
                },
                "rlp" : "0xf9031ff901faa01cb0bd83619f5b9c43699e378c63973dee99dc0e57882e4baa6885a595c71c80a01dcc4de8dec75d7aab85b567b6ccd41ad312451b948a7413f0a142fd40d4934794945304eb96065b2a98b57a48a06ae28d285a71b5a0ae53424dbae6c79fa8be4f7c81b9fc87bf741482103617c32325cf06eae81643a02bbe22fc6bec771b6f996c6b81ab80291018bb4ee9e6261f0f2f5a689504ff66a0335ea290687b54de4e781c2e7c32bc9d650ab4148ff8b95aa604d75bf8276c32b90100000000000000000000000000000000000000000000000000000000000000000000000000000000000000000000000000000000000000000000000000000000000000000000000000000000000000000000000000000000000000000000000000000000000000000000000000000000000000000000000000000000000000000000000000000000000000000000000000000000000000000000000000000000000000000000000000000000000000000000000000000000000000000000000000000000000000000000000000000000000000000000000000000000000000000000000000000000000000000000000000000000000000000000000000000000008302000001847fffffff84043f70ef8203e800a00000000000000000000000000000000000000000000000000000000000000000880000000000000000f9011ef9011b800a84043f70ef94095e7baea6a6c7c4c2dfeb977efac326af552d878414008cb2b8b57f000000000000000000000000945304eb96065b2a98b57a48a06ae28d285a71b5587f0000000000000000000000000000000000000000000000000000000000000001957f0000000000000000000000000000000000000000000000000000000000000000407f00000000000000000000000000000000000000000000000000000000000000017f000000000000000000000000000000000000000000000000000000000000c3509781040107338b35071887a1861ba01901ac03724897dfc5f05db2f9f777d7d5f8323891076e377ac3f5cdf35b8c63a04f95408eb11c0a3aa238a1db47e3d4efb2976ce8a9d3e789ce93be845e222935c0",
                "transactions" : [
                    {
                        "data" : "0x7f000000000000000000000000945304eb96065b2a98b57a48a06ae28d285a71b5587f0000000000000000000000000000000000000000000000000000000000000001957f0000000000000000000000000000000000000000000000000000000000000000407f00000000000000000000000000000000000000000000000000000000000000017f000000000000000000000000000000000000000000000000000000000000c3509781040107338b35071887a186",
                        "gasLimit" : "0x043f70ef",
                        "gasPrice" : "0x0a",
                        "nonce" : "0x00",
                        "r" : "0x1901ac03724897dfc5f05db2f9f777d7d5f8323891076e377ac3f5cdf35b8c63",
                        "s" : "0x4f95408eb11c0a3aa238a1db47e3d4efb2976ce8a9d3e789ce93be845e222935",
                        "sender" : "0xa94f5374fce5edbc8e2a8697c15331677e6ebf0b",
                        "to" : "0x095e7baea6a6c7c4c2dfeb977efac326af552d87",
                        "v" : "0x1b",
                        "value" : "0x14008cb2"
                    }
                ],
                "uncleHeaders" : [
                ]
            }
        ],
        "genesisBlockHeader" : {
            "bloom" : "0x00000000000000000000000000000000000000000000000000000000000000000000000000000000000000000000000000000000000000000000000000000000000000000000000000000000000000000000000000000000000000000000000000000000000000000000000000000000000000000000000000000000000000000000000000000000000000000000000000000000000000000000000000000000000000000000000000000000000000000000000000000000000000000000000000000000000000000000000000000000000000000000000000000000000000000000000000000000000000000000000000000000000000000000000000000000",
            "coinbase" : "0x945304eb96065b2a98b57a48a06ae28d285a71b5",
            "difficulty" : "0x020000",
            "extraData" : "0x00",
            "gasLimit" : "0x7fffffff",
            "gasUsed" : "0x00",
            "hash" : "0x1cb0bd83619f5b9c43699e378c63973dee99dc0e57882e4baa6885a595c71c80",
            "mixHash" : "0x0000000000000000000000000000000000000000000000000000000000000000",
            "nonce" : "0x0000000000000000",
            "number" : "0x00",
            "parentHash" : "0x0000000000000000000000000000000000000000000000000000000000000000",
            "receiptTrie" : "0x56e81f171bcc55a6ff8345e692c0f86e5b48e01b996cadc001622fb5e363b421",
            "stateRoot" : "0x36467c36aecf4fece24d29f14eb8ac0a07d01c5632e028e2267e69da40a45f4f",
            "timestamp" : "0x00",
            "transactionsTrie" : "0x56e81f171bcc55a6ff8345e692c0f86e5b48e01b996cadc001622fb5e363b421",
            "uncleHash" : "0x1dcc4de8dec75d7aab85b567b6ccd41ad312451b948a7413f0a142fd40d49347"
        },
        "genesisRLP" : "0xf901f9f901f4a00000000000000000000000000000000000000000000000000000000000000000a01dcc4de8dec75d7aab85b567b6ccd41ad312451b948a7413f0a142fd40d4934794945304eb96065b2a98b57a48a06ae28d285a71b5a036467c36aecf4fece24d29f14eb8ac0a07d01c5632e028e2267e69da40a45f4fa056e81f171bcc55a6ff8345e692c0f86e5b48e01b996cadc001622fb5e363b421a056e81f171bcc55a6ff8345e692c0f86e5b48e01b996cadc001622fb5e363b421b90100000000000000000000000000000000000000000000000000000000000000000000000000000000000000000000000000000000000000000000000000000000000000000000000000000000000000000000000000000000000000000000000000000000000000000000000000000000000000000000000000000000000000000000000000000000000000000000000000000000000000000000000000000000000000000000000000000000000000000000000000000000000000000000000000000000000000000000000000000000000000000000000000000000000000000000000000000000000000000000000000000000000000000000000000000000008302000080847fffffff808000a00000000000000000000000000000000000000000000000000000000000000000880000000000000000c0c0",
        "lastblockhash" : "0x1608bd25d9b93d9af58b8c0bd6d6ab1973be225f8242af58c991931394ad2ddc",
        "network" : "Istanbul",
        "postState" : {
            "0x095e7baea6a6c7c4c2dfeb977efac326af552d87" : {
                "balance" : "0x00",
                "code" : "0x7f000000000000000000000000945304eb96065b2a98b57a48a06ae28d285a71b5587f0000000000000000000000000000000000000000000000000000000000000001957f0000000000000000000000000000000000000000000000000000000000000000407f00000000000000000000000000000000000000000000000000000000000000017f000000000000000000000000000000000000000000000000000000000000c3509781040107338b35071887a186",
                "nonce" : "0x00",
                "storage" : {
                }
            },
            "0x945304eb96065b2a98b57a48a06ae28d285a71b5" : {
                "balance" : "0x1bc16d6779426984",
                "code" : "0x6000355415600957005b60203560003555",
                "nonce" : "0x00",
                "storage" : {
                }
            },
            "0xa94f5374fce5edbc8e2a8697c15331677e6ebf0b" : {
                "balance" : "0x0de0b6b37ce996aa",
                "code" : "0x",
                "nonce" : "0x01",
                "storage" : {
                }
            }
        },
        "pre" : {
            "0x095e7baea6a6c7c4c2dfeb977efac326af552d87" : {
                "balance" : "0x00",
                "code" : "0x7f000000000000000000000000945304eb96065b2a98b57a48a06ae28d285a71b5587f0000000000000000000000000000000000000000000000000000000000000001957f0000000000000000000000000000000000000000000000000000000000000000407f00000000000000000000000000000000000000000000000000000000000000017f000000000000000000000000000000000000000000000000000000000000c3509781040107338b35071887a186",
                "nonce" : "0x00",
                "storage" : {
                }
            },
            "0x945304eb96065b2a98b57a48a06ae28d285a71b5" : {
                "balance" : "0x2e",
                "code" : "0x6000355415600957005b60203560003555",
                "nonce" : "0x00",
                "storage" : {
                }
            },
            "0xa94f5374fce5edbc8e2a8697c15331677e6ebf0b" : {
                "balance" : "0x0de0b6b3a7640000",
                "code" : "0x",
                "nonce" : "0x00",
                "storage" : {
                }
            }
        },
        "sealEngine" : "NoProof"
    },
    "randomStatetest97_d0g0v0_London" : {
        "_info" : {
            "comment" : "",
            "filling-rpc-server" : "evm version 1.11.0-unstable-dbd6c132-20230214",
            "filling-tool-version" : "retesteth-0.2.3-postmerge+commit.5691d0b9.Linux.g++",
            "generatedTestHash" : "f403df4489cd190427af4967997447a187f378db9a444672dee0575dff056e1f",
            "lllcversion" : "Version: 0.5.14-develop.2023.2.14+commit.a096d7a9.Linux.g++",
            "solidity" : "Version: 0.8.5+commit.a4f2e591.Linux.g++",
            "source" : "src/GeneralStateTestsFiller/stRandom/randomStatetest97Filler.json",
            "sourceHash" : "98aa8daefc6373e2fa46126bf07d7d5e99c925ca282920f2a89ed1cbf13cdfb2"
        },
        "blocks" : [
            {
                "blockHeader" : {
                    "baseFeePerGas" : "0x0a",
                    "bloom" : "0x00000000000000000000000000000000000000000000000000000000000000000000000000000000000000000000000000000000000000000000000000000000000000000000000000000000000000000000000000000000000000000000000000000000000000000000000000000000000000000000000000000000000000000000000000000000000000000000000000000000000000000000000000000000000000000000000000000000000000000000000000000000000000000000000000000000000000000000000000000000000000000000000000000000000000000000000000000000000000000000000000000000000000000000000000000000",
                    "coinbase" : "0x945304eb96065b2a98b57a48a06ae28d285a71b5",
                    "difficulty" : "0x020000",
                    "extraData" : "0x00",
                    "gasLimit" : "0x7fffffff",
                    "gasUsed" : "0x043f70ef",
                    "hash" : "0x2040ae83d94d6046baf08cfc78afa5871b2de9805864982216b9448e58526d73",
                    "mixHash" : "0x0000000000000000000000000000000000000000000000000000000000000000",
                    "nonce" : "0x0000000000000000",
                    "number" : "0x01",
                    "parentHash" : "0x3ccb992294ccbcf2d69a41900b19e9cda5a14d85f703c86209d9338655dfd7ff",
                    "receiptTrie" : "0x335ea290687b54de4e781c2e7c32bc9d650ab4148ff8b95aa604d75bf8276c32",
                    "stateRoot" : "0x98b1fd96cf64caabaa6bc05a69bde047ecd8bc28dfa80769133c0f435d465977",
                    "timestamp" : "0x03e8",
                    "transactionsTrie" : "0x2bbe22fc6bec771b6f996c6b81ab80291018bb4ee9e6261f0f2f5a689504ff66",
                    "uncleHash" : "0x1dcc4de8dec75d7aab85b567b6ccd41ad312451b948a7413f0a142fd40d49347"
                },
                "rlp" : "0xf90320f901fba03ccb992294ccbcf2d69a41900b19e9cda5a14d85f703c86209d9338655dfd7ffa01dcc4de8dec75d7aab85b567b6ccd41ad312451b948a7413f0a142fd40d4934794945304eb96065b2a98b57a48a06ae28d285a71b5a098b1fd96cf64caabaa6bc05a69bde047ecd8bc28dfa80769133c0f435d465977a02bbe22fc6bec771b6f996c6b81ab80291018bb4ee9e6261f0f2f5a689504ff66a0335ea290687b54de4e781c2e7c32bc9d650ab4148ff8b95aa604d75bf8276c32b90100000000000000000000000000000000000000000000000000000000000000000000000000000000000000000000000000000000000000000000000000000000000000000000000000000000000000000000000000000000000000000000000000000000000000000000000000000000000000000000000000000000000000000000000000000000000000000000000000000000000000000000000000000000000000000000000000000000000000000000000000000000000000000000000000000000000000000000000000000000000000000000000000000000000000000000000000000000000000000000000000000000000000000000000000000000008302000001847fffffff84043f70ef8203e800a000000000000000000000000000000000000000000000000000000000000000008800000000000000000af9011ef9011b800a84043f70ef94095e7baea6a6c7c4c2dfeb977efac326af552d878414008cb2b8b57f000000000000000000000000945304eb96065b2a98b57a48a06ae28d285a71b5587f0000000000000000000000000000000000000000000000000000000000000001957f0000000000000000000000000000000000000000000000000000000000000000407f00000000000000000000000000000000000000000000000000000000000000017f000000000000000000000000000000000000000000000000000000000000c3509781040107338b35071887a1861ba01901ac03724897dfc5f05db2f9f777d7d5f8323891076e377ac3f5cdf35b8c63a04f95408eb11c0a3aa238a1db47e3d4efb2976ce8a9d3e789ce93be845e222935c0",
                "transactions" : [
                    {
                        "data" : "0x7f000000000000000000000000945304eb96065b2a98b57a48a06ae28d285a71b5587f0000000000000000000000000000000000000000000000000000000000000001957f0000000000000000000000000000000000000000000000000000000000000000407f00000000000000000000000000000000000000000000000000000000000000017f000000000000000000000000000000000000000000000000000000000000c3509781040107338b35071887a186",
                        "gasLimit" : "0x043f70ef",
                        "gasPrice" : "0x0a",
                        "nonce" : "0x00",
                        "r" : "0x1901ac03724897dfc5f05db2f9f777d7d5f8323891076e377ac3f5cdf35b8c63",
                        "s" : "0x4f95408eb11c0a3aa238a1db47e3d4efb2976ce8a9d3e789ce93be845e222935",
                        "sender" : "0xa94f5374fce5edbc8e2a8697c15331677e6ebf0b",
                        "to" : "0x095e7baea6a6c7c4c2dfeb977efac326af552d87",
                        "v" : "0x1b",
                        "value" : "0x14008cb2"
                    }
                ],
                "uncleHeaders" : [
                ]
            }
        ],
        "genesisBlockHeader" : {
            "baseFeePerGas" : "0x0b",
            "bloom" : "0x00000000000000000000000000000000000000000000000000000000000000000000000000000000000000000000000000000000000000000000000000000000000000000000000000000000000000000000000000000000000000000000000000000000000000000000000000000000000000000000000000000000000000000000000000000000000000000000000000000000000000000000000000000000000000000000000000000000000000000000000000000000000000000000000000000000000000000000000000000000000000000000000000000000000000000000000000000000000000000000000000000000000000000000000000000000",
            "coinbase" : "0x945304eb96065b2a98b57a48a06ae28d285a71b5",
            "difficulty" : "0x020000",
            "extraData" : "0x00",
            "gasLimit" : "0x7fffffff",
            "gasUsed" : "0x00",
            "hash" : "0x3ccb992294ccbcf2d69a41900b19e9cda5a14d85f703c86209d9338655dfd7ff",
            "mixHash" : "0x0000000000000000000000000000000000000000000000000000000000000000",
            "nonce" : "0x0000000000000000",
            "number" : "0x00",
            "parentHash" : "0x0000000000000000000000000000000000000000000000000000000000000000",
            "receiptTrie" : "0x56e81f171bcc55a6ff8345e692c0f86e5b48e01b996cadc001622fb5e363b421",
            "stateRoot" : "0x36467c36aecf4fece24d29f14eb8ac0a07d01c5632e028e2267e69da40a45f4f",
            "timestamp" : "0x00",
            "transactionsTrie" : "0x56e81f171bcc55a6ff8345e692c0f86e5b48e01b996cadc001622fb5e363b421",
            "uncleHash" : "0x1dcc4de8dec75d7aab85b567b6ccd41ad312451b948a7413f0a142fd40d49347"
        },
        "genesisRLP" : "0xf901faf901f5a00000000000000000000000000000000000000000000000000000000000000000a01dcc4de8dec75d7aab85b567b6ccd41ad312451b948a7413f0a142fd40d4934794945304eb96065b2a98b57a48a06ae28d285a71b5a036467c36aecf4fece24d29f14eb8ac0a07d01c5632e028e2267e69da40a45f4fa056e81f171bcc55a6ff8345e692c0f86e5b48e01b996cadc001622fb5e363b421a056e81f171bcc55a6ff8345e692c0f86e5b48e01b996cadc001622fb5e363b421b90100000000000000000000000000000000000000000000000000000000000000000000000000000000000000000000000000000000000000000000000000000000000000000000000000000000000000000000000000000000000000000000000000000000000000000000000000000000000000000000000000000000000000000000000000000000000000000000000000000000000000000000000000000000000000000000000000000000000000000000000000000000000000000000000000000000000000000000000000000000000000000000000000000000000000000000000000000000000000000000000000000000000000000000000000000000008302000080847fffffff808000a000000000000000000000000000000000000000000000000000000000000000008800000000000000000bc0c0",
        "lastblockhash" : "0x2040ae83d94d6046baf08cfc78afa5871b2de9805864982216b9448e58526d73",
        "network" : "London",
        "postState" : {
            "0x095e7baea6a6c7c4c2dfeb977efac326af552d87" : {
                "balance" : "0x00",
                "code" : "0x7f000000000000000000000000945304eb96065b2a98b57a48a06ae28d285a71b5587f0000000000000000000000000000000000000000000000000000000000000001957f0000000000000000000000000000000000000000000000000000000000000000407f00000000000000000000000000000000000000000000000000000000000000017f000000000000000000000000000000000000000000000000000000000000c3509781040107338b35071887a186",
                "nonce" : "0x00",
                "storage" : {
                }
            },
            "0x945304eb96065b2a98b57a48a06ae28d285a71b5" : {
                "balance" : "0x1bc16d674ec8002e",
                "code" : "0x6000355415600957005b60203560003555",
                "nonce" : "0x00",
                "storage" : {
                }
            },
            "0xa94f5374fce5edbc8e2a8697c15331677e6ebf0b" : {
                "balance" : "0x0de0b6b37ce996aa",
                "code" : "0x",
                "nonce" : "0x01",
                "storage" : {
                }
            }
        },
        "pre" : {
            "0x095e7baea6a6c7c4c2dfeb977efac326af552d87" : {
                "balance" : "0x00",
                "code" : "0x7f000000000000000000000000945304eb96065b2a98b57a48a06ae28d285a71b5587f0000000000000000000000000000000000000000000000000000000000000001957f0000000000000000000000000000000000000000000000000000000000000000407f00000000000000000000000000000000000000000000000000000000000000017f000000000000000000000000000000000000000000000000000000000000c3509781040107338b35071887a186",
                "nonce" : "0x00",
                "storage" : {
                }
            },
            "0x945304eb96065b2a98b57a48a06ae28d285a71b5" : {
                "balance" : "0x2e",
                "code" : "0x6000355415600957005b60203560003555",
                "nonce" : "0x00",
                "storage" : {
                }
            },
            "0xa94f5374fce5edbc8e2a8697c15331677e6ebf0b" : {
                "balance" : "0x0de0b6b3a7640000",
                "code" : "0x",
                "nonce" : "0x00",
                "storage" : {
                }
            }
        },
        "sealEngine" : "NoProof"
    },
    "randomStatetest97_d0g0v0_Merge" : {
        "_info" : {
            "comment" : "",
            "filling-rpc-server" : "evm version 1.11.0-unstable-dbd6c132-20230214",
            "filling-tool-version" : "retesteth-0.2.3-postmerge+commit.5691d0b9.Linux.g++",
            "generatedTestHash" : "c9d37b6ac8a67e614f2f152f03bbc60af57e5fdaa32e972ac95e0dea2a147194",
            "lllcversion" : "Version: 0.5.14-develop.2023.2.14+commit.a096d7a9.Linux.g++",
            "solidity" : "Version: 0.8.5+commit.a4f2e591.Linux.g++",
            "source" : "src/GeneralStateTestsFiller/stRandom/randomStatetest97Filler.json",
            "sourceHash" : "98aa8daefc6373e2fa46126bf07d7d5e99c925ca282920f2a89ed1cbf13cdfb2"
        },
        "blocks" : [
            {
                "blockHeader" : {
                    "baseFeePerGas" : "0x0a",
                    "bloom" : "0x00000000000000000000000000000000000000000000000000000000000000000000000000000000000000000000000000000000000000000000000000000000000000000000000000000000000000000000000000000000000000000000000000000000000000000000000000000000000000000000000000000000000000000000000000000000000000000000000000000000000000000000000000000000000000000000000000000000000000000000000000000000000000000000000000000000000000000000000000000000000000000000000000000000000000000000000000000000000000000000000000000000000000000000000000000000",
                    "coinbase" : "0x945304eb96065b2a98b57a48a06ae28d285a71b5",
                    "difficulty" : "0x00",
                    "extraData" : "0x00",
                    "gasLimit" : "0x7fffffff",
                    "gasUsed" : "0x043f70ef",
                    "hash" : "0x53494f23799a842b87f8f5ea3bbad79bd870c02fcb8c886a43678824cc101874",
                    "mixHash" : "0x0000000000000000000000000000000000000000000000000000000000020000",
                    "nonce" : "0x0000000000000000",
                    "number" : "0x01",
                    "parentHash" : "0x7b40fbc3334c9c60c011fa1688f132b38d08c98a8ae0bc0882aabf81cb01bb59",
                    "receiptTrie" : "0x335ea290687b54de4e781c2e7c32bc9d650ab4148ff8b95aa604d75bf8276c32",
                    "stateRoot" : "0x49dab6ece0c499c6c6d4f90ba9693b1a97c0625decc1ed08b8cd1dc040411991",
                    "timestamp" : "0x03e8",
                    "transactionsTrie" : "0x2bbe22fc6bec771b6f996c6b81ab80291018bb4ee9e6261f0f2f5a689504ff66",
                    "uncleHash" : "0x1dcc4de8dec75d7aab85b567b6ccd41ad312451b948a7413f0a142fd40d49347"
                },
                "rlp" : "0xf9031df901f8a07b40fbc3334c9c60c011fa1688f132b38d08c98a8ae0bc0882aabf81cb01bb59a01dcc4de8dec75d7aab85b567b6ccd41ad312451b948a7413f0a142fd40d4934794945304eb96065b2a98b57a48a06ae28d285a71b5a049dab6ece0c499c6c6d4f90ba9693b1a97c0625decc1ed08b8cd1dc040411991a02bbe22fc6bec771b6f996c6b81ab80291018bb4ee9e6261f0f2f5a689504ff66a0335ea290687b54de4e781c2e7c32bc9d650ab4148ff8b95aa604d75bf8276c32b90100000000000000000000000000000000000000000000000000000000000000000000000000000000000000000000000000000000000000000000000000000000000000000000000000000000000000000000000000000000000000000000000000000000000000000000000000000000000000000000000000000000000000000000000000000000000000000000000000000000000000000000000000000000000000000000000000000000000000000000000000000000000000000000000000000000000000000000000000000000000000000000000000000000000000000000000000000000000000000000000000000000000000000000000000000000008001847fffffff84043f70ef8203e800a000000000000000000000000000000000000000000000000000000000000200008800000000000000000af9011ef9011b800a84043f70ef94095e7baea6a6c7c4c2dfeb977efac326af552d878414008cb2b8b57f000000000000000000000000945304eb96065b2a98b57a48a06ae28d285a71b5587f0000000000000000000000000000000000000000000000000000000000000001957f0000000000000000000000000000000000000000000000000000000000000000407f00000000000000000000000000000000000000000000000000000000000000017f000000000000000000000000000000000000000000000000000000000000c3509781040107338b35071887a1861ba01901ac03724897dfc5f05db2f9f777d7d5f8323891076e377ac3f5cdf35b8c63a04f95408eb11c0a3aa238a1db47e3d4efb2976ce8a9d3e789ce93be845e222935c0",
                "transactions" : [
                    {
                        "data" : "0x7f000000000000000000000000945304eb96065b2a98b57a48a06ae28d285a71b5587f0000000000000000000000000000000000000000000000000000000000000001957f0000000000000000000000000000000000000000000000000000000000000000407f00000000000000000000000000000000000000000000000000000000000000017f000000000000000000000000000000000000000000000000000000000000c3509781040107338b35071887a186",
                        "gasLimit" : "0x043f70ef",
                        "gasPrice" : "0x0a",
                        "nonce" : "0x00",
                        "r" : "0x1901ac03724897dfc5f05db2f9f777d7d5f8323891076e377ac3f5cdf35b8c63",
                        "s" : "0x4f95408eb11c0a3aa238a1db47e3d4efb2976ce8a9d3e789ce93be845e222935",
                        "sender" : "0xa94f5374fce5edbc8e2a8697c15331677e6ebf0b",
                        "to" : "0x095e7baea6a6c7c4c2dfeb977efac326af552d87",
                        "v" : "0x1b",
                        "value" : "0x14008cb2"
                    }
                ],
                "uncleHeaders" : [
                ]
            }
        ],
        "genesisBlockHeader" : {
            "baseFeePerGas" : "0x0b",
            "bloom" : "0x00000000000000000000000000000000000000000000000000000000000000000000000000000000000000000000000000000000000000000000000000000000000000000000000000000000000000000000000000000000000000000000000000000000000000000000000000000000000000000000000000000000000000000000000000000000000000000000000000000000000000000000000000000000000000000000000000000000000000000000000000000000000000000000000000000000000000000000000000000000000000000000000000000000000000000000000000000000000000000000000000000000000000000000000000000000",
            "coinbase" : "0x945304eb96065b2a98b57a48a06ae28d285a71b5",
            "difficulty" : "0x00",
            "extraData" : "0x00",
            "gasLimit" : "0x7fffffff",
            "gasUsed" : "0x00",
            "hash" : "0x7b40fbc3334c9c60c011fa1688f132b38d08c98a8ae0bc0882aabf81cb01bb59",
            "mixHash" : "0x0000000000000000000000000000000000000000000000000000000000020000",
            "nonce" : "0x0000000000000000",
            "number" : "0x00",
            "parentHash" : "0x0000000000000000000000000000000000000000000000000000000000000000",
            "receiptTrie" : "0x56e81f171bcc55a6ff8345e692c0f86e5b48e01b996cadc001622fb5e363b421",
            "stateRoot" : "0x36467c36aecf4fece24d29f14eb8ac0a07d01c5632e028e2267e69da40a45f4f",
            "timestamp" : "0x00",
            "transactionsTrie" : "0x56e81f171bcc55a6ff8345e692c0f86e5b48e01b996cadc001622fb5e363b421",
            "uncleHash" : "0x1dcc4de8dec75d7aab85b567b6ccd41ad312451b948a7413f0a142fd40d49347"
        },
        "genesisRLP" : "0xf901f7f901f2a00000000000000000000000000000000000000000000000000000000000000000a01dcc4de8dec75d7aab85b567b6ccd41ad312451b948a7413f0a142fd40d4934794945304eb96065b2a98b57a48a06ae28d285a71b5a036467c36aecf4fece24d29f14eb8ac0a07d01c5632e028e2267e69da40a45f4fa056e81f171bcc55a6ff8345e692c0f86e5b48e01b996cadc001622fb5e363b421a056e81f171bcc55a6ff8345e692c0f86e5b48e01b996cadc001622fb5e363b421b90100000000000000000000000000000000000000000000000000000000000000000000000000000000000000000000000000000000000000000000000000000000000000000000000000000000000000000000000000000000000000000000000000000000000000000000000000000000000000000000000000000000000000000000000000000000000000000000000000000000000000000000000000000000000000000000000000000000000000000000000000000000000000000000000000000000000000000000000000000000000000000000000000000000000000000000000000000000000000000000000000000000000000000000000000000000008080847fffffff808000a000000000000000000000000000000000000000000000000000000000000200008800000000000000000bc0c0",
        "lastblockhash" : "0x53494f23799a842b87f8f5ea3bbad79bd870c02fcb8c886a43678824cc101874",
        "network" : "Merge",
        "postState" : {
            "0x095e7baea6a6c7c4c2dfeb977efac326af552d87" : {
                "balance" : "0x00",
                "code" : "0x7f000000000000000000000000945304eb96065b2a98b57a48a06ae28d285a71b5587f0000000000000000000000000000000000000000000000000000000000000001957f0000000000000000000000000000000000000000000000000000000000000000407f00000000000000000000000000000000000000000000000000000000000000017f000000000000000000000000000000000000000000000000000000000000c3509781040107338b35071887a186",
                "nonce" : "0x00",
                "storage" : {
                }
            },
            "0x945304eb96065b2a98b57a48a06ae28d285a71b5" : {
                "balance" : "0x2e",
                "code" : "0x6000355415600957005b60203560003555",
                "nonce" : "0x00",
                "storage" : {
                }
            },
            "0xa94f5374fce5edbc8e2a8697c15331677e6ebf0b" : {
                "balance" : "0x0de0b6b37ce996aa",
                "code" : "0x",
                "nonce" : "0x01",
                "storage" : {
                }
            }
        },
        "pre" : {
            "0x095e7baea6a6c7c4c2dfeb977efac326af552d87" : {
                "balance" : "0x00",
                "code" : "0x7f000000000000000000000000945304eb96065b2a98b57a48a06ae28d285a71b5587f0000000000000000000000000000000000000000000000000000000000000001957f0000000000000000000000000000000000000000000000000000000000000000407f00000000000000000000000000000000000000000000000000000000000000017f000000000000000000000000000000000000000000000000000000000000c3509781040107338b35071887a186",
                "nonce" : "0x00",
                "storage" : {
                }
            },
            "0x945304eb96065b2a98b57a48a06ae28d285a71b5" : {
                "balance" : "0x2e",
                "code" : "0x6000355415600957005b60203560003555",
                "nonce" : "0x00",
                "storage" : {
                }
            },
            "0xa94f5374fce5edbc8e2a8697c15331677e6ebf0b" : {
                "balance" : "0x0de0b6b3a7640000",
                "code" : "0x",
                "nonce" : "0x00",
                "storage" : {
                }
            }
        },
        "sealEngine" : "NoProof"
    }
}