{
    "randomStatetest51_d0g0v0_Berlin" : {
        "_info" : {
            "comment" : "",
            "filling-rpc-server" : "evm version 1.11.0-unstable-dbd6c132-20230214",
            "filling-tool-version" : "retesteth-0.2.3-postmerge+commit.5691d0b9.Linux.g++",
            "generatedTestHash" : "c974e39bb6417d17764e5ffb7c20ce393d86e4fb6ed28ad25f341028358636cb",
            "lllcversion" : "Version: 0.5.14-develop.2023.2.14+commit.a096d7a9.Linux.g++",
            "solidity" : "Version: 0.8.5+commit.a4f2e591.Linux.g++",
            "source" : "src/GeneralStateTestsFiller/stRandom/randomStatetest51Filler.json",
            "sourceHash" : "37b835ded2af8cbe0cb4fd619612522e51bb3d60ad94dea2588c406a7ba9e2a2"
        },
        "blocks" : [
            {
                "blockHeader" : {
                    "bloom" : "0x00000000000000000000000000000000000000000000000000000000000000000000000000000000000000000000000000000000000000000000000000000000000000000000000000000000000000000000000000000000000000000000000000000000000000000000000000000000000000000000000000000000000000000000000000000000000000000000000000000000000000000000000000000000000000000000000000000000000000000000000000000000000000000000000000000000000000000000000000000000000000000000000000000000000000000000000000000000000000000000000000000000000000000000000000000000",
                    "coinbase" : "0x945304eb96065b2a98b57a48a06ae28d285a71b5",
                    "difficulty" : "0x020000",
                    "extraData" : "0x00",
                    "gasLimit" : "0x7fffffff",
                    "gasUsed" : "0x6ef38b01",
                    "hash" : "0xc21fa510a0b081305a94f7652a1560fd63df2c9355ba404063e84cd48d8cb826",
                    "mixHash" : "0x0000000000000000000000000000000000000000000000000000000000000000",
                    "nonce" : "0x0000000000000000",
                    "number" : "0x01",
                    "parentHash" : "0x686b473ac571ac49d9992e735f8171e7ceb5235205a2382606abf50817dee2df",
                    "receiptTrie" : "0x1b6f302efd18951e93dbc786bd99b4467ad6dd5e29718ce7b46ace815ab06eca",
                    "stateRoot" : "0xd2a866e2a97613b92f44d4763199f4223542950fde37e6fcf99ea9dab458dd27",
                    "timestamp" : "0x03e8",
                    "transactionsTrie" : "0x085692e680a320412236c458c635933e38ee1d17de0e06118b4e9630680963ec",
                    "uncleHash" : "0x1dcc4de8dec75d7aab85b567b6ccd41ad312451b948a7413f0a142fd40d49347"
                },
                "rlp" : "0xf90315f901faa0686b473ac571ac49d9992e735f8171e7ceb5235205a2382606abf50817dee2dfa01dcc4de8dec75d7aab85b567b6ccd41ad312451b948a7413f0a142fd40d4934794945304eb96065b2a98b57a48a06ae28d285a71b5a0d2a866e2a97613b92f44d4763199f4223542950fde37e6fcf99ea9dab458dd27a0085692e680a320412236c458c635933e38ee1d17de0e06118b4e9630680963eca01b6f302efd18951e93dbc786bd99b4467ad6dd5e29718ce7b46ace815ab06ecab90100000000000000000000000000000000000000000000000000000000000000000000000000000000000000000000000000000000000000000000000000000000000000000000000000000000000000000000000000000000000000000000000000000000000000000000000000000000000000000000000000000000000000000000000000000000000000000000000000000000000000000000000000000000000000000000000000000000000000000000000000000000000000000000000000000000000000000000000000000000000000000000000000000000000000000000000000000000000000000000000000000000000000000000000000000000008302000001847fffffff846ef38b018203e800a00000000000000000000000000000000000000000000000000000000000000000880000000000000000f90114f90111800a846ef38b0194095e7baea6a6c7c4c2dfeb977efac326af552d87843f4d7811b8ab7f0000000000000000000000000000000000000000000000000000000000000001757f000000000000000000000000945304eb96065b2a98b57a48a06ae28d285a71b57a7f000000000000000000000000945304eb96065b2a98b57a48a06ae28d285a71b57f000000000000000000000000945304eb96065b2a98b57a48a06ae28d285a71b5447ffffffffffffffffffffffffffffffffffffffffffffffffffffffffffffffffe83189b1ba00d16c59e0dd4942e8d0871a90de819876567f4d85c7b2e34ff6b2357248dbdd3a0559400ac4aeaff36bb2ccf5fca7e60a59b447e25306bfa0fdecc929ea1930beac0",
                "transactions" : [
                    {
                        "data" : "0x7f0000000000000000000000000000000000000000000000000000000000000001757f000000000000000000000000945304eb96065b2a98b57a48a06ae28d285a71b57a7f000000000000000000000000945304eb96065b2a98b57a48a06ae28d285a71b57f000000000000000000000000945304eb96065b2a98b57a48a06ae28d285a71b5447ffffffffffffffffffffffffffffffffffffffffffffffffffffffffffffffffe83189b",
                        "gasLimit" : "0x6ef38b01",
                        "gasPrice" : "0x0a",
                        "nonce" : "0x00",
                        "r" : "0x0d16c59e0dd4942e8d0871a90de819876567f4d85c7b2e34ff6b2357248dbdd3",
                        "s" : "0x559400ac4aeaff36bb2ccf5fca7e60a59b447e25306bfa0fdecc929ea1930bea",
                        "sender" : "0xa94f5374fce5edbc8e2a8697c15331677e6ebf0b",
                        "to" : "0x095e7baea6a6c7c4c2dfeb977efac326af552d87",
                        "v" : "0x1b",
                        "value" : "0x3f4d7811"
                    }
                ],
                "uncleHeaders" : [
                ]
            }
        ],
        "genesisBlockHeader" : {
            "bloom" : "0x00000000000000000000000000000000000000000000000000000000000000000000000000000000000000000000000000000000000000000000000000000000000000000000000000000000000000000000000000000000000000000000000000000000000000000000000000000000000000000000000000000000000000000000000000000000000000000000000000000000000000000000000000000000000000000000000000000000000000000000000000000000000000000000000000000000000000000000000000000000000000000000000000000000000000000000000000000000000000000000000000000000000000000000000000000000",
            "coinbase" : "0x945304eb96065b2a98b57a48a06ae28d285a71b5",
            "difficulty" : "0x020000",
            "extraData" : "0x00",
            "gasLimit" : "0x7fffffff",
            "gasUsed" : "0x00",
            "hash" : "0x686b473ac571ac49d9992e735f8171e7ceb5235205a2382606abf50817dee2df",
            "mixHash" : "0x0000000000000000000000000000000000000000000000000000000000000000",
            "nonce" : "0x0000000000000000",
            "number" : "0x00",
            "parentHash" : "0x0000000000000000000000000000000000000000000000000000000000000000",
            "receiptTrie" : "0x56e81f171bcc55a6ff8345e692c0f86e5b48e01b996cadc001622fb5e363b421",
            "stateRoot" : "0x097d7acac811c1955ae383fd7dae6bb2275612b93dc2103ff8cbdd6c3bb51fdd",
            "timestamp" : "0x00",
            "transactionsTrie" : "0x56e81f171bcc55a6ff8345e692c0f86e5b48e01b996cadc001622fb5e363b421",
            "uncleHash" : "0x1dcc4de8dec75d7aab85b567b6ccd41ad312451b948a7413f0a142fd40d49347"
        },
        "genesisRLP" : "0xf901f9f901f4a00000000000000000000000000000000000000000000000000000000000000000a01dcc4de8dec75d7aab85b567b6ccd41ad312451b948a7413f0a142fd40d4934794945304eb96065b2a98b57a48a06ae28d285a71b5a0097d7acac811c1955ae383fd7dae6bb2275612b93dc2103ff8cbdd6c3bb51fdda056e81f171bcc55a6ff8345e692c0f86e5b48e01b996cadc001622fb5e363b421a056e81f171bcc55a6ff8345e692c0f86e5b48e01b996cadc001622fb5e363b421b90100000000000000000000000000000000000000000000000000000000000000000000000000000000000000000000000000000000000000000000000000000000000000000000000000000000000000000000000000000000000000000000000000000000000000000000000000000000000000000000000000000000000000000000000000000000000000000000000000000000000000000000000000000000000000000000000000000000000000000000000000000000000000000000000000000000000000000000000000000000000000000000000000000000000000000000000000000000000000000000000000000000000000000000000000000000008302000080847fffffff808000a00000000000000000000000000000000000000000000000000000000000000000880000000000000000c0c0",
        "lastblockhash" : "0xc21fa510a0b081305a94f7652a1560fd63df2c9355ba404063e84cd48d8cb826",
        "network" : "Berlin",
        "postState" : {
            "0x095e7baea6a6c7c4c2dfeb977efac326af552d87" : {
                "balance" : "0x00",
                "code" : "0x7f0000000000000000000000000000000000000000000000000000000000000001757f000000000000000000000000945304eb96065b2a98b57a48a06ae28d285a71b57a7f000000000000000000000000945304eb96065b2a98b57a48a06ae28d285a71b57f000000000000000000000000945304eb96065b2a98b57a48a06ae28d285a71b5447ffffffffffffffffffffffffffffffffffffffffffffffffffffffffffffffffe83189b60005155",
                "nonce" : "0x00",
                "storage" : {
                }
            },
            "0x945304eb96065b2a98b57a48a06ae28d285a71b5" : {
                "balance" : "0x1bc16d6ba44b6e38",
                "code" : "0x6000355415600957005b60203560003555",
                "nonce" : "0x00",
                "storage" : {
                }
            },
            "0xa94f5374fce5edbc8e2a8697c15331677e6ebf0b" : {
                "balance" : "0x0de0b6af51e091f6",
                "code" : "0x",
                "nonce" : "0x01",
                "storage" : {
                }
            }
        },
        "pre" : {
            "0x095e7baea6a6c7c4c2dfeb977efac326af552d87" : {
                "balance" : "0x00",
                "code" : "0x7f0000000000000000000000000000000000000000000000000000000000000001757f000000000000000000000000945304eb96065b2a98b57a48a06ae28d285a71b57a7f000000000000000000000000945304eb96065b2a98b57a48a06ae28d285a71b57f000000000000000000000000945304eb96065b2a98b57a48a06ae28d285a71b5447ffffffffffffffffffffffffffffffffffffffffffffffffffffffffffffffffe83189b60005155",
                "nonce" : "0x00",
                "storage" : {
                }
            },
            "0x945304eb96065b2a98b57a48a06ae28d285a71b5" : {
                "balance" : "0x2e",
                "code" : "0x6000355415600957005b60203560003555",
                "nonce" : "0x00",
                "storage" : {
                }
            },
            "0xa94f5374fce5edbc8e2a8697c15331677e6ebf0b" : {
                "balance" : "0x0de0b6b3a7640000",
                "code" : "0x",
                "nonce" : "0x00",
                "storage" : {
                }
            }
        },
        "sealEngine" : "NoProof"
    },
    "randomStatetest51_d0g0v0_Istanbul" : {
        "_info" : {
            "comment" : "",
            "filling-rpc-server" : "evm version 1.11.0-unstable-dbd6c132-20230214",
            "filling-tool-version" : "retesteth-0.2.3-postmerge+commit.5691d0b9.Linux.g++",
            "generatedTestHash" : "9300be72480d9b78ec379505c8755e875bb57dc7d57a249d864b961f44c5ee3b",
            "lllcversion" : "Version: 0.5.14-develop.2023.2.14+commit.a096d7a9.Linux.g++",
            "solidity" : "Version: 0.8.5+commit.a4f2e591.Linux.g++",
            "source" : "src/GeneralStateTestsFiller/stRandom/randomStatetest51Filler.json",
            "sourceHash" : "37b835ded2af8cbe0cb4fd619612522e51bb3d60ad94dea2588c406a7ba9e2a2"
        },
        "blocks" : [
            {
                "blockHeader" : {
                    "bloom" : "0x00000000000000000000000000000000000000000000000000000000000000000000000000000000000000000000000000000000000000000000000000000000000000000000000000000000000000000000000000000000000000000000000000000000000000000000000000000000000000000000000000000000000000000000000000000000000000000000000000000000000000000000000000000000000000000000000000000000000000000000000000000000000000000000000000000000000000000000000000000000000000000000000000000000000000000000000000000000000000000000000000000000000000000000000000000000",
                    "coinbase" : "0x945304eb96065b2a98b57a48a06ae28d285a71b5",
                    "difficulty" : "0x020000",
                    "extraData" : "0x00",
                    "gasLimit" : "0x7fffffff",
                    "gasUsed" : "0x6ef38b01",
                    "hash" : "0xc21fa510a0b081305a94f7652a1560fd63df2c9355ba404063e84cd48d8cb826",
                    "mixHash" : "0x0000000000000000000000000000000000000000000000000000000000000000",
                    "nonce" : "0x0000000000000000",
                    "number" : "0x01",
                    "parentHash" : "0x686b473ac571ac49d9992e735f8171e7ceb5235205a2382606abf50817dee2df",
                    "receiptTrie" : "0x1b6f302efd18951e93dbc786bd99b4467ad6dd5e29718ce7b46ace815ab06eca",
                    "stateRoot" : "0xd2a866e2a97613b92f44d4763199f4223542950fde37e6fcf99ea9dab458dd27",
                    "timestamp" : "0x03e8",
                    "transactionsTrie" : "0x085692e680a320412236c458c635933e38ee1d17de0e06118b4e9630680963ec",
                    "uncleHash" : "0x1dcc4de8dec75d7aab85b567b6ccd41ad312451b948a7413f0a142fd40d49347"
                },
                "rlp" : "0xf90315f901faa0686b473ac571ac49d9992e735f8171e7ceb5235205a2382606abf50817dee2dfa01dcc4de8dec75d7aab85b567b6ccd41ad312451b948a7413f0a142fd40d4934794945304eb96065b2a98b57a48a06ae28d285a71b5a0d2a866e2a97613b92f44d4763199f4223542950fde37e6fcf99ea9dab458dd27a0085692e680a320412236c458c635933e38ee1d17de0e06118b4e9630680963eca01b6f302efd18951e93dbc786bd99b4467ad6dd5e29718ce7b46ace815ab06ecab90100000000000000000000000000000000000000000000000000000000000000000000000000000000000000000000000000000000000000000000000000000000000000000000000000000000000000000000000000000000000000000000000000000000000000000000000000000000000000000000000000000000000000000000000000000000000000000000000000000000000000000000000000000000000000000000000000000000000000000000000000000000000000000000000000000000000000000000000000000000000000000000000000000000000000000000000000000000000000000000000000000000000000000000000000000000008302000001847fffffff846ef38b018203e800a00000000000000000000000000000000000000000000000000000000000000000880000000000000000f90114f90111800a846ef38b0194095e7baea6a6c7c4c2dfeb977efac326af552d87843f4d7811b8ab7f0000000000000000000000000000000000000000000000000000000000000001757f000000000000000000000000945304eb96065b2a98b57a48a06ae28d285a71b57a7f000000000000000000000000945304eb96065b2a98b57a48a06ae28d285a71b57f000000000000000000000000945304eb96065b2a98b57a48a06ae28d285a71b5447ffffffffffffffffffffffffffffffffffffffffffffffffffffffffffffffffe83189b1ba00d16c59e0dd4942e8d0871a90de819876567f4d85c7b2e34ff6b2357248dbdd3a0559400ac4aeaff36bb2ccf5fca7e60a59b447e25306bfa0fdecc929ea1930beac0",
                "transactions" : [
                    {
                        "data" : "0x7f0000000000000000000000000000000000000000000000000000000000000001757f000000000000000000000000945304eb96065b2a98b57a48a06ae28d285a71b57a7f000000000000000000000000945304eb96065b2a98b57a48a06ae28d285a71b57f000000000000000000000000945304eb96065b2a98b57a48a06ae28d285a71b5447ffffffffffffffffffffffffffffffffffffffffffffffffffffffffffffffffe83189b",
                        "gasLimit" : "0x6ef38b01",
                        "gasPrice" : "0x0a",
                        "nonce" : "0x00",
                        "r" : "0x0d16c59e0dd4942e8d0871a90de819876567f4d85c7b2e34ff6b2357248dbdd3",
                        "s" : "0x559400ac4aeaff36bb2ccf5fca7e60a59b447e25306bfa0fdecc929ea1930bea",
                        "sender" : "0xa94f5374fce5edbc8e2a8697c15331677e6ebf0b",
                        "to" : "0x095e7baea6a6c7c4c2dfeb977efac326af552d87",
                        "v" : "0x1b",
                        "value" : "0x3f4d7811"
                    }
                ],
                "uncleHeaders" : [
                ]
            }
        ],
        "genesisBlockHeader" : {
            "bloom" : "0x00000000000000000000000000000000000000000000000000000000000000000000000000000000000000000000000000000000000000000000000000000000000000000000000000000000000000000000000000000000000000000000000000000000000000000000000000000000000000000000000000000000000000000000000000000000000000000000000000000000000000000000000000000000000000000000000000000000000000000000000000000000000000000000000000000000000000000000000000000000000000000000000000000000000000000000000000000000000000000000000000000000000000000000000000000000",
            "coinbase" : "0x945304eb96065b2a98b57a48a06ae28d285a71b5",
            "difficulty" : "0x020000",
            "extraData" : "0x00",
            "gasLimit" : "0x7fffffff",
            "gasUsed" : "0x00",
            "hash" : "0x686b473ac571ac49d9992e735f8171e7ceb5235205a2382606abf50817dee2df",
            "mixHash" : "0x0000000000000000000000000000000000000000000000000000000000000000",
            "nonce" : "0x0000000000000000",
            "number" : "0x00",
            "parentHash" : "0x0000000000000000000000000000000000000000000000000000000000000000",
            "receiptTrie" : "0x56e81f171bcc55a6ff8345e692c0f86e5b48e01b996cadc001622fb5e363b421",
            "stateRoot" : "0x097d7acac811c1955ae383fd7dae6bb2275612b93dc2103ff8cbdd6c3bb51fdd",
            "timestamp" : "0x00",
            "transactionsTrie" : "0x56e81f171bcc55a6ff8345e692c0f86e5b48e01b996cadc001622fb5e363b421",
            "uncleHash" : "0x1dcc4de8dec75d7aab85b567b6ccd41ad312451b948a7413f0a142fd40d49347"
        },
        "genesisRLP" : "0xf901f9f901f4a00000000000000000000000000000000000000000000000000000000000000000a01dcc4de8dec75d7aab85b567b6ccd41ad312451b948a7413f0a142fd40d4934794945304eb96065b2a98b57a48a06ae28d285a71b5a0097d7acac811c1955ae383fd7dae6bb2275612b93dc2103ff8cbdd6c3bb51fdda056e81f171bcc55a6ff8345e692c0f86e5b48e01b996cadc001622fb5e363b421a056e81f171bcc55a6ff8345e692c0f86e5b48e01b996cadc001622fb5e363b421b90100000000000000000000000000000000000000000000000000000000000000000000000000000000000000000000000000000000000000000000000000000000000000000000000000000000000000000000000000000000000000000000000000000000000000000000000000000000000000000000000000000000000000000000000000000000000000000000000000000000000000000000000000000000000000000000000000000000000000000000000000000000000000000000000000000000000000000000000000000000000000000000000000000000000000000000000000000000000000000000000000000000000000000000000000000000008302000080847fffffff808000a00000000000000000000000000000000000000000000000000000000000000000880000000000000000c0c0",
        "lastblockhash" : "0xc21fa510a0b081305a94f7652a1560fd63df2c9355ba404063e84cd48d8cb826",
        "network" : "Istanbul",
        "postState" : {
            "0x095e7baea6a6c7c4c2dfeb977efac326af552d87" : {
                "balance" : "0x00",
                "code" : "0x7f0000000000000000000000000000000000000000000000000000000000000001757f000000000000000000000000945304eb96065b2a98b57a48a06ae28d285a71b57a7f000000000000000000000000945304eb96065b2a98b57a48a06ae28d285a71b57f000000000000000000000000945304eb96065b2a98b57a48a06ae28d285a71b5447ffffffffffffffffffffffffffffffffffffffffffffffffffffffffffffffffe83189b60005155",
                "nonce" : "0x00",
                "storage" : {
                }
            },
            "0x945304eb96065b2a98b57a48a06ae28d285a71b5" : {
                "balance" : "0x1bc16d6ba44b6e38",
                "code" : "0x6000355415600957005b60203560003555",
                "nonce" : "0x00",
                "storage" : {
                }
            },
            "0xa94f5374fce5edbc8e2a8697c15331677e6ebf0b" : {
                "balance" : "0x0de0b6af51e091f6",
                "code" : "0x",
                "nonce" : "0x01",
                "storage" : {
                }
            }
        },
        "pre" : {
            "0x095e7baea6a6c7c4c2dfeb977efac326af552d87" : {
                "balance" : "0x00",
                "code" : "0x7f0000000000000000000000000000000000000000000000000000000000000001757f000000000000000000000000945304eb96065b2a98b57a48a06ae28d285a71b57a7f000000000000000000000000945304eb96065b2a98b57a48a06ae28d285a71b57f000000000000000000000000945304eb96065b2a98b57a48a06ae28d285a71b5447ffffffffffffffffffffffffffffffffffffffffffffffffffffffffffffffffe83189b60005155",
                "nonce" : "0x00",
                "storage" : {
                }
            },
            "0x945304eb96065b2a98b57a48a06ae28d285a71b5" : {
                "balance" : "0x2e",
                "code" : "0x6000355415600957005b60203560003555",
                "nonce" : "0x00",
                "storage" : {
                }
            },
            "0xa94f5374fce5edbc8e2a8697c15331677e6ebf0b" : {
                "balance" : "0x0de0b6b3a7640000",
                "code" : "0x",
                "nonce" : "0x00",
                "storage" : {
                }
            }
        },
        "sealEngine" : "NoProof"
    },
    "randomStatetest51_d0g0v0_London" : {
        "_info" : {
            "comment" : "",
            "filling-rpc-server" : "evm version 1.11.0-unstable-dbd6c132-20230214",
            "filling-tool-version" : "retesteth-0.2.3-postmerge+commit.5691d0b9.Linux.g++",
            "generatedTestHash" : "898352760f71954ffb250b263ed3222150e068adb9c26fcfbcc7c07547263d58",
            "lllcversion" : "Version: 0.5.14-develop.2023.2.14+commit.a096d7a9.Linux.g++",
            "solidity" : "Version: 0.8.5+commit.a4f2e591.Linux.g++",
            "source" : "src/GeneralStateTestsFiller/stRandom/randomStatetest51Filler.json",
            "sourceHash" : "37b835ded2af8cbe0cb4fd619612522e51bb3d60ad94dea2588c406a7ba9e2a2"
        },
        "blocks" : [
            {
                "blockHeader" : {
                    "baseFeePerGas" : "0x0a",
                    "bloom" : "0x00000000000000000000000000000000000000000000000000000000000000000000000000000000000000000000000000000000000000000000000000000000000000000000000000000000000000000000000000000000000000000000000000000000000000000000000000000000000000000000000000000000000000000000000000000000000000000000000000000000000000000000000000000000000000000000000000000000000000000000000000000000000000000000000000000000000000000000000000000000000000000000000000000000000000000000000000000000000000000000000000000000000000000000000000000000",
                    "coinbase" : "0x945304eb96065b2a98b57a48a06ae28d285a71b5",
                    "difficulty" : "0x020000",
                    "extraData" : "0x00",
                    "gasLimit" : "0x7fffffff",
                    "gasUsed" : "0x6ef38b01",
                    "hash" : "0x48fe870bfc6f66e02533c68322d9c770fb268eedcc53035a7e871972abf01d7f",
                    "mixHash" : "0x0000000000000000000000000000000000000000000000000000000000000000",
                    "nonce" : "0x0000000000000000",
                    "number" : "0x01",
                    "parentHash" : "0xc52b51c34302859f0c3ee259bf1f2802fa3d6ad7e47184c0974cd9207c31b019",
                    "receiptTrie" : "0x1b6f302efd18951e93dbc786bd99b4467ad6dd5e29718ce7b46ace815ab06eca",
                    "stateRoot" : "0xd56257711bb5dc1743c0d4611d633b4f6f3e97f5490c543beaa0a1f44d7080ad",
                    "timestamp" : "0x03e8",
                    "transactionsTrie" : "0x085692e680a320412236c458c635933e38ee1d17de0e06118b4e9630680963ec",
                    "uncleHash" : "0x1dcc4de8dec75d7aab85b567b6ccd41ad312451b948a7413f0a142fd40d49347"
                },
                "rlp" : "0xf90316f901fba0c52b51c34302859f0c3ee259bf1f2802fa3d6ad7e47184c0974cd9207c31b019a01dcc4de8dec75d7aab85b567b6ccd41ad312451b948a7413f0a142fd40d4934794945304eb96065b2a98b57a48a06ae28d285a71b5a0d56257711bb5dc1743c0d4611d633b4f6f3e97f5490c543beaa0a1f44d7080ada0085692e680a320412236c458c635933e38ee1d17de0e06118b4e9630680963eca01b6f302efd18951e93dbc786bd99b4467ad6dd5e29718ce7b46ace815ab06ecab90100000000000000000000000000000000000000000000000000000000000000000000000000000000000000000000000000000000000000000000000000000000000000000000000000000000000000000000000000000000000000000000000000000000000000000000000000000000000000000000000000000000000000000000000000000000000000000000000000000000000000000000000000000000000000000000000000000000000000000000000000000000000000000000000000000000000000000000000000000000000000000000000000000000000000000000000000000000000000000000000000000000000000000000000000000000008302000001847fffffff846ef38b018203e800a000000000000000000000000000000000000000000000000000000000000000008800000000000000000af90114f90111800a846ef38b0194095e7baea6a6c7c4c2dfeb977efac326af552d87843f4d7811b8ab7f0000000000000000000000000000000000000000000000000000000000000001757f000000000000000000000000945304eb96065b2a98b57a48a06ae28d285a71b57a7f000000000000000000000000945304eb96065b2a98b57a48a06ae28d285a71b57f000000000000000000000000945304eb96065b2a98b57a48a06ae28d285a71b5447ffffffffffffffffffffffffffffffffffffffffffffffffffffffffffffffffe83189b1ba00d16c59e0dd4942e8d0871a90de819876567f4d85c7b2e34ff6b2357248dbdd3a0559400ac4aeaff36bb2ccf5fca7e60a59b447e25306bfa0fdecc929ea1930beac0",
                "transactions" : [
                    {
                        "data" : "0x7f0000000000000000000000000000000000000000000000000000000000000001757f000000000000000000000000945304eb96065b2a98b57a48a06ae28d285a71b57a7f000000000000000000000000945304eb96065b2a98b57a48a06ae28d285a71b57f000000000000000000000000945304eb96065b2a98b57a48a06ae28d285a71b5447ffffffffffffffffffffffffffffffffffffffffffffffffffffffffffffffffe83189b",
                        "gasLimit" : "0x6ef38b01",
                        "gasPrice" : "0x0a",
                        "nonce" : "0x00",
                        "r" : "0x0d16c59e0dd4942e8d0871a90de819876567f4d85c7b2e34ff6b2357248dbdd3",
                        "s" : "0x559400ac4aeaff36bb2ccf5fca7e60a59b447e25306bfa0fdecc929ea1930bea",
                        "sender" : "0xa94f5374fce5edbc8e2a8697c15331677e6ebf0b",
                        "to" : "0x095e7baea6a6c7c4c2dfeb977efac326af552d87",
                        "v" : "0x1b",
                        "value" : "0x3f4d7811"
                    }
                ],
                "uncleHeaders" : [
                ]
            }
        ],
        "genesisBlockHeader" : {
            "baseFeePerGas" : "0x0b",
            "bloom" : "0x00000000000000000000000000000000000000000000000000000000000000000000000000000000000000000000000000000000000000000000000000000000000000000000000000000000000000000000000000000000000000000000000000000000000000000000000000000000000000000000000000000000000000000000000000000000000000000000000000000000000000000000000000000000000000000000000000000000000000000000000000000000000000000000000000000000000000000000000000000000000000000000000000000000000000000000000000000000000000000000000000000000000000000000000000000000",
            "coinbase" : "0x945304eb96065b2a98b57a48a06ae28d285a71b5",
            "difficulty" : "0x020000",
            "extraData" : "0x00",
            "gasLimit" : "0x7fffffff",
            "gasUsed" : "0x00",
            "hash" : "0xc52b51c34302859f0c3ee259bf1f2802fa3d6ad7e47184c0974cd9207c31b019",
            "mixHash" : "0x0000000000000000000000000000000000000000000000000000000000000000",
            "nonce" : "0x0000000000000000",
            "number" : "0x00",
            "parentHash" : "0x0000000000000000000000000000000000000000000000000000000000000000",
            "receiptTrie" : "0x56e81f171bcc55a6ff8345e692c0f86e5b48e01b996cadc001622fb5e363b421",
            "stateRoot" : "0x097d7acac811c1955ae383fd7dae6bb2275612b93dc2103ff8cbdd6c3bb51fdd",
            "timestamp" : "0x00",
            "transactionsTrie" : "0x56e81f171bcc55a6ff8345e692c0f86e5b48e01b996cadc001622fb5e363b421",
            "uncleHash" : "0x1dcc4de8dec75d7aab85b567b6ccd41ad312451b948a7413f0a142fd40d49347"
        },
        "genesisRLP" : "0xf901faf901f5a00000000000000000000000000000000000000000000000000000000000000000a01dcc4de8dec75d7aab85b567b6ccd41ad312451b948a7413f0a142fd40d4934794945304eb96065b2a98b57a48a06ae28d285a71b5a0097d7acac811c1955ae383fd7dae6bb2275612b93dc2103ff8cbdd6c3bb51fdda056e81f171bcc55a6ff8345e692c0f86e5b48e01b996cadc001622fb5e363b421a056e81f171bcc55a6ff8345e692c0f86e5b48e01b996cadc001622fb5e363b421b90100000000000000000000000000000000000000000000000000000000000000000000000000000000000000000000000000000000000000000000000000000000000000000000000000000000000000000000000000000000000000000000000000000000000000000000000000000000000000000000000000000000000000000000000000000000000000000000000000000000000000000000000000000000000000000000000000000000000000000000000000000000000000000000000000000000000000000000000000000000000000000000000000000000000000000000000000000000000000000000000000000000000000000000000000000000008302000080847fffffff808000a000000000000000000000000000000000000000000000000000000000000000008800000000000000000bc0c0",
        "lastblockhash" : "0x48fe870bfc6f66e02533c68322d9c770fb268eedcc53035a7e871972abf01d7f",
        "network" : "London",
        "postState" : {
            "0x095e7baea6a6c7c4c2dfeb977efac326af552d87" : {
                "balance" : "0x00",
                "code" : "0x7f0000000000000000000000000000000000000000000000000000000000000001757f000000000000000000000000945304eb96065b2a98b57a48a06ae28d285a71b57a7f000000000000000000000000945304eb96065b2a98b57a48a06ae28d285a71b57f000000000000000000000000945304eb96065b2a98b57a48a06ae28d285a71b5447ffffffffffffffffffffffffffffffffffffffffffffffffffffffffffffffffe83189b60005155",
                "nonce" : "0x00",
                "storage" : {
                }
            },
            "0x945304eb96065b2a98b57a48a06ae28d285a71b5" : {
                "balance" : "0x1bc16d674ec8002e",
                "code" : "0x6000355415600957005b60203560003555",
                "nonce" : "0x00",
                "storage" : {
                }
            },
            "0xa94f5374fce5edbc8e2a8697c15331677e6ebf0b" : {
                "balance" : "0x0de0b6af51e091f6",
                "code" : "0x",
                "nonce" : "0x01",
                "storage" : {
                }
            }
        },
        "pre" : {
            "0x095e7baea6a6c7c4c2dfeb977efac326af552d87" : {
                "balance" : "0x00",
                "code" : "0x7f0000000000000000000000000000000000000000000000000000000000000001757f000000000000000000000000945304eb96065b2a98b57a48a06ae28d285a71b57a7f000000000000000000000000945304eb96065b2a98b57a48a06ae28d285a71b57f000000000000000000000000945304eb96065b2a98b57a48a06ae28d285a71b5447ffffffffffffffffffffffffffffffffffffffffffffffffffffffffffffffffe83189b60005155",
                "nonce" : "0x00",
                "storage" : {
                }
            },
            "0x945304eb96065b2a98b57a48a06ae28d285a71b5" : {
                "balance" : "0x2e",
                "code" : "0x6000355415600957005b60203560003555",
                "nonce" : "0x00",
                "storage" : {
                }
            },
            "0xa94f5374fce5edbc8e2a8697c15331677e6ebf0b" : {
                "balance" : "0x0de0b6b3a7640000",
                "code" : "0x",
                "nonce" : "0x00",
                "storage" : {
                }
            }
        },
        "sealEngine" : "NoProof"
    },
    "randomStatetest51_d0g0v0_Merge" : {
        "_info" : {
            "comment" : "",
            "filling-rpc-server" : "evm version 1.11.0-unstable-dbd6c132-20230214",
            "filling-tool-version" : "retesteth-0.2.3-postmerge+commit.5691d0b9.Linux.g++",
            "generatedTestHash" : "d9c92e7631749e2854f17f8feb9509fb07f81f26290f5b25b30575f1787ed34a",
            "lllcversion" : "Version: 0.5.14-develop.2023.2.14+commit.a096d7a9.Linux.g++",
            "solidity" : "Version: 0.8.5+commit.a4f2e591.Linux.g++",
            "source" : "src/GeneralStateTestsFiller/stRandom/randomStatetest51Filler.json",
            "sourceHash" : "37b835ded2af8cbe0cb4fd619612522e51bb3d60ad94dea2588c406a7ba9e2a2"
        },
        "blocks" : [
            {
                "blockHeader" : {
                    "baseFeePerGas" : "0x0a",
                    "bloom" : "0x00000000000000000000000000000000000000000000000000000000000000000000000000000000000000000000000000000000000000000000000000000000000000000000000000000000000000000000000000000000000000000000000000000000000000000000000000000000000000000000000000000000000000000000000000000000000000000000000000000000000000000000000000000000000000000000000000000000000000000000000000000000000000000000000000000000000000000000000000000000000000000000000000000000000000000000000000000000000000000000000000000000000000000000000000000000",
                    "coinbase" : "0x945304eb96065b2a98b57a48a06ae28d285a71b5",
                    "difficulty" : "0x00",
                    "extraData" : "0x00",
                    "gasLimit" : "0x7fffffff",
                    "gasUsed" : "0x6ef38b01",
                    "hash" : "0xb6796fac118d3686fa9d55eec8b90fc881ba16478e15d131e78b983159ca30bb",
                    "mixHash" : "0x0000000000000000000000000000000000000000000000000000000000020000",
                    "nonce" : "0x0000000000000000",
                    "number" : "0x01",
                    "parentHash" : "0x4bb78cbca114dcd9c6c433cd14e723ae333791ba4a12698e7a8c656a28fa518b",
                    "receiptTrie" : "0x1b6f302efd18951e93dbc786bd99b4467ad6dd5e29718ce7b46ace815ab06eca",
                    "stateRoot" : "0xc88c77eab1bfd14dbc4f8d5febc128c3a1a7889aee453700c4f185742b2ee7da",
                    "timestamp" : "0x03e8",
                    "transactionsTrie" : "0x085692e680a320412236c458c635933e38ee1d17de0e06118b4e9630680963ec",
                    "uncleHash" : "0x1dcc4de8dec75d7aab85b567b6ccd41ad312451b948a7413f0a142fd40d49347"
                },
                "rlp" : "0xf90313f901f8a04bb78cbca114dcd9c6c433cd14e723ae333791ba4a12698e7a8c656a28fa518ba01dcc4de8dec75d7aab85b567b6ccd41ad312451b948a7413f0a142fd40d4934794945304eb96065b2a98b57a48a06ae28d285a71b5a0c88c77eab1bfd14dbc4f8d5febc128c3a1a7889aee453700c4f185742b2ee7daa0085692e680a320412236c458c635933e38ee1d17de0e06118b4e9630680963eca01b6f302efd18951e93dbc786bd99b4467ad6dd5e29718ce7b46ace815ab06ecab90100000000000000000000000000000000000000000000000000000000000000000000000000000000000000000000000000000000000000000000000000000000000000000000000000000000000000000000000000000000000000000000000000000000000000000000000000000000000000000000000000000000000000000000000000000000000000000000000000000000000000000000000000000000000000000000000000000000000000000000000000000000000000000000000000000000000000000000000000000000000000000000000000000000000000000000000000000000000000000000000000000000000000000000000000000000008001847fffffff846ef38b018203e800a000000000000000000000000000000000000000000000000000000000000200008800000000000000000af90114f90111800a846ef38b0194095e7baea6a6c7c4c2dfeb977efac326af552d87843f4d7811b8ab7f0000000000000000000000000000000000000000000000000000000000000001757f000000000000000000000000945304eb96065b2a98b57a48a06ae28d285a71b57a7f000000000000000000000000945304eb96065b2a98b57a48a06ae28d285a71b57f000000000000000000000000945304eb96065b2a98b57a48a06ae28d285a71b5447ffffffffffffffffffffffffffffffffffffffffffffffffffffffffffffffffe83189b1ba00d16c59e0dd4942e8d0871a90de819876567f4d85c7b2e34ff6b2357248dbdd3a0559400ac4aeaff36bb2ccf5fca7e60a59b447e25306bfa0fdecc929ea1930beac0",
                "transactions" : [
                    {
                        "data" : "0x7f0000000000000000000000000000000000000000000000000000000000000001757f000000000000000000000000945304eb96065b2a98b57a48a06ae28d285a71b57a7f000000000000000000000000945304eb96065b2a98b57a48a06ae28d285a71b57f000000000000000000000000945304eb96065b2a98b57a48a06ae28d285a71b5447ffffffffffffffffffffffffffffffffffffffffffffffffffffffffffffffffe83189b",
                        "gasLimit" : "0x6ef38b01",
                        "gasPrice" : "0x0a",
                        "nonce" : "0x00",
                        "r" : "0x0d16c59e0dd4942e8d0871a90de819876567f4d85c7b2e34ff6b2357248dbdd3",
                        "s" : "0x559400ac4aeaff36bb2ccf5fca7e60a59b447e25306bfa0fdecc929ea1930bea",
                        "sender" : "0xa94f5374fce5edbc8e2a8697c15331677e6ebf0b",
                        "to" : "0x095e7baea6a6c7c4c2dfeb977efac326af552d87",
                        "v" : "0x1b",
                        "value" : "0x3f4d7811"
                    }
                ],
                "uncleHeaders" : [
                ]
            }
        ],
        "genesisBlockHeader" : {
            "baseFeePerGas" : "0x0b",
            "bloom" : "0x00000000000000000000000000000000000000000000000000000000000000000000000000000000000000000000000000000000000000000000000000000000000000000000000000000000000000000000000000000000000000000000000000000000000000000000000000000000000000000000000000000000000000000000000000000000000000000000000000000000000000000000000000000000000000000000000000000000000000000000000000000000000000000000000000000000000000000000000000000000000000000000000000000000000000000000000000000000000000000000000000000000000000000000000000000000",
            "coinbase" : "0x945304eb96065b2a98b57a48a06ae28d285a71b5",
            "difficulty" : "0x00",
            "extraData" : "0x00",
            "gasLimit" : "0x7fffffff",
            "gasUsed" : "0x00",
            "hash" : "0x4bb78cbca114dcd9c6c433cd14e723ae333791ba4a12698e7a8c656a28fa518b",
            "mixHash" : "0x0000000000000000000000000000000000000000000000000000000000020000",
            "nonce" : "0x0000000000000000",
            "number" : "0x00",
            "parentHash" : "0x0000000000000000000000000000000000000000000000000000000000000000",
            "receiptTrie" : "0x56e81f171bcc55a6ff8345e692c0f86e5b48e01b996cadc001622fb5e363b421",
            "stateRoot" : "0x097d7acac811c1955ae383fd7dae6bb2275612b93dc2103ff8cbdd6c3bb51fdd",
            "timestamp" : "0x00",
            "transactionsTrie" : "0x56e81f171bcc55a6ff8345e692c0f86e5b48e01b996cadc001622fb5e363b421",
            "uncleHash" : "0x1dcc4de8dec75d7aab85b567b6ccd41ad312451b948a7413f0a142fd40d49347"
        },
        "genesisRLP" : "0xf901f7f901f2a00000000000000000000000000000000000000000000000000000000000000000a01dcc4de8dec75d7aab85b567b6ccd41ad312451b948a7413f0a142fd40d4934794945304eb96065b2a98b57a48a06ae28d285a71b5a0097d7acac811c1955ae383fd7dae6bb2275612b93dc2103ff8cbdd6c3bb51fdda056e81f171bcc55a6ff8345e692c0f86e5b48e01b996cadc001622fb5e363b421a056e81f171bcc55a6ff8345e692c0f86e5b48e01b996cadc001622fb5e363b421b90100000000000000000000000000000000000000000000000000000000000000000000000000000000000000000000000000000000000000000000000000000000000000000000000000000000000000000000000000000000000000000000000000000000000000000000000000000000000000000000000000000000000000000000000000000000000000000000000000000000000000000000000000000000000000000000000000000000000000000000000000000000000000000000000000000000000000000000000000000000000000000000000000000000000000000000000000000000000000000000000000000000000000000000000000000000008080847fffffff808000a000000000000000000000000000000000000000000000000000000000000200008800000000000000000bc0c0",
        "lastblockhash" : "0xb6796fac118d3686fa9d55eec8b90fc881ba16478e15d131e78b983159ca30bb",
        "network" : "Merge",
        "postState" : {
            "0x095e7baea6a6c7c4c2dfeb977efac326af552d87" : {
                "balance" : "0x00",
                "code" : "0x7f0000000000000000000000000000000000000000000000000000000000000001757f000000000000000000000000945304eb96065b2a98b57a48a06ae28d285a71b57a7f000000000000000000000000945304eb96065b2a98b57a48a06ae28d285a71b57f000000000000000000000000945304eb96065b2a98b57a48a06ae28d285a71b5447ffffffffffffffffffffffffffffffffffffffffffffffffffffffffffffffffe83189b60005155",
                "nonce" : "0x00",
                "storage" : {
                }
            },
            "0x945304eb96065b2a98b57a48a06ae28d285a71b5" : {
                "balance" : "0x2e",
                "code" : "0x6000355415600957005b60203560003555",
                "nonce" : "0x00",
                "storage" : {
                }
            },
            "0xa94f5374fce5edbc8e2a8697c15331677e6ebf0b" : {
                "balance" : "0x0de0b6af51e091f6",
                "code" : "0x",
                "nonce" : "0x01",
                "storage" : {
                }
            }
        },
        "pre" : {
            "0x095e7baea6a6c7c4c2dfeb977efac326af552d87" : {
                "balance" : "0x00",
                "code" : "0x7f0000000000000000000000000000000000000000000000000000000000000001757f000000000000000000000000945304eb96065b2a98b57a48a06ae28d285a71b57a7f000000000000000000000000945304eb96065b2a98b57a48a06ae28d285a71b57f000000000000000000000000945304eb96065b2a98b57a48a06ae28d285a71b5447ffffffffffffffffffffffffffffffffffffffffffffffffffffffffffffffffe83189b60005155",
                "nonce" : "0x00",
                "storage" : {
                }
            },
            "0x945304eb96065b2a98b57a48a06ae28d285a71b5" : {
                "balance" : "0x2e",
                "code" : "0x6000355415600957005b60203560003555",
                "nonce" : "0x00",
                "storage" : {
                }
            },
            "0xa94f5374fce5edbc8e2a8697c15331677e6ebf0b" : {
                "balance" : "0x0de0b6b3a7640000",
                "code" : "0x",
                "nonce" : "0x00",
                "storage" : {
                }
            }
        },
        "sealEngine" : "NoProof"
    }
}