{
    "randomStatetest24_d0g0v0_Berlin" : {
        "_info" : {
            "comment" : "",
            "filling-rpc-server" : "evm version 1.11.0-unstable-dbd6c132-20230214",
            "filling-tool-version" : "retesteth-0.2.3-postmerge+commit.5691d0b9.Linux.g++",
            "generatedTestHash" : "089a13d77950a2000f81e19df04c925a62b9eb76d4055c5c0fc71a4726e29746",
            "lllcversion" : "Version: 0.5.14-develop.2023.2.14+commit.a096d7a9.Linux.g++",
            "solidity" : "Version: 0.8.5+commit.a4f2e591.Linux.g++",
            "source" : "src/GeneralStateTestsFiller/stRandom/randomStatetest24Filler.json",
            "sourceHash" : "ebc1249dcee03097ae65748717a0ccc56eb397f169fd9b11934331e77240d0a9"
        },
        "blocks" : [
            {
                "blockHeader" : {
                    "bloom" : "0x00000000000000000000000000000000000000000000000000000000000000000000000000000000000000000000000000000000000000000000000000000000000000000000000000000000000000000000000000000000000000000000000000000000000000000000000000000000000000000000000000000000000000000000000000000000000000000000000000000000000000000000000000000000000000000000000000000000000000000000000000000000000000000000000000000000000000000000000000000000000000000000000000000000000000000000000000000000000000000000000000000000000000000000000000000000",
                    "coinbase" : "0x945304eb96065b2a98b57a48a06ae28d285a71b5",
                    "difficulty" : "0x020000",
                    "extraData" : "0x00",
                    "gasLimit" : "0x7fffffff",
                    "gasUsed" : "0x2ae4f392",
                    "hash" : "0x0cc2f4584d52ff04ea9296734dcefc823f72943a8f1b47ca08ffb47e98392523",
                    "mixHash" : "0x0000000000000000000000000000000000000000000000000000000000000000",
                    "nonce" : "0x0000000000000000",
                    "number" : "0x01",
                    "parentHash" : "0xb14d337fba021e49e5ef76e8c3f128c2dc655aef0ebbb56f2d7917b2f0467873",
                    "receiptTrie" : "0x0d6d242a18571fe77ed5c27ceb8e6529269b8a5754f64cf79fd19bcf6902103e",
                    "stateRoot" : "0xe26fba2451415603c4d0897a62113ea29aabf94a4a5d1b479f57ca2274941826",
                    "timestamp" : "0x03e8",
                    "transactionsTrie" : "0xddf7d61649a7d7bc02a8329fe0380af04da4d5bdd1663fed935e3de9ee000e4e",
                    "uncleHash" : "0x1dcc4de8dec75d7aab85b567b6ccd41ad312451b948a7413f0a142fd40d49347"
                },
                "rlp" : "0xf902d8f901faa0b14d337fba021e49e5ef76e8c3f128c2dc655aef0ebbb56f2d7917b2f0467873a01dcc4de8dec75d7aab85b567b6ccd41ad312451b948a7413f0a142fd40d4934794945304eb96065b2a98b57a48a06ae28d285a71b5a0e26fba2451415603c4d0897a62113ea29aabf94a4a5d1b479f57ca2274941826a0ddf7d61649a7d7bc02a8329fe0380af04da4d5bdd1663fed935e3de9ee000e4ea00d6d242a18571fe77ed5c27ceb8e6529269b8a5754f64cf79fd19bcf6902103eb90100000000000000000000000000000000000000000000000000000000000000000000000000000000000000000000000000000000000000000000000000000000000000000000000000000000000000000000000000000000000000000000000000000000000000000000000000000000000000000000000000000000000000000000000000000000000000000000000000000000000000000000000000000000000000000000000000000000000000000000000000000000000000000000000000000000000000000000000000000000000000000000000000000000000000000000000000000000000000000000000000000000000000000000000000000000008302000001847fffffff842ae4f3928203e800a00000000000000000000000000000000000000000000000000000000000000000880000000000000000f8d8f8d6800a842ae4f39294095e7baea6a6c7c4c2dfeb977efac326af552d8784664165b5b87141417f000000000000000000000000ffffffffffffffffffffffffffffffffffffffff459d7f0000000000000000000000000000000000000000000000000000000000000001817f000000000000000000000000000000000000000000000000000000000000c35095418211337b0530431ca064fe8f67f4dbcd0441264d13d382118f74eb809edb33bf32669c46318be3a5a29fc01f7daf369388c6f81bd18ae366341590688d7c2d85aa70be1752c67495f3c0",
                "transactions" : [
                    {
                        "data" : "0x41417f000000000000000000000000ffffffffffffffffffffffffffffffffffffffff459d7f0000000000000000000000000000000000000000000000000000000000000001817f000000000000000000000000000000000000000000000000000000000000c35095418211337b053043",
                        "gasLimit" : "0x2ae4f392",
                        "gasPrice" : "0x0a",
                        "nonce" : "0x00",
                        "r" : "0x64fe8f67f4dbcd0441264d13d382118f74eb809edb33bf32669c46318be3a5a2",
                        "s" : "0xc01f7daf369388c6f81bd18ae366341590688d7c2d85aa70be1752c67495f3",
                        "sender" : "0xa94f5374fce5edbc8e2a8697c15331677e6ebf0b",
                        "to" : "0x095e7baea6a6c7c4c2dfeb977efac326af552d87",
                        "v" : "0x1c",
                        "value" : "0x664165b5"
                    }
                ],
                "uncleHeaders" : [
                ]
            }
        ],
        "genesisBlockHeader" : {
            "bloom" : "0x00000000000000000000000000000000000000000000000000000000000000000000000000000000000000000000000000000000000000000000000000000000000000000000000000000000000000000000000000000000000000000000000000000000000000000000000000000000000000000000000000000000000000000000000000000000000000000000000000000000000000000000000000000000000000000000000000000000000000000000000000000000000000000000000000000000000000000000000000000000000000000000000000000000000000000000000000000000000000000000000000000000000000000000000000000000",
            "coinbase" : "0x945304eb96065b2a98b57a48a06ae28d285a71b5",
            "difficulty" : "0x020000",
            "extraData" : "0x00",
            "gasLimit" : "0x7fffffff",
            "gasUsed" : "0x00",
            "hash" : "0xb14d337fba021e49e5ef76e8c3f128c2dc655aef0ebbb56f2d7917b2f0467873",
            "mixHash" : "0x0000000000000000000000000000000000000000000000000000000000000000",
            "nonce" : "0x0000000000000000",
            "number" : "0x00",
            "parentHash" : "0x0000000000000000000000000000000000000000000000000000000000000000",
            "receiptTrie" : "0x56e81f171bcc55a6ff8345e692c0f86e5b48e01b996cadc001622fb5e363b421",
            "stateRoot" : "0xd890e85a9c5864b97a7428086ab7d66db03797533ba5b6a2250b7df2f0d2b858",
            "timestamp" : "0x00",
            "transactionsTrie" : "0x56e81f171bcc55a6ff8345e692c0f86e5b48e01b996cadc001622fb5e363b421",
            "uncleHash" : "0x1dcc4de8dec75d7aab85b567b6ccd41ad312451b948a7413f0a142fd40d49347"
        },
        "genesisRLP" : "0xf901f9f901f4a00000000000000000000000000000000000000000000000000000000000000000a01dcc4de8dec75d7aab85b567b6ccd41ad312451b948a7413f0a142fd40d4934794945304eb96065b2a98b57a48a06ae28d285a71b5a0d890e85a9c5864b97a7428086ab7d66db03797533ba5b6a2250b7df2f0d2b858a056e81f171bcc55a6ff8345e692c0f86e5b48e01b996cadc001622fb5e363b421a056e81f171bcc55a6ff8345e692c0f86e5b48e01b996cadc001622fb5e363b421b90100000000000000000000000000000000000000000000000000000000000000000000000000000000000000000000000000000000000000000000000000000000000000000000000000000000000000000000000000000000000000000000000000000000000000000000000000000000000000000000000000000000000000000000000000000000000000000000000000000000000000000000000000000000000000000000000000000000000000000000000000000000000000000000000000000000000000000000000000000000000000000000000000000000000000000000000000000000000000000000000000000000000000000000000000000000008302000080847fffffff808000a00000000000000000000000000000000000000000000000000000000000000000880000000000000000c0c0",
        "lastblockhash" : "0x0cc2f4584d52ff04ea9296734dcefc823f72943a8f1b47ca08ffb47e98392523",
        "network" : "Berlin",
        "postState" : {
            "0x095e7baea6a6c7c4c2dfeb977efac326af552d87" : {
                "balance" : "0x00",
                "code" : "0x41417f000000000000000000000000ffffffffffffffffffffffffffffffffffffffff459d7f0000000000000000000000000000000000000000000000000000000000000001817f000000000000000000000000000000000000000000000000000000000000c35095418211337b0530435560005155",
                "nonce" : "0x00",
                "storage" : {
                }
            },
            "0x945304eb96065b2a98b57a48a06ae28d285a71b5" : {
                "balance" : "0x1bc16d68fbb983e2",
                "code" : "0x6000355415600957005b60203560003555",
                "nonce" : "0x00",
                "storage" : {
                }
            },
            "0xa94f5374fce5edbc8e2a8697c15331677e6ebf0b" : {
                "balance" : "0x0de0b6b1fa727c4c",
                "code" : "0x",
                "nonce" : "0x01",
                "storage" : {
                }
            }
        },
        "pre" : {
            "0x095e7baea6a6c7c4c2dfeb977efac326af552d87" : {
                "balance" : "0x00",
                "code" : "0x41417f000000000000000000000000ffffffffffffffffffffffffffffffffffffffff459d7f0000000000000000000000000000000000000000000000000000000000000001817f000000000000000000000000000000000000000000000000000000000000c35095418211337b0530435560005155",
                "nonce" : "0x00",
                "storage" : {
                }
            },
            "0x945304eb96065b2a98b57a48a06ae28d285a71b5" : {
                "balance" : "0x2e",
                "code" : "0x6000355415600957005b60203560003555",
                "nonce" : "0x00",
                "storage" : {
                }
            },
            "0xa94f5374fce5edbc8e2a8697c15331677e6ebf0b" : {
                "balance" : "0x0de0b6b3a7640000",
                "code" : "0x",
                "nonce" : "0x00",
                "storage" : {
                }
            }
        },
        "sealEngine" : "NoProof"
    },
    "randomStatetest24_d0g0v0_Istanbul" : {
        "_info" : {
            "comment" : "",
            "filling-rpc-server" : "evm version 1.11.0-unstable-dbd6c132-20230214",
            "filling-tool-version" : "retesteth-0.2.3-postmerge+commit.5691d0b9.Linux.g++",
            "generatedTestHash" : "d4c79c8aa2e44644420adaec2245a2796ff5c08cbb44209a667c731edb0c7aa0",
            "lllcversion" : "Version: 0.5.14-develop.2023.2.14+commit.a096d7a9.Linux.g++",
            "solidity" : "Version: 0.8.5+commit.a4f2e591.Linux.g++",
            "source" : "src/GeneralStateTestsFiller/stRandom/randomStatetest24Filler.json",
            "sourceHash" : "ebc1249dcee03097ae65748717a0ccc56eb397f169fd9b11934331e77240d0a9"
        },
        "blocks" : [
            {
                "blockHeader" : {
                    "bloom" : "0x00000000000000000000000000000000000000000000000000000000000000000000000000000000000000000000000000000000000000000000000000000000000000000000000000000000000000000000000000000000000000000000000000000000000000000000000000000000000000000000000000000000000000000000000000000000000000000000000000000000000000000000000000000000000000000000000000000000000000000000000000000000000000000000000000000000000000000000000000000000000000000000000000000000000000000000000000000000000000000000000000000000000000000000000000000000",
                    "coinbase" : "0x945304eb96065b2a98b57a48a06ae28d285a71b5",
                    "difficulty" : "0x020000",
                    "extraData" : "0x00",
                    "gasLimit" : "0x7fffffff",
                    "gasUsed" : "0x2ae4f392",
                    "hash" : "0x0cc2f4584d52ff04ea9296734dcefc823f72943a8f1b47ca08ffb47e98392523",
                    "mixHash" : "0x0000000000000000000000000000000000000000000000000000000000000000",
                    "nonce" : "0x0000000000000000",
                    "number" : "0x01",
                    "parentHash" : "0xb14d337fba021e49e5ef76e8c3f128c2dc655aef0ebbb56f2d7917b2f0467873",
                    "receiptTrie" : "0x0d6d242a18571fe77ed5c27ceb8e6529269b8a5754f64cf79fd19bcf6902103e",
                    "stateRoot" : "0xe26fba2451415603c4d0897a62113ea29aabf94a4a5d1b479f57ca2274941826",
                    "timestamp" : "0x03e8",
                    "transactionsTrie" : "0xddf7d61649a7d7bc02a8329fe0380af04da4d5bdd1663fed935e3de9ee000e4e",
                    "uncleHash" : "0x1dcc4de8dec75d7aab85b567b6ccd41ad312451b948a7413f0a142fd40d49347"
                },
                "rlp" : "0xf902d8f901faa0b14d337fba021e49e5ef76e8c3f128c2dc655aef0ebbb56f2d7917b2f0467873a01dcc4de8dec75d7aab85b567b6ccd41ad312451b948a7413f0a142fd40d4934794945304eb96065b2a98b57a48a06ae28d285a71b5a0e26fba2451415603c4d0897a62113ea29aabf94a4a5d1b479f57ca2274941826a0ddf7d61649a7d7bc02a8329fe0380af04da4d5bdd1663fed935e3de9ee000e4ea00d6d242a18571fe77ed5c27ceb8e6529269b8a5754f64cf79fd19bcf6902103eb90100000000000000000000000000000000000000000000000000000000000000000000000000000000000000000000000000000000000000000000000000000000000000000000000000000000000000000000000000000000000000000000000000000000000000000000000000000000000000000000000000000000000000000000000000000000000000000000000000000000000000000000000000000000000000000000000000000000000000000000000000000000000000000000000000000000000000000000000000000000000000000000000000000000000000000000000000000000000000000000000000000000000000000000000000000000008302000001847fffffff842ae4f3928203e800a00000000000000000000000000000000000000000000000000000000000000000880000000000000000f8d8f8d6800a842ae4f39294095e7baea6a6c7c4c2dfeb977efac326af552d8784664165b5b87141417f000000000000000000000000ffffffffffffffffffffffffffffffffffffffff459d7f0000000000000000000000000000000000000000000000000000000000000001817f000000000000000000000000000000000000000000000000000000000000c35095418211337b0530431ca064fe8f67f4dbcd0441264d13d382118f74eb809edb33bf32669c46318be3a5a29fc01f7daf369388c6f81bd18ae366341590688d7c2d85aa70be1752c67495f3c0",
                "transactions" : [
                    {
                        "data" : "0x41417f000000000000000000000000ffffffffffffffffffffffffffffffffffffffff459d7f0000000000000000000000000000000000000000000000000000000000000001817f000000000000000000000000000000000000000000000000000000000000c35095418211337b053043",
                        "gasLimit" : "0x2ae4f392",
                        "gasPrice" : "0x0a",
                        "nonce" : "0x00",
                        "r" : "0x64fe8f67f4dbcd0441264d13d382118f74eb809edb33bf32669c46318be3a5a2",
                        "s" : "0xc01f7daf369388c6f81bd18ae366341590688d7c2d85aa70be1752c67495f3",
                        "sender" : "0xa94f5374fce5edbc8e2a8697c15331677e6ebf0b",
                        "to" : "0x095e7baea6a6c7c4c2dfeb977efac326af552d87",
                        "v" : "0x1c",
                        "value" : "0x664165b5"
                    }
                ],
                "uncleHeaders" : [
                ]
            }
        ],
        "genesisBlockHeader" : {
            "bloom" : "0x00000000000000000000000000000000000000000000000000000000000000000000000000000000000000000000000000000000000000000000000000000000000000000000000000000000000000000000000000000000000000000000000000000000000000000000000000000000000000000000000000000000000000000000000000000000000000000000000000000000000000000000000000000000000000000000000000000000000000000000000000000000000000000000000000000000000000000000000000000000000000000000000000000000000000000000000000000000000000000000000000000000000000000000000000000000",
            "coinbase" : "0x945304eb96065b2a98b57a48a06ae28d285a71b5",
            "difficulty" : "0x020000",
            "extraData" : "0x00",
            "gasLimit" : "0x7fffffff",
            "gasUsed" : "0x00",
            "hash" : "0xb14d337fba021e49e5ef76e8c3f128c2dc655aef0ebbb56f2d7917b2f0467873",
            "mixHash" : "0x0000000000000000000000000000000000000000000000000000000000000000",
            "nonce" : "0x0000000000000000",
            "number" : "0x00",
            "parentHash" : "0x0000000000000000000000000000000000000000000000000000000000000000",
            "receiptTrie" : "0x56e81f171bcc55a6ff8345e692c0f86e5b48e01b996cadc001622fb5e363b421",
            "stateRoot" : "0xd890e85a9c5864b97a7428086ab7d66db03797533ba5b6a2250b7df2f0d2b858",
            "timestamp" : "0x00",
            "transactionsTrie" : "0x56e81f171bcc55a6ff8345e692c0f86e5b48e01b996cadc001622fb5e363b421",
            "uncleHash" : "0x1dcc4de8dec75d7aab85b567b6ccd41ad312451b948a7413f0a142fd40d49347"
        },
        "genesisRLP" : "0xf901f9f901f4a00000000000000000000000000000000000000000000000000000000000000000a01dcc4de8dec75d7aab85b567b6ccd41ad312451b948a7413f0a142fd40d4934794945304eb96065b2a98b57a48a06ae28d285a71b5a0d890e85a9c5864b97a7428086ab7d66db03797533ba5b6a2250b7df2f0d2b858a056e81f171bcc55a6ff8345e692c0f86e5b48e01b996cadc001622fb5e363b421a056e81f171bcc55a6ff8345e692c0f86e5b48e01b996cadc001622fb5e363b421b90100000000000000000000000000000000000000000000000000000000000000000000000000000000000000000000000000000000000000000000000000000000000000000000000000000000000000000000000000000000000000000000000000000000000000000000000000000000000000000000000000000000000000000000000000000000000000000000000000000000000000000000000000000000000000000000000000000000000000000000000000000000000000000000000000000000000000000000000000000000000000000000000000000000000000000000000000000000000000000000000000000000000000000000000000000000008302000080847fffffff808000a00000000000000000000000000000000000000000000000000000000000000000880000000000000000c0c0",
        "lastblockhash" : "0x0cc2f4584d52ff04ea9296734dcefc823f72943a8f1b47ca08ffb47e98392523",
        "network" : "Istanbul",
        "postState" : {
            "0x095e7baea6a6c7c4c2dfeb977efac326af552d87" : {
                "balance" : "0x00",
                "code" : "0x41417f000000000000000000000000ffffffffffffffffffffffffffffffffffffffff459d7f0000000000000000000000000000000000000000000000000000000000000001817f000000000000000000000000000000000000000000000000000000000000c35095418211337b0530435560005155",
                "nonce" : "0x00",
                "storage" : {
                }
            },
            "0x945304eb96065b2a98b57a48a06ae28d285a71b5" : {
                "balance" : "0x1bc16d68fbb983e2",
                "code" : "0x6000355415600957005b60203560003555",
                "nonce" : "0x00",
                "storage" : {
                }
            },
            "0xa94f5374fce5edbc8e2a8697c15331677e6ebf0b" : {
                "balance" : "0x0de0b6b1fa727c4c",
                "code" : "0x",
                "nonce" : "0x01",
                "storage" : {
                }
            }
        },
        "pre" : {
            "0x095e7baea6a6c7c4c2dfeb977efac326af552d87" : {
                "balance" : "0x00",
                "code" : "0x41417f000000000000000000000000ffffffffffffffffffffffffffffffffffffffff459d7f0000000000000000000000000000000000000000000000000000000000000001817f000000000000000000000000000000000000000000000000000000000000c35095418211337b0530435560005155",
                "nonce" : "0x00",
                "storage" : {
                }
            },
            "0x945304eb96065b2a98b57a48a06ae28d285a71b5" : {
                "balance" : "0x2e",
                "code" : "0x6000355415600957005b60203560003555",
                "nonce" : "0x00",
                "storage" : {
                }
            },
            "0xa94f5374fce5edbc8e2a8697c15331677e6ebf0b" : {
                "balance" : "0x0de0b6b3a7640000",
                "code" : "0x",
                "nonce" : "0x00",
                "storage" : {
                }
            }
        },
        "sealEngine" : "NoProof"
    },
    "randomStatetest24_d0g0v0_London" : {
        "_info" : {
            "comment" : "",
            "filling-rpc-server" : "evm version 1.11.0-unstable-dbd6c132-20230214",
            "filling-tool-version" : "retesteth-0.2.3-postmerge+commit.5691d0b9.Linux.g++",
            "generatedTestHash" : "020617caa3373dba311a6f794145e022759c828da22fc14e93088f27a852b77f",
            "lllcversion" : "Version: 0.5.14-develop.2023.2.14+commit.a096d7a9.Linux.g++",
            "solidity" : "Version: 0.8.5+commit.a4f2e591.Linux.g++",
            "source" : "src/GeneralStateTestsFiller/stRandom/randomStatetest24Filler.json",
            "sourceHash" : "ebc1249dcee03097ae65748717a0ccc56eb397f169fd9b11934331e77240d0a9"
        },
        "blocks" : [
            {
                "blockHeader" : {
                    "baseFeePerGas" : "0x0a",
                    "bloom" : "0x00000000000000000000000000000000000000000000000000000000000000000000000000000000000000000000000000000000000000000000000000000000000000000000000000000000000000000000000000000000000000000000000000000000000000000000000000000000000000000000000000000000000000000000000000000000000000000000000000000000000000000000000000000000000000000000000000000000000000000000000000000000000000000000000000000000000000000000000000000000000000000000000000000000000000000000000000000000000000000000000000000000000000000000000000000000",
                    "coinbase" : "0x945304eb96065b2a98b57a48a06ae28d285a71b5",
                    "difficulty" : "0x020000",
                    "extraData" : "0x00",
                    "gasLimit" : "0x7fffffff",
                    "gasUsed" : "0x2ae4f392",
                    "hash" : "0xc6ded7e6774b591fa6a0f31298e94a4b45dacae73137b9d0d1db830610a86805",
                    "mixHash" : "0x0000000000000000000000000000000000000000000000000000000000000000",
                    "nonce" : "0x0000000000000000",
                    "number" : "0x01",
                    "parentHash" : "0x2febdbbbbdafad04880b726b544645037a0e260d0242c2b677b7c869cf3befc9",
                    "receiptTrie" : "0x0d6d242a18571fe77ed5c27ceb8e6529269b8a5754f64cf79fd19bcf6902103e",
                    "stateRoot" : "0x7fcdc305c373c1e8268b40dbe1506f20770d26d728e90bfd0c6518004856ea94",
                    "timestamp" : "0x03e8",
                    "transactionsTrie" : "0xddf7d61649a7d7bc02a8329fe0380af04da4d5bdd1663fed935e3de9ee000e4e",
                    "uncleHash" : "0x1dcc4de8dec75d7aab85b567b6ccd41ad312451b948a7413f0a142fd40d49347"
                },
                "rlp" : "0xf902d9f901fba02febdbbbbdafad04880b726b544645037a0e260d0242c2b677b7c869cf3befc9a01dcc4de8dec75d7aab85b567b6ccd41ad312451b948a7413f0a142fd40d4934794945304eb96065b2a98b57a48a06ae28d285a71b5a07fcdc305c373c1e8268b40dbe1506f20770d26d728e90bfd0c6518004856ea94a0ddf7d61649a7d7bc02a8329fe0380af04da4d5bdd1663fed935e3de9ee000e4ea00d6d242a18571fe77ed5c27ceb8e6529269b8a5754f64cf79fd19bcf6902103eb90100000000000000000000000000000000000000000000000000000000000000000000000000000000000000000000000000000000000000000000000000000000000000000000000000000000000000000000000000000000000000000000000000000000000000000000000000000000000000000000000000000000000000000000000000000000000000000000000000000000000000000000000000000000000000000000000000000000000000000000000000000000000000000000000000000000000000000000000000000000000000000000000000000000000000000000000000000000000000000000000000000000000000000000000000000000008302000001847fffffff842ae4f3928203e800a000000000000000000000000000000000000000000000000000000000000000008800000000000000000af8d8f8d6800a842ae4f39294095e7baea6a6c7c4c2dfeb977efac326af552d8784664165b5b87141417f000000000000000000000000ffffffffffffffffffffffffffffffffffffffff459d7f0000000000000000000000000000000000000000000000000000000000000001817f000000000000000000000000000000000000000000000000000000000000c35095418211337b0530431ca064fe8f67f4dbcd0441264d13d382118f74eb809edb33bf32669c46318be3a5a29fc01f7daf369388c6f81bd18ae366341590688d7c2d85aa70be1752c67495f3c0",
                "transactions" : [
                    {
                        "data" : "0x41417f000000000000000000000000ffffffffffffffffffffffffffffffffffffffff459d7f0000000000000000000000000000000000000000000000000000000000000001817f000000000000000000000000000000000000000000000000000000000000c35095418211337b053043",
                        "gasLimit" : "0x2ae4f392",
                        "gasPrice" : "0x0a",
                        "nonce" : "0x00",
                        "r" : "0x64fe8f67f4dbcd0441264d13d382118f74eb809edb33bf32669c46318be3a5a2",
                        "s" : "0xc01f7daf369388c6f81bd18ae366341590688d7c2d85aa70be1752c67495f3",
                        "sender" : "0xa94f5374fce5edbc8e2a8697c15331677e6ebf0b",
                        "to" : "0x095e7baea6a6c7c4c2dfeb977efac326af552d87",
                        "v" : "0x1c",
                        "value" : "0x664165b5"
                    }
                ],
                "uncleHeaders" : [
                ]
            }
        ],
        "genesisBlockHeader" : {
            "baseFeePerGas" : "0x0b",
            "bloom" : "0x00000000000000000000000000000000000000000000000000000000000000000000000000000000000000000000000000000000000000000000000000000000000000000000000000000000000000000000000000000000000000000000000000000000000000000000000000000000000000000000000000000000000000000000000000000000000000000000000000000000000000000000000000000000000000000000000000000000000000000000000000000000000000000000000000000000000000000000000000000000000000000000000000000000000000000000000000000000000000000000000000000000000000000000000000000000",
            "coinbase" : "0x945304eb96065b2a98b57a48a06ae28d285a71b5",
            "difficulty" : "0x020000",
            "extraData" : "0x00",
            "gasLimit" : "0x7fffffff",
            "gasUsed" : "0x00",
            "hash" : "0x2febdbbbbdafad04880b726b544645037a0e260d0242c2b677b7c869cf3befc9",
            "mixHash" : "0x0000000000000000000000000000000000000000000000000000000000000000",
            "nonce" : "0x0000000000000000",
            "number" : "0x00",
            "parentHash" : "0x0000000000000000000000000000000000000000000000000000000000000000",
            "receiptTrie" : "0x56e81f171bcc55a6ff8345e692c0f86e5b48e01b996cadc001622fb5e363b421",
            "stateRoot" : "0xd890e85a9c5864b97a7428086ab7d66db03797533ba5b6a2250b7df2f0d2b858",
            "timestamp" : "0x00",
            "transactionsTrie" : "0x56e81f171bcc55a6ff8345e692c0f86e5b48e01b996cadc001622fb5e363b421",
            "uncleHash" : "0x1dcc4de8dec75d7aab85b567b6ccd41ad312451b948a7413f0a142fd40d49347"
        },
        "genesisRLP" : "0xf901faf901f5a00000000000000000000000000000000000000000000000000000000000000000a01dcc4de8dec75d7aab85b567b6ccd41ad312451b948a7413f0a142fd40d4934794945304eb96065b2a98b57a48a06ae28d285a71b5a0d890e85a9c5864b97a7428086ab7d66db03797533ba5b6a2250b7df2f0d2b858a056e81f171bcc55a6ff8345e692c0f86e5b48e01b996cadc001622fb5e363b421a056e81f171bcc55a6ff8345e692c0f86e5b48e01b996cadc001622fb5e363b421b90100000000000000000000000000000000000000000000000000000000000000000000000000000000000000000000000000000000000000000000000000000000000000000000000000000000000000000000000000000000000000000000000000000000000000000000000000000000000000000000000000000000000000000000000000000000000000000000000000000000000000000000000000000000000000000000000000000000000000000000000000000000000000000000000000000000000000000000000000000000000000000000000000000000000000000000000000000000000000000000000000000000000000000000000000000000008302000080847fffffff808000a000000000000000000000000000000000000000000000000000000000000000008800000000000000000bc0c0",
        "lastblockhash" : "0xc6ded7e6774b591fa6a0f31298e94a4b45dacae73137b9d0d1db830610a86805",
        "network" : "London",
        "postState" : {
            "0x095e7baea6a6c7c4c2dfeb977efac326af552d87" : {
                "balance" : "0x00",
                "code" : "0x41417f000000000000000000000000ffffffffffffffffffffffffffffffffffffffff459d7f0000000000000000000000000000000000000000000000000000000000000001817f000000000000000000000000000000000000000000000000000000000000c35095418211337b0530435560005155",
                "nonce" : "0x00",
                "storage" : {
                }
            },
            "0x945304eb96065b2a98b57a48a06ae28d285a71b5" : {
                "balance" : "0x1bc16d674ec8002e",
                "code" : "0x6000355415600957005b60203560003555",
                "nonce" : "0x00",
                "storage" : {
                }
            },
            "0xa94f5374fce5edbc8e2a8697c15331677e6ebf0b" : {
                "balance" : "0x0de0b6b1fa727c4c",
                "code" : "0x",
                "nonce" : "0x01",
                "storage" : {
                }
            }
        },
        "pre" : {
            "0x095e7baea6a6c7c4c2dfeb977efac326af552d87" : {
                "balance" : "0x00",
                "code" : "0x41417f000000000000000000000000ffffffffffffffffffffffffffffffffffffffff459d7f0000000000000000000000000000000000000000000000000000000000000001817f000000000000000000000000000000000000000000000000000000000000c35095418211337b0530435560005155",
                "nonce" : "0x00",
                "storage" : {
                }
            },
            "0x945304eb96065b2a98b57a48a06ae28d285a71b5" : {
                "balance" : "0x2e",
                "code" : "0x6000355415600957005b60203560003555",
                "nonce" : "0x00",
                "storage" : {
                }
            },
            "0xa94f5374fce5edbc8e2a8697c15331677e6ebf0b" : {
                "balance" : "0x0de0b6b3a7640000",
                "code" : "0x",
                "nonce" : "0x00",
                "storage" : {
                }
            }
        },
        "sealEngine" : "NoProof"
    },
    "randomStatetest24_d0g0v0_Merge" : {
        "_info" : {
            "comment" : "",
            "filling-rpc-server" : "evm version 1.11.0-unstable-dbd6c132-20230214",
            "filling-tool-version" : "retesteth-0.2.3-postmerge+commit.5691d0b9.Linux.g++",
            "generatedTestHash" : "7c47b032173a2ac80e25a6a1199208340f36131e0e4a45a09f16cbf3393e1e75",
            "lllcversion" : "Version: 0.5.14-develop.2023.2.14+commit.a096d7a9.Linux.g++",
            "solidity" : "Version: 0.8.5+commit.a4f2e591.Linux.g++",
            "source" : "src/GeneralStateTestsFiller/stRandom/randomStatetest24Filler.json",
            "sourceHash" : "ebc1249dcee03097ae65748717a0ccc56eb397f169fd9b11934331e77240d0a9"
        },
        "blocks" : [
            {
                "blockHeader" : {
                    "baseFeePerGas" : "0x0a",
                    "bloom" : "0x00000000000000000000000000000000000000000000000000000000000000000000000000000000000000000000000000000000000000000000000000000000000000000000000000000000000000000000000000000000000000000000000000000000000000000000000000000000000000000000000000000000000000000000000000000000000000000000000000000000000000000000000000000000000000000000000000000000000000000000000000000000000000000000000000000000000000000000000000000000000000000000000000000000000000000000000000000000000000000000000000000000000000000000000000000000",
                    "coinbase" : "0x945304eb96065b2a98b57a48a06ae28d285a71b5",
                    "difficulty" : "0x00",
                    "extraData" : "0x00",
                    "gasLimit" : "0x7fffffff",
                    "gasUsed" : "0x2ae4f392",
                    "hash" : "0x22b1fd65011c616d5aed22a00e35acea4c3cf92fe7b3abc9e09baaa4289affe5",
                    "mixHash" : "0x0000000000000000000000000000000000000000000000000000000000020000",
                    "nonce" : "0x0000000000000000",
                    "number" : "0x01",
                    "parentHash" : "0x8301124e4ed9374942102a8c843e47c6d3ca982b527d61764d43a328bd829041",
                    "receiptTrie" : "0x0d6d242a18571fe77ed5c27ceb8e6529269b8a5754f64cf79fd19bcf6902103e",
                    "stateRoot" : "0x35802a6e5aed3d2d2d93a0e14904ac027c56cab00e5d686ba8e145c80958210b",
                    "timestamp" : "0x03e8",
                    "transactionsTrie" : "0xddf7d61649a7d7bc02a8329fe0380af04da4d5bdd1663fed935e3de9ee000e4e",
                    "uncleHash" : "0x1dcc4de8dec75d7aab85b567b6ccd41ad312451b948a7413f0a142fd40d49347"
                },
                "rlp" : "0xf902d6f901f8a08301124e4ed9374942102a8c843e47c6d3ca982b527d61764d43a328bd829041a01dcc4de8dec75d7aab85b567b6ccd41ad312451b948a7413f0a142fd40d4934794945304eb96065b2a98b57a48a06ae28d285a71b5a035802a6e5aed3d2d2d93a0e14904ac027c56cab00e5d686ba8e145c80958210ba0ddf7d61649a7d7bc02a8329fe0380af04da4d5bdd1663fed935e3de9ee000e4ea00d6d242a18571fe77ed5c27ceb8e6529269b8a5754f64cf79fd19bcf6902103eb90100000000000000000000000000000000000000000000000000000000000000000000000000000000000000000000000000000000000000000000000000000000000000000000000000000000000000000000000000000000000000000000000000000000000000000000000000000000000000000000000000000000000000000000000000000000000000000000000000000000000000000000000000000000000000000000000000000000000000000000000000000000000000000000000000000000000000000000000000000000000000000000000000000000000000000000000000000000000000000000000000000000000000000000000000000000008001847fffffff842ae4f3928203e800a000000000000000000000000000000000000000000000000000000000000200008800000000000000000af8d8f8d6800a842ae4f39294095e7baea6a6c7c4c2dfeb977efac326af552d8784664165b5b87141417f000000000000000000000000ffffffffffffffffffffffffffffffffffffffff459d7f0000000000000000000000000000000000000000000000000000000000000001817f000000000000000000000000000000000000000000000000000000000000c35095418211337b0530431ca064fe8f67f4dbcd0441264d13d382118f74eb809edb33bf32669c46318be3a5a29fc01f7daf369388c6f81bd18ae366341590688d7c2d85aa70be1752c67495f3c0",
                "transactions" : [
                    {
                        "data" : "0x41417f000000000000000000000000ffffffffffffffffffffffffffffffffffffffff459d7f0000000000000000000000000000000000000000000000000000000000000001817f000000000000000000000000000000000000000000000000000000000000c35095418211337b053043",
                        "gasLimit" : "0x2ae4f392",
                        "gasPrice" : "0x0a",
                        "nonce" : "0x00",
                        "r" : "0x64fe8f67f4dbcd0441264d13d382118f74eb809edb33bf32669c46318be3a5a2",
                        "s" : "0xc01f7daf369388c6f81bd18ae366341590688d7c2d85aa70be1752c67495f3",
                        "sender" : "0xa94f5374fce5edbc8e2a8697c15331677e6ebf0b",
                        "to" : "0x095e7baea6a6c7c4c2dfeb977efac326af552d87",
                        "v" : "0x1c",
                        "value" : "0x664165b5"
                    }
                ],
                "uncleHeaders" : [
                ]
            }
        ],
        "genesisBlockHeader" : {
            "baseFeePerGas" : "0x0b",
            "bloom" : "0x00000000000000000000000000000000000000000000000000000000000000000000000000000000000000000000000000000000000000000000000000000000000000000000000000000000000000000000000000000000000000000000000000000000000000000000000000000000000000000000000000000000000000000000000000000000000000000000000000000000000000000000000000000000000000000000000000000000000000000000000000000000000000000000000000000000000000000000000000000000000000000000000000000000000000000000000000000000000000000000000000000000000000000000000000000000",
            "coinbase" : "0x945304eb96065b2a98b57a48a06ae28d285a71b5",
            "difficulty" : "0x00",
            "extraData" : "0x00",
            "gasLimit" : "0x7fffffff",
            "gasUsed" : "0x00",
            "hash" : "0x8301124e4ed9374942102a8c843e47c6d3ca982b527d61764d43a328bd829041",
            "mixHash" : "0x0000000000000000000000000000000000000000000000000000000000020000",
            "nonce" : "0x0000000000000000",
            "number" : "0x00",
            "parentHash" : "0x0000000000000000000000000000000000000000000000000000000000000000",
            "receiptTrie" : "0x56e81f171bcc55a6ff8345e692c0f86e5b48e01b996cadc001622fb5e363b421",
            "stateRoot" : "0xd890e85a9c5864b97a7428086ab7d66db03797533ba5b6a2250b7df2f0d2b858",
            "timestamp" : "0x00",
            "transactionsTrie" : "0x56e81f171bcc55a6ff8345e692c0f86e5b48e01b996cadc001622fb5e363b421",
            "uncleHash" : "0x1dcc4de8dec75d7aab85b567b6ccd41ad312451b948a7413f0a142fd40d49347"
        },
        "genesisRLP" : "0xf901f7f901f2a00000000000000000000000000000000000000000000000000000000000000000a01dcc4de8dec75d7aab85b567b6ccd41ad312451b948a7413f0a142fd40d4934794945304eb96065b2a98b57a48a06ae28d285a71b5a0d890e85a9c5864b97a7428086ab7d66db03797533ba5b6a2250b7df2f0d2b858a056e81f171bcc55a6ff8345e692c0f86e5b48e01b996cadc001622fb5e363b421a056e81f171bcc55a6ff8345e692c0f86e5b48e01b996cadc001622fb5e363b421b90100000000000000000000000000000000000000000000000000000000000000000000000000000000000000000000000000000000000000000000000000000000000000000000000000000000000000000000000000000000000000000000000000000000000000000000000000000000000000000000000000000000000000000000000000000000000000000000000000000000000000000000000000000000000000000000000000000000000000000000000000000000000000000000000000000000000000000000000000000000000000000000000000000000000000000000000000000000000000000000000000000000000000000000000000000000008080847fffffff808000a000000000000000000000000000000000000000000000000000000000000200008800000000000000000bc0c0",
        "lastblockhash" : "0x22b1fd65011c616d5aed22a00e35acea4c3cf92fe7b3abc9e09baaa4289affe5",
        "network" : "Merge",
        "postState" : {
            "0x095e7baea6a6c7c4c2dfeb977efac326af552d87" : {
                "balance" : "0x00",
                "code" : "0x41417f000000000000000000000000ffffffffffffffffffffffffffffffffffffffff459d7f0000000000000000000000000000000000000000000000000000000000000001817f000000000000000000000000000000000000000000000000000000000000c35095418211337b0530435560005155",
                "nonce" : "0x00",
                "storage" : {
                }
            },
            "0x945304eb96065b2a98b57a48a06ae28d285a71b5" : {
                "balance" : "0x2e",
                "code" : "0x6000355415600957005b60203560003555",
                "nonce" : "0x00",
                "storage" : {
                }
            },
            "0xa94f5374fce5edbc8e2a8697c15331677e6ebf0b" : {
                "balance" : "0x0de0b6b1fa727c4c",
                "code" : "0x",
                "nonce" : "0x01",
                "storage" : {
                }
            }
        },
        "pre" : {
            "0x095e7baea6a6c7c4c2dfeb977efac326af552d87" : {
                "balance" : "0x00",
                "code" : "0x41417f000000000000000000000000ffffffffffffffffffffffffffffffffffffffff459d7f0000000000000000000000000000000000000000000000000000000000000001817f000000000000000000000000000000000000000000000000000000000000c35095418211337b0530435560005155",
                "nonce" : "0x00",
                "storage" : {
                }
            },
            "0x945304eb96065b2a98b57a48a06ae28d285a71b5" : {
                "balance" : "0x2e",
                "code" : "0x6000355415600957005b60203560003555",
                "nonce" : "0x00",
                "storage" : {
                }
            },
            "0xa94f5374fce5edbc8e2a8697c15331677e6ebf0b" : {
                "balance" : "0x0de0b6b3a7640000",
                "code" : "0x",
                "nonce" : "0x00",
                "storage" : {
                }
            }
        },
        "sealEngine" : "NoProof"
    }
}