{
    "randomStatetest48_d0g0v0_Berlin" : {
        "_info" : {
            "comment" : "",
            "filling-rpc-server" : "evm version 1.11.0-unstable-dbd6c132-20230214",
            "filling-tool-version" : "retesteth-0.2.3-postmerge+commit.5691d0b9.Linux.g++",
            "generatedTestHash" : "db14e3030caec6dd62f44713d62b95d351506f1d8a2a5643b25905fbf8fb6263",
            "lllcversion" : "Version: 0.5.14-develop.2023.2.14+commit.a096d7a9.Linux.g++",
            "solidity" : "Version: 0.8.5+commit.a4f2e591.Linux.g++",
            "source" : "src/GeneralStateTestsFiller/stRandom/randomStatetest48Filler.json",
            "sourceHash" : "7d222717d9e6b1218a56a3a13cec4534c826095b44034746fd2295721ebe0164"
        },
        "blocks" : [
            {
                "blockHeader" : {
                    "bloom" : "0x00000000000000001000000000000000000000000000000000000000000000000000000000000000000000000000000000000000000000000001000000000000000000000000000000000000000000100000000004000000000000000000000000000000000000000000000000000000000000040000000000004000000000000000000000000000000000000000000000001000000000000000000000000000000000000000000004000000000000000000000000000000000000000000000000000000000000000000000000000000000080000000000010000000000000000000000040000000000000000000000000000000000000000000000000000200",
                    "coinbase" : "0x945304eb96065b2a98b57a48a06ae28d285a71b5",
                    "difficulty" : "0x020000",
                    "extraData" : "0x00",
                    "gasLimit" : "0x7fffffff",
                    "gasUsed" : "0x0271594f",
                    "hash" : "0xeb1a42b4fe7c072c21344cabe7040db09ce42475242c07d66eabf2ec65caf02c",
                    "mixHash" : "0x0000000000000000000000000000000000000000000000000000000000000000",
                    "nonce" : "0x0000000000000000",
                    "number" : "0x01",
                    "parentHash" : "0xb18f5170cd0237c4de6baaef5913dccc4883f6a0bc6ae2daa07622cd76a86fe8",
                    "receiptTrie" : "0x6527b35a5676a2219ad5867200b780b92915b99adb340f88b5bf609d538d8d1f",
                    "stateRoot" : "0xd6a133d2ca89263094f9331334af2b5fa16fab8b464918446ba860279c126e6c",
                    "timestamp" : "0x03e8",
                    "transactionsTrie" : "0x04151c5e6807259c8edce04cdb2d42d4c013c3d44f5cb019fa90c589eb7ba23d",
                    "uncleHash" : "0x1dcc4de8dec75d7aab85b567b6ccd41ad312451b948a7413f0a142fd40d49347"
                },
                "rlp" : "0xf903f2f901faa0b18f5170cd0237c4de6baaef5913dccc4883f6a0bc6ae2daa07622cd76a86fe8a01dcc4de8dec75d7aab85b567b6ccd41ad312451b948a7413f0a142fd40d4934794945304eb96065b2a98b57a48a06ae28d285a71b5a0d6a133d2ca89263094f9331334af2b5fa16fab8b464918446ba860279c126e6ca004151c5e6807259c8edce04cdb2d42d4c013c3d44f5cb019fa90c589eb7ba23da06527b35a5676a2219ad5867200b780b92915b99adb340f88b5bf609d538d8d1fb90100000000000000000010000000000000000000000000000000000000000000000000000000000000000000000000000000000000000000000000010000000000000000000000000000000000000000001000000000040000000000000000000000000000000000000000000000000000000000000400000000000040000000000000000000000000000000000000000000000010000000000000000000000000000000000000000000040000000000000000000000000000000000000000000000000000000000000000000000000000000000800000000000100000000000000000000000400000000000000000000000000000000000000000000000000002008302000001847fffffff840271594f8203e800a00000000000000000000000000000000000000000000000000000000000000000880000000000000000f901f1f901ee800a847e6bc9f894095e7baea6a6c7c4c2dfeb977efac326af552d87845c4c6e38b9018776dd12f3185b84dfc71eb93f4df4ca30dcf34446f25793016424a5e33b6a65fb5d64a9394d7ebefb1c15de971a2d2f53377765d50c698d4e26adea05dd2f6a1688f60eb8b172d796a45c6f79596bfb719df5a571ce8c339e9d7e9b3905324643a2b9fd541956552fc258e688303ecb25082776fde7334cdf046f70c8669a6a05c36909038278e925f0156be9ddb9b83786de8a325ab28e61d18397714bcda0fd5ca879c870d383721c638733b1f78074cc1079e72e0bbbad262348a8976eaaf313a261dccb69dbaf283beebcac7ac3b8166a4deb1fe5099a1c7f3ef595357e76ca260a703bec4848a3cc9804d6de6e5b853b54dd65979292f596ee132edf67eb948e4e4d22f9cb7629bf8b642cb921b2ed9b13e47cb06d6c6f4384c7b372ee7cb61f76a363f8fa68309e3d308179ad3e15fd752d6586e9030c8c1f274878bf7fbe1b569944fdda166c47411878f3702bbe1bbabbce8b10701076e0338bfa289d424c13f4f438474afd71abc18290e0a3c853537a13ce9869d3942c7b6802bfb0f345a9af828b961ca08439850fc4d1f7c27d71945f66093caf39123465c11c1f50d2d0c31aa6c8829ba05f15c595063ce2748af11db94a7009a1c82695d0eb07f4136d0789980b327bffc0",
                "transactions" : [
                    {
                        "data" : "0x76dd12f3185b84dfc71eb93f4df4ca30dcf34446f25793016424a5e33b6a65fb5d64a9394d7ebefb1c15de971a2d2f53377765d50c698d4e26adea05dd2f6a1688f60eb8b172d796a45c6f79596bfb719df5a571ce8c339e9d7e9b3905324643a2b9fd541956552fc258e688303ecb25082776fde7334cdf046f70c8669a6a05c36909038278e925f0156be9ddb9b83786de8a325ab28e61d18397714bcda0fd5ca879c870d383721c638733b1f78074cc1079e72e0bbbad262348a8976eaaf313a261dccb69dbaf283beebcac7ac3b8166a4deb1fe5099a1c7f3ef595357e76ca260a703bec4848a3cc9804d6de6e5b853b54dd65979292f596ee132edf67eb948e4e4d22f9cb7629bf8b642cb921b2ed9b13e47cb06d6c6f4384c7b372ee7cb61f76a363f8fa68309e3d308179ad3e15fd752d6586e9030c8c1f274878bf7fbe1b569944fdda166c47411878f3702bbe1bbabbce8b10701076e0338bfa289d424c13f4f438474afd71abc18290e0a3c853537a13ce9869d3942c7b6802bfb0f345a9af828b96",
                        "gasLimit" : "0x7e6bc9f8",
                        "gasPrice" : "0x0a",
                        "nonce" : "0x00",
                        "r" : "0x8439850fc4d1f7c27d71945f66093caf39123465c11c1f50d2d0c31aa6c8829b",
                        "s" : "0x5f15c595063ce2748af11db94a7009a1c82695d0eb07f4136d0789980b327bff",
                        "sender" : "0xa94f5374fce5edbc8e2a8697c15331677e6ebf0b",
                        "to" : "0x095e7baea6a6c7c4c2dfeb977efac326af552d87",
                        "v" : "0x1c",
                        "value" : "0x5c4c6e38"
                    }
                ],
                "uncleHeaders" : [
                ]
            }
        ],
        "genesisBlockHeader" : {
            "bloom" : "0x00000000000000000000000000000000000000000000000000000000000000000000000000000000000000000000000000000000000000000000000000000000000000000000000000000000000000000000000000000000000000000000000000000000000000000000000000000000000000000000000000000000000000000000000000000000000000000000000000000000000000000000000000000000000000000000000000000000000000000000000000000000000000000000000000000000000000000000000000000000000000000000000000000000000000000000000000000000000000000000000000000000000000000000000000000000",
            "coinbase" : "0x945304eb96065b2a98b57a48a06ae28d285a71b5",
            "difficulty" : "0x020000",
            "extraData" : "0x00",
            "gasLimit" : "0x7fffffff",
            "gasUsed" : "0x00",
            "hash" : "0xb18f5170cd0237c4de6baaef5913dccc4883f6a0bc6ae2daa07622cd76a86fe8",
            "mixHash" : "0x0000000000000000000000000000000000000000000000000000000000000000",
            "nonce" : "0x0000000000000000",
            "number" : "0x00",
            "parentHash" : "0x0000000000000000000000000000000000000000000000000000000000000000",
            "receiptTrie" : "0x56e81f171bcc55a6ff8345e692c0f86e5b48e01b996cadc001622fb5e363b421",
            "stateRoot" : "0x54cff5066feae940c55f3f180afb128329542a8dd992e1d814c432700f9eed52",
            "timestamp" : "0x00",
            "transactionsTrie" : "0x56e81f171bcc55a6ff8345e692c0f86e5b48e01b996cadc001622fb5e363b421",
            "uncleHash" : "0x1dcc4de8dec75d7aab85b567b6ccd41ad312451b948a7413f0a142fd40d49347"
        },
        "genesisRLP" : "0xf901f9f901f4a00000000000000000000000000000000000000000000000000000000000000000a01dcc4de8dec75d7aab85b567b6ccd41ad312451b948a7413f0a142fd40d4934794945304eb96065b2a98b57a48a06ae28d285a71b5a054cff5066feae940c55f3f180afb128329542a8dd992e1d814c432700f9eed52a056e81f171bcc55a6ff8345e692c0f86e5b48e01b996cadc001622fb5e363b421a056e81f171bcc55a6ff8345e692c0f86e5b48e01b996cadc001622fb5e363b421b90100000000000000000000000000000000000000000000000000000000000000000000000000000000000000000000000000000000000000000000000000000000000000000000000000000000000000000000000000000000000000000000000000000000000000000000000000000000000000000000000000000000000000000000000000000000000000000000000000000000000000000000000000000000000000000000000000000000000000000000000000000000000000000000000000000000000000000000000000000000000000000000000000000000000000000000000000000000000000000000000000000000000000000000000000000000008302000080847fffffff808000a00000000000000000000000000000000000000000000000000000000000000000880000000000000000c0c0",
        "lastblockhash" : "0xeb1a42b4fe7c072c21344cabe7040db09ce42475242c07d66eabf2ec65caf02c",
        "network" : "Berlin",
        "postState" : {
            "0x095e7baea6a6c7c4c2dfeb977efac326af552d87" : {
                "balance" : "0x5c4c6e38",
                "code" : "0x38785231d8e75db11d6da7040cee1a12ebf739e5022caa60f92d51636060b6d96d698fc0e9ced2f6a0087344559c43612f0561a73ba3600a600d6014600963186262c173095e7baea6a6c7c4c2dfeb977efac326af552d876370f82d9ff1604166f49ef1fea120af77ba4cce3f35bc52ca5c40bf14c77e95ea92e69520143ff9c7827bcfe760aee06d241e31a0773476da22f7ce8131475838c23b59f7a3c46b2b99c0955e169ee3527ca9f7674467bdf2c0eebf6f60129232",
                "nonce" : "0x00",
                "storage" : {
                }
            },
            "0x945304eb96065b2a98b57a48a06ae28d285a71b5" : {
                "balance" : "0x1bc16d6767357d44",
                "code" : "0x6000355415600957005b60203560003555",
                "nonce" : "0x00",
                "storage" : {
                }
            },
            "0xa94f5374fce5edbc8e2a8697c15331677e6ebf0b" : {
                "balance" : "0x0de0b6b332aa14b2",
                "code" : "0x",
                "nonce" : "0x01",
                "storage" : {
                }
            }
        },
        "pre" : {
            "0x095e7baea6a6c7c4c2dfeb977efac326af552d87" : {
                "balance" : "0x00",
                "code" : "0x38785231d8e75db11d6da7040cee1a12ebf739e5022caa60f92d51636060b6d96d698fc0e9ced2f6a0087344559c43612f0561a73ba3600a600d6014600963186262c173095e7baea6a6c7c4c2dfeb977efac326af552d876370f82d9ff1604166f49ef1fea120af77ba4cce3f35bc52ca5c40bf14c77e95ea92e69520143ff9c7827bcfe760aee06d241e31a0773476da22f7ce8131475838c23b59f7a3c46b2b99c0955e169ee3527ca9f7674467bdf2c0eebf6f60129232",
                "nonce" : "0x00",
                "storage" : {
                }
            },
            "0x945304eb96065b2a98b57a48a06ae28d285a71b5" : {
                "balance" : "0x2e",
                "code" : "0x6000355415600957005b60203560003555",
                "nonce" : "0x00",
                "storage" : {
                }
            },
            "0xa94f5374fce5edbc8e2a8697c15331677e6ebf0b" : {
                "balance" : "0x0de0b6b3a7640000",
                "code" : "0x",
                "nonce" : "0x00",
                "storage" : {
                }
            }
        },
        "sealEngine" : "NoProof"
    },
    "randomStatetest48_d0g0v0_Istanbul" : {
        "_info" : {
            "comment" : "",
            "filling-rpc-server" : "evm version 1.11.0-unstable-dbd6c132-20230214",
            "filling-tool-version" : "retesteth-0.2.3-postmerge+commit.5691d0b9.Linux.g++",
            "generatedTestHash" : "ca1a846a3ca31dcfb8fd0580cccaecb8e3403ae8549fea9b7e28443069a36f19",
            "lllcversion" : "Version: 0.5.14-develop.2023.2.14+commit.a096d7a9.Linux.g++",
            "solidity" : "Version: 0.8.5+commit.a4f2e591.Linux.g++",
            "source" : "src/GeneralStateTestsFiller/stRandom/randomStatetest48Filler.json",
            "sourceHash" : "7d222717d9e6b1218a56a3a13cec4534c826095b44034746fd2295721ebe0164"
        },
        "blocks" : [
            {
                "blockHeader" : {
                    "bloom" : "0x00000000000000001000000000000000000000000000000000000000000000000000000000000000000000000000000000000000000000000001000000000000000000000000000000000000000000100000000004000000000000000000000000000000000000000000000000000000000000040000000000004000000000000000000000000000000000000000000000001000000000000000000000000000000000000000000004000000000000000000000000000000000000000000000000000000000000000000000000000000000080000000000010000000000000000000000040000000000000000000000000000000000000000000000000000200",
                    "coinbase" : "0x945304eb96065b2a98b57a48a06ae28d285a71b5",
                    "difficulty" : "0x020000",
                    "extraData" : "0x00",
                    "gasLimit" : "0x7fffffff",
                    "gasUsed" : "0x027403e6",
                    "hash" : "0xd9bd96d0337d333bdc487d587ae2855a478c2d39540b2ae75d2d6cb823beb09e",
                    "mixHash" : "0x0000000000000000000000000000000000000000000000000000000000000000",
                    "nonce" : "0x0000000000000000",
                    "number" : "0x01",
                    "parentHash" : "0xb18f5170cd0237c4de6baaef5913dccc4883f6a0bc6ae2daa07622cd76a86fe8",
                    "receiptTrie" : "0xf8291ec38b7574cc06e16127fccdcbce392581f94bb9e48d8533d76449643657",
                    "stateRoot" : "0xceaf1d3f6c9b97b3c6cd4fc4e505ff9a2e346701e7fc5f6b57e2c497eb294f36",
                    "timestamp" : "0x03e8",
                    "transactionsTrie" : "0x04151c5e6807259c8edce04cdb2d42d4c013c3d44f5cb019fa90c589eb7ba23d",
                    "uncleHash" : "0x1dcc4de8dec75d7aab85b567b6ccd41ad312451b948a7413f0a142fd40d49347"
                },
                "rlp" : "0xf903f2f901faa0b18f5170cd0237c4de6baaef5913dccc4883f6a0bc6ae2daa07622cd76a86fe8a01dcc4de8dec75d7aab85b567b6ccd41ad312451b948a7413f0a142fd40d4934794945304eb96065b2a98b57a48a06ae28d285a71b5a0ceaf1d3f6c9b97b3c6cd4fc4e505ff9a2e346701e7fc5f6b57e2c497eb294f36a004151c5e6807259c8edce04cdb2d42d4c013c3d44f5cb019fa90c589eb7ba23da0f8291ec38b7574cc06e16127fccdcbce392581f94bb9e48d8533d76449643657b90100000000000000000010000000000000000000000000000000000000000000000000000000000000000000000000000000000000000000000000010000000000000000000000000000000000000000001000000000040000000000000000000000000000000000000000000000000000000000000400000000000040000000000000000000000000000000000000000000000010000000000000000000000000000000000000000000040000000000000000000000000000000000000000000000000000000000000000000000000000000000800000000000100000000000000000000000400000000000000000000000000000000000000000000000000002008302000001847fffffff84027403e68203e800a00000000000000000000000000000000000000000000000000000000000000000880000000000000000f901f1f901ee800a847e6bc9f894095e7baea6a6c7c4c2dfeb977efac326af552d87845c4c6e38b9018776dd12f3185b84dfc71eb93f4df4ca30dcf34446f25793016424a5e33b6a65fb5d64a9394d7ebefb1c15de971a2d2f53377765d50c698d4e26adea05dd2f6a1688f60eb8b172d796a45c6f79596bfb719df5a571ce8c339e9d7e9b3905324643a2b9fd541956552fc258e688303ecb25082776fde7334cdf046f70c8669a6a05c36909038278e925f0156be9ddb9b83786de8a325ab28e61d18397714bcda0fd5ca879c870d383721c638733b1f78074cc1079e72e0bbbad262348a8976eaaf313a261dccb69dbaf283beebcac7ac3b8166a4deb1fe5099a1c7f3ef595357e76ca260a703bec4848a3cc9804d6de6e5b853b54dd65979292f596ee132edf67eb948e4e4d22f9cb7629bf8b642cb921b2ed9b13e47cb06d6c6f4384c7b372ee7cb61f76a363f8fa68309e3d308179ad3e15fd752d6586e9030c8c1f274878bf7fbe1b569944fdda166c47411878f3702bbe1bbabbce8b10701076e0338bfa289d424c13f4f438474afd71abc18290e0a3c853537a13ce9869d3942c7b6802bfb0f345a9af828b961ca08439850fc4d1f7c27d71945f66093caf39123465c11c1f50d2d0c31aa6c8829ba05f15c595063ce2748af11db94a7009a1c82695d0eb07f4136d0789980b327bffc0",
                "transactions" : [
                    {
                        "data" : "0x76dd12f3185b84dfc71eb93f4df4ca30dcf34446f25793016424a5e33b6a65fb5d64a9394d7ebefb1c15de971a2d2f53377765d50c698d4e26adea05dd2f6a1688f60eb8b172d796a45c6f79596bfb719df5a571ce8c339e9d7e9b3905324643a2b9fd541956552fc258e688303ecb25082776fde7334cdf046f70c8669a6a05c36909038278e925f0156be9ddb9b83786de8a325ab28e61d18397714bcda0fd5ca879c870d383721c638733b1f78074cc1079e72e0bbbad262348a8976eaaf313a261dccb69dbaf283beebcac7ac3b8166a4deb1fe5099a1c7f3ef595357e76ca260a703bec4848a3cc9804d6de6e5b853b54dd65979292f596ee132edf67eb948e4e4d22f9cb7629bf8b642cb921b2ed9b13e47cb06d6c6f4384c7b372ee7cb61f76a363f8fa68309e3d308179ad3e15fd752d6586e9030c8c1f274878bf7fbe1b569944fdda166c47411878f3702bbe1bbabbce8b10701076e0338bfa289d424c13f4f438474afd71abc18290e0a3c853537a13ce9869d3942c7b6802bfb0f345a9af828b96",
                        "gasLimit" : "0x7e6bc9f8",
                        "gasPrice" : "0x0a",
                        "nonce" : "0x00",
                        "r" : "0x8439850fc4d1f7c27d71945f66093caf39123465c11c1f50d2d0c31aa6c8829b",
                        "s" : "0x5f15c595063ce2748af11db94a7009a1c82695d0eb07f4136d0789980b327bff",
                        "sender" : "0xa94f5374fce5edbc8e2a8697c15331677e6ebf0b",
                        "to" : "0x095e7baea6a6c7c4c2dfeb977efac326af552d87",
                        "v" : "0x1c",
                        "value" : "0x5c4c6e38"
                    }
                ],
                "uncleHeaders" : [
                ]
            }
        ],
        "genesisBlockHeader" : {
            "bloom" : "0x00000000000000000000000000000000000000000000000000000000000000000000000000000000000000000000000000000000000000000000000000000000000000000000000000000000000000000000000000000000000000000000000000000000000000000000000000000000000000000000000000000000000000000000000000000000000000000000000000000000000000000000000000000000000000000000000000000000000000000000000000000000000000000000000000000000000000000000000000000000000000000000000000000000000000000000000000000000000000000000000000000000000000000000000000000000",
            "coinbase" : "0x945304eb96065b2a98b57a48a06ae28d285a71b5",
            "difficulty" : "0x020000",
            "extraData" : "0x00",
            "gasLimit" : "0x7fffffff",
            "gasUsed" : "0x00",
            "hash" : "0xb18f5170cd0237c4de6baaef5913dccc4883f6a0bc6ae2daa07622cd76a86fe8",
            "mixHash" : "0x0000000000000000000000000000000000000000000000000000000000000000",
            "nonce" : "0x0000000000000000",
            "number" : "0x00",
            "parentHash" : "0x0000000000000000000000000000000000000000000000000000000000000000",
            "receiptTrie" : "0x56e81f171bcc55a6ff8345e692c0f86e5b48e01b996cadc001622fb5e363b421",
            "stateRoot" : "0x54cff5066feae940c55f3f180afb128329542a8dd992e1d814c432700f9eed52",
            "timestamp" : "0x00",
            "transactionsTrie" : "0x56e81f171bcc55a6ff8345e692c0f86e5b48e01b996cadc001622fb5e363b421",
            "uncleHash" : "0x1dcc4de8dec75d7aab85b567b6ccd41ad312451b948a7413f0a142fd40d49347"
        },
        "genesisRLP" : "0xf901f9f901f4a00000000000000000000000000000000000000000000000000000000000000000a01dcc4de8dec75d7aab85b567b6ccd41ad312451b948a7413f0a142fd40d4934794945304eb96065b2a98b57a48a06ae28d285a71b5a054cff5066feae940c55f3f180afb128329542a8dd992e1d814c432700f9eed52a056e81f171bcc55a6ff8345e692c0f86e5b48e01b996cadc001622fb5e363b421a056e81f171bcc55a6ff8345e692c0f86e5b48e01b996cadc001622fb5e363b421b90100000000000000000000000000000000000000000000000000000000000000000000000000000000000000000000000000000000000000000000000000000000000000000000000000000000000000000000000000000000000000000000000000000000000000000000000000000000000000000000000000000000000000000000000000000000000000000000000000000000000000000000000000000000000000000000000000000000000000000000000000000000000000000000000000000000000000000000000000000000000000000000000000000000000000000000000000000000000000000000000000000000000000000000000000000000008302000080847fffffff808000a00000000000000000000000000000000000000000000000000000000000000000880000000000000000c0c0",
        "lastblockhash" : "0xd9bd96d0337d333bdc487d587ae2855a478c2d39540b2ae75d2d6cb823beb09e",
        "network" : "Istanbul",
        "postState" : {
            "0x095e7baea6a6c7c4c2dfeb977efac326af552d87" : {
                "balance" : "0x5c4c6e38",
                "code" : "0x38785231d8e75db11d6da7040cee1a12ebf739e5022caa60f92d51636060b6d96d698fc0e9ced2f6a0087344559c43612f0561a73ba3600a600d6014600963186262c173095e7baea6a6c7c4c2dfeb977efac326af552d876370f82d9ff1604166f49ef1fea120af77ba4cce3f35bc52ca5c40bf14c77e95ea92e69520143ff9c7827bcfe760aee06d241e31a0773476da22f7ce8131475838c23b59f7a3c46b2b99c0955e169ee3527ca9f7674467bdf2c0eebf6f60129232",
                "nonce" : "0x00",
                "storage" : {
                }
            },
            "0x945304eb96065b2a98b57a48a06ae28d285a71b5" : {
                "balance" : "0x1bc16d676750272a",
                "code" : "0x6000355415600957005b60203560003555",
                "nonce" : "0x00",
                "storage" : {
                }
            },
            "0xa94f5374fce5edbc8e2a8697c15331677e6ebf0b" : {
                "balance" : "0x0de0b6b3328f6acc",
                "code" : "0x",
                "nonce" : "0x01",
                "storage" : {
                }
            }
        },
        "pre" : {
            "0x095e7baea6a6c7c4c2dfeb977efac326af552d87" : {
                "balance" : "0x00",
                "code" : "0x38785231d8e75db11d6da7040cee1a12ebf739e5022caa60f92d51636060b6d96d698fc0e9ced2f6a0087344559c43612f0561a73ba3600a600d6014600963186262c173095e7baea6a6c7c4c2dfeb977efac326af552d876370f82d9ff1604166f49ef1fea120af77ba4cce3f35bc52ca5c40bf14c77e95ea92e69520143ff9c7827bcfe760aee06d241e31a0773476da22f7ce8131475838c23b59f7a3c46b2b99c0955e169ee3527ca9f7674467bdf2c0eebf6f60129232",
                "nonce" : "0x00",
                "storage" : {
                }
            },
            "0x945304eb96065b2a98b57a48a06ae28d285a71b5" : {
                "balance" : "0x2e",
                "code" : "0x6000355415600957005b60203560003555",
                "nonce" : "0x00",
                "storage" : {
                }
            },
            "0xa94f5374fce5edbc8e2a8697c15331677e6ebf0b" : {
                "balance" : "0x0de0b6b3a7640000",
                "code" : "0x",
                "nonce" : "0x00",
                "storage" : {
                }
            }
        },
        "sealEngine" : "NoProof"
    },
    "randomStatetest48_d0g0v0_London" : {
        "_info" : {
            "comment" : "",
            "filling-rpc-server" : "evm version 1.11.0-unstable-dbd6c132-20230214",
            "filling-tool-version" : "retesteth-0.2.3-postmerge+commit.5691d0b9.Linux.g++",
            "generatedTestHash" : "de5e71aa20f7a0c1f1d95b12cd9111b806afd70d9e82ca5d895bbcdfee931ef4",
            "lllcversion" : "Version: 0.5.14-develop.2023.2.14+commit.a096d7a9.Linux.g++",
            "solidity" : "Version: 0.8.5+commit.a4f2e591.Linux.g++",
            "source" : "src/GeneralStateTestsFiller/stRandom/randomStatetest48Filler.json",
            "sourceHash" : "7d222717d9e6b1218a56a3a13cec4534c826095b44034746fd2295721ebe0164"
        },
        "blocks" : [
            {
                "blockHeader" : {
                    "baseFeePerGas" : "0x0a",
                    "bloom" : "0x00000000000000001000000000000000000000000000000000000000000000000000000000000000000000000000000000000000000000000001000000000000000000000000000000000000000000100000000004000000000000000000000000000000000000000000000000000000000000040000000000004000000000000000000000000000000000000000000000001000000000000000000000000000000000000000000004000000000000000000000000000000000000000000000000000000000000000000000000000000000080000000000010000000000000000000000040000000000000000000000000000000000000000000000000000200",
                    "coinbase" : "0x945304eb96065b2a98b57a48a06ae28d285a71b5",
                    "difficulty" : "0x020000",
                    "extraData" : "0x00",
                    "gasLimit" : "0x7fffffff",
                    "gasUsed" : "0x0271594f",
                    "hash" : "0xd8f3016f8e818de465459ffff7b5b1be7aaf7e573a16bc746362464f971ff9ba",
                    "mixHash" : "0x0000000000000000000000000000000000000000000000000000000000000000",
                    "nonce" : "0x0000000000000000",
                    "number" : "0x01",
                    "parentHash" : "0xc5124d0ce8bc6ebed5904bd1ca4374cf07a38c64df720f6ae846fb3c07c6050c",
                    "receiptTrie" : "0x6527b35a5676a2219ad5867200b780b92915b99adb340f88b5bf609d538d8d1f",
                    "stateRoot" : "0xb31b5a7a4d6614b7ffb3c91082f9c7d2417cc16a40497128d7703aa5668dd1b3",
                    "timestamp" : "0x03e8",
                    "transactionsTrie" : "0x04151c5e6807259c8edce04cdb2d42d4c013c3d44f5cb019fa90c589eb7ba23d",
                    "uncleHash" : "0x1dcc4de8dec75d7aab85b567b6ccd41ad312451b948a7413f0a142fd40d49347"
                },
                "rlp" : "0xf903f3f901fba0c5124d0ce8bc6ebed5904bd1ca4374cf07a38c64df720f6ae846fb3c07c6050ca01dcc4de8dec75d7aab85b567b6ccd41ad312451b948a7413f0a142fd40d4934794945304eb96065b2a98b57a48a06ae28d285a71b5a0b31b5a7a4d6614b7ffb3c91082f9c7d2417cc16a40497128d7703aa5668dd1b3a004151c5e6807259c8edce04cdb2d42d4c013c3d44f5cb019fa90c589eb7ba23da06527b35a5676a2219ad5867200b780b92915b99adb340f88b5bf609d538d8d1fb90100000000000000000010000000000000000000000000000000000000000000000000000000000000000000000000000000000000000000000000010000000000000000000000000000000000000000001000000000040000000000000000000000000000000000000000000000000000000000000400000000000040000000000000000000000000000000000000000000000010000000000000000000000000000000000000000000040000000000000000000000000000000000000000000000000000000000000000000000000000000000800000000000100000000000000000000000400000000000000000000000000000000000000000000000000002008302000001847fffffff840271594f8203e800a000000000000000000000000000000000000000000000000000000000000000008800000000000000000af901f1f901ee800a847e6bc9f894095e7baea6a6c7c4c2dfeb977efac326af552d87845c4c6e38b9018776dd12f3185b84dfc71eb93f4df4ca30dcf34446f25793016424a5e33b6a65fb5d64a9394d7ebefb1c15de971a2d2f53377765d50c698d4e26adea05dd2f6a1688f60eb8b172d796a45c6f79596bfb719df5a571ce8c339e9d7e9b3905324643a2b9fd541956552fc258e688303ecb25082776fde7334cdf046f70c8669a6a05c36909038278e925f0156be9ddb9b83786de8a325ab28e61d18397714bcda0fd5ca879c870d383721c638733b1f78074cc1079e72e0bbbad262348a8976eaaf313a261dccb69dbaf283beebcac7ac3b8166a4deb1fe5099a1c7f3ef595357e76ca260a703bec4848a3cc9804d6de6e5b853b54dd65979292f596ee132edf67eb948e4e4d22f9cb7629bf8b642cb921b2ed9b13e47cb06d6c6f4384c7b372ee7cb61f76a363f8fa68309e3d308179ad3e15fd752d6586e9030c8c1f274878bf7fbe1b569944fdda166c47411878f3702bbe1bbabbce8b10701076e0338bfa289d424c13f4f438474afd71abc18290e0a3c853537a13ce9869d3942c7b6802bfb0f345a9af828b961ca08439850fc4d1f7c27d71945f66093caf39123465c11c1f50d2d0c31aa6c8829ba05f15c595063ce2748af11db94a7009a1c82695d0eb07f4136d0789980b327bffc0",
                "transactions" : [
                    {
                        "data" : "0x76dd12f3185b84dfc71eb93f4df4ca30dcf34446f25793016424a5e33b6a65fb5d64a9394d7ebefb1c15de971a2d2f53377765d50c698d4e26adea05dd2f6a1688f60eb8b172d796a45c6f79596bfb719df5a571ce8c339e9d7e9b3905324643a2b9fd541956552fc258e688303ecb25082776fde7334cdf046f70c8669a6a05c36909038278e925f0156be9ddb9b83786de8a325ab28e61d18397714bcda0fd5ca879c870d383721c638733b1f78074cc1079e72e0bbbad262348a8976eaaf313a261dccb69dbaf283beebcac7ac3b8166a4deb1fe5099a1c7f3ef595357e76ca260a703bec4848a3cc9804d6de6e5b853b54dd65979292f596ee132edf67eb948e4e4d22f9cb7629bf8b642cb921b2ed9b13e47cb06d6c6f4384c7b372ee7cb61f76a363f8fa68309e3d308179ad3e15fd752d6586e9030c8c1f274878bf7fbe1b569944fdda166c47411878f3702bbe1bbabbce8b10701076e0338bfa289d424c13f4f438474afd71abc18290e0a3c853537a13ce9869d3942c7b6802bfb0f345a9af828b96",
                        "gasLimit" : "0x7e6bc9f8",
                        "gasPrice" : "0x0a",
                        "nonce" : "0x00",
                        "r" : "0x8439850fc4d1f7c27d71945f66093caf39123465c11c1f50d2d0c31aa6c8829b",
                        "s" : "0x5f15c595063ce2748af11db94a7009a1c82695d0eb07f4136d0789980b327bff",
                        "sender" : "0xa94f5374fce5edbc8e2a8697c15331677e6ebf0b",
                        "to" : "0x095e7baea6a6c7c4c2dfeb977efac326af552d87",
                        "v" : "0x1c",
                        "value" : "0x5c4c6e38"
                    }
                ],
                "uncleHeaders" : [
                ]
            }
        ],
        "genesisBlockHeader" : {
            "baseFeePerGas" : "0x0b",
            "bloom" : "0x00000000000000000000000000000000000000000000000000000000000000000000000000000000000000000000000000000000000000000000000000000000000000000000000000000000000000000000000000000000000000000000000000000000000000000000000000000000000000000000000000000000000000000000000000000000000000000000000000000000000000000000000000000000000000000000000000000000000000000000000000000000000000000000000000000000000000000000000000000000000000000000000000000000000000000000000000000000000000000000000000000000000000000000000000000000",
            "coinbase" : "0x945304eb96065b2a98b57a48a06ae28d285a71b5",
            "difficulty" : "0x020000",
            "extraData" : "0x00",
            "gasLimit" : "0x7fffffff",
            "gasUsed" : "0x00",
            "hash" : "0xc5124d0ce8bc6ebed5904bd1ca4374cf07a38c64df720f6ae846fb3c07c6050c",
            "mixHash" : "0x0000000000000000000000000000000000000000000000000000000000000000",
            "nonce" : "0x0000000000000000",
            "number" : "0x00",
            "parentHash" : "0x0000000000000000000000000000000000000000000000000000000000000000",
            "receiptTrie" : "0x56e81f171bcc55a6ff8345e692c0f86e5b48e01b996cadc001622fb5e363b421",
            "stateRoot" : "0x54cff5066feae940c55f3f180afb128329542a8dd992e1d814c432700f9eed52",
            "timestamp" : "0x00",
            "transactionsTrie" : "0x56e81f171bcc55a6ff8345e692c0f86e5b48e01b996cadc001622fb5e363b421",
            "uncleHash" : "0x1dcc4de8dec75d7aab85b567b6ccd41ad312451b948a7413f0a142fd40d49347"
        },
        "genesisRLP" : "0xf901faf901f5a00000000000000000000000000000000000000000000000000000000000000000a01dcc4de8dec75d7aab85b567b6ccd41ad312451b948a7413f0a142fd40d4934794945304eb96065b2a98b57a48a06ae28d285a71b5a054cff5066feae940c55f3f180afb128329542a8dd992e1d814c432700f9eed52a056e81f171bcc55a6ff8345e692c0f86e5b48e01b996cadc001622fb5e363b421a056e81f171bcc55a6ff8345e692c0f86e5b48e01b996cadc001622fb5e363b421b90100000000000000000000000000000000000000000000000000000000000000000000000000000000000000000000000000000000000000000000000000000000000000000000000000000000000000000000000000000000000000000000000000000000000000000000000000000000000000000000000000000000000000000000000000000000000000000000000000000000000000000000000000000000000000000000000000000000000000000000000000000000000000000000000000000000000000000000000000000000000000000000000000000000000000000000000000000000000000000000000000000000000000000000000000000000008302000080847fffffff808000a000000000000000000000000000000000000000000000000000000000000000008800000000000000000bc0c0",
        "lastblockhash" : "0xd8f3016f8e818de465459ffff7b5b1be7aaf7e573a16bc746362464f971ff9ba",
        "network" : "London",
        "postState" : {
            "0x095e7baea6a6c7c4c2dfeb977efac326af552d87" : {
                "balance" : "0x5c4c6e38",
                "code" : "0x38785231d8e75db11d6da7040cee1a12ebf739e5022caa60f92d51636060b6d96d698fc0e9ced2f6a0087344559c43612f0561a73ba3600a600d6014600963186262c173095e7baea6a6c7c4c2dfeb977efac326af552d876370f82d9ff1604166f49ef1fea120af77ba4cce3f35bc52ca5c40bf14c77e95ea92e69520143ff9c7827bcfe760aee06d241e31a0773476da22f7ce8131475838c23b59f7a3c46b2b99c0955e169ee3527ca9f7674467bdf2c0eebf6f60129232",
                "nonce" : "0x00",
                "storage" : {
                }
            },
            "0x945304eb96065b2a98b57a48a06ae28d285a71b5" : {
                "balance" : "0x1bc16d674ec8002e",
                "code" : "0x6000355415600957005b60203560003555",
                "nonce" : "0x00",
                "storage" : {
                }
            },
            "0xa94f5374fce5edbc8e2a8697c15331677e6ebf0b" : {
                "balance" : "0x0de0b6b332aa14b2",
                "code" : "0x",
                "nonce" : "0x01",
                "storage" : {
                }
            }
        },
        "pre" : {
            "0x095e7baea6a6c7c4c2dfeb977efac326af552d87" : {
                "balance" : "0x00",
                "code" : "0x38785231d8e75db11d6da7040cee1a12ebf739e5022caa60f92d51636060b6d96d698fc0e9ced2f6a0087344559c43612f0561a73ba3600a600d6014600963186262c173095e7baea6a6c7c4c2dfeb977efac326af552d876370f82d9ff1604166f49ef1fea120af77ba4cce3f35bc52ca5c40bf14c77e95ea92e69520143ff9c7827bcfe760aee06d241e31a0773476da22f7ce8131475838c23b59f7a3c46b2b99c0955e169ee3527ca9f7674467bdf2c0eebf6f60129232",
                "nonce" : "0x00",
                "storage" : {
                }
            },
            "0x945304eb96065b2a98b57a48a06ae28d285a71b5" : {
                "balance" : "0x2e",
                "code" : "0x6000355415600957005b60203560003555",
                "nonce" : "0x00",
                "storage" : {
                }
            },
            "0xa94f5374fce5edbc8e2a8697c15331677e6ebf0b" : {
                "balance" : "0x0de0b6b3a7640000",
                "code" : "0x",
                "nonce" : "0x00",
                "storage" : {
                }
            }
        },
        "sealEngine" : "NoProof"
    },
    "randomStatetest48_d0g0v0_Merge" : {
        "_info" : {
            "comment" : "",
            "filling-rpc-server" : "evm version 1.11.0-unstable-dbd6c132-20230214",
            "filling-tool-version" : "retesteth-0.2.3-postmerge+commit.5691d0b9.Linux.g++",
            "generatedTestHash" : "a438edffdca9f057183db827e0b76ad056a5bd37b906a0c7f39ac03908bf1c0d",
            "lllcversion" : "Version: 0.5.14-develop.2023.2.14+commit.a096d7a9.Linux.g++",
            "solidity" : "Version: 0.8.5+commit.a4f2e591.Linux.g++",
            "source" : "src/GeneralStateTestsFiller/stRandom/randomStatetest48Filler.json",
            "sourceHash" : "7d222717d9e6b1218a56a3a13cec4534c826095b44034746fd2295721ebe0164"
        },
        "blocks" : [
            {
                "blockHeader" : {
                    "baseFeePerGas" : "0x0a",
                    "bloom" : "0x00000000000000001000000000000000000000000000000000000000000000000000000000000000000000000000000000000000000000000001000000000000000000000000000000000000000000100000000004000000000000000000000000000000000000000000000000000000000000040000000000004000000000000000000000000000000000000000000000001000000000000000000000000000000000000000000004000000000000000000000000000000000000000000000000000000000000000000000000000000000080000000000010000000000000000000000040000000000000000000000000000000000000000000000000000200",
                    "coinbase" : "0x945304eb96065b2a98b57a48a06ae28d285a71b5",
                    "difficulty" : "0x00",
                    "extraData" : "0x00",
                    "gasLimit" : "0x7fffffff",
                    "gasUsed" : "0x0271594f",
                    "hash" : "0x84517c179c15491409a98334d5031443da6ec08d8685cbb315c4be11fb4e0024",
                    "mixHash" : "0x0000000000000000000000000000000000000000000000000000000000020000",
                    "nonce" : "0x0000000000000000",
                    "number" : "0x01",
                    "parentHash" : "0xaf2da048abee57e4d2da8c97f5134186c0363e2409a101a3c0d8d5a007d29d7d",
                    "receiptTrie" : "0x6527b35a5676a2219ad5867200b780b92915b99adb340f88b5bf609d538d8d1f",
                    "stateRoot" : "0xd5459d86a7de0c82d33ff1be775a8b9de8fe6c4290c07d022335d11d2ef03f1f",
                    "timestamp" : "0x03e8",
                    "transactionsTrie" : "0x04151c5e6807259c8edce04cdb2d42d4c013c3d44f5cb019fa90c589eb7ba23d",
                    "uncleHash" : "0x1dcc4de8dec75d7aab85b567b6ccd41ad312451b948a7413f0a142fd40d49347"
                },
                "rlp" : "0xf903f0f901f8a0af2da048abee57e4d2da8c97f5134186c0363e2409a101a3c0d8d5a007d29d7da01dcc4de8dec75d7aab85b567b6ccd41ad312451b948a7413f0a142fd40d4934794945304eb96065b2a98b57a48a06ae28d285a71b5a0d5459d86a7de0c82d33ff1be775a8b9de8fe6c4290c07d022335d11d2ef03f1fa004151c5e6807259c8edce04cdb2d42d4c013c3d44f5cb019fa90c589eb7ba23da06527b35a5676a2219ad5867200b780b92915b99adb340f88b5bf609d538d8d1fb90100000000000000000010000000000000000000000000000000000000000000000000000000000000000000000000000000000000000000000000010000000000000000000000000000000000000000001000000000040000000000000000000000000000000000000000000000000000000000000400000000000040000000000000000000000000000000000000000000000010000000000000000000000000000000000000000000040000000000000000000000000000000000000000000000000000000000000000000000000000000000800000000000100000000000000000000000400000000000000000000000000000000000000000000000000002008001847fffffff840271594f8203e800a000000000000000000000000000000000000000000000000000000000000200008800000000000000000af901f1f901ee800a847e6bc9f894095e7baea6a6c7c4c2dfeb977efac326af552d87845c4c6e38b9018776dd12f3185b84dfc71eb93f4df4ca30dcf34446f25793016424a5e33b6a65fb5d64a9394d7ebefb1c15de971a2d2f53377765d50c698d4e26adea05dd2f6a1688f60eb8b172d796a45c6f79596bfb719df5a571ce8c339e9d7e9b3905324643a2b9fd541956552fc258e688303ecb25082776fde7334cdf046f70c8669a6a05c36909038278e925f0156be9ddb9b83786de8a325ab28e61d18397714bcda0fd5ca879c870d383721c638733b1f78074cc1079e72e0bbbad262348a8976eaaf313a261dccb69dbaf283beebcac7ac3b8166a4deb1fe5099a1c7f3ef595357e76ca260a703bec4848a3cc9804d6de6e5b853b54dd65979292f596ee132edf67eb948e4e4d22f9cb7629bf8b642cb921b2ed9b13e47cb06d6c6f4384c7b372ee7cb61f76a363f8fa68309e3d308179ad3e15fd752d6586e9030c8c1f274878bf7fbe1b569944fdda166c47411878f3702bbe1bbabbce8b10701076e0338bfa289d424c13f4f438474afd71abc18290e0a3c853537a13ce9869d3942c7b6802bfb0f345a9af828b961ca08439850fc4d1f7c27d71945f66093caf39123465c11c1f50d2d0c31aa6c8829ba05f15c595063ce2748af11db94a7009a1c82695d0eb07f4136d0789980b327bffc0",
                "transactions" : [
                    {
                        "data" : "0x76dd12f3185b84dfc71eb93f4df4ca30dcf34446f25793016424a5e33b6a65fb5d64a9394d7ebefb1c15de971a2d2f53377765d50c698d4e26adea05dd2f6a1688f60eb8b172d796a45c6f79596bfb719df5a571ce8c339e9d7e9b3905324643a2b9fd541956552fc258e688303ecb25082776fde7334cdf046f70c8669a6a05c36909038278e925f0156be9ddb9b83786de8a325ab28e61d18397714bcda0fd5ca879c870d383721c638733b1f78074cc1079e72e0bbbad262348a8976eaaf313a261dccb69dbaf283beebcac7ac3b8166a4deb1fe5099a1c7f3ef595357e76ca260a703bec4848a3cc9804d6de6e5b853b54dd65979292f596ee132edf67eb948e4e4d22f9cb7629bf8b642cb921b2ed9b13e47cb06d6c6f4384c7b372ee7cb61f76a363f8fa68309e3d308179ad3e15fd752d6586e9030c8c1f274878bf7fbe1b569944fdda166c47411878f3702bbe1bbabbce8b10701076e0338bfa289d424c13f4f438474afd71abc18290e0a3c853537a13ce9869d3942c7b6802bfb0f345a9af828b96",
                        "gasLimit" : "0x7e6bc9f8",
                        "gasPrice" : "0x0a",
                        "nonce" : "0x00",
                        "r" : "0x8439850fc4d1f7c27d71945f66093caf39123465c11c1f50d2d0c31aa6c8829b",
                        "s" : "0x5f15c595063ce2748af11db94a7009a1c82695d0eb07f4136d0789980b327bff",
                        "sender" : "0xa94f5374fce5edbc8e2a8697c15331677e6ebf0b",
                        "to" : "0x095e7baea6a6c7c4c2dfeb977efac326af552d87",
                        "v" : "0x1c",
                        "value" : "0x5c4c6e38"
                    }
                ],
                "uncleHeaders" : [
                ]
            }
        ],
        "genesisBlockHeader" : {
            "baseFeePerGas" : "0x0b",
            "bloom" : "0x00000000000000000000000000000000000000000000000000000000000000000000000000000000000000000000000000000000000000000000000000000000000000000000000000000000000000000000000000000000000000000000000000000000000000000000000000000000000000000000000000000000000000000000000000000000000000000000000000000000000000000000000000000000000000000000000000000000000000000000000000000000000000000000000000000000000000000000000000000000000000000000000000000000000000000000000000000000000000000000000000000000000000000000000000000000",
            "coinbase" : "0x945304eb96065b2a98b57a48a06ae28d285a71b5",
            "difficulty" : "0x00",
            "extraData" : "0x00",
            "gasLimit" : "0x7fffffff",
            "gasUsed" : "0x00",
            "hash" : "0xaf2da048abee57e4d2da8c97f5134186c0363e2409a101a3c0d8d5a007d29d7d",
            "mixHash" : "0x0000000000000000000000000000000000000000000000000000000000020000",
            "nonce" : "0x0000000000000000",
            "number" : "0x00",
            "parentHash" : "0x0000000000000000000000000000000000000000000000000000000000000000",
            "receiptTrie" : "0x56e81f171bcc55a6ff8345e692c0f86e5b48e01b996cadc001622fb5e363b421",
            "stateRoot" : "0x54cff5066feae940c55f3f180afb128329542a8dd992e1d814c432700f9eed52",
            "timestamp" : "0x00",
            "transactionsTrie" : "0x56e81f171bcc55a6ff8345e692c0f86e5b48e01b996cadc001622fb5e363b421",
            "uncleHash" : "0x1dcc4de8dec75d7aab85b567b6ccd41ad312451b948a7413f0a142fd40d49347"
        },
        "genesisRLP" : "0xf901f7f901f2a00000000000000000000000000000000000000000000000000000000000000000a01dcc4de8dec75d7aab85b567b6ccd41ad312451b948a7413f0a142fd40d4934794945304eb96065b2a98b57a48a06ae28d285a71b5a054cff5066feae940c55f3f180afb128329542a8dd992e1d814c432700f9eed52a056e81f171bcc55a6ff8345e692c0f86e5b48e01b996cadc001622fb5e363b421a056e81f171bcc55a6ff8345e692c0f86e5b48e01b996cadc001622fb5e363b421b90100000000000000000000000000000000000000000000000000000000000000000000000000000000000000000000000000000000000000000000000000000000000000000000000000000000000000000000000000000000000000000000000000000000000000000000000000000000000000000000000000000000000000000000000000000000000000000000000000000000000000000000000000000000000000000000000000000000000000000000000000000000000000000000000000000000000000000000000000000000000000000000000000000000000000000000000000000000000000000000000000000000000000000000000000000000008080847fffffff808000a000000000000000000000000000000000000000000000000000000000000200008800000000000000000bc0c0",
        "lastblockhash" : "0x84517c179c15491409a98334d5031443da6ec08d8685cbb315c4be11fb4e0024",
        "network" : "Merge",
        "postState" : {
            "0x095e7baea6a6c7c4c2dfeb977efac326af552d87" : {
                "balance" : "0x5c4c6e38",
                "code" : "0x38785231d8e75db11d6da7040cee1a12ebf739e5022caa60f92d51636060b6d96d698fc0e9ced2f6a0087344559c43612f0561a73ba3600a600d6014600963186262c173095e7baea6a6c7c4c2dfeb977efac326af552d876370f82d9ff1604166f49ef1fea120af77ba4cce3f35bc52ca5c40bf14c77e95ea92e69520143ff9c7827bcfe760aee06d241e31a0773476da22f7ce8131475838c23b59f7a3c46b2b99c0955e169ee3527ca9f7674467bdf2c0eebf6f60129232",
                "nonce" : "0x00",
                "storage" : {
                }
            },
            "0x945304eb96065b2a98b57a48a06ae28d285a71b5" : {
                "balance" : "0x2e",
                "code" : "0x6000355415600957005b60203560003555",
                "nonce" : "0x00",
                "storage" : {
                }
            },
            "0xa94f5374fce5edbc8e2a8697c15331677e6ebf0b" : {
                "balance" : "0x0de0b6b332aa14b2",
                "code" : "0x",
                "nonce" : "0x01",
                "storage" : {
                }
            }
        },
        "pre" : {
            "0x095e7baea6a6c7c4c2dfeb977efac326af552d87" : {
                "balance" : "0x00",
                "code" : "0x38785231d8e75db11d6da7040cee1a12ebf739e5022caa60f92d51636060b6d96d698fc0e9ced2f6a0087344559c43612f0561a73ba3600a600d6014600963186262c173095e7baea6a6c7c4c2dfeb977efac326af552d876370f82d9ff1604166f49ef1fea120af77ba4cce3f35bc52ca5c40bf14c77e95ea92e69520143ff9c7827bcfe760aee06d241e31a0773476da22f7ce8131475838c23b59f7a3c46b2b99c0955e169ee3527ca9f7674467bdf2c0eebf6f60129232",
                "nonce" : "0x00",
                "storage" : {
                }
            },
            "0x945304eb96065b2a98b57a48a06ae28d285a71b5" : {
                "balance" : "0x2e",
                "code" : "0x6000355415600957005b60203560003555",
                "nonce" : "0x00",
                "storage" : {
                }
            },
            "0xa94f5374fce5edbc8e2a8697c15331677e6ebf0b" : {
                "balance" : "0x0de0b6b3a7640000",
                "code" : "0x",
                "nonce" : "0x00",
                "storage" : {
                }
            }
        },
        "sealEngine" : "NoProof"
    }
}