{
    "randomStatetest302_d0g0v0_Berlin" : {
        "_info" : {
            "comment" : "",
            "filling-rpc-server" : "evm version 1.11.0-unstable-dbd6c132-20230214",
            "filling-tool-version" : "retesteth-0.2.3-postmerge+commit.5691d0b9.Linux.g++",
            "generatedTestHash" : "b083f3e8973f5807e7832fbb3a1fbf8747691f27940a785859bc0663ad3f916c",
            "lllcversion" : "Version: 0.5.14-develop.2023.2.14+commit.a096d7a9.Linux.g++",
            "solidity" : "Version: 0.8.5+commit.a4f2e591.Linux.g++",
            "source" : "src/GeneralStateTestsFiller/stRandom/randomStatetest302Filler.json",
            "sourceHash" : "c49e42e87baf30aa162f78fb2da7c07aca3657aa0a22e2558c7cf1bfebc5bdbc"
        },
        "blocks" : [
            {
                "blockHeader" : {
                    "bloom" : "0x00000000000000000000000000000000000000000000000000000000000000000000000000000000000000000000000000000000000000000000000000000000000000000000000000000000000000000000000000000000000000000000000000000000000000000000000000000000000000000000000000000000000000000000000000000000000000000000000000000000000000000000000000000000000000000000000000000000000000000000000000000000000000000000000000000000000000000000000000000000000000000000000000000000000000000000000000000000000000000000000000000000000000000000000000000000",
                    "coinbase" : "0x945304eb96065b2a98b57a48a06ae28d285a71b5",
                    "difficulty" : "0x020000",
                    "extraData" : "0x00",
                    "gasLimit" : "0x7fffffff",
                    "gasUsed" : "0x10412a73",
                    "hash" : "0xc9b2cfecbb200b8578865e7387fa1f59c6a773d26ab3d2a171be43f1350c7dc4",
                    "mixHash" : "0x0000000000000000000000000000000000000000000000000000000000000000",
                    "nonce" : "0x0000000000000000",
                    "number" : "0x01",
                    "parentHash" : "0x12db3b3517c9d0c77f18c07ad4b81815df4e35fef618b5b36cf0d096c4f06cdd",
                    "receiptTrie" : "0x01f201674d603c9ad919c56a330b0e346ab079f806e3dbb1ba92052930b6c84a",
                    "stateRoot" : "0x2805983a9b476ba3d15cdc7a006d27582e27c91d11b5b4cc9bc4591adcb2e19d",
                    "timestamp" : "0x03e8",
                    "transactionsTrie" : "0x4f40b1a66f9e31b429ba67ecb10a14dc8811caa0aba221c4a8dc06846dbfe61c",
                    "uncleHash" : "0x1dcc4de8dec75d7aab85b567b6ccd41ad312451b948a7413f0a142fd40d49347"
                },
                "rlp" : "0xf9031cf901faa012db3b3517c9d0c77f18c07ad4b81815df4e35fef618b5b36cf0d096c4f06cdda01dcc4de8dec75d7aab85b567b6ccd41ad312451b948a7413f0a142fd40d4934794945304eb96065b2a98b57a48a06ae28d285a71b5a02805983a9b476ba3d15cdc7a006d27582e27c91d11b5b4cc9bc4591adcb2e19da04f40b1a66f9e31b429ba67ecb10a14dc8811caa0aba221c4a8dc06846dbfe61ca001f201674d603c9ad919c56a330b0e346ab079f806e3dbb1ba92052930b6c84ab90100000000000000000000000000000000000000000000000000000000000000000000000000000000000000000000000000000000000000000000000000000000000000000000000000000000000000000000000000000000000000000000000000000000000000000000000000000000000000000000000000000000000000000000000000000000000000000000000000000000000000000000000000000000000000000000000000000000000000000000000000000000000000000000000000000000000000000000000000000000000000000000000000000000000000000000000000000000000000000000000000000000000000000000000000000000008302000001847fffffff8410412a738203e800a00000000000000000000000000000000000000000000000000000000000000000880000000000000000f9011bf90118800a8410412a7394095e7baea6a6c7c4c2dfeb977efac326af552d8784774e407cb8b27f000000000000000000000000945304eb96065b2a98b57a48a06ae28d285a71b57fffffffffffffffffffffffffffffffffffffffffffffffffffffffffffffffff7f0000000000000000000000010000000000000000000000000000000000000000971a7f000000000000000000000000ffffffffffffffffffffffffffffffffffffffff447f00000000000000000000000000000000000000000000000000000000000000006989206c0b8a01867bf11ca0d1c8cd0864b0c2dc4c191af0bfce34893a62f121fab04ce787fc04a43a084544a048faba18133b95571e7bf3d8f55c77fa48ad199584c0609a781c6259ecafe5fcc0",
                "transactions" : [
                    {
                        "data" : "0x7f000000000000000000000000945304eb96065b2a98b57a48a06ae28d285a71b57fffffffffffffffffffffffffffffffffffffffffffffffffffffffffffffffff7f0000000000000000000000010000000000000000000000000000000000000000971a7f000000000000000000000000ffffffffffffffffffffffffffffffffffffffff447f00000000000000000000000000000000000000000000000000000000000000006989206c0b8a01867bf1",
                        "gasLimit" : "0x10412a73",
                        "gasPrice" : "0x0a",
                        "nonce" : "0x00",
                        "r" : "0xd1c8cd0864b0c2dc4c191af0bfce34893a62f121fab04ce787fc04a43a084544",
                        "s" : "0x48faba18133b95571e7bf3d8f55c77fa48ad199584c0609a781c6259ecafe5fc",
                        "sender" : "0xa94f5374fce5edbc8e2a8697c15331677e6ebf0b",
                        "to" : "0x095e7baea6a6c7c4c2dfeb977efac326af552d87",
                        "v" : "0x1c",
                        "value" : "0x774e407c"
                    }
                ],
                "uncleHeaders" : [
                ]
            }
        ],
        "genesisBlockHeader" : {
            "bloom" : "0x00000000000000000000000000000000000000000000000000000000000000000000000000000000000000000000000000000000000000000000000000000000000000000000000000000000000000000000000000000000000000000000000000000000000000000000000000000000000000000000000000000000000000000000000000000000000000000000000000000000000000000000000000000000000000000000000000000000000000000000000000000000000000000000000000000000000000000000000000000000000000000000000000000000000000000000000000000000000000000000000000000000000000000000000000000000",
            "coinbase" : "0x945304eb96065b2a98b57a48a06ae28d285a71b5",
            "difficulty" : "0x020000",
            "extraData" : "0x00",
            "gasLimit" : "0x7fffffff",
            "gasUsed" : "0x00",
            "hash" : "0x12db3b3517c9d0c77f18c07ad4b81815df4e35fef618b5b36cf0d096c4f06cdd",
            "mixHash" : "0x0000000000000000000000000000000000000000000000000000000000000000",
            "nonce" : "0x0000000000000000",
            "number" : "0x00",
            "parentHash" : "0x0000000000000000000000000000000000000000000000000000000000000000",
            "receiptTrie" : "0x56e81f171bcc55a6ff8345e692c0f86e5b48e01b996cadc001622fb5e363b421",
            "stateRoot" : "0xa90b34ebacf338caeab8cf441cabd3307e7cd7c8c9154646930e0715cf84c20c",
            "timestamp" : "0x00",
            "transactionsTrie" : "0x56e81f171bcc55a6ff8345e692c0f86e5b48e01b996cadc001622fb5e363b421",
            "uncleHash" : "0x1dcc4de8dec75d7aab85b567b6ccd41ad312451b948a7413f0a142fd40d49347"
        },
        "genesisRLP" : "0xf901f9f901f4a00000000000000000000000000000000000000000000000000000000000000000a01dcc4de8dec75d7aab85b567b6ccd41ad312451b948a7413f0a142fd40d4934794945304eb96065b2a98b57a48a06ae28d285a71b5a0a90b34ebacf338caeab8cf441cabd3307e7cd7c8c9154646930e0715cf84c20ca056e81f171bcc55a6ff8345e692c0f86e5b48e01b996cadc001622fb5e363b421a056e81f171bcc55a6ff8345e692c0f86e5b48e01b996cadc001622fb5e363b421b90100000000000000000000000000000000000000000000000000000000000000000000000000000000000000000000000000000000000000000000000000000000000000000000000000000000000000000000000000000000000000000000000000000000000000000000000000000000000000000000000000000000000000000000000000000000000000000000000000000000000000000000000000000000000000000000000000000000000000000000000000000000000000000000000000000000000000000000000000000000000000000000000000000000000000000000000000000000000000000000000000000000000000000000000000000000008302000080847fffffff808000a00000000000000000000000000000000000000000000000000000000000000000880000000000000000c0c0",
        "lastblockhash" : "0xc9b2cfecbb200b8578865e7387fa1f59c6a773d26ab3d2a171be43f1350c7dc4",
        "network" : "Berlin",
        "postState" : {
            "0x095e7baea6a6c7c4c2dfeb977efac326af552d87" : {
                "balance" : "0x00",
                "code" : "0x7f000000000000000000000000945304eb96065b2a98b57a48a06ae28d285a71b57fffffffffffffffffffffffffffffffffffffffffffffffffffffffffffffffff7f0000000000000000000000010000000000000000000000000000000000000000971a7f000000000000000000000000ffffffffffffffffffffffffffffffffffffffff447f00000000000000000000000000000000000000000000000000000000000000006989206c0b8a01867bf155",
                "nonce" : "0x00",
                "storage" : {
                }
            },
            "0x945304eb96065b2a98b57a48a06ae28d285a71b5" : {
                "balance" : "0x1bc16d67f153a8ac",
                "code" : "0x6000355415600957005b60203560003555",
                "nonce" : "0x00",
                "storage" : {
                }
            },
            "0xa94f5374fce5edbc8e2a8697c15331677e6ebf0b" : {
                "balance" : "0x0de0b6b304d85782",
                "code" : "0x",
                "nonce" : "0x01",
                "storage" : {
                }
            }
        },
        "pre" : {
            "0x095e7baea6a6c7c4c2dfeb977efac326af552d87" : {
                "balance" : "0x00",
                "code" : "0x7f000000000000000000000000945304eb96065b2a98b57a48a06ae28d285a71b57fffffffffffffffffffffffffffffffffffffffffffffffffffffffffffffffff7f0000000000000000000000010000000000000000000000000000000000000000971a7f000000000000000000000000ffffffffffffffffffffffffffffffffffffffff447f00000000000000000000000000000000000000000000000000000000000000006989206c0b8a01867bf155",
                "nonce" : "0x00",
                "storage" : {
                }
            },
            "0x945304eb96065b2a98b57a48a06ae28d285a71b5" : {
                "balance" : "0x2e",
                "code" : "0x6000355415600957005b60203560003555",
                "nonce" : "0x00",
                "storage" : {
                }
            },
            "0xa94f5374fce5edbc8e2a8697c15331677e6ebf0b" : {
                "balance" : "0x0de0b6b3a7640000",
                "code" : "0x",
                "nonce" : "0x00",
                "storage" : {
                }
            }
        },
        "sealEngine" : "NoProof"
    },
    "randomStatetest302_d0g0v0_Istanbul" : {
        "_info" : {
            "comment" : "",
            "filling-rpc-server" : "evm version 1.11.0-unstable-dbd6c132-20230214",
            "filling-tool-version" : "retesteth-0.2.3-postmerge+commit.5691d0b9.Linux.g++",
            "generatedTestHash" : "03125b3eb5188ed155099b50411260ba80344a93930a4a3c421d70b7c5e036dc",
            "lllcversion" : "Version: 0.5.14-develop.2023.2.14+commit.a096d7a9.Linux.g++",
            "solidity" : "Version: 0.8.5+commit.a4f2e591.Linux.g++",
            "source" : "src/GeneralStateTestsFiller/stRandom/randomStatetest302Filler.json",
            "sourceHash" : "c49e42e87baf30aa162f78fb2da7c07aca3657aa0a22e2558c7cf1bfebc5bdbc"
        },
        "blocks" : [
            {
                "blockHeader" : {
                    "bloom" : "0x00000000000000000000000000000000000000000000000000000000000000000000000000000000000000000000000000000000000000000000000000000000000000000000000000000000000000000000000000000000000000000000000000000000000000000000000000000000000000000000000000000000000000000000000000000000000000000000000000000000000000000000000000000000000000000000000000000000000000000000000000000000000000000000000000000000000000000000000000000000000000000000000000000000000000000000000000000000000000000000000000000000000000000000000000000000",
                    "coinbase" : "0x945304eb96065b2a98b57a48a06ae28d285a71b5",
                    "difficulty" : "0x020000",
                    "extraData" : "0x00",
                    "gasLimit" : "0x7fffffff",
                    "gasUsed" : "0x10412a73",
                    "hash" : "0xc9b2cfecbb200b8578865e7387fa1f59c6a773d26ab3d2a171be43f1350c7dc4",
                    "mixHash" : "0x0000000000000000000000000000000000000000000000000000000000000000",
                    "nonce" : "0x0000000000000000",
                    "number" : "0x01",
                    "parentHash" : "0x12db3b3517c9d0c77f18c07ad4b81815df4e35fef618b5b36cf0d096c4f06cdd",
                    "receiptTrie" : "0x01f201674d603c9ad919c56a330b0e346ab079f806e3dbb1ba92052930b6c84a",
                    "stateRoot" : "0x2805983a9b476ba3d15cdc7a006d27582e27c91d11b5b4cc9bc4591adcb2e19d",
                    "timestamp" : "0x03e8",
                    "transactionsTrie" : "0x4f40b1a66f9e31b429ba67ecb10a14dc8811caa0aba221c4a8dc06846dbfe61c",
                    "uncleHash" : "0x1dcc4de8dec75d7aab85b567b6ccd41ad312451b948a7413f0a142fd40d49347"
                },
                "rlp" : "0xf9031cf901faa012db3b3517c9d0c77f18c07ad4b81815df4e35fef618b5b36cf0d096c4f06cdda01dcc4de8dec75d7aab85b567b6ccd41ad312451b948a7413f0a142fd40d4934794945304eb96065b2a98b57a48a06ae28d285a71b5a02805983a9b476ba3d15cdc7a006d27582e27c91d11b5b4cc9bc4591adcb2e19da04f40b1a66f9e31b429ba67ecb10a14dc8811caa0aba221c4a8dc06846dbfe61ca001f201674d603c9ad919c56a330b0e346ab079f806e3dbb1ba92052930b6c84ab90100000000000000000000000000000000000000000000000000000000000000000000000000000000000000000000000000000000000000000000000000000000000000000000000000000000000000000000000000000000000000000000000000000000000000000000000000000000000000000000000000000000000000000000000000000000000000000000000000000000000000000000000000000000000000000000000000000000000000000000000000000000000000000000000000000000000000000000000000000000000000000000000000000000000000000000000000000000000000000000000000000000000000000000000000000000008302000001847fffffff8410412a738203e800a00000000000000000000000000000000000000000000000000000000000000000880000000000000000f9011bf90118800a8410412a7394095e7baea6a6c7c4c2dfeb977efac326af552d8784774e407cb8b27f000000000000000000000000945304eb96065b2a98b57a48a06ae28d285a71b57fffffffffffffffffffffffffffffffffffffffffffffffffffffffffffffffff7f0000000000000000000000010000000000000000000000000000000000000000971a7f000000000000000000000000ffffffffffffffffffffffffffffffffffffffff447f00000000000000000000000000000000000000000000000000000000000000006989206c0b8a01867bf11ca0d1c8cd0864b0c2dc4c191af0bfce34893a62f121fab04ce787fc04a43a084544a048faba18133b95571e7bf3d8f55c77fa48ad199584c0609a781c6259ecafe5fcc0",
                "transactions" : [
                    {
                        "data" : "0x7f000000000000000000000000945304eb96065b2a98b57a48a06ae28d285a71b57fffffffffffffffffffffffffffffffffffffffffffffffffffffffffffffffff7f0000000000000000000000010000000000000000000000000000000000000000971a7f000000000000000000000000ffffffffffffffffffffffffffffffffffffffff447f00000000000000000000000000000000000000000000000000000000000000006989206c0b8a01867bf1",
                        "gasLimit" : "0x10412a73",
                        "gasPrice" : "0x0a",
                        "nonce" : "0x00",
                        "r" : "0xd1c8cd0864b0c2dc4c191af0bfce34893a62f121fab04ce787fc04a43a084544",
                        "s" : "0x48faba18133b95571e7bf3d8f55c77fa48ad199584c0609a781c6259ecafe5fc",
                        "sender" : "0xa94f5374fce5edbc8e2a8697c15331677e6ebf0b",
                        "to" : "0x095e7baea6a6c7c4c2dfeb977efac326af552d87",
                        "v" : "0x1c",
                        "value" : "0x774e407c"
                    }
                ],
                "uncleHeaders" : [
                ]
            }
        ],
        "genesisBlockHeader" : {
            "bloom" : "0x00000000000000000000000000000000000000000000000000000000000000000000000000000000000000000000000000000000000000000000000000000000000000000000000000000000000000000000000000000000000000000000000000000000000000000000000000000000000000000000000000000000000000000000000000000000000000000000000000000000000000000000000000000000000000000000000000000000000000000000000000000000000000000000000000000000000000000000000000000000000000000000000000000000000000000000000000000000000000000000000000000000000000000000000000000000",
            "coinbase" : "0x945304eb96065b2a98b57a48a06ae28d285a71b5",
            "difficulty" : "0x020000",
            "extraData" : "0x00",
            "gasLimit" : "0x7fffffff",
            "gasUsed" : "0x00",
            "hash" : "0x12db3b3517c9d0c77f18c07ad4b81815df4e35fef618b5b36cf0d096c4f06cdd",
            "mixHash" : "0x0000000000000000000000000000000000000000000000000000000000000000",
            "nonce" : "0x0000000000000000",
            "number" : "0x00",
            "parentHash" : "0x0000000000000000000000000000000000000000000000000000000000000000",
            "receiptTrie" : "0x56e81f171bcc55a6ff8345e692c0f86e5b48e01b996cadc001622fb5e363b421",
            "stateRoot" : "0xa90b34ebacf338caeab8cf441cabd3307e7cd7c8c9154646930e0715cf84c20c",
            "timestamp" : "0x00",
            "transactionsTrie" : "0x56e81f171bcc55a6ff8345e692c0f86e5b48e01b996cadc001622fb5e363b421",
            "uncleHash" : "0x1dcc4de8dec75d7aab85b567b6ccd41ad312451b948a7413f0a142fd40d49347"
        },
        "genesisRLP" : "0xf901f9f901f4a00000000000000000000000000000000000000000000000000000000000000000a01dcc4de8dec75d7aab85b567b6ccd41ad312451b948a7413f0a142fd40d4934794945304eb96065b2a98b57a48a06ae28d285a71b5a0a90b34ebacf338caeab8cf441cabd3307e7cd7c8c9154646930e0715cf84c20ca056e81f171bcc55a6ff8345e692c0f86e5b48e01b996cadc001622fb5e363b421a056e81f171bcc55a6ff8345e692c0f86e5b48e01b996cadc001622fb5e363b421b90100000000000000000000000000000000000000000000000000000000000000000000000000000000000000000000000000000000000000000000000000000000000000000000000000000000000000000000000000000000000000000000000000000000000000000000000000000000000000000000000000000000000000000000000000000000000000000000000000000000000000000000000000000000000000000000000000000000000000000000000000000000000000000000000000000000000000000000000000000000000000000000000000000000000000000000000000000000000000000000000000000000000000000000000000000000008302000080847fffffff808000a00000000000000000000000000000000000000000000000000000000000000000880000000000000000c0c0",
        "lastblockhash" : "0xc9b2cfecbb200b8578865e7387fa1f59c6a773d26ab3d2a171be43f1350c7dc4",
        "network" : "Istanbul",
        "postState" : {
            "0x095e7baea6a6c7c4c2dfeb977efac326af552d87" : {
                "balance" : "0x00",
                "code" : "0x7f000000000000000000000000945304eb96065b2a98b57a48a06ae28d285a71b57fffffffffffffffffffffffffffffffffffffffffffffffffffffffffffffffff7f0000000000000000000000010000000000000000000000000000000000000000971a7f000000000000000000000000ffffffffffffffffffffffffffffffffffffffff447f00000000000000000000000000000000000000000000000000000000000000006989206c0b8a01867bf155",
                "nonce" : "0x00",
                "storage" : {
                }
            },
            "0x945304eb96065b2a98b57a48a06ae28d285a71b5" : {
                "balance" : "0x1bc16d67f153a8ac",
                "code" : "0x6000355415600957005b60203560003555",
                "nonce" : "0x00",
                "storage" : {
                }
            },
            "0xa94f5374fce5edbc8e2a8697c15331677e6ebf0b" : {
                "balance" : "0x0de0b6b304d85782",
                "code" : "0x",
                "nonce" : "0x01",
                "storage" : {
                }
            }
        },
        "pre" : {
            "0x095e7baea6a6c7c4c2dfeb977efac326af552d87" : {
                "balance" : "0x00",
                "code" : "0x7f000000000000000000000000945304eb96065b2a98b57a48a06ae28d285a71b57fffffffffffffffffffffffffffffffffffffffffffffffffffffffffffffffff7f0000000000000000000000010000000000000000000000000000000000000000971a7f000000000000000000000000ffffffffffffffffffffffffffffffffffffffff447f00000000000000000000000000000000000000000000000000000000000000006989206c0b8a01867bf155",
                "nonce" : "0x00",
                "storage" : {
                }
            },
            "0x945304eb96065b2a98b57a48a06ae28d285a71b5" : {
                "balance" : "0x2e",
                "code" : "0x6000355415600957005b60203560003555",
                "nonce" : "0x00",
                "storage" : {
                }
            },
            "0xa94f5374fce5edbc8e2a8697c15331677e6ebf0b" : {
                "balance" : "0x0de0b6b3a7640000",
                "code" : "0x",
                "nonce" : "0x00",
                "storage" : {
                }
            }
        },
        "sealEngine" : "NoProof"
    },
    "randomStatetest302_d0g0v0_London" : {
        "_info" : {
            "comment" : "",
            "filling-rpc-server" : "evm version 1.11.0-unstable-dbd6c132-20230214",
            "filling-tool-version" : "retesteth-0.2.3-postmerge+commit.5691d0b9.Linux.g++",
            "generatedTestHash" : "657a772442b97fb45f75d3d91c9a75908454f17484e3a5cf3a35457e334dd523",
            "lllcversion" : "Version: 0.5.14-develop.2023.2.14+commit.a096d7a9.Linux.g++",
            "solidity" : "Version: 0.8.5+commit.a4f2e591.Linux.g++",
            "source" : "src/GeneralStateTestsFiller/stRandom/randomStatetest302Filler.json",
            "sourceHash" : "c49e42e87baf30aa162f78fb2da7c07aca3657aa0a22e2558c7cf1bfebc5bdbc"
        },
        "blocks" : [
            {
                "blockHeader" : {
                    "baseFeePerGas" : "0x0a",
                    "bloom" : "0x00000000000000000000000000000000000000000000000000000000000000000000000000000000000000000000000000000000000000000000000000000000000000000000000000000000000000000000000000000000000000000000000000000000000000000000000000000000000000000000000000000000000000000000000000000000000000000000000000000000000000000000000000000000000000000000000000000000000000000000000000000000000000000000000000000000000000000000000000000000000000000000000000000000000000000000000000000000000000000000000000000000000000000000000000000000",
                    "coinbase" : "0x945304eb96065b2a98b57a48a06ae28d285a71b5",
                    "difficulty" : "0x020000",
                    "extraData" : "0x00",
                    "gasLimit" : "0x7fffffff",
                    "gasUsed" : "0x10412a73",
                    "hash" : "0xe60881023e7b4b68484a522c142269403ef8e5b31c527eee57c670368b244105",
                    "mixHash" : "0x0000000000000000000000000000000000000000000000000000000000000000",
                    "nonce" : "0x0000000000000000",
                    "number" : "0x01",
                    "parentHash" : "0x6eabc9bc9be3383c26e4486a23216bc911ac9fe42d41373aa42ebabbf66138a6",
                    "receiptTrie" : "0x01f201674d603c9ad919c56a330b0e346ab079f806e3dbb1ba92052930b6c84a",
                    "stateRoot" : "0x3faad4db098ab35ce75598358576386a18e6df90a9ff910a07821512e58806d4",
                    "timestamp" : "0x03e8",
                    "transactionsTrie" : "0x4f40b1a66f9e31b429ba67ecb10a14dc8811caa0aba221c4a8dc06846dbfe61c",
                    "uncleHash" : "0x1dcc4de8dec75d7aab85b567b6ccd41ad312451b948a7413f0a142fd40d49347"
                },
                "rlp" : "0xf9031df901fba06eabc9bc9be3383c26e4486a23216bc911ac9fe42d41373aa42ebabbf66138a6a01dcc4de8dec75d7aab85b567b6ccd41ad312451b948a7413f0a142fd40d4934794945304eb96065b2a98b57a48a06ae28d285a71b5a03faad4db098ab35ce75598358576386a18e6df90a9ff910a07821512e58806d4a04f40b1a66f9e31b429ba67ecb10a14dc8811caa0aba221c4a8dc06846dbfe61ca001f201674d603c9ad919c56a330b0e346ab079f806e3dbb1ba92052930b6c84ab90100000000000000000000000000000000000000000000000000000000000000000000000000000000000000000000000000000000000000000000000000000000000000000000000000000000000000000000000000000000000000000000000000000000000000000000000000000000000000000000000000000000000000000000000000000000000000000000000000000000000000000000000000000000000000000000000000000000000000000000000000000000000000000000000000000000000000000000000000000000000000000000000000000000000000000000000000000000000000000000000000000000000000000000000000000000008302000001847fffffff8410412a738203e800a000000000000000000000000000000000000000000000000000000000000000008800000000000000000af9011bf90118800a8410412a7394095e7baea6a6c7c4c2dfeb977efac326af552d8784774e407cb8b27f000000000000000000000000945304eb96065b2a98b57a48a06ae28d285a71b57fffffffffffffffffffffffffffffffffffffffffffffffffffffffffffffffff7f0000000000000000000000010000000000000000000000000000000000000000971a7f000000000000000000000000ffffffffffffffffffffffffffffffffffffffff447f00000000000000000000000000000000000000000000000000000000000000006989206c0b8a01867bf11ca0d1c8cd0864b0c2dc4c191af0bfce34893a62f121fab04ce787fc04a43a084544a048faba18133b95571e7bf3d8f55c77fa48ad199584c0609a781c6259ecafe5fcc0",
                "transactions" : [
                    {
                        "data" : "0x7f000000000000000000000000945304eb96065b2a98b57a48a06ae28d285a71b57fffffffffffffffffffffffffffffffffffffffffffffffffffffffffffffffff7f0000000000000000000000010000000000000000000000000000000000000000971a7f000000000000000000000000ffffffffffffffffffffffffffffffffffffffff447f00000000000000000000000000000000000000000000000000000000000000006989206c0b8a01867bf1",
                        "gasLimit" : "0x10412a73",
                        "gasPrice" : "0x0a",
                        "nonce" : "0x00",
                        "r" : "0xd1c8cd0864b0c2dc4c191af0bfce34893a62f121fab04ce787fc04a43a084544",
                        "s" : "0x48faba18133b95571e7bf3d8f55c77fa48ad199584c0609a781c6259ecafe5fc",
                        "sender" : "0xa94f5374fce5edbc8e2a8697c15331677e6ebf0b",
                        "to" : "0x095e7baea6a6c7c4c2dfeb977efac326af552d87",
                        "v" : "0x1c",
                        "value" : "0x774e407c"
                    }
                ],
                "uncleHeaders" : [
                ]
            }
        ],
        "genesisBlockHeader" : {
            "baseFeePerGas" : "0x0b",
            "bloom" : "0x00000000000000000000000000000000000000000000000000000000000000000000000000000000000000000000000000000000000000000000000000000000000000000000000000000000000000000000000000000000000000000000000000000000000000000000000000000000000000000000000000000000000000000000000000000000000000000000000000000000000000000000000000000000000000000000000000000000000000000000000000000000000000000000000000000000000000000000000000000000000000000000000000000000000000000000000000000000000000000000000000000000000000000000000000000000",
            "coinbase" : "0x945304eb96065b2a98b57a48a06ae28d285a71b5",
            "difficulty" : "0x020000",
            "extraData" : "0x00",
            "gasLimit" : "0x7fffffff",
            "gasUsed" : "0x00",
            "hash" : "0x6eabc9bc9be3383c26e4486a23216bc911ac9fe42d41373aa42ebabbf66138a6",
            "mixHash" : "0x0000000000000000000000000000000000000000000000000000000000000000",
            "nonce" : "0x0000000000000000",
            "number" : "0x00",
            "parentHash" : "0x0000000000000000000000000000000000000000000000000000000000000000",
            "receiptTrie" : "0x56e81f171bcc55a6ff8345e692c0f86e5b48e01b996cadc001622fb5e363b421",
            "stateRoot" : "0xa90b34ebacf338caeab8cf441cabd3307e7cd7c8c9154646930e0715cf84c20c",
            "timestamp" : "0x00",
            "transactionsTrie" : "0x56e81f171bcc55a6ff8345e692c0f86e5b48e01b996cadc001622fb5e363b421",
            "uncleHash" : "0x1dcc4de8dec75d7aab85b567b6ccd41ad312451b948a7413f0a142fd40d49347"
        },
        "genesisRLP" : "0xf901faf901f5a00000000000000000000000000000000000000000000000000000000000000000a01dcc4de8dec75d7aab85b567b6ccd41ad312451b948a7413f0a142fd40d4934794945304eb96065b2a98b57a48a06ae28d285a71b5a0a90b34ebacf338caeab8cf441cabd3307e7cd7c8c9154646930e0715cf84c20ca056e81f171bcc55a6ff8345e692c0f86e5b48e01b996cadc001622fb5e363b421a056e81f171bcc55a6ff8345e692c0f86e5b48e01b996cadc001622fb5e363b421b90100000000000000000000000000000000000000000000000000000000000000000000000000000000000000000000000000000000000000000000000000000000000000000000000000000000000000000000000000000000000000000000000000000000000000000000000000000000000000000000000000000000000000000000000000000000000000000000000000000000000000000000000000000000000000000000000000000000000000000000000000000000000000000000000000000000000000000000000000000000000000000000000000000000000000000000000000000000000000000000000000000000000000000000000000000000008302000080847fffffff808000a000000000000000000000000000000000000000000000000000000000000000008800000000000000000bc0c0",
        "lastblockhash" : "0xe60881023e7b4b68484a522c142269403ef8e5b31c527eee57c670368b244105",
        "network" : "London",
        "postState" : {
            "0x095e7baea6a6c7c4c2dfeb977efac326af552d87" : {
                "balance" : "0x00",
                "code" : "0x7f000000000000000000000000945304eb96065b2a98b57a48a06ae28d285a71b57fffffffffffffffffffffffffffffffffffffffffffffffffffffffffffffffff7f0000000000000000000000010000000000000000000000000000000000000000971a7f000000000000000000000000ffffffffffffffffffffffffffffffffffffffff447f00000000000000000000000000000000000000000000000000000000000000006989206c0b8a01867bf155",
                "nonce" : "0x00",
                "storage" : {
                }
            },
            "0x945304eb96065b2a98b57a48a06ae28d285a71b5" : {
                "balance" : "0x1bc16d674ec8002e",
                "code" : "0x6000355415600957005b60203560003555",
                "nonce" : "0x00",
                "storage" : {
                }
            },
            "0xa94f5374fce5edbc8e2a8697c15331677e6ebf0b" : {
                "balance" : "0x0de0b6b304d85782",
                "code" : "0x",
                "nonce" : "0x01",
                "storage" : {
                }
            }
        },
        "pre" : {
            "0x095e7baea6a6c7c4c2dfeb977efac326af552d87" : {
                "balance" : "0x00",
                "code" : "0x7f000000000000000000000000945304eb96065b2a98b57a48a06ae28d285a71b57fffffffffffffffffffffffffffffffffffffffffffffffffffffffffffffffff7f0000000000000000000000010000000000000000000000000000000000000000971a7f000000000000000000000000ffffffffffffffffffffffffffffffffffffffff447f00000000000000000000000000000000000000000000000000000000000000006989206c0b8a01867bf155",
                "nonce" : "0x00",
                "storage" : {
                }
            },
            "0x945304eb96065b2a98b57a48a06ae28d285a71b5" : {
                "balance" : "0x2e",
                "code" : "0x6000355415600957005b60203560003555",
                "nonce" : "0x00",
                "storage" : {
                }
            },
            "0xa94f5374fce5edbc8e2a8697c15331677e6ebf0b" : {
                "balance" : "0x0de0b6b3a7640000",
                "code" : "0x",
                "nonce" : "0x00",
                "storage" : {
                }
            }
        },
        "sealEngine" : "NoProof"
    },
    "randomStatetest302_d0g0v0_Merge" : {
        "_info" : {
            "comment" : "",
            "filling-rpc-server" : "evm version 1.11.0-unstable-dbd6c132-20230214",
            "filling-tool-version" : "retesteth-0.2.3-postmerge+commit.5691d0b9.Linux.g++",
            "generatedTestHash" : "bdb6aa5e58d0d03558b708276354a1eddd95da33c0e01a489d9150cdaf6c4825",
            "lllcversion" : "Version: 0.5.14-develop.2023.2.14+commit.a096d7a9.Linux.g++",
            "solidity" : "Version: 0.8.5+commit.a4f2e591.Linux.g++",
            "source" : "src/GeneralStateTestsFiller/stRandom/randomStatetest302Filler.json",
            "sourceHash" : "c49e42e87baf30aa162f78fb2da7c07aca3657aa0a22e2558c7cf1bfebc5bdbc"
        },
        "blocks" : [
            {
                "blockHeader" : {
                    "baseFeePerGas" : "0x0a",
                    "bloom" : "0x00000000000000000000000000000000000000000000000000000000000000000000000000000000000000000000000000000000000000000000000000000000000000000000000000000000000000000000000000000000000000000000000000000000000000000000000000000000000000000000000000000000000000000000000000000000000000000000000000000000000000000000000000000000000000000000000000000000000000000000000000000000000000000000000000000000000000000000000000000000000000000000000000000000000000000000000000000000000000000000000000000000000000000000000000000000",
                    "coinbase" : "0x945304eb96065b2a98b57a48a06ae28d285a71b5",
                    "difficulty" : "0x00",
                    "extraData" : "0x00",
                    "gasLimit" : "0x7fffffff",
                    "gasUsed" : "0x10412a73",
                    "hash" : "0x0b6ccdbafdafbc4d845b4fdfd1f2b05abce9c2584d9d2482537d1174a56f27d6",
                    "mixHash" : "0x0000000000000000000000000000000000000000000000000000000000020000",
                    "nonce" : "0x0000000000000000",
                    "number" : "0x01",
                    "parentHash" : "0xd5d3e4f502d4e747c31ff3fb38a053d2dcbc5465d3acc0c8405621270f39d3ab",
                    "receiptTrie" : "0x01f201674d603c9ad919c56a330b0e346ab079f806e3dbb1ba92052930b6c84a",
                    "stateRoot" : "0xff9c42c3701221c98989ea996b6e7e855c9c201f456b207ff50f27df1f827bc0",
                    "timestamp" : "0x03e8",
                    "transactionsTrie" : "0x4f40b1a66f9e31b429ba67ecb10a14dc8811caa0aba221c4a8dc06846dbfe61c",
                    "uncleHash" : "0x1dcc4de8dec75d7aab85b567b6ccd41ad312451b948a7413f0a142fd40d49347"
                },
                "rlp" : "0xf9031af901f8a0d5d3e4f502d4e747c31ff3fb38a053d2dcbc5465d3acc0c8405621270f39d3aba01dcc4de8dec75d7aab85b567b6ccd41ad312451b948a7413f0a142fd40d4934794945304eb96065b2a98b57a48a06ae28d285a71b5a0ff9c42c3701221c98989ea996b6e7e855c9c201f456b207ff50f27df1f827bc0a04f40b1a66f9e31b429ba67ecb10a14dc8811caa0aba221c4a8dc06846dbfe61ca001f201674d603c9ad919c56a330b0e346ab079f806e3dbb1ba92052930b6c84ab90100000000000000000000000000000000000000000000000000000000000000000000000000000000000000000000000000000000000000000000000000000000000000000000000000000000000000000000000000000000000000000000000000000000000000000000000000000000000000000000000000000000000000000000000000000000000000000000000000000000000000000000000000000000000000000000000000000000000000000000000000000000000000000000000000000000000000000000000000000000000000000000000000000000000000000000000000000000000000000000000000000000000000000000000000000000008001847fffffff8410412a738203e800a000000000000000000000000000000000000000000000000000000000000200008800000000000000000af9011bf90118800a8410412a7394095e7baea6a6c7c4c2dfeb977efac326af552d8784774e407cb8b27f000000000000000000000000945304eb96065b2a98b57a48a06ae28d285a71b57fffffffffffffffffffffffffffffffffffffffffffffffffffffffffffffffff7f0000000000000000000000010000000000000000000000000000000000000000971a7f000000000000000000000000ffffffffffffffffffffffffffffffffffffffff447f00000000000000000000000000000000000000000000000000000000000000006989206c0b8a01867bf11ca0d1c8cd0864b0c2dc4c191af0bfce34893a62f121fab04ce787fc04a43a084544a048faba18133b95571e7bf3d8f55c77fa48ad199584c0609a781c6259ecafe5fcc0",
                "transactions" : [
                    {
                        "data" : "0x7f000000000000000000000000945304eb96065b2a98b57a48a06ae28d285a71b57fffffffffffffffffffffffffffffffffffffffffffffffffffffffffffffffff7f0000000000000000000000010000000000000000000000000000000000000000971a7f000000000000000000000000ffffffffffffffffffffffffffffffffffffffff447f00000000000000000000000000000000000000000000000000000000000000006989206c0b8a01867bf1",
                        "gasLimit" : "0x10412a73",
                        "gasPrice" : "0x0a",
                        "nonce" : "0x00",
                        "r" : "0xd1c8cd0864b0c2dc4c191af0bfce34893a62f121fab04ce787fc04a43a084544",
                        "s" : "0x48faba18133b95571e7bf3d8f55c77fa48ad199584c0609a781c6259ecafe5fc",
                        "sender" : "0xa94f5374fce5edbc8e2a8697c15331677e6ebf0b",
                        "to" : "0x095e7baea6a6c7c4c2dfeb977efac326af552d87",
                        "v" : "0x1c",
                        "value" : "0x774e407c"
                    }
                ],
                "uncleHeaders" : [
                ]
            }
        ],
        "genesisBlockHeader" : {
            "baseFeePerGas" : "0x0b",
            "bloom" : "0x00000000000000000000000000000000000000000000000000000000000000000000000000000000000000000000000000000000000000000000000000000000000000000000000000000000000000000000000000000000000000000000000000000000000000000000000000000000000000000000000000000000000000000000000000000000000000000000000000000000000000000000000000000000000000000000000000000000000000000000000000000000000000000000000000000000000000000000000000000000000000000000000000000000000000000000000000000000000000000000000000000000000000000000000000000000",
            "coinbase" : "0x945304eb96065b2a98b57a48a06ae28d285a71b5",
            "difficulty" : "0x00",
            "extraData" : "0x00",
            "gasLimit" : "0x7fffffff",
            "gasUsed" : "0x00",
            "hash" : "0xd5d3e4f502d4e747c31ff3fb38a053d2dcbc5465d3acc0c8405621270f39d3ab",
            "mixHash" : "0x0000000000000000000000000000000000000000000000000000000000020000",
            "nonce" : "0x0000000000000000",
            "number" : "0x00",
            "parentHash" : "0x0000000000000000000000000000000000000000000000000000000000000000",
            "receiptTrie" : "0x56e81f171bcc55a6ff8345e692c0f86e5b48e01b996cadc001622fb5e363b421",
            "stateRoot" : "0xa90b34ebacf338caeab8cf441cabd3307e7cd7c8c9154646930e0715cf84c20c",
            "timestamp" : "0x00",
            "transactionsTrie" : "0x56e81f171bcc55a6ff8345e692c0f86e5b48e01b996cadc001622fb5e363b421",
            "uncleHash" : "0x1dcc4de8dec75d7aab85b567b6ccd41ad312451b948a7413f0a142fd40d49347"
        },
        "genesisRLP" : "0xf901f7f901f2a00000000000000000000000000000000000000000000000000000000000000000a01dcc4de8dec75d7aab85b567b6ccd41ad312451b948a7413f0a142fd40d4934794945304eb96065b2a98b57a48a06ae28d285a71b5a0a90b34ebacf338caeab8cf441cabd3307e7cd7c8c9154646930e0715cf84c20ca056e81f171bcc55a6ff8345e692c0f86e5b48e01b996cadc001622fb5e363b421a056e81f171bcc55a6ff8345e692c0f86e5b48e01b996cadc001622fb5e363b421b90100000000000000000000000000000000000000000000000000000000000000000000000000000000000000000000000000000000000000000000000000000000000000000000000000000000000000000000000000000000000000000000000000000000000000000000000000000000000000000000000000000000000000000000000000000000000000000000000000000000000000000000000000000000000000000000000000000000000000000000000000000000000000000000000000000000000000000000000000000000000000000000000000000000000000000000000000000000000000000000000000000000000000000000000000000000008080847fffffff808000a000000000000000000000000000000000000000000000000000000000000200008800000000000000000bc0c0",
        "lastblockhash" : "0x0b6ccdbafdafbc4d845b4fdfd1f2b05abce9c2584d9d2482537d1174a56f27d6",
        "network" : "Merge",
        "postState" : {
            "0x095e7baea6a6c7c4c2dfeb977efac326af552d87" : {
                "balance" : "0x00",
                "code" : "0x7f000000000000000000000000945304eb96065b2a98b57a48a06ae28d285a71b57fffffffffffffffffffffffffffffffffffffffffffffffffffffffffffffffff7f0000000000000000000000010000000000000000000000000000000000000000971a7f000000000000000000000000ffffffffffffffffffffffffffffffffffffffff447f00000000000000000000000000000000000000000000000000000000000000006989206c0b8a01867bf155",
                "nonce" : "0x00",
                "storage" : {
                }
            },
            "0x945304eb96065b2a98b57a48a06ae28d285a71b5" : {
                "balance" : "0x2e",
                "code" : "0x6000355415600957005b60203560003555",
                "nonce" : "0x00",
                "storage" : {
                }
            },
            "0xa94f5374fce5edbc8e2a8697c15331677e6ebf0b" : {
                "balance" : "0x0de0b6b304d85782",
                "code" : "0x",
                "nonce" : "0x01",
                "storage" : {
                }
            }
        },
        "pre" : {
            "0x095e7baea6a6c7c4c2dfeb977efac326af552d87" : {
                "balance" : "0x00",
                "code" : "0x7f000000000000000000000000945304eb96065b2a98b57a48a06ae28d285a71b57fffffffffffffffffffffffffffffffffffffffffffffffffffffffffffffffff7f0000000000000000000000010000000000000000000000000000000000000000971a7f000000000000000000000000ffffffffffffffffffffffffffffffffffffffff447f00000000000000000000000000000000000000000000000000000000000000006989206c0b8a01867bf155",
                "nonce" : "0x00",
                "storage" : {
                }
            },
            "0x945304eb96065b2a98b57a48a06ae28d285a71b5" : {
                "balance" : "0x2e",
                "code" : "0x6000355415600957005b60203560003555",
                "nonce" : "0x00",
                "storage" : {
                }
            },
            "0xa94f5374fce5edbc8e2a8697c15331677e6ebf0b" : {
                "balance" : "0x0de0b6b3a7640000",
                "code" : "0x",
                "nonce" : "0x00",
                "storage" : {
                }
            }
        },
        "sealEngine" : "NoProof"
    }
}