{
    "randomStatetest233_d0g0v0_Berlin" : {
        "_info" : {
            "comment" : "",
            "filling-rpc-server" : "evm version 1.11.0-unstable-dbd6c132-20230214",
            "filling-tool-version" : "retesteth-0.2.3-postmerge+commit.5691d0b9.Linux.g++",
            "generatedTestHash" : "c5101f416d33e9117819b0b7257f9f5c20454dd9b24d9188cbf8bc53929f0beb",
            "lllcversion" : "Version: 0.5.14-develop.2023.2.14+commit.a096d7a9.Linux.g++",
            "solidity" : "Version: 0.8.5+commit.a4f2e591.Linux.g++",
            "source" : "src/GeneralStateTestsFiller/stRandom/randomStatetest233Filler.json",
            "sourceHash" : "cc2d112dbcb8e9db1ae95a4d5d9f78009304d8a1597f7aeb38893972192827eb"
        },
        "blocks" : [
            {
                "blockHeader" : {
                    "bloom" : "0x00000000000000000000000000000000000000000000000000000000000000000000000000000000000000000000000000000000000000000000000000000000000000000000000000000000000000000000000000000000000000000000000000000000000000000000000000000000000000000000000000000000000000000000000000000000000000000000000000000000000000000000000000000000000000000000000000000000000000000000000000000000000000000000000000000000000000000000000000000000000000000000000000000000000000000000000000000000000000000000000000000000000000000000000000000000",
                    "coinbase" : "0x945304eb96065b2a98b57a48a06ae28d285a71b5",
                    "difficulty" : "0x020000",
                    "extraData" : "0x00",
                    "gasLimit" : "0x7fffffff",
                    "gasUsed" : "0x16fb234b",
                    "hash" : "0xea6673cc7590bb11e41bd09a6bf891290a0d29cde9046daf62e66d1dd82b12ad",
                    "mixHash" : "0x0000000000000000000000000000000000000000000000000000000000000000",
                    "nonce" : "0x0000000000000000",
                    "number" : "0x01",
                    "parentHash" : "0xcbfaa9c7d84d0eceb54c96ce5d68b04e383e420f44969681a99ce3637ca68836",
                    "receiptTrie" : "0xb634e6e9feade9b30a2b557a84c030a0b8410a57fd1798a16e3e4473ca33a53f",
                    "stateRoot" : "0x7340f6c8fc0045bd6bda25a4f2edc7c4d356fea9e92c6579ca47f85c239365da",
                    "timestamp" : "0x03e8",
                    "transactionsTrie" : "0xe0eb1cc24a82034d166e7f9ce397eaa128520dcaa531a654bc5a34ffcbb01072",
                    "uncleHash" : "0x1dcc4de8dec75d7aab85b567b6ccd41ad312451b948a7413f0a142fd40d49347"
                },
                "rlp" : "0xf902f3f901faa0cbfaa9c7d84d0eceb54c96ce5d68b04e383e420f44969681a99ce3637ca68836a01dcc4de8dec75d7aab85b567b6ccd41ad312451b948a7413f0a142fd40d4934794945304eb96065b2a98b57a48a06ae28d285a71b5a07340f6c8fc0045bd6bda25a4f2edc7c4d356fea9e92c6579ca47f85c239365daa0e0eb1cc24a82034d166e7f9ce397eaa128520dcaa531a654bc5a34ffcbb01072a0b634e6e9feade9b30a2b557a84c030a0b8410a57fd1798a16e3e4473ca33a53fb90100000000000000000000000000000000000000000000000000000000000000000000000000000000000000000000000000000000000000000000000000000000000000000000000000000000000000000000000000000000000000000000000000000000000000000000000000000000000000000000000000000000000000000000000000000000000000000000000000000000000000000000000000000000000000000000000000000000000000000000000000000000000000000000000000000000000000000000000000000000000000000000000000000000000000000000000000000000000000000000000000000000000000000000000000000000008302000001847fffffff8416fb234b8203e800a00000000000000000000000000000000000000000000000000000000000000000880000000000000000f8f3f8f1800a8416fb234b94095e7baea6a6c7c4c2dfeb977efac326af552d878477b5363eb88b7ffffffffffffffffffffffffffffffffffffffffffffffffffffffffffffffffe817fffffffffffffffffffffffffffffffffffffffffffffffffffffffffffffffff42057f000000000000000000000000ffffffffffffffffffffffffffffffffffffffff517f00000000000000000000000100000000000000000000000000000000000000006571541ca046771a9db324f2b0300c5ef60792d520fa2f44ed965c8c557659dcdddc29e006a02bd5fdf5e29c11dcc531c94dc47b1306928488507b906b2f650a469108ae1fe8c0",
                "transactions" : [
                    {
                        "data" : "0x7ffffffffffffffffffffffffffffffffffffffffffffffffffffffffffffffffe817fffffffffffffffffffffffffffffffffffffffffffffffffffffffffffffffff42057f000000000000000000000000ffffffffffffffffffffffffffffffffffffffff517f0000000000000000000000010000000000000000000000000000000000000000657154",
                        "gasLimit" : "0x16fb234b",
                        "gasPrice" : "0x0a",
                        "nonce" : "0x00",
                        "r" : "0x46771a9db324f2b0300c5ef60792d520fa2f44ed965c8c557659dcdddc29e006",
                        "s" : "0x2bd5fdf5e29c11dcc531c94dc47b1306928488507b906b2f650a469108ae1fe8",
                        "sender" : "0xa94f5374fce5edbc8e2a8697c15331677e6ebf0b",
                        "to" : "0x095e7baea6a6c7c4c2dfeb977efac326af552d87",
                        "v" : "0x1c",
                        "value" : "0x77b5363e"
                    }
                ],
                "uncleHeaders" : [
                ]
            }
        ],
        "genesisBlockHeader" : {
            "bloom" : "0x00000000000000000000000000000000000000000000000000000000000000000000000000000000000000000000000000000000000000000000000000000000000000000000000000000000000000000000000000000000000000000000000000000000000000000000000000000000000000000000000000000000000000000000000000000000000000000000000000000000000000000000000000000000000000000000000000000000000000000000000000000000000000000000000000000000000000000000000000000000000000000000000000000000000000000000000000000000000000000000000000000000000000000000000000000000",
            "coinbase" : "0x945304eb96065b2a98b57a48a06ae28d285a71b5",
            "difficulty" : "0x020000",
            "extraData" : "0x00",
            "gasLimit" : "0x7fffffff",
            "gasUsed" : "0x00",
            "hash" : "0xcbfaa9c7d84d0eceb54c96ce5d68b04e383e420f44969681a99ce3637ca68836",
            "mixHash" : "0x0000000000000000000000000000000000000000000000000000000000000000",
            "nonce" : "0x0000000000000000",
            "number" : "0x00",
            "parentHash" : "0x0000000000000000000000000000000000000000000000000000000000000000",
            "receiptTrie" : "0x56e81f171bcc55a6ff8345e692c0f86e5b48e01b996cadc001622fb5e363b421",
            "stateRoot" : "0xb1c3777757993e0bae9a1cacd9ca97e8a2f899b2e01725dfc302a2fc0cf69374",
            "timestamp" : "0x00",
            "transactionsTrie" : "0x56e81f171bcc55a6ff8345e692c0f86e5b48e01b996cadc001622fb5e363b421",
            "uncleHash" : "0x1dcc4de8dec75d7aab85b567b6ccd41ad312451b948a7413f0a142fd40d49347"
        },
        "genesisRLP" : "0xf901f9f901f4a00000000000000000000000000000000000000000000000000000000000000000a01dcc4de8dec75d7aab85b567b6ccd41ad312451b948a7413f0a142fd40d4934794945304eb96065b2a98b57a48a06ae28d285a71b5a0b1c3777757993e0bae9a1cacd9ca97e8a2f899b2e01725dfc302a2fc0cf69374a056e81f171bcc55a6ff8345e692c0f86e5b48e01b996cadc001622fb5e363b421a056e81f171bcc55a6ff8345e692c0f86e5b48e01b996cadc001622fb5e363b421b90100000000000000000000000000000000000000000000000000000000000000000000000000000000000000000000000000000000000000000000000000000000000000000000000000000000000000000000000000000000000000000000000000000000000000000000000000000000000000000000000000000000000000000000000000000000000000000000000000000000000000000000000000000000000000000000000000000000000000000000000000000000000000000000000000000000000000000000000000000000000000000000000000000000000000000000000000000000000000000000000000000000000000000000000000000000008302000080847fffffff808000a00000000000000000000000000000000000000000000000000000000000000000880000000000000000c0c0",
        "lastblockhash" : "0xea6673cc7590bb11e41bd09a6bf891290a0d29cde9046daf62e66d1dd82b12ad",
        "network" : "Berlin",
        "postState" : {
            "0x095e7baea6a6c7c4c2dfeb977efac326af552d87" : {
                "balance" : "0x00",
                "code" : "0x7ffffffffffffffffffffffffffffffffffffffffffffffffffffffffffffffffe817fffffffffffffffffffffffffffffffffffffffffffffffffffffffffffffffff42057f000000000000000000000000ffffffffffffffffffffffffffffffffffffffff517f000000000000000000000001000000000000000000000000000000000000000065715460005155",
                "nonce" : "0x00",
                "storage" : {
                }
            },
            "0x945304eb96065b2a98b57a48a06ae28d285a71b5" : {
                "balance" : "0x1bc16d683497611c",
                "code" : "0x6000355415600957005b60203560003555",
                "nonce" : "0x00",
                "storage" : {
                }
            },
            "0xa94f5374fce5edbc8e2a8697c15331677e6ebf0b" : {
                "balance" : "0x0de0b6b2c1949f12",
                "code" : "0x",
                "nonce" : "0x01",
                "storage" : {
                }
            }
        },
        "pre" : {
            "0x095e7baea6a6c7c4c2dfeb977efac326af552d87" : {
                "balance" : "0x00",
                "code" : "0x7ffffffffffffffffffffffffffffffffffffffffffffffffffffffffffffffffe817fffffffffffffffffffffffffffffffffffffffffffffffffffffffffffffffff42057f000000000000000000000000ffffffffffffffffffffffffffffffffffffffff517f000000000000000000000001000000000000000000000000000000000000000065715460005155",
                "nonce" : "0x00",
                "storage" : {
                }
            },
            "0x945304eb96065b2a98b57a48a06ae28d285a71b5" : {
                "balance" : "0x2e",
                "code" : "0x6000355415600957005b60203560003555",
                "nonce" : "0x00",
                "storage" : {
                }
            },
            "0xa94f5374fce5edbc8e2a8697c15331677e6ebf0b" : {
                "balance" : "0x0de0b6b3a7640000",
                "code" : "0x",
                "nonce" : "0x00",
                "storage" : {
                }
            }
        },
        "sealEngine" : "NoProof"
    },
    "randomStatetest233_d0g0v0_Istanbul" : {
        "_info" : {
            "comment" : "",
            "filling-rpc-server" : "evm version 1.11.0-unstable-dbd6c132-20230214",
            "filling-tool-version" : "retesteth-0.2.3-postmerge+commit.5691d0b9.Linux.g++",
            "generatedTestHash" : "ce0743124fdd18fbcb40a6759d1e26712bfc8c3d437d8f2c4bdf1ada4f4d8ea5",
            "lllcversion" : "Version: 0.5.14-develop.2023.2.14+commit.a096d7a9.Linux.g++",
            "solidity" : "Version: 0.8.5+commit.a4f2e591.Linux.g++",
            "source" : "src/GeneralStateTestsFiller/stRandom/randomStatetest233Filler.json",
            "sourceHash" : "cc2d112dbcb8e9db1ae95a4d5d9f78009304d8a1597f7aeb38893972192827eb"
        },
        "blocks" : [
            {
                "blockHeader" : {
                    "bloom" : "0x00000000000000000000000000000000000000000000000000000000000000000000000000000000000000000000000000000000000000000000000000000000000000000000000000000000000000000000000000000000000000000000000000000000000000000000000000000000000000000000000000000000000000000000000000000000000000000000000000000000000000000000000000000000000000000000000000000000000000000000000000000000000000000000000000000000000000000000000000000000000000000000000000000000000000000000000000000000000000000000000000000000000000000000000000000000",
                    "coinbase" : "0x945304eb96065b2a98b57a48a06ae28d285a71b5",
                    "difficulty" : "0x020000",
                    "extraData" : "0x00",
                    "gasLimit" : "0x7fffffff",
                    "gasUsed" : "0x16fb234b",
                    "hash" : "0xea6673cc7590bb11e41bd09a6bf891290a0d29cde9046daf62e66d1dd82b12ad",
                    "mixHash" : "0x0000000000000000000000000000000000000000000000000000000000000000",
                    "nonce" : "0x0000000000000000",
                    "number" : "0x01",
                    "parentHash" : "0xcbfaa9c7d84d0eceb54c96ce5d68b04e383e420f44969681a99ce3637ca68836",
                    "receiptTrie" : "0xb634e6e9feade9b30a2b557a84c030a0b8410a57fd1798a16e3e4473ca33a53f",
                    "stateRoot" : "0x7340f6c8fc0045bd6bda25a4f2edc7c4d356fea9e92c6579ca47f85c239365da",
                    "timestamp" : "0x03e8",
                    "transactionsTrie" : "0xe0eb1cc24a82034d166e7f9ce397eaa128520dcaa531a654bc5a34ffcbb01072",
                    "uncleHash" : "0x1dcc4de8dec75d7aab85b567b6ccd41ad312451b948a7413f0a142fd40d49347"
                },
                "rlp" : "0xf902f3f901faa0cbfaa9c7d84d0eceb54c96ce5d68b04e383e420f44969681a99ce3637ca68836a01dcc4de8dec75d7aab85b567b6ccd41ad312451b948a7413f0a142fd40d4934794945304eb96065b2a98b57a48a06ae28d285a71b5a07340f6c8fc0045bd6bda25a4f2edc7c4d356fea9e92c6579ca47f85c239365daa0e0eb1cc24a82034d166e7f9ce397eaa128520dcaa531a654bc5a34ffcbb01072a0b634e6e9feade9b30a2b557a84c030a0b8410a57fd1798a16e3e4473ca33a53fb90100000000000000000000000000000000000000000000000000000000000000000000000000000000000000000000000000000000000000000000000000000000000000000000000000000000000000000000000000000000000000000000000000000000000000000000000000000000000000000000000000000000000000000000000000000000000000000000000000000000000000000000000000000000000000000000000000000000000000000000000000000000000000000000000000000000000000000000000000000000000000000000000000000000000000000000000000000000000000000000000000000000000000000000000000000000008302000001847fffffff8416fb234b8203e800a00000000000000000000000000000000000000000000000000000000000000000880000000000000000f8f3f8f1800a8416fb234b94095e7baea6a6c7c4c2dfeb977efac326af552d878477b5363eb88b7ffffffffffffffffffffffffffffffffffffffffffffffffffffffffffffffffe817fffffffffffffffffffffffffffffffffffffffffffffffffffffffffffffffff42057f000000000000000000000000ffffffffffffffffffffffffffffffffffffffff517f00000000000000000000000100000000000000000000000000000000000000006571541ca046771a9db324f2b0300c5ef60792d520fa2f44ed965c8c557659dcdddc29e006a02bd5fdf5e29c11dcc531c94dc47b1306928488507b906b2f650a469108ae1fe8c0",
                "transactions" : [
                    {
                        "data" : "0x7ffffffffffffffffffffffffffffffffffffffffffffffffffffffffffffffffe817fffffffffffffffffffffffffffffffffffffffffffffffffffffffffffffffff42057f000000000000000000000000ffffffffffffffffffffffffffffffffffffffff517f0000000000000000000000010000000000000000000000000000000000000000657154",
                        "gasLimit" : "0x16fb234b",
                        "gasPrice" : "0x0a",
                        "nonce" : "0x00",
                        "r" : "0x46771a9db324f2b0300c5ef60792d520fa2f44ed965c8c557659dcdddc29e006",
                        "s" : "0x2bd5fdf5e29c11dcc531c94dc47b1306928488507b906b2f650a469108ae1fe8",
                        "sender" : "0xa94f5374fce5edbc8e2a8697c15331677e6ebf0b",
                        "to" : "0x095e7baea6a6c7c4c2dfeb977efac326af552d87",
                        "v" : "0x1c",
                        "value" : "0x77b5363e"
                    }
                ],
                "uncleHeaders" : [
                ]
            }
        ],
        "genesisBlockHeader" : {
            "bloom" : "0x00000000000000000000000000000000000000000000000000000000000000000000000000000000000000000000000000000000000000000000000000000000000000000000000000000000000000000000000000000000000000000000000000000000000000000000000000000000000000000000000000000000000000000000000000000000000000000000000000000000000000000000000000000000000000000000000000000000000000000000000000000000000000000000000000000000000000000000000000000000000000000000000000000000000000000000000000000000000000000000000000000000000000000000000000000000",
            "coinbase" : "0x945304eb96065b2a98b57a48a06ae28d285a71b5",
            "difficulty" : "0x020000",
            "extraData" : "0x00",
            "gasLimit" : "0x7fffffff",
            "gasUsed" : "0x00",
            "hash" : "0xcbfaa9c7d84d0eceb54c96ce5d68b04e383e420f44969681a99ce3637ca68836",
            "mixHash" : "0x0000000000000000000000000000000000000000000000000000000000000000",
            "nonce" : "0x0000000000000000",
            "number" : "0x00",
            "parentHash" : "0x0000000000000000000000000000000000000000000000000000000000000000",
            "receiptTrie" : "0x56e81f171bcc55a6ff8345e692c0f86e5b48e01b996cadc001622fb5e363b421",
            "stateRoot" : "0xb1c3777757993e0bae9a1cacd9ca97e8a2f899b2e01725dfc302a2fc0cf69374",
            "timestamp" : "0x00",
            "transactionsTrie" : "0x56e81f171bcc55a6ff8345e692c0f86e5b48e01b996cadc001622fb5e363b421",
            "uncleHash" : "0x1dcc4de8dec75d7aab85b567b6ccd41ad312451b948a7413f0a142fd40d49347"
        },
        "genesisRLP" : "0xf901f9f901f4a00000000000000000000000000000000000000000000000000000000000000000a01dcc4de8dec75d7aab85b567b6ccd41ad312451b948a7413f0a142fd40d4934794945304eb96065b2a98b57a48a06ae28d285a71b5a0b1c3777757993e0bae9a1cacd9ca97e8a2f899b2e01725dfc302a2fc0cf69374a056e81f171bcc55a6ff8345e692c0f86e5b48e01b996cadc001622fb5e363b421a056e81f171bcc55a6ff8345e692c0f86e5b48e01b996cadc001622fb5e363b421b90100000000000000000000000000000000000000000000000000000000000000000000000000000000000000000000000000000000000000000000000000000000000000000000000000000000000000000000000000000000000000000000000000000000000000000000000000000000000000000000000000000000000000000000000000000000000000000000000000000000000000000000000000000000000000000000000000000000000000000000000000000000000000000000000000000000000000000000000000000000000000000000000000000000000000000000000000000000000000000000000000000000000000000000000000000000008302000080847fffffff808000a00000000000000000000000000000000000000000000000000000000000000000880000000000000000c0c0",
        "lastblockhash" : "0xea6673cc7590bb11e41bd09a6bf891290a0d29cde9046daf62e66d1dd82b12ad",
        "network" : "Istanbul",
        "postState" : {
            "0x095e7baea6a6c7c4c2dfeb977efac326af552d87" : {
                "balance" : "0x00",
                "code" : "0x7ffffffffffffffffffffffffffffffffffffffffffffffffffffffffffffffffe817fffffffffffffffffffffffffffffffffffffffffffffffffffffffffffffffff42057f000000000000000000000000ffffffffffffffffffffffffffffffffffffffff517f000000000000000000000001000000000000000000000000000000000000000065715460005155",
                "nonce" : "0x00",
                "storage" : {
                }
            },
            "0x945304eb96065b2a98b57a48a06ae28d285a71b5" : {
                "balance" : "0x1bc16d683497611c",
                "code" : "0x6000355415600957005b60203560003555",
                "nonce" : "0x00",
                "storage" : {
                }
            },
            "0xa94f5374fce5edbc8e2a8697c15331677e6ebf0b" : {
                "balance" : "0x0de0b6b2c1949f12",
                "code" : "0x",
                "nonce" : "0x01",
                "storage" : {
                }
            }
        },
        "pre" : {
            "0x095e7baea6a6c7c4c2dfeb977efac326af552d87" : {
                "balance" : "0x00",
                "code" : "0x7ffffffffffffffffffffffffffffffffffffffffffffffffffffffffffffffffe817fffffffffffffffffffffffffffffffffffffffffffffffffffffffffffffffff42057f000000000000000000000000ffffffffffffffffffffffffffffffffffffffff517f000000000000000000000001000000000000000000000000000000000000000065715460005155",
                "nonce" : "0x00",
                "storage" : {
                }
            },
            "0x945304eb96065b2a98b57a48a06ae28d285a71b5" : {
                "balance" : "0x2e",
                "code" : "0x6000355415600957005b60203560003555",
                "nonce" : "0x00",
                "storage" : {
                }
            },
            "0xa94f5374fce5edbc8e2a8697c15331677e6ebf0b" : {
                "balance" : "0x0de0b6b3a7640000",
                "code" : "0x",
                "nonce" : "0x00",
                "storage" : {
                }
            }
        },
        "sealEngine" : "NoProof"
    },
    "randomStatetest233_d0g0v0_London" : {
        "_info" : {
            "comment" : "",
            "filling-rpc-server" : "evm version 1.11.0-unstable-dbd6c132-20230214",
            "filling-tool-version" : "retesteth-0.2.3-postmerge+commit.5691d0b9.Linux.g++",
            "generatedTestHash" : "9a8bf2ae8cca0fa97dc390c748963697dca1008d808cd502ed2024e5dc168340",
            "lllcversion" : "Version: 0.5.14-develop.2023.2.14+commit.a096d7a9.Linux.g++",
            "solidity" : "Version: 0.8.5+commit.a4f2e591.Linux.g++",
            "source" : "src/GeneralStateTestsFiller/stRandom/randomStatetest233Filler.json",
            "sourceHash" : "cc2d112dbcb8e9db1ae95a4d5d9f78009304d8a1597f7aeb38893972192827eb"
        },
        "blocks" : [
            {
                "blockHeader" : {
                    "baseFeePerGas" : "0x0a",
                    "bloom" : "0x00000000000000000000000000000000000000000000000000000000000000000000000000000000000000000000000000000000000000000000000000000000000000000000000000000000000000000000000000000000000000000000000000000000000000000000000000000000000000000000000000000000000000000000000000000000000000000000000000000000000000000000000000000000000000000000000000000000000000000000000000000000000000000000000000000000000000000000000000000000000000000000000000000000000000000000000000000000000000000000000000000000000000000000000000000000",
                    "coinbase" : "0x945304eb96065b2a98b57a48a06ae28d285a71b5",
                    "difficulty" : "0x020000",
                    "extraData" : "0x00",
                    "gasLimit" : "0x7fffffff",
                    "gasUsed" : "0x16fb234b",
                    "hash" : "0x2f82044e02864e1269cdcc490cb2803a6430d39097924300a8f5e393c985b9e8",
                    "mixHash" : "0x0000000000000000000000000000000000000000000000000000000000000000",
                    "nonce" : "0x0000000000000000",
                    "number" : "0x01",
                    "parentHash" : "0xbd48b77b1bda853030e5ff114caa2e9b780f513cdb4b1041aeb1ec3174834a63",
                    "receiptTrie" : "0xb634e6e9feade9b30a2b557a84c030a0b8410a57fd1798a16e3e4473ca33a53f",
                    "stateRoot" : "0x5d5014a62bbfd61fbdf7d10f92699feff2f47429f0d127180140a10ded9b2832",
                    "timestamp" : "0x03e8",
                    "transactionsTrie" : "0xe0eb1cc24a82034d166e7f9ce397eaa128520dcaa531a654bc5a34ffcbb01072",
                    "uncleHash" : "0x1dcc4de8dec75d7aab85b567b6ccd41ad312451b948a7413f0a142fd40d49347"
                },
                "rlp" : "0xf902f4f901fba0bd48b77b1bda853030e5ff114caa2e9b780f513cdb4b1041aeb1ec3174834a63a01dcc4de8dec75d7aab85b567b6ccd41ad312451b948a7413f0a142fd40d4934794945304eb96065b2a98b57a48a06ae28d285a71b5a05d5014a62bbfd61fbdf7d10f92699feff2f47429f0d127180140a10ded9b2832a0e0eb1cc24a82034d166e7f9ce397eaa128520dcaa531a654bc5a34ffcbb01072a0b634e6e9feade9b30a2b557a84c030a0b8410a57fd1798a16e3e4473ca33a53fb90100000000000000000000000000000000000000000000000000000000000000000000000000000000000000000000000000000000000000000000000000000000000000000000000000000000000000000000000000000000000000000000000000000000000000000000000000000000000000000000000000000000000000000000000000000000000000000000000000000000000000000000000000000000000000000000000000000000000000000000000000000000000000000000000000000000000000000000000000000000000000000000000000000000000000000000000000000000000000000000000000000000000000000000000000000000008302000001847fffffff8416fb234b8203e800a000000000000000000000000000000000000000000000000000000000000000008800000000000000000af8f3f8f1800a8416fb234b94095e7baea6a6c7c4c2dfeb977efac326af552d878477b5363eb88b7ffffffffffffffffffffffffffffffffffffffffffffffffffffffffffffffffe817fffffffffffffffffffffffffffffffffffffffffffffffffffffffffffffffff42057f000000000000000000000000ffffffffffffffffffffffffffffffffffffffff517f00000000000000000000000100000000000000000000000000000000000000006571541ca046771a9db324f2b0300c5ef60792d520fa2f44ed965c8c557659dcdddc29e006a02bd5fdf5e29c11dcc531c94dc47b1306928488507b906b2f650a469108ae1fe8c0",
                "transactions" : [
                    {
                        "data" : "0x7ffffffffffffffffffffffffffffffffffffffffffffffffffffffffffffffffe817fffffffffffffffffffffffffffffffffffffffffffffffffffffffffffffffff42057f000000000000000000000000ffffffffffffffffffffffffffffffffffffffff517f0000000000000000000000010000000000000000000000000000000000000000657154",
                        "gasLimit" : "0x16fb234b",
                        "gasPrice" : "0x0a",
                        "nonce" : "0x00",
                        "r" : "0x46771a9db324f2b0300c5ef60792d520fa2f44ed965c8c557659dcdddc29e006",
                        "s" : "0x2bd5fdf5e29c11dcc531c94dc47b1306928488507b906b2f650a469108ae1fe8",
                        "sender" : "0xa94f5374fce5edbc8e2a8697c15331677e6ebf0b",
                        "to" : "0x095e7baea6a6c7c4c2dfeb977efac326af552d87",
                        "v" : "0x1c",
                        "value" : "0x77b5363e"
                    }
                ],
                "uncleHeaders" : [
                ]
            }
        ],
        "genesisBlockHeader" : {
            "baseFeePerGas" : "0x0b",
            "bloom" : "0x00000000000000000000000000000000000000000000000000000000000000000000000000000000000000000000000000000000000000000000000000000000000000000000000000000000000000000000000000000000000000000000000000000000000000000000000000000000000000000000000000000000000000000000000000000000000000000000000000000000000000000000000000000000000000000000000000000000000000000000000000000000000000000000000000000000000000000000000000000000000000000000000000000000000000000000000000000000000000000000000000000000000000000000000000000000",
            "coinbase" : "0x945304eb96065b2a98b57a48a06ae28d285a71b5",
            "difficulty" : "0x020000",
            "extraData" : "0x00",
            "gasLimit" : "0x7fffffff",
            "gasUsed" : "0x00",
            "hash" : "0xbd48b77b1bda853030e5ff114caa2e9b780f513cdb4b1041aeb1ec3174834a63",
            "mixHash" : "0x0000000000000000000000000000000000000000000000000000000000000000",
            "nonce" : "0x0000000000000000",
            "number" : "0x00",
            "parentHash" : "0x0000000000000000000000000000000000000000000000000000000000000000",
            "receiptTrie" : "0x56e81f171bcc55a6ff8345e692c0f86e5b48e01b996cadc001622fb5e363b421",
            "stateRoot" : "0xb1c3777757993e0bae9a1cacd9ca97e8a2f899b2e01725dfc302a2fc0cf69374",
            "timestamp" : "0x00",
            "transactionsTrie" : "0x56e81f171bcc55a6ff8345e692c0f86e5b48e01b996cadc001622fb5e363b421",
            "uncleHash" : "0x1dcc4de8dec75d7aab85b567b6ccd41ad312451b948a7413f0a142fd40d49347"
        },
        "genesisRLP" : "0xf901faf901f5a00000000000000000000000000000000000000000000000000000000000000000a01dcc4de8dec75d7aab85b567b6ccd41ad312451b948a7413f0a142fd40d4934794945304eb96065b2a98b57a48a06ae28d285a71b5a0b1c3777757993e0bae9a1cacd9ca97e8a2f899b2e01725dfc302a2fc0cf69374a056e81f171bcc55a6ff8345e692c0f86e5b48e01b996cadc001622fb5e363b421a056e81f171bcc55a6ff8345e692c0f86e5b48e01b996cadc001622fb5e363b421b90100000000000000000000000000000000000000000000000000000000000000000000000000000000000000000000000000000000000000000000000000000000000000000000000000000000000000000000000000000000000000000000000000000000000000000000000000000000000000000000000000000000000000000000000000000000000000000000000000000000000000000000000000000000000000000000000000000000000000000000000000000000000000000000000000000000000000000000000000000000000000000000000000000000000000000000000000000000000000000000000000000000000000000000000000000000008302000080847fffffff808000a000000000000000000000000000000000000000000000000000000000000000008800000000000000000bc0c0",
        "lastblockhash" : "0x2f82044e02864e1269cdcc490cb2803a6430d39097924300a8f5e393c985b9e8",
        "network" : "London",
        "postState" : {
            "0x095e7baea6a6c7c4c2dfeb977efac326af552d87" : {
                "balance" : "0x00",
                "code" : "0x7ffffffffffffffffffffffffffffffffffffffffffffffffffffffffffffffffe817fffffffffffffffffffffffffffffffffffffffffffffffffffffffffffffffff42057f000000000000000000000000ffffffffffffffffffffffffffffffffffffffff517f000000000000000000000001000000000000000000000000000000000000000065715460005155",
                "nonce" : "0x00",
                "storage" : {
                }
            },
            "0x945304eb96065b2a98b57a48a06ae28d285a71b5" : {
                "balance" : "0x1bc16d674ec8002e",
                "code" : "0x6000355415600957005b60203560003555",
                "nonce" : "0x00",
                "storage" : {
                }
            },
            "0xa94f5374fce5edbc8e2a8697c15331677e6ebf0b" : {
                "balance" : "0x0de0b6b2c1949f12",
                "code" : "0x",
                "nonce" : "0x01",
                "storage" : {
                }
            }
        },
        "pre" : {
            "0x095e7baea6a6c7c4c2dfeb977efac326af552d87" : {
                "balance" : "0x00",
                "code" : "0x7ffffffffffffffffffffffffffffffffffffffffffffffffffffffffffffffffe817fffffffffffffffffffffffffffffffffffffffffffffffffffffffffffffffff42057f000000000000000000000000ffffffffffffffffffffffffffffffffffffffff517f000000000000000000000001000000000000000000000000000000000000000065715460005155",
                "nonce" : "0x00",
                "storage" : {
                }
            },
            "0x945304eb96065b2a98b57a48a06ae28d285a71b5" : {
                "balance" : "0x2e",
                "code" : "0x6000355415600957005b60203560003555",
                "nonce" : "0x00",
                "storage" : {
                }
            },
            "0xa94f5374fce5edbc8e2a8697c15331677e6ebf0b" : {
                "balance" : "0x0de0b6b3a7640000",
                "code" : "0x",
                "nonce" : "0x00",
                "storage" : {
                }
            }
        },
        "sealEngine" : "NoProof"
    },
    "randomStatetest233_d0g0v0_Merge" : {
        "_info" : {
            "comment" : "",
            "filling-rpc-server" : "evm version 1.11.0-unstable-dbd6c132-20230214",
            "filling-tool-version" : "retesteth-0.2.3-postmerge+commit.5691d0b9.Linux.g++",
            "generatedTestHash" : "6fd4292c5d3c8ff082c82b2336285ddbbe61dd24c234b2b5d05d90b3f830b89b",
            "lllcversion" : "Version: 0.5.14-develop.2023.2.14+commit.a096d7a9.Linux.g++",
            "solidity" : "Version: 0.8.5+commit.a4f2e591.Linux.g++",
            "source" : "src/GeneralStateTestsFiller/stRandom/randomStatetest233Filler.json",
            "sourceHash" : "cc2d112dbcb8e9db1ae95a4d5d9f78009304d8a1597f7aeb38893972192827eb"
        },
        "blocks" : [
            {
                "blockHeader" : {
                    "baseFeePerGas" : "0x0a",
                    "bloom" : "0x00000000000000000000000000000000000000000000000000000000000000000000000000000000000000000000000000000000000000000000000000000000000000000000000000000000000000000000000000000000000000000000000000000000000000000000000000000000000000000000000000000000000000000000000000000000000000000000000000000000000000000000000000000000000000000000000000000000000000000000000000000000000000000000000000000000000000000000000000000000000000000000000000000000000000000000000000000000000000000000000000000000000000000000000000000000",
                    "coinbase" : "0x945304eb96065b2a98b57a48a06ae28d285a71b5",
                    "difficulty" : "0x00",
                    "extraData" : "0x00",
                    "gasLimit" : "0x7fffffff",
                    "gasUsed" : "0x16fb234b",
                    "hash" : "0x9c8cddf107324aad6642b19f9da8df044b7c0877ec1aaa50dbb3f6cf08af6e22",
                    "mixHash" : "0x0000000000000000000000000000000000000000000000000000000000020000",
                    "nonce" : "0x0000000000000000",
                    "number" : "0x01",
                    "parentHash" : "0x6890904498170b25336244a623613d29d104d1e7fe0bdbaa6e799ec0766dc4ae",
                    "receiptTrie" : "0xb634e6e9feade9b30a2b557a84c030a0b8410a57fd1798a16e3e4473ca33a53f",
                    "stateRoot" : "0x7a9ff6af5b40cbf669b2c08a1fb07a09f2b8495358f913e8da7fa402eb1a2111",
                    "timestamp" : "0x03e8",
                    "transactionsTrie" : "0xe0eb1cc24a82034d166e7f9ce397eaa128520dcaa531a654bc5a34ffcbb01072",
                    "uncleHash" : "0x1dcc4de8dec75d7aab85b567b6ccd41ad312451b948a7413f0a142fd40d49347"
                },
                "rlp" : "0xf902f1f901f8a06890904498170b25336244a623613d29d104d1e7fe0bdbaa6e799ec0766dc4aea01dcc4de8dec75d7aab85b567b6ccd41ad312451b948a7413f0a142fd40d4934794945304eb96065b2a98b57a48a06ae28d285a71b5a07a9ff6af5b40cbf669b2c08a1fb07a09f2b8495358f913e8da7fa402eb1a2111a0e0eb1cc24a82034d166e7f9ce397eaa128520dcaa531a654bc5a34ffcbb01072a0b634e6e9feade9b30a2b557a84c030a0b8410a57fd1798a16e3e4473ca33a53fb90100000000000000000000000000000000000000000000000000000000000000000000000000000000000000000000000000000000000000000000000000000000000000000000000000000000000000000000000000000000000000000000000000000000000000000000000000000000000000000000000000000000000000000000000000000000000000000000000000000000000000000000000000000000000000000000000000000000000000000000000000000000000000000000000000000000000000000000000000000000000000000000000000000000000000000000000000000000000000000000000000000000000000000000000000000000008001847fffffff8416fb234b8203e800a000000000000000000000000000000000000000000000000000000000000200008800000000000000000af8f3f8f1800a8416fb234b94095e7baea6a6c7c4c2dfeb977efac326af552d878477b5363eb88b7ffffffffffffffffffffffffffffffffffffffffffffffffffffffffffffffffe817fffffffffffffffffffffffffffffffffffffffffffffffffffffffffffffffff42057f000000000000000000000000ffffffffffffffffffffffffffffffffffffffff517f00000000000000000000000100000000000000000000000000000000000000006571541ca046771a9db324f2b0300c5ef60792d520fa2f44ed965c8c557659dcdddc29e006a02bd5fdf5e29c11dcc531c94dc47b1306928488507b906b2f650a469108ae1fe8c0",
                "transactions" : [
                    {
                        "data" : "0x7ffffffffffffffffffffffffffffffffffffffffffffffffffffffffffffffffe817fffffffffffffffffffffffffffffffffffffffffffffffffffffffffffffffff42057f000000000000000000000000ffffffffffffffffffffffffffffffffffffffff517f0000000000000000000000010000000000000000000000000000000000000000657154",
                        "gasLimit" : "0x16fb234b",
                        "gasPrice" : "0x0a",
                        "nonce" : "0x00",
                        "r" : "0x46771a9db324f2b0300c5ef60792d520fa2f44ed965c8c557659dcdddc29e006",
                        "s" : "0x2bd5fdf5e29c11dcc531c94dc47b1306928488507b906b2f650a469108ae1fe8",
                        "sender" : "0xa94f5374fce5edbc8e2a8697c15331677e6ebf0b",
                        "to" : "0x095e7baea6a6c7c4c2dfeb977efac326af552d87",
                        "v" : "0x1c",
                        "value" : "0x77b5363e"
                    }
                ],
                "uncleHeaders" : [
                ]
            }
        ],
        "genesisBlockHeader" : {
            "baseFeePerGas" : "0x0b",
            "bloom" : "0x00000000000000000000000000000000000000000000000000000000000000000000000000000000000000000000000000000000000000000000000000000000000000000000000000000000000000000000000000000000000000000000000000000000000000000000000000000000000000000000000000000000000000000000000000000000000000000000000000000000000000000000000000000000000000000000000000000000000000000000000000000000000000000000000000000000000000000000000000000000000000000000000000000000000000000000000000000000000000000000000000000000000000000000000000000000",
            "coinbase" : "0x945304eb96065b2a98b57a48a06ae28d285a71b5",
            "difficulty" : "0x00",
            "extraData" : "0x00",
            "gasLimit" : "0x7fffffff",
            "gasUsed" : "0x00",
            "hash" : "0x6890904498170b25336244a623613d29d104d1e7fe0bdbaa6e799ec0766dc4ae",
            "mixHash" : "0x0000000000000000000000000000000000000000000000000000000000020000",
            "nonce" : "0x0000000000000000",
            "number" : "0x00",
            "parentHash" : "0x0000000000000000000000000000000000000000000000000000000000000000",
            "receiptTrie" : "0x56e81f171bcc55a6ff8345e692c0f86e5b48e01b996cadc001622fb5e363b421",
            "stateRoot" : "0xb1c3777757993e0bae9a1cacd9ca97e8a2f899b2e01725dfc302a2fc0cf69374",
            "timestamp" : "0x00",
            "transactionsTrie" : "0x56e81f171bcc55a6ff8345e692c0f86e5b48e01b996cadc001622fb5e363b421",
            "uncleHash" : "0x1dcc4de8dec75d7aab85b567b6ccd41ad312451b948a7413f0a142fd40d49347"
        },
        "genesisRLP" : "0xf901f7f901f2a00000000000000000000000000000000000000000000000000000000000000000a01dcc4de8dec75d7aab85b567b6ccd41ad312451b948a7413f0a142fd40d4934794945304eb96065b2a98b57a48a06ae28d285a71b5a0b1c3777757993e0bae9a1cacd9ca97e8a2f899b2e01725dfc302a2fc0cf69374a056e81f171bcc55a6ff8345e692c0f86e5b48e01b996cadc001622fb5e363b421a056e81f171bcc55a6ff8345e692c0f86e5b48e01b996cadc001622fb5e363b421b90100000000000000000000000000000000000000000000000000000000000000000000000000000000000000000000000000000000000000000000000000000000000000000000000000000000000000000000000000000000000000000000000000000000000000000000000000000000000000000000000000000000000000000000000000000000000000000000000000000000000000000000000000000000000000000000000000000000000000000000000000000000000000000000000000000000000000000000000000000000000000000000000000000000000000000000000000000000000000000000000000000000000000000000000000000000008080847fffffff808000a000000000000000000000000000000000000000000000000000000000000200008800000000000000000bc0c0",
        "lastblockhash" : "0x9c8cddf107324aad6642b19f9da8df044b7c0877ec1aaa50dbb3f6cf08af6e22",
        "network" : "Merge",
        "postState" : {
            "0x095e7baea6a6c7c4c2dfeb977efac326af552d87" : {
                "balance" : "0x00",
                "code" : "0x7ffffffffffffffffffffffffffffffffffffffffffffffffffffffffffffffffe817fffffffffffffffffffffffffffffffffffffffffffffffffffffffffffffffff42057f000000000000000000000000ffffffffffffffffffffffffffffffffffffffff517f000000000000000000000001000000000000000000000000000000000000000065715460005155",
                "nonce" : "0x00",
                "storage" : {
                }
            },
            "0x945304eb96065b2a98b57a48a06ae28d285a71b5" : {
                "balance" : "0x2e",
                "code" : "0x6000355415600957005b60203560003555",
                "nonce" : "0x00",
                "storage" : {
                }
            },
            "0xa94f5374fce5edbc8e2a8697c15331677e6ebf0b" : {
                "balance" : "0x0de0b6b2c1949f12",
                "code" : "0x",
                "nonce" : "0x01",
                "storage" : {
                }
            }
        },
        "pre" : {
            "0x095e7baea6a6c7c4c2dfeb977efac326af552d87" : {
                "balance" : "0x00",
                "code" : "0x7ffffffffffffffffffffffffffffffffffffffffffffffffffffffffffffffffe817fffffffffffffffffffffffffffffffffffffffffffffffffffffffffffffffff42057f000000000000000000000000ffffffffffffffffffffffffffffffffffffffff517f000000000000000000000001000000000000000000000000000000000000000065715460005155",
                "nonce" : "0x00",
                "storage" : {
                }
            },
            "0x945304eb96065b2a98b57a48a06ae28d285a71b5" : {
                "balance" : "0x2e",
                "code" : "0x6000355415600957005b60203560003555",
                "nonce" : "0x00",
                "storage" : {
                }
            },
            "0xa94f5374fce5edbc8e2a8697c15331677e6ebf0b" : {
                "balance" : "0x0de0b6b3a7640000",
                "code" : "0x",
                "nonce" : "0x00",
                "storage" : {
                }
            }
        },
        "sealEngine" : "NoProof"
    }
}