{
    "doubleSelfdestructTouch_d0g0v0_Berlin" : {
        "_info" : {
            "comment" : "A single contract can execute SELFDESTRUCT multiple times using by being called\nmultiple times. The second and later SELFDESTRUCTs have little effect but can\ntouch some new beneficiary addresses.\n",
            "filling-rpc-server" : "evm version 1.11.0-unstable-2f73f4f0-20230207",
            "filling-tool-version" : "retesteth-0.2.3-postmerge+commit.aa8a0660.Linux.g++",
            "generatedTestHash" : "569cc435ba44ab9d62707990154a122517649cdcd78e85646d73e4231c61ec62",
            "lllcversion" : "Version: 0.5.14-develop.2023.2.7+commit.a096d7a9.Linux.g++",
            "solidity" : "Version: 0.8.5+commit.a4f2e591.Linux.g++",
            "source" : "src/GeneralStateTestsFiller/stSystemOperationsTest/doubleSelfdestructTouchFiller.yml",
            "sourceHash" : "bb18f14e2abc20529c359ff3dfe5dd632da90015dc83e02b2d141c3d98efbb1a"
        },
        "blocks" : [
            {
                "blockHeader" : {
                    "bloom" : "0x00000000000000000000000000000000000000000000000000000000000000000000000000000000000000000000000000000000000000000000000000000000000000000000000000000000000000000000000000000000000000000000000000000000000000000000000000000000000000000000000000000000000000000000000000000000000000000000000000000000000000000000000000000000000000000000000000000000000000000000000000000000000000000000000000000000000000000000000000000000000000000000000000000000000000000000000000000000000000000000000000000000000000000000000000000000",
                    "coinbase" : "0x2adc25665018aa1fe0e6bc666dac8fc2697ff9ba",
                    "difficulty" : "0x020000",
                    "extraData" : "0x00",
                    "gasLimit" : "0x01c9c380",
                    "gasUsed" : "0x91c8",
                    "hash" : "0xd27f2a08c59197a60ff2c9712359e667799b757f7fc1c51fe30c4788e27feda0",
                    "mixHash" : "0x0000000000000000000000000000000000000000000000000000000000000000",
                    "nonce" : "0x0000000000000000",
                    "number" : "0x01",
                    "parentHash" : "0x07feca03284e2f8d0d659129f6db562c40a112f834afd149aec655b6f7fff58c",
                    "receiptTrie" : "0x731b06e07661d088be1cdfa0b219736aad2c7afd63190e4ac488fee3c5e4389c",
                    "stateRoot" : "0x3c91a09d0643df7643145ec08da0611635052e03579bdeccfc75858b31eef5f0",
                    "timestamp" : "0x03e7",
                    "transactionsTrie" : "0xfff05990ef72e0d81327f8ee0e8a54c451a032c7e23cabfc74e3a587f77058c8",
                    "uncleHash" : "0x1dcc4de8dec75d7aab85b567b6ccd41ad312451b948a7413f0a142fd40d49347"
                },
                "rlp" : "0xf90260f901f8a007feca03284e2f8d0d659129f6db562c40a112f834afd149aec655b6f7fff58ca01dcc4de8dec75d7aab85b567b6ccd41ad312451b948a7413f0a142fd40d49347942adc25665018aa1fe0e6bc666dac8fc2697ff9baa03c91a09d0643df7643145ec08da0611635052e03579bdeccfc75858b31eef5f0a0fff05990ef72e0d81327f8ee0e8a54c451a032c7e23cabfc74e3a587f77058c8a0731b06e07661d088be1cdfa0b219736aad2c7afd63190e4ac488fee3c5e4389cb901000000000000000000000000000000000000000000000000000000000000000000000000000000000000000000000000000000000000000000000000000000000000000000000000000000000000000000000000000000000000000000000000000000000000000000000000000000000000000000000000000000000000000000000000000000000000000000000000000000000000000000000000000000000000000000000000000000000000000000000000000000000000000000000000000000000000000000000000000000000000000000000000000000000000000000000000000000000000000000000000000000000000000000000000000000000083020000018401c9c3808291c88203e700a00000000000000000000000000000000000000000000000000000000000000000880000000000000000f862f860800a8398968094000000000000000000000000000000000000c0de80801ca01cddd1fa480d8833a1c1922f13d448a373a04424d353cb58733883e209f492b0a03697dd551832c88b4e983e8508261664b37da53d32239d7c3b9c5a5cfa68b7a5c0",
                "transactions" : [
                    {
                        "data" : "0x",
                        "gasLimit" : "0x989680",
                        "gasPrice" : "0x0a",
                        "nonce" : "0x00",
                        "r" : "0x1cddd1fa480d8833a1c1922f13d448a373a04424d353cb58733883e209f492b0",
                        "s" : "0x3697dd551832c88b4e983e8508261664b37da53d32239d7c3b9c5a5cfa68b7a5",
                        "sender" : "0xa94f5374fce5edbc8e2a8697c15331677e6ebf0b",
                        "to" : "0x000000000000000000000000000000000000c0de",
                        "v" : "0x1c",
                        "value" : "0x00"
                    }
                ],
                "uncleHeaders" : [
                ]
            }
        ],
        "genesisBlockHeader" : {
            "bloom" : "0x00000000000000000000000000000000000000000000000000000000000000000000000000000000000000000000000000000000000000000000000000000000000000000000000000000000000000000000000000000000000000000000000000000000000000000000000000000000000000000000000000000000000000000000000000000000000000000000000000000000000000000000000000000000000000000000000000000000000000000000000000000000000000000000000000000000000000000000000000000000000000000000000000000000000000000000000000000000000000000000000000000000000000000000000000000000",
            "coinbase" : "0x2adc25665018aa1fe0e6bc666dac8fc2697ff9ba",
            "difficulty" : "0x01",
            "extraData" : "0x00",
            "gasLimit" : "0x01c9c380",
            "gasUsed" : "0x00",
            "hash" : "0x07feca03284e2f8d0d659129f6db562c40a112f834afd149aec655b6f7fff58c",
            "mixHash" : "0x0000000000000000000000000000000000000000000000000000000000000000",
            "nonce" : "0x0000000000000000",
            "number" : "0x00",
            "parentHash" : "0x0000000000000000000000000000000000000000000000000000000000000000",
            "receiptTrie" : "0x56e81f171bcc55a6ff8345e692c0f86e5b48e01b996cadc001622fb5e363b421",
            "stateRoot" : "0x5c605370cd1f759deebf4668c6ca7cf2d544fc120a39b9e6446ba994392ec9e9",
            "timestamp" : "0x00",
            "transactionsTrie" : "0x56e81f171bcc55a6ff8345e692c0f86e5b48e01b996cadc001622fb5e363b421",
            "uncleHash" : "0x1dcc4de8dec75d7aab85b567b6ccd41ad312451b948a7413f0a142fd40d49347"
        },
        "genesisRLP" : "0xf901f6f901f1a00000000000000000000000000000000000000000000000000000000000000000a01dcc4de8dec75d7aab85b567b6ccd41ad312451b948a7413f0a142fd40d49347942adc25665018aa1fe0e6bc666dac8fc2697ff9baa05c605370cd1f759deebf4668c6ca7cf2d544fc120a39b9e6446ba994392ec9e9a056e81f171bcc55a6ff8345e692c0f86e5b48e01b996cadc001622fb5e363b421a056e81f171bcc55a6ff8345e692c0f86e5b48e01b996cadc001622fb5e363b421b901000000000000000000000000000000000000000000000000000000000000000000000000000000000000000000000000000000000000000000000000000000000000000000000000000000000000000000000000000000000000000000000000000000000000000000000000000000000000000000000000000000000000000000000000000000000000000000000000000000000000000000000000000000000000000000000000000000000000000000000000000000000000000000000000000000000000000000000000000000000000000000000000000000000000000000000000000000000000000000000000000000000000000000000000000000000001808401c9c380808000a00000000000000000000000000000000000000000000000000000000000000000880000000000000000c0c0",
        "lastblockhash" : "0xd27f2a08c59197a60ff2c9712359e667799b757f7fc1c51fe30c4788e27feda0",
        "network" : "Berlin",
        "postState" : {
            "0x000000000000000000000000000000000000c0de" : {
                "balance" : "0x00",
                "code" : "0x348060011c60006000600060008461dead62011170f181830360006000600060008461dead62011170f15050505050",
                "nonce" : "0x00",
                "storage" : {
                }
            },
            "0x2adc25665018aa1fe0e6bc666dac8fc2697ff9ba" : {
                "balance" : "0x1bc16d674ecdb1d0",
                "code" : "0x",
                "nonce" : "0x00",
                "storage" : {
                }
            },
            "0xa94f5374fce5edbc8e2a8697c15331677e6ebf0b" : {
                "balance" : "0x05f02f32",
                "code" : "0x",
                "nonce" : "0x01",
                "storage" : {
                }
            }
        },
        "pre" : {
            "0x000000000000000000000000000000000000c0de" : {
                "balance" : "0x00",
                "code" : "0x348060011c60006000600060008461dead62011170f181830360006000600060008461dead62011170f15050505050",
                "nonce" : "0x00",
                "storage" : {
                }
            },
            "0x000000000000000000000000000000000000dead" : {
                "balance" : "0x00",
                "code" : "0x600054600181016000558062e4970101ff50",
                "nonce" : "0x00",
                "storage" : {
                }
            },
            "0x0000000000000000000000000000000000e49701" : {
                "balance" : "0x00",
                "code" : "0x",
                "nonce" : "0x00",
                "storage" : {
                }
            },
            "0x0000000000000000000000000000000000e49702" : {
                "balance" : "0x00",
                "code" : "0x",
                "nonce" : "0x00",
                "storage" : {
                }
            },
            "0xa94f5374fce5edbc8e2a8697c15331677e6ebf0b" : {
                "balance" : "0x05f5e102",
                "code" : "0x",
                "nonce" : "0x00",
                "storage" : {
                }
            }
        },
        "sealEngine" : "NoProof"
    },
    "doubleSelfdestructTouch_d0g0v1_Berlin" : {
        "_info" : {
            "comment" : "A single contract can execute SELFDESTRUCT multiple times using by being called\nmultiple times. The second and later SELFDESTRUCTs have little effect but can\ntouch some new beneficiary addresses.\n",
            "filling-rpc-server" : "evm version 1.11.0-unstable-2f73f4f0-20230207",
            "filling-tool-version" : "retesteth-0.2.3-postmerge+commit.aa8a0660.Linux.g++",
            "generatedTestHash" : "0da6ef20d11d4c04cf80ee3a16c797893ea86e6c2f115eb1733471a3b177c3ce",
            "lllcversion" : "Version: 0.5.14-develop.2023.2.7+commit.a096d7a9.Linux.g++",
            "solidity" : "Version: 0.8.5+commit.a4f2e591.Linux.g++",
            "source" : "src/GeneralStateTestsFiller/stSystemOperationsTest/doubleSelfdestructTouchFiller.yml",
            "sourceHash" : "bb18f14e2abc20529c359ff3dfe5dd632da90015dc83e02b2d141c3d98efbb1a"
        },
        "blocks" : [
            {
                "blockHeader" : {
                    "bloom" : "0x00000000000000000000000000000000000000000000000000000000000000000000000000000000000000000000000000000000000000000000000000000000000000000000000000000000000000000000000000000000000000000000000000000000000000000000000000000000000000000000000000000000000000000000000000000000000000000000000000000000000000000000000000000000000000000000000000000000000000000000000000000000000000000000000000000000000000000000000000000000000000000000000000000000000000000000000000000000000000000000000000000000000000000000000000000000",
                    "coinbase" : "0x2adc25665018aa1fe0e6bc666dac8fc2697ff9ba",
                    "difficulty" : "0x020000",
                    "extraData" : "0x00",
                    "gasLimit" : "0x01c9c380",
                    "gasUsed" : "0x010d9c",
                    "hash" : "0xa8d9ad86c3e9064a4519ebacd4995d47a5c22954a337853fa4eb69679774dc5c",
                    "mixHash" : "0x0000000000000000000000000000000000000000000000000000000000000000",
                    "nonce" : "0x0000000000000000",
                    "number" : "0x01",
                    "parentHash" : "0x07feca03284e2f8d0d659129f6db562c40a112f834afd149aec655b6f7fff58c",
                    "receiptTrie" : "0x9e1d33e32131a988cc76e7e1856e4774c47715c8b3204ce9510cf436bc38e971",
                    "stateRoot" : "0xc1b6366e1cb03a940d7428f084ad1bb774eadda48a0806afea5f09211e37370c",
                    "timestamp" : "0x03e7",
                    "transactionsTrie" : "0x53b496a52b078a7fbb825459edc93192bed43d252f449d4c8c021447bd4504ea",
                    "uncleHash" : "0x1dcc4de8dec75d7aab85b567b6ccd41ad312451b948a7413f0a142fd40d49347"
                },
                "rlp" : "0xf90261f901f9a007feca03284e2f8d0d659129f6db562c40a112f834afd149aec655b6f7fff58ca01dcc4de8dec75d7aab85b567b6ccd41ad312451b948a7413f0a142fd40d49347942adc25665018aa1fe0e6bc666dac8fc2697ff9baa0c1b6366e1cb03a940d7428f084ad1bb774eadda48a0806afea5f09211e37370ca053b496a52b078a7fbb825459edc93192bed43d252f449d4c8c021447bd4504eaa09e1d33e32131a988cc76e7e1856e4774c47715c8b3204ce9510cf436bc38e971b901000000000000000000000000000000000000000000000000000000000000000000000000000000000000000000000000000000000000000000000000000000000000000000000000000000000000000000000000000000000000000000000000000000000000000000000000000000000000000000000000000000000000000000000000000000000000000000000000000000000000000000000000000000000000000000000000000000000000000000000000000000000000000000000000000000000000000000000000000000000000000000000000000000000000000000000000000000000000000000000000000000000000000000000000000000000083020000018401c9c38083010d9c8203e700a00000000000000000000000000000000000000000000000000000000000000000880000000000000000f862f860800a8398968094000000000000000000000000000000000000c0de01801ba0b630c7ad45cb532d85abed8dd322669e988c4f83d831b8e7bb5f5c98ff592639a01ce6b874effb97e10ac1e88473a868028e8683dbe7236b1080bbfd085572b062c0",
                "transactions" : [
                    {
                        "data" : "0x",
                        "gasLimit" : "0x989680",
                        "gasPrice" : "0x0a",
                        "nonce" : "0x00",
                        "r" : "0xb630c7ad45cb532d85abed8dd322669e988c4f83d831b8e7bb5f5c98ff592639",
                        "s" : "0x1ce6b874effb97e10ac1e88473a868028e8683dbe7236b1080bbfd085572b062",
                        "sender" : "0xa94f5374fce5edbc8e2a8697c15331677e6ebf0b",
                        "to" : "0x000000000000000000000000000000000000c0de",
                        "v" : "0x1b",
                        "value" : "0x01"
                    }
                ],
                "uncleHeaders" : [
                ]
            }
        ],
        "genesisBlockHeader" : {
            "bloom" : "0x00000000000000000000000000000000000000000000000000000000000000000000000000000000000000000000000000000000000000000000000000000000000000000000000000000000000000000000000000000000000000000000000000000000000000000000000000000000000000000000000000000000000000000000000000000000000000000000000000000000000000000000000000000000000000000000000000000000000000000000000000000000000000000000000000000000000000000000000000000000000000000000000000000000000000000000000000000000000000000000000000000000000000000000000000000000",
            "coinbase" : "0x2adc25665018aa1fe0e6bc666dac8fc2697ff9ba",
            "difficulty" : "0x01",
            "extraData" : "0x00",
            "gasLimit" : "0x01c9c380",
            "gasUsed" : "0x00",
            "hash" : "0x07feca03284e2f8d0d659129f6db562c40a112f834afd149aec655b6f7fff58c",
            "mixHash" : "0x0000000000000000000000000000000000000000000000000000000000000000",
            "nonce" : "0x0000000000000000",
            "number" : "0x00",
            "parentHash" : "0x0000000000000000000000000000000000000000000000000000000000000000",
            "receiptTrie" : "0x56e81f171bcc55a6ff8345e692c0f86e5b48e01b996cadc001622fb5e363b421",
            "stateRoot" : "0x5c605370cd1f759deebf4668c6ca7cf2d544fc120a39b9e6446ba994392ec9e9",
            "timestamp" : "0x00",
            "transactionsTrie" : "0x56e81f171bcc55a6ff8345e692c0f86e5b48e01b996cadc001622fb5e363b421",
            "uncleHash" : "0x1dcc4de8dec75d7aab85b567b6ccd41ad312451b948a7413f0a142fd40d49347"
        },
        "genesisRLP" : "0xf901f6f901f1a00000000000000000000000000000000000000000000000000000000000000000a01dcc4de8dec75d7aab85b567b6ccd41ad312451b948a7413f0a142fd40d49347942adc25665018aa1fe0e6bc666dac8fc2697ff9baa05c605370cd1f759deebf4668c6ca7cf2d544fc120a39b9e6446ba994392ec9e9a056e81f171bcc55a6ff8345e692c0f86e5b48e01b996cadc001622fb5e363b421a056e81f171bcc55a6ff8345e692c0f86e5b48e01b996cadc001622fb5e363b421b901000000000000000000000000000000000000000000000000000000000000000000000000000000000000000000000000000000000000000000000000000000000000000000000000000000000000000000000000000000000000000000000000000000000000000000000000000000000000000000000000000000000000000000000000000000000000000000000000000000000000000000000000000000000000000000000000000000000000000000000000000000000000000000000000000000000000000000000000000000000000000000000000000000000000000000000000000000000000000000000000000000000000000000000000000000000001808401c9c380808000a00000000000000000000000000000000000000000000000000000000000000000880000000000000000c0c0",
        "lastblockhash" : "0xa8d9ad86c3e9064a4519ebacd4995d47a5c22954a337853fa4eb69679774dc5c",
        "network" : "Berlin",
        "postState" : {
            "0x000000000000000000000000000000000000c0de" : {
                "balance" : "0x00",
                "code" : "0x348060011c60006000600060008461dead62011170f181830360006000600060008461dead62011170f15050505050",
                "nonce" : "0x00",
                "storage" : {
                }
            },
            "0x0000000000000000000000000000000000e49702" : {
                "balance" : "0x01",
                "code" : "0x",
                "nonce" : "0x00",
                "storage" : {
                }
            },
            "0x2adc25665018aa1fe0e6bc666dac8fc2697ff9ba" : {
                "balance" : "0x1bc16d674ed28818",
                "code" : "0x",
                "nonce" : "0x00",
                "storage" : {
                }
            },
            "0xa94f5374fce5edbc8e2a8697c15331677e6ebf0b" : {
                "balance" : "0x05eb58e9",
                "code" : "0x",
                "nonce" : "0x01",
                "storage" : {
                }
            }
        },
        "pre" : {
            "0x000000000000000000000000000000000000c0de" : {
                "balance" : "0x00",
                "code" : "0x348060011c60006000600060008461dead62011170f181830360006000600060008461dead62011170f15050505050",
                "nonce" : "0x00",
                "storage" : {
                }
            },
            "0x000000000000000000000000000000000000dead" : {
                "balance" : "0x00",
                "code" : "0x600054600181016000558062e4970101ff50",
                "nonce" : "0x00",
                "storage" : {
                }
            },
            "0x0000000000000000000000000000000000e49701" : {
                "balance" : "0x00",
                "code" : "0x",
                "nonce" : "0x00",
                "storage" : {
                }
            },
            "0x0000000000000000000000000000000000e49702" : {
                "balance" : "0x00",
                "code" : "0x",
                "nonce" : "0x00",
                "storage" : {
                }
            },
            "0xa94f5374fce5edbc8e2a8697c15331677e6ebf0b" : {
                "balance" : "0x05f5e102",
                "code" : "0x",
                "nonce" : "0x00",
                "storage" : {
                }
            }
        },
        "sealEngine" : "NoProof"
    },
    "doubleSelfdestructTouch_d0g0v2_Berlin" : {
        "_info" : {
            "comment" : "A single contract can execute SELFDESTRUCT multiple times using by being called\nmultiple times. The second and later SELFDESTRUCTs have little effect but can\ntouch some new beneficiary addresses.\n",
            "filling-rpc-server" : "evm version 1.11.0-unstable-2f73f4f0-20230207",
            "filling-tool-version" : "retesteth-0.2.3-postmerge+commit.aa8a0660.Linux.g++",
            "generatedTestHash" : "94ddce319832540c5457af92fe9785bfc03198cace4996d1a7fd510aa6c74f9a",
            "lllcversion" : "Version: 0.5.14-develop.2023.2.7+commit.a096d7a9.Linux.g++",
            "solidity" : "Version: 0.8.5+commit.a4f2e591.Linux.g++",
            "source" : "src/GeneralStateTestsFiller/stSystemOperationsTest/doubleSelfdestructTouchFiller.yml",
            "sourceHash" : "bb18f14e2abc20529c359ff3dfe5dd632da90015dc83e02b2d141c3d98efbb1a"
        },
        "blocks" : [
            {
                "blockHeader" : {
                    "bloom" : "0x00000000000000000000000000000000000000000000000000000000000000000000000000000000000000000000000000000000000000000000000000000000000000000000000000000000000000000000000000000000000000000000000000000000000000000000000000000000000000000000000000000000000000000000000000000000000000000000000000000000000000000000000000000000000000000000000000000000000000000000000000000000000000000000000000000000000000000000000000000000000000000000000000000000000000000000000000000000000000000000000000000000000000000000000000000000",
                    "coinbase" : "0x2adc25665018aa1fe0e6bc666dac8fc2697ff9ba",
                    "difficulty" : "0x020000",
                    "extraData" : "0x00",
                    "gasLimit" : "0x01c9c380",
                    "gasUsed" : "0x018970",
                    "hash" : "0x63dceb09352503fe32db60bab269ebe4b64997ec7455f27d293ce0ef1fd635f6",
                    "mixHash" : "0x0000000000000000000000000000000000000000000000000000000000000000",
                    "nonce" : "0x0000000000000000",
                    "number" : "0x01",
                    "parentHash" : "0x07feca03284e2f8d0d659129f6db562c40a112f834afd149aec655b6f7fff58c",
                    "receiptTrie" : "0x92f70fdb09a67f8381a125a67908d97fc2f6d0813110ce71010d64583104d11d",
                    "stateRoot" : "0x94c42265ef7a906b07eeb1994c4723b8090d8772f8cdedd660970cd9ea42f3c7",
                    "timestamp" : "0x03e7",
                    "transactionsTrie" : "0xb8c6029186ab0f37bc3a87e6f57b80150a3bee3d6e3bcbdcc0459bc2b853616d",
                    "uncleHash" : "0x1dcc4de8dec75d7aab85b567b6ccd41ad312451b948a7413f0a142fd40d49347"
                },
                "rlp" : "0xf90261f901f9a007feca03284e2f8d0d659129f6db562c40a112f834afd149aec655b6f7fff58ca01dcc4de8dec75d7aab85b567b6ccd41ad312451b948a7413f0a142fd40d49347942adc25665018aa1fe0e6bc666dac8fc2697ff9baa094c42265ef7a906b07eeb1994c4723b8090d8772f8cdedd660970cd9ea42f3c7a0b8c6029186ab0f37bc3a87e6f57b80150a3bee3d6e3bcbdcc0459bc2b853616da092f70fdb09a67f8381a125a67908d97fc2f6d0813110ce71010d64583104d11db901000000000000000000000000000000000000000000000000000000000000000000000000000000000000000000000000000000000000000000000000000000000000000000000000000000000000000000000000000000000000000000000000000000000000000000000000000000000000000000000000000000000000000000000000000000000000000000000000000000000000000000000000000000000000000000000000000000000000000000000000000000000000000000000000000000000000000000000000000000000000000000000000000000000000000000000000000000000000000000000000000000000000000000000000000000000083020000018401c9c380830189708203e700a00000000000000000000000000000000000000000000000000000000000000000880000000000000000f862f860800a8398968094000000000000000000000000000000000000c0de02801ba08de3eff308292c26341278d16ef97a70dd68627837f9ef3f8d54453cca94f968a03393ddb781b3c6cc797b361f64be66cff0ef348d3a0c4f91fd7f60701558e3b4c0",
                "transactions" : [
                    {
                        "data" : "0x",
                        "gasLimit" : "0x989680",
                        "gasPrice" : "0x0a",
                        "nonce" : "0x00",
                        "r" : "0x8de3eff308292c26341278d16ef97a70dd68627837f9ef3f8d54453cca94f968",
                        "s" : "0x3393ddb781b3c6cc797b361f64be66cff0ef348d3a0c4f91fd7f60701558e3b4",
                        "sender" : "0xa94f5374fce5edbc8e2a8697c15331677e6ebf0b",
                        "to" : "0x000000000000000000000000000000000000c0de",
                        "v" : "0x1b",
                        "value" : "0x02"
                    }
                ],
                "uncleHeaders" : [
                ]
            }
        ],
        "genesisBlockHeader" : {
            "bloom" : "0x00000000000000000000000000000000000000000000000000000000000000000000000000000000000000000000000000000000000000000000000000000000000000000000000000000000000000000000000000000000000000000000000000000000000000000000000000000000000000000000000000000000000000000000000000000000000000000000000000000000000000000000000000000000000000000000000000000000000000000000000000000000000000000000000000000000000000000000000000000000000000000000000000000000000000000000000000000000000000000000000000000000000000000000000000000000",
            "coinbase" : "0x2adc25665018aa1fe0e6bc666dac8fc2697ff9ba",
            "difficulty" : "0x01",
            "extraData" : "0x00",
            "gasLimit" : "0x01c9c380",
            "gasUsed" : "0x00",
            "hash" : "0x07feca03284e2f8d0d659129f6db562c40a112f834afd149aec655b6f7fff58c",
            "mixHash" : "0x0000000000000000000000000000000000000000000000000000000000000000",
            "nonce" : "0x0000000000000000",
            "number" : "0x00",
            "parentHash" : "0x0000000000000000000000000000000000000000000000000000000000000000",
            "receiptTrie" : "0x56e81f171bcc55a6ff8345e692c0f86e5b48e01b996cadc001622fb5e363b421",
            "stateRoot" : "0x5c605370cd1f759deebf4668c6ca7cf2d544fc120a39b9e6446ba994392ec9e9",
            "timestamp" : "0x00",
            "transactionsTrie" : "0x56e81f171bcc55a6ff8345e692c0f86e5b48e01b996cadc001622fb5e363b421",
            "uncleHash" : "0x1dcc4de8dec75d7aab85b567b6ccd41ad312451b948a7413f0a142fd40d49347"
        },
        "genesisRLP" : "0xf901f6f901f1a00000000000000000000000000000000000000000000000000000000000000000a01dcc4de8dec75d7aab85b567b6ccd41ad312451b948a7413f0a142fd40d49347942adc25665018aa1fe0e6bc666dac8fc2697ff9baa05c605370cd1f759deebf4668c6ca7cf2d544fc120a39b9e6446ba994392ec9e9a056e81f171bcc55a6ff8345e692c0f86e5b48e01b996cadc001622fb5e363b421a056e81f171bcc55a6ff8345e692c0f86e5b48e01b996cadc001622fb5e363b421b901000000000000000000000000000000000000000000000000000000000000000000000000000000000000000000000000000000000000000000000000000000000000000000000000000000000000000000000000000000000000000000000000000000000000000000000000000000000000000000000000000000000000000000000000000000000000000000000000000000000000000000000000000000000000000000000000000000000000000000000000000000000000000000000000000000000000000000000000000000000000000000000000000000000000000000000000000000000000000000000000000000000000000000000000000000000001808401c9c380808000a00000000000000000000000000000000000000000000000000000000000000000880000000000000000c0c0",
        "lastblockhash" : "0x63dceb09352503fe32db60bab269ebe4b64997ec7455f27d293ce0ef1fd635f6",
        "network" : "Berlin",
        "postState" : {
            "0x000000000000000000000000000000000000c0de" : {
                "balance" : "0x00",
                "code" : "0x348060011c60006000600060008461dead62011170f181830360006000600060008461dead62011170f15050505050",
                "nonce" : "0x00",
                "storage" : {
                }
            },
            "0x0000000000000000000000000000000000e49701" : {
                "balance" : "0x01",
                "code" : "0x",
                "nonce" : "0x00",
                "storage" : {
                }
            },
            "0x0000000000000000000000000000000000e49702" : {
                "balance" : "0x01",
                "code" : "0x",
                "nonce" : "0x00",
                "storage" : {
                }
            },
            "0x2adc25665018aa1fe0e6bc666dac8fc2697ff9ba" : {
                "balance" : "0x1bc16d674ed75e60",
                "code" : "0x",
                "nonce" : "0x00",
                "storage" : {
                }
            },
            "0xa94f5374fce5edbc8e2a8697c15331677e6ebf0b" : {
                "balance" : "0x05e682a0",
                "code" : "0x",
                "nonce" : "0x01",
                "storage" : {
                }
            }
        },
        "pre" : {
            "0x000000000000000000000000000000000000c0de" : {
                "balance" : "0x00",
                "code" : "0x348060011c60006000600060008461dead62011170f181830360006000600060008461dead62011170f15050505050",
                "nonce" : "0x00",
                "storage" : {
                }
            },
            "0x000000000000000000000000000000000000dead" : {
                "balance" : "0x00",
                "code" : "0x600054600181016000558062e4970101ff50",
                "nonce" : "0x00",
                "storage" : {
                }
            },
            "0x0000000000000000000000000000000000e49701" : {
                "balance" : "0x00",
                "code" : "0x",
                "nonce" : "0x00",
                "storage" : {
                }
            },
            "0x0000000000000000000000000000000000e49702" : {
                "balance" : "0x00",
                "code" : "0x",
                "nonce" : "0x00",
                "storage" : {
                }
            },
            "0xa94f5374fce5edbc8e2a8697c15331677e6ebf0b" : {
                "balance" : "0x05f5e102",
                "code" : "0x",
                "nonce" : "0x00",
                "storage" : {
                }
            }
        },
        "sealEngine" : "NoProof"
    }
}